:100000000C9480000C94A8000C94A8000C94A800F8
:100010000C94A8000C94A8000C94A8000C94A800C0
:100020000C94A8000C94A8000C94A8000C946516DD
:100030000C94A8000C94A8000C94A8000C94A800A0
:100040000C9457080C94A8000C94180B0C945B0BA0
:100050000C94A8000C94A8000C94A8000C94A80080
:100060000C94BF1B0C94A800300297023902460280
:1000700053026002690272028A022F084D08550776
:100080004D08CB074D083007D7064D084D084D08E1
:100090004D084D08D6054D08BA064D081607000054
:1000A0000007000201000003040600000000000039
:1000B0000000010204081020408001020408102002
:1000C00001020408102004040404040404040202CD
:1000D00002020202030303030303000000002300E3
:1000E0002600290000000000250028002B00000049
:1000F0000000240027002A00A304170C2316471928
:1001000011241FBECFEFD8E0DEBFCDBF11E0A0E0CD
:10011000B1E0E8E3F3E402C005900D92A03EB10720
:10012000D9F724E0A0EEB1E001C01D92A83CB207CF
:10013000E1F710E0C0E0D1E004C02297FE010E9488
:10014000EF1FC83FD107C9F70E94790A0C94EC1C35
:100150000C940000843028F4E82FF0E0EB57FD4FBA
:1001600060830895843008F064C0482F440F440F22
:10017000440F485F4A3108F049E1582F550F550F99
:10018000550F90E071E05417E8F42EEF250F22315F
:10019000B0F4E52FF0E0DF01A859BD4F2C912230DB
:1001A00070F4972BEE0FFF1FEE5CFD4F21E030E067
:1001B000A72FA62311F420E030E031832083770FAE
:1001C0005F5FE1CF81110AC09C7FF8942BB1892F2A
:1001D000809582239623892B8BB92AC08130C9F45C
:1001E0006923F89425B1892F8F7380958223262F58
:1001F0002F73822B85B988B1629566956695637079
:10020000929596959695937090959823692B68B9D9
:100210000FC0823071F49F70F89428B1892F880F35
:10022000880F809582236923660F660F862B88B915
:10023000789408958B30C0F44091890250918A02DD
:1002400021E030E002C0220F331F8A95E2F7672BCE
:1002500029F4209530952423352302C0242B352BF7
:1002600030938A022093890208950F931F93CF93AE
:10027000DF93EB01893170F5082F10E0F801E859A0
:10028000FD4F9081933091F0943021F582508C3065
:10029000D0F4980122503109C901880F991F820FAB
:1002A000931F80529E4F0E9402180DC0833041F070
:1002B0009BEF980F923020F097EF980F933018F43F
:1002C000BE010E941A0AF801EE0FFF1FEE5CFD4FFF
:1002D000D183C083DF91CF911F910F910895DC01ED
:1002E000ED91FC910190F081E02D099466E78BEB94
:1002F00092E00C94CF0E8BEB92E00E94C30F6093C0
:10030000A7027093A8028093A9029093AA028BEB94
:1003100092E00E944E1020E030E048EC52E40E944F
:100320008C1D6093A3027093A4028093A502909306
:10033000A6028EE00E94FD09BC01882777FD80950A
:10034000982F0E942B1E6093AB027093AC02809397
:10035000AD029093AE0220E030E040EA50E40E940B
:10036000291F18163CF481E090E090938C02809352
:100370008B0204C010928C0210928B0220E030E0BD
:1003800040E050E460919F027091A0028091A10230
:100390009091A2020E94881D18163CF081E090E026
:1003A000909392028093910208951092920210927B
:1003B000910208958091950290919602019711F40F
:1003C00061E001C060E085E00E949E098091930297
:1003D00090919402019711F461E001C060E086E021
:1003E0000E949E098091910290919202019711F4CE
:1003F00061E001C060E087E00E949E0980918B026D
:1004000090918C02019711F461E001C060E088E0F6
:100410000E949E0980918F02909190020B9714F098
:1004200061E001C060E089E00E949E0980918D0238
:1004300090918E028739910514F061E001C060E06F
:100440008AE00C949E09CF93DF93EC01FC01329774
:10045000E930F10508F06BC0EC5CFF4F0C94ED1F28
:100460006091A3027091A4028091A5029091A602CE
:100470004DC020E030E048EC52E46091B30270914E
:10048000B4028091B5029091B6023EC020E030E8FF
:1004900048E853E46091B7027091B8028091B902C4
:1004A0009091BA022BC020E030E848E853E4609114
:1004B000AF027091B0028091B1029091B2021EC061
:1004C0006091AB027091AC028091AD029091AE024E
:1004D0001DC060919B0270919C0280919D02909141
:1004E0009E0214C020E030E848E853E4609197028F
:1004F000709198028091990290919A020E94241D15
:1005000020E030E040EA51E40E942D1F0E94F41DDB
:10051000AB010FC020E030E848E853E460919F024F
:100520007091A0028091A1029091A202E7CF40E0D9
:1005300050E06C2F8FE993E00E940A14DF91CF9175
:1005400008951F93CF93DF93162FC82FD0E0FE019D
:10055000EC59FD4F90811923CF57DD4F411103C056
:100560009881911741F0412F50E0682F8FE993E077
:100570000E9423141883DF91CF911F9108958091D9
:100580008502882349F069B18091640268236C7FF9
:1005900040E080E00E94A10280918602882379F0E9
:1005A00063B186B120E4829FC00111246F73682B70
:1005B00080916502682340E081E00E94A102809161
:1005C0008702882359F066B16C73669566958091B1
:1005D0006602682340E082E00E94A10280918802C6
:1005E000882329F040E060E083E00C94A1020895A4
:1005F000109206028FEF8093040108958F929F92CC
:10060000BF92CF92DF92EF92FF920F931F93CF93FF
:10061000DF9300D0CDB7DEB7B82E4B01C82ED12C5A
:10062000860108591D4FF8018081863049F4809178
:100630000602882329F06630710511F00E94F80245
:100640004EEF4B0D4C30B0F484E08816910491F0DD
:10065000C60102977C01EE0CFF1CE80EF91EF701A3
:10066000E052FE4F7F01CF014A830E9467184A8102
:100670008111D0C092EF9B0D9B3078F461E070E067
:10068000F2E08F16910411F060E070E0892F4A8348
:1006900099830E941A0199814A814231D8F4EB2D45
:1006A000E695E695E6958B2D8770F0E0EC59FD4FC9
:1006B00021E030E0082E01C0220F0A94EAF78114ED
:1006C000910421F48081822B808304C02095808155
:1006D00028232083F601EE0FFF1FEE5CFD4F1182F1
:1006E000108282E088169104A1F03CF481149104F8
:1006F000F9F08A94892851F17AC0F4E08F169104B8
:1007000009F448C084F196E08916910409F467C0A1
:100710006EC09B3008F084C0423140F460E08B2D05
:100720000E94650960E08B2D0E949E0982E05CC0FA
:10073000423108F075C060E08B2D0E94650960E0D1
:100740008B2D0E949E09F80110826AC0423108F088
:1007500067C060E08B2D0E949E0961E08B2D0E9496
:10076000650981E041C0F3E0BF1649F08BEF8B0DC6
:10077000823028F087EF8B0D833008F051C061E0A4
:100780008B2D0E94650960E070E08B2D0E941A0A93
:1007900083E02AC04C3008F043C084E0F801808335
:1007A000C60102978C01000F111F080F191F00527C
:1007B0001E4FC8010E946718811132C0B601C801DE
:1007C0000F900F90DF91CF911F910F91FF90EF90BD
:1007D000DF90CF90BF909F908F900C94BB178EEEC0
:1007E0008B0D8230E8F486E0F801808319C06EE05A
:1007F00071E08FE993E00F900F90DF91CF911F91FF
:100800000F91FF90EF90DF90CF90BF909F908F90CF
:100810000C949914C7014A830E94C1174A812ACFB8
:100820000F900F90DF91CF911F910F91FF90EF905C
:10083000DF90CF90BF909F908F900895CF93C0E0AE
:100840008EEE8C0F823028F466E070E08C2F0E94D0
:10085000FE02CF5FC931A1F781E08093060284E0F8
:1008600094E0CF910C940D19CF93DF938091060201
:1008700081110E94F802E5E8F2E0C4E6D2E0A1E8C6
:10088000B2E0119219921D9282E0E938F807C9F797
:10089000C0E082EF8C0F8B3018F462E070E002C091
:1008A00061E070E08C2F0E94FE02CF5FC93189F7B2
:1008B00010928A0210928902DF91CF910C947601F6
:1008C00023E042E06FE171E08FE993E00E94611361
:1008D00045E351E060EE8FE993E00E949D1442EB06
:1008E00050E060E98FE993E00E949D144AE151E0F5
:1008F00060EC8FE993E00E949D144AEA50E060EDBD
:100900008FE993E00E949D144EEF52E064EF8FE96F
:1009100093E00E949D144FEB55E060EF8FE993E068
:100920000E94C01444E354E06FEF8FE993E00E940B
:10093000BA1440E051EE60E070E08FE993E00E946D
:10094000F1150C943404CF93DF938BEB92E00E946B
:10095000980CC0EED1E0CE010E942117239682E0D0
:10096000C430D807C1F7DF91CF910895DF92EF929D
:10097000FF920F931F93CF93DF93F82EEB01D42EAA
:100980006F3F8FEF7807A9F06F2D84E094E00E940D
:1009900027196C2F84E094E00E94CE1884E094E044
:1009A0000E94441980910402909105020E94F60869
:1009B00002C0C0E0D0E04D2D6F2D84E094E00E9495
:1009C00024190D2D10E084E094E00E947618081799
:1009D0001907B1F4F0920702C0930802E9E0EE2E85
:1009E000E2E0FE2EC0E0D0E0C017D107CCF484E0F6
:1009F00094E00E947E18F70181937F012196F4CF45
:100A000084E094E00E947618801791071CF46EE24F
:100A100071E002C066E571E08FE993E00E949914ED
:100A200042E04D0D27E032E067E78FE993E0DF9188
:100A3000CF911F910F91FF90EF90DF900C94511484
:100A40008F929F92AF92BF92CF92DF92EF92FF92DE
:100A50000F931F93CF93DF938FE993E00E94AF131F
:100A6000892B29F08FE993E00E94DD14F5CF0E94D5
:100A7000A10860932E0270932F028093300290930E
:100A80003102C0902A02D0902B02E0902C02F0900C
:100A90002D0240910501509106014A01AA2497FCBC
:100AA000A094BA2C8B019C010C191D092E093F0939
:100AB00080169106A206B30608F054C0D501C40101
:100AC0008C0D9D1DAE1DBF1D80932A0290932B029D
:100AD000A0932C02B0932D020E94DA010E947B01A8
:100AE0000E94BF02C8E6D2E012EF1B3090F488816A
:100AF000823079F4812F90E02091890230918A022E
:100B0000012E02C0359527950A94E2F720FD0E9438
:100B100023021F5F21961B3041F78091040187FD5E
:100B200021C0C0E02C2F30E080910401992787FD7F
:100B3000909582179307B4F0C901880F991F820F0F
:100B4000931FFC01E75DFD4FDC01A85DBD4F6C917B
:100B500070E0DC01A95DBD4F40818C910E94B6041C
:100B6000CF5FE0CFDF91CF911F910F91FF90EF907A
:100B7000DF90CF90BF90AF909F908F900895BF92DD
:100B8000CF92DF92EF92FF920F931F93CF93DF9359
:100B9000162FEA0190E0FC01E956F109E231F10576
:100BA00008F07BC2E35CFF4F0C94ED1F8981982F06
:100BB000987185FF03C06DE771E05EC08881983051
:100BC00099F148F4911169C2682F84E094E00E9481
:100BD000271902E007C0903109F448C0983109F4A0
:100BE0007CC05BC2011778F4FE01E00FF11D81812A
:100BF000608120E8829F6019112484E094E00E94C3
:100C0000CE180E5FEFCF84E094E00E94441986E492
:100C100090E0DF91CF911F910F91FF90EF90DF90C7
:100C2000CF90BF900C94F6089B816A81163061F4D6
:100C30002D814C8130E8239F40191124E0E89E9FCC
:100C40006019112470E007C0462FF0E89F9F4019FB
:100C500011246FEF7FEFDF91CF911F910F91FF90E4
:100C6000EF90DF90CF90BF900C94B60440910401B8
:100C700047FD0FC069EA71E08FE993E0DF91CF9102
:100C80001F910F91FF90EF90DF90CF90BF900C9449
:100C900099144F5F40930401552747FD50959A01E1
:100CA000220F331F240F351FF901E95DFD4F8083AB
:100CB000F901E85DFD4F9B818A8140E8949F80198E
:100CC00011248083F901E75DFD4F9D818C8120E82F
:100CD000929F801911248083E0C16091040116164F
:100CE00034F470E0A62FBB27A7FDB0950FC08FEF9F
:100CF00080930401D2C1F901EE0FFF1FE20FF31F31
:100D0000E95DFD4F808381112CC07F5F272F30E08C
:100D1000A217B30784F770E024C0711121C0C90184
:100D20000196AC01440F551F480F591FFA01E95DA8
:100D3000FD4F1081C901880F991F820F931FEC018D
:100D4000C95DDD4F18832081FC01E85DFD4F2083E4
:100D5000FA01E75DFD4F2081FC01E75DFD4F208337
:100D60007F5F272F30E0A217B307BCF66150609376
:100D7000040193C12881898130E8839FC001112437
:100D8000820F911D009721F0909305028093040239
:100D900080910602811181C1DF91CF911F910F9146
:100DA000FF90EF90DF90CF90BF900C941E046530C1
:100DB00008F473C1F880E980DA80CB80BC808EEFC4
:100DC0008F0D8C3008F069C10F2D10E0B801625012
:100DD0007109EB01CC0FDD1FC60FD71FC052DE4FCC
:100DE000CE010E946718882319F0CE010E94C11716
:100DF00040E8B49E900111242C0D311D80E8D89E4E
:100E0000A00111244E0D511DB801CE010E943D17C5
:100E100064E070E08F2DDF91CF911F910F91FF90D3
:100E2000EF90DF90CF90BF900C94FE02623008F4F8
:100E300034C128818981E0E88E9FC0011124820F8E
:100E4000911D9093060180930501883E93400CF01C
:100E500024C188EE93E090930601809305011DC1A3
:100E6000623008F41AC1698170E0123091F08A8111
:100E700020E8829FC0011124682B792B133049F0A0
:100E80008B8190E090E4899F902D88271124682B16
:100E9000792B8881DF91CF911F910F91FF90EF9077
:100EA000DF90CF90BF900C94350160EF70E085EF3C
:100EB00092E00E946F016CE670E085EF92E00E9484
:100EC0006F01CEEF84EF8C0F8B3068F462E070E03E
:100ED00085EF92E00E946F016AE070E085EF92E09A
:100EE0000E946F010FC0C13069F463E070E085EFCC
:100EF00092E00E946F0168E070E085EF92E00E944E
:100F00006F0108C08DEF8C0F823078F389EF8C0F62
:100F1000833058F3CC3060F464E070E085EF92E009
:100F20000E946F016EE070E085EF92E00E946F0119
:100F300080EF8C0F823060F466E070E085EF92E025
:100F40000E946F0161E070E085EF92E00E946F0106
:100F50006FE770E085EF92E00E946F01CF5FC731CD
:100F600089F1C23108F0AECF60E085EF92E00E94D7
:100F7000DA0A61E070E085EF92E00E946F0161E0C3
:100F800085EF92E00E94DA0A61E070E085EF92E07E
:100F90000E946F0197CF662309F47FC0C88160EF7C
:100FA00070E085EF92E00E946F016EE670E085EFE1
:100FB00092E00E946F016C2F85EF92E00E94DA0AA6
:100FC000C93178F067EF70E085EF92E0DF91CF9163
:100FD0001F910F91FF90EF90DF90CF90BF900C94F6
:100FE0006F01D0E0FE01E859FD4F608185EF92E08E
:100FF0000E94DA0ACC0FDD1F8E010E5C1D4FF80136
:10100000608171816F77772785EF92E00E946F0191
:10101000F80160817181CB018078892B51F0660FD6
:10102000672F661F770B6F77772785EF92E00E9417
:101030006F01CE5CDD4F68817981CB018827907C80
:10104000892B09F4BFCF770F660B770F762F661FBA
:101050006F77772785EF92E00E946F01B3CF60EF43
:1010600070E085EF92E00E946F016AE670E085EF24
:1010700092E00E946F01C2EFDFEFCB3018F46C2FCB
:101080007D2F02C06FE770E085EF92E00E946F0154
:101090002196CB30D10589F795CFDF91CF911F9164
:1010A0000F91FF90EF90DF90CF90BF9008951F9227
:1010B0000F920FB60F9211242F933F938F939F930C
:1010C000AF93BF938091ED029091EE02A091EF0259
:1010D000B091F0023091EC0223E0230F2D3720F481
:1010E0000196A11DB11D05C026E8230F0296A11D82
:1010F000B11D2093EC028093ED029093EE02A09339
:10110000EF02B093F0028091F1029091F202A0916F
:10111000F302B091F4020196A11DB11D8093F1027A
:101120009093F202A093F302B093F402BF91AF91B7
:101130009F918F913F912F910F900FBE0F901F9015
:1011400018952FB7F8946091ED027091EE0280919E
:10115000EF029091F0022FBF08953FB7F89480916D
:10116000F1029091F202A091F302B091F40226B53F
:10117000A89B05C02F3F19F00196A11DB11D3FBFCF
:101180006627782F892F9A2F620F711D811D911D5F
:1011900042E0660F771F881F991F4A95D1F708957F
:1011A000CF92DF92EF92FF92CF93DF936B017C019E
:1011B0000E94AD08EB01C114D104E104F10479F0FF
:1011C0000E94AD086C1B7D0B683E7340A0F381E06C
:1011D000C81AD108E108F108C851DC4FECCFDF9103
:1011E000CF91FF90EF90DF90CF90089501970097F7
:1011F00039F0880F991F880F991F02970197F1F70F
:101200000895789484B5826084BD84B5816084BD7E
:1012100085B5826085BD85B5816085BDEEE6F0E06F
:10122000808181608083E1E8F0E0108280818260CB
:101230008083808181608083E0E8F0E0808181604C
:101240008083E1EBF0E0808184608083E0EBF0E07C
:10125000808181608083EAE7F0E080818460808320
:1012600080818260808380818160808380818068CA
:1012700080831092C1000895833081F028F481307A
:1012800099F08230A1F008958630A9F08730B9F046
:101290008430D1F4809180008F7D03C080918000E4
:1012A0008F7780938000089584B58F7702C084B5CE
:1012B0008F7D84BD08958091B0008F7703C08091A9
:1012C000B0008F7D8093B0000895CF93DF9390E0BE
:1012D000FC01EE54FF4F2491FC01EA53FF4F84912F
:1012E000882349F190E0880F991FFC01E251FF4FDC
:1012F000A591B4918C519F4FFC01C591D4919FB79A
:10130000611108C0F8948C91209582238C93888178
:1013100082230AC0623051F4F8948C91322F3095B8
:1013200083238C938881822B888304C0F8948C91CA
:10133000822B8C939FBFDF91CF9108950F931F93C2
:10134000CF93DF931F92CDB7DEB7282F30E0F9019E
:10135000E256FF4F8491F901EE54FF4F1491F901C9
:10136000EA53FF4F04910023C9F0882321F06983D9
:101370000E943C096981E02FF0E0EE0FFF1FEC5165
:10138000FF4FA591B4919FB7F8948C91611103C060
:101390001095812301C0812B8C939FBF0F90DF910B
:1013A000CF911F910F910895CF93DF93282F30E0B5
:1013B000F901E256FF4F8491F901EE54FF4FD491A9
:1013C000F901EA53FF4FC491CC2391F081110E949F
:1013D0003C09EC2FF0E0EE0FFF1FE652FF4FA59106
:1013E000B4912C912D2381E090E021F480E002C0A3
:1013F00080E090E0DF91CF9108958E3008F08E501C
:1014000087702091070190E4299F90011124822B7D
:1014100080937C0080917A00806480937A00809130
:101420007A0086FDFCCF809178002091790090E0D1
:10143000922B08951F93CF93DF93182FEB0161E058
:101440000E946509209711F460E004C0CF3FD105E8
:1014500039F461E0812FDF91CF911F910C949E09A7
:10146000E12FF0E0E256FF4FE491E330F9F048F469
:10147000E130B9F0E230A1F584B5806284BDC8BD29
:1014800034C0E630E9F0E73019F1E43049F58091F5
:101490008000806280938000D0938B00C0938A008C
:1014A00024C084B5806884BDC7BD1FC08091800002
:1014B000806880938000D0938900C093880015C015
:1014C0008091B00080688093B000C093B3000DC0DD
:1014D0008091B00080628093B000C093B40005C0DA
:1014E000C038D1050CF0B5CFAFCFDF91CF911F91B0
:1014F00008950E9401090E946004C2E5DBE00E9499
:1015000020052097E1F30E94520BF9CFFC012485BE
:101510003585F901E05CFF4F808191813296208111
:101520003181821B930B8F7399270895FC01848569
:101530009585FC01E05CFF4F40815181329620810E
:1015400031814217530741F00190F081E02DE80FFF
:10155000F91F808190E008958FEF9FEF0895FC01BF
:1015600084859585FC01E05CFF4F40815181329676
:10157000208131814217530779F0A081B181A80FF2
:10158000B91F8C91208131812F5F3F4F2F733327FB
:101590003183208390E008958FEF9FEF0895FC0141
:1015A00081A1882329F0A489B5898C9186FFFBCF7E
:1015B00011A20895CF93DF93FC0126853785D901C9
:1015C000A05CBF4F8D919C91119701968F739927C5
:1015D000E901CE5BDF4F4881598184179507D9F324
:1015E0000D90BC91A02DA20FB31F6C93A685B7855B
:1015F000A05CBF4F11969C938E93A689B7892C91BE
:1016000081E090E0078C02C0880F991F0A94E2F7EE
:10161000282B2C9381E081A30488F589E02D80811B
:101620008064808381E090E0DF91CF9108950895F8
:101630001F920F920FB60F9211242F933F934F9347
:101640008F939F93EF93FF938091C00082FD1CC006
:101650004091C60080919B0390919C0301968F73EB
:10166000992720919D0330919E038217930771F073
:10167000E0919B03F0919C03E55AFC4F40839093CB
:101680009C0380939B0302C08091C600FF91EF9161
:101690009F918F914F913F912F910F900FBE0F907F
:1016A0001F90189585EF92E00E94860A892B11F011
:1016B0000C94170B08951F920F920FB60F921124DE
:1016C0002F933F938F939F93EF93FF932091570313
:1016D000309158038091590390915A032817390784
:1016E00031F48091C1008F7D8093C10014C0E091DE
:1016F0005903F0915A03E95EFC4F20818091590310
:1017000090915A0301968F73992790935A0380936F
:1017100059032093C600FF91EF919F918F913F91C4
:101720002F910F900FBE0F901F901895CF92DF92C0
:10173000EF92FF92CF93DF93EC016A017B01411599
:1017400081EE580761057105F9F0EC89FD8981E0AA
:1017500090E008A002C0880F991F0A94E2F78083E6
:1017600060E079E08DE390E0A70196010E94AC1F54
:1017700021503109410951095695479537952795CB
:10178000211580E1380798F0EC89FD89108260E826
:1017900074E88EE190E0A70196010E94AC1F2150F1
:1017A0003109410951095695479537952795E8899B
:1017B000F9893083EA89FB89208319A2EE89FF89A0
:1017C000408181E090E09C010C8C02C0220F331F0D
:1017D0000A94E2F7422B4083EE89FF8940819C0105
:1017E0000D8C02C0220F331F0A94E2F7422B408374
:1017F000EE89FF8940819C010E8C02C0220F331FAD
:101800000A94E2F7422B4083EE89FF8920810F8CF6
:1018100002C0880F991F0A94E2F780958223808383
:10182000DF91CF91FF90EF90DF90CF9008951092CD
:10183000F8021092F70288EE93E0A0E0B0E0809307
:10184000F9029093FA02A093FB02B093FC028EEB94
:1018500091E09093F6028093F5028BE593E09093EC
:1018600002038093010387E193E090930403809344
:10187000030385EC90E0909306038093050384ECCA
:1018800090E0909308038093070380EC90E090939E
:101890000A038093090381EC90E090930C038093FA
:1018A0000B0382EC90E090930E0380930D0386EC83
:1018B00090E09093100380930F0384E080931103D2
:1018C00083E08093120387E08093130385E0809385
:1018D000140381E08093150308952091DC032223F3
:1018E00099F03FB7F8942091DC03213059F42DB3DF
:1018F0002093DA034DB32091DB03209524232DBBE5
:101900003FBF02C03093DA038CBD9DBD0895809126
:10191000DC03882361F09FB7F8942091DC03809169
:10192000DA03213019F48DBB9FBF08958FBF08954E
:10193000FC018FEF81878287838784870895AF9228
:10194000BF92DF92EF92FF920F931F93CF93DF939B
:101950001F92CDB7DEB75C01D62EFC0184858F3F88
:1019600039F46EBD00000DB407FEFDCF8EB52AC060
:1019700007E010E040E0EE24E394F12C440F60E037
:10198000F501848549830E949E099701002E01C0BC
:10199000220F0A94EAF76D2D6223F50182850E94D9
:1019A0009E0961E0F50184850E949E09F501838509
:1019B0000E94D4094981892B09F041600150110925
:1019C000E8F6842F0F90DF91CF911F910F91FF9038
:1019D000EF90DF90BF90AF9008950F931F93CF9338
:1019E000DF93EC01062F142F89858F3FB9F46881AE
:1019F00084E094E00E942719602F84E094E00E9424
:101A0000CE18612F84E094E00E94CE1884E094E028
:101A1000DF91CF911F910F910C9444198C858F3FCA
:101A200021F482E591E00E946D0C60E089850E94BE
:101A30009E09602F6F77CE010E949F0C612FCE010F
:101A40000E949F0C61E089850E949E098C858F3FD2
:101A500031F4DF91CF911F910F910C94870CDF919E
:101A6000CF911F910F910895CF92EF920F93CF9343
:101A7000DF93EC019E2D3C2D6295660F660F607C16
:101A800047702770220F220F220F642B622B6FA743
:101A9000202F2295220F207E88A98F71822B88AB60
:101AA0009770990F990F990F8EA5807C3770892BAD
:101AB000832B8EA7402F477062EFCE010E94ED0C62
:101AC0002EA5422F477030E2439FA0011124822FA0
:101AD000869586958695877038E0839FC00111248E
:101AE000482B592B27FB222720F9422B65EFCE01EB
:101AF0000E94ED0C2FA5422F477080E2489FA00165
:101B00001124822F869586958695877038E0839F6D
:101B1000C0011124482B592B229526952695237018
:101B2000422B64EFCE01DF91CF910F91EF90CF90D8
:101B30000C94ED0C1F93CF93DF93EC01162F898546
:101B40008F3FD1F4688184E094E00E942719612FCF
:101B500084E094E00E94CE1884E094E00E9444194E
:101B600041E0688184E094E00E94241984E094E0DC
:101B70000E947E18182F1EC08C858F3F21F482E5AD
:101B800091E00E946D0C60E089850E949E09612FA2
:101B90006068CE010E949F0C60E0CE010E949F0C05
:101BA000182F61E089850E949E098C858F3F11F472
:101BB0000E94870C812FDF91CF911F91089563EFD1
:101BC0000E949A0D817008950F931F93CF93DF9316
:101BD000EC01162F89858F3F19F5688184E094E028
:101BE0000E942719612F84E094E00E94CE1884E0BF
:101BF00094E00E94441942E0688184E094E00E94ED
:101C0000241984E094E00E947E18C82F84E094E0B8
:101C10000E947E1800E010E01C2F082B192B26C014
:101C20008C858F3F21F482E591E00E946D0C60E08D
:101C300089850E949E09612F6068CE010E949F0CD9
:101C400060E0CE010E949F0C082F60E0CE010E9450
:101C50009F0C10E0102F0027082B61E089850E945F
:101C60009E098C858F3F11F40E94870CC801DF917B
:101C7000CF911F910F9108950E94E40D9827892715
:101C8000982708951F93CF93DF93EC0168E80E9493
:101C90003C0E9E878D876AE8CE010E943C0E988B91
:101CA0008F876CE8CE010E943C0E9A8B898B6EE880
:101CB000CE010E943C0E9C8B8B8B60E9CE010E9472
:101CC0003C0E9E8B8D8B62E9CE010E943C0E988F5C
:101CD0008F8B64E9CE010E943C0E9A8F898F66E952
:101CE000CE010E943C0E9C8F8B8F68E9CE010E9432
:101CF0003C0E9E8F8D8F6AE9CE010E943C0E98A308
:101D00008F8F6CE9CE010E943C0E9AA389A36EE9E5
:101D1000CE010E943C0E9CA38BA361EACE010E94DF
:101D20009A0D8DA361EECE010E943C0E9FA38EA35F
:101D300063EECE010E949A0D88A764EECE010E9448
:101D40009A0D182F65EECE010E949A0D8F7040E11A
:101D5000149F90011124282B3AA729A766EECE01E3
:101D60000E949A0D182F65EECE010E949A0D282F21
:101D700030E044E0359527954A95E1F740E1149F1E
:101D8000C0011124282B392B3CA72BA767EECE01CD
:101D90000E949A0D8DA7DF91CF911F910895CF9248
:101DA000DF92EF92FF920F931F93CF93DF93EC019B
:101DB000688389858F3F29F484E094E00E940D199F
:101DC00018C061E00E949E0961E089850E94650952
:101DD0008C858F3F19F40E942F160BC061E00E9482
:101DE000650961E08A850E94650960E08B850E9433
:101DF000650960EDCE010E949A0D803649F546EBEB
:101E000060EECE010E94ED0C6CE271E080E090E0AB
:101E10000E94D008CE010E94DF0D882329F064E6DD
:101E200070E080E090E0F4CFCE010E94420EC12C21
:101E3000D12CE12CF12C05E010E025E030E045E06C
:101E400050E063E070E0CE010E94340D81E001C0FB
:101E500080E0DF91CF911F910F91FF90EF90DF9085
:101E6000CF9008958F929F92AF92BF92CF92DF92C0
:101E7000EF92FF921F93CF93DF93EC01162F89858A
:101E80008F3F09F03FC0688184E094E00E942719E9
:101E9000612F84E094E00E94CE1884E094E00E94D8
:101EA000441943E0688184E094E00E94241984E0AE
:101EB00094E00E947E184C01AA2497FCA094BA2CAE
:101EC000BA2CA92C982C882484E094E00E947E18D7
:101ED0006C01EE24D7FCE094FE2CC828D928EA280F
:101EE000FB28FE2CED2CDC2CCC2484E094E00E941A
:101EF0007E18AA2797FDA095BA2FC82AD92AEA2AC0
:101F0000FB2A33C08C858F3F21F482E591E00E944B
:101F10006D0C60E089850E949E09612F6068CE018A
:101F20000E949F0C60E0CE010E949F0CC82ED12C15
:101F3000E12CF12CFE2CED2CDC2CCC2460E0CE012D
:101F40000E949F0CC82AFE2CED2CDC2CCC2460E0D7
:101F5000CE010E949F0CC82A61E089850E949E09DB
:101F60008C858F3F11F40E94870CC701B601DF9169
:101F7000CF911F91FF90EF90DF90CF90BF90AF90E7
:101F80009F908F9008958F929F92AF92BF92CF9221
:101F9000DF92EF92FF92CF93DF93EC016AEF0E9402
:101FA000320F6115710520E88207910509F467C0B9
:101FB000CD84DE84E12CF12C872E982EA92EBB2413
:101FC000A7FCBA948C189D08AE08BF089B01AC0111
:101FD000A7E05595479537952795AA95D1F7CC0C4D
:101FE000DD1CEE1CFF1C2C193D094E095F09AF8555
:101FF000B8890E94FE1F6B017C018BE0F594E79489
:10200000D794C7948A95D1F7A5019401C501B4016D
:102010000E94901F9B01AC019CE055954795379518
:1020200027959A95D1F7A989BA890E94FE1F2EE0BB
:1020300095958795779567952A95D1F7C60ED71E02
:10204000E81EF91ECD82DE82EF82F886A5E0B0E0C0
:10205000A70196010E94F31F60587F4F8F4F9F4F3B
:10206000672F782F892F992787FD9A950E942B1E1D
:1020700020E030E048EC52E40E948C1D04C060E097
:1020800070E080EC9FE7DF91CF91FF90EF90DF90C1
:10209000CF90BF90AF909F908F9008952F923F92D6
:1020A0004F925F926F927F928F929F92AF92BF9268
:1020B000CF92DF92EF92FF920F931F93CF93DF9314
:1020C000CDB7DEB7A3970FB6F894DEBF0FBECDBF76
:1020D0009BA38AA30E94C30F67EF8AA19BA10E94C2
:1020E000320F2B013C016115710500E88007910555
:1020F00009F424C2EAA1FBA185819681A781B0855C
:102100006C017D01FF0CCC08DC2C76019C01AD013B
:102110006C2D7C2D8C2D9C2D345F41405109610923
:1021200071098109910929873A874B875C871B01CF
:102130004C0159016A017B018C010E9406202F8B02
:10214000388F498F5A8F6B8F7C8F8D8F9E8FAAA16E
:10215000BBA15D96BC91BF8FEAA1FBA1F68DFD8767
:10216000AAA1BBA15B96BC91B8A3EAA1FBA1F48D87
:10217000FE87AAA1BBA15996BC91B9A3EAA1FBA174
:10218000F28DFF87AAA1BBA15696BC905697559693
:10219000AC901B2D110F110BC12ED12EE12EF12E63
:1021A000012F29853A854B855C85B101C4010E94C8
:1021B00006200CE00E9436212983388B498B5A8BEC
:1021C0006B8B7C8B8D8B9E8BEAA1FBA1B08CA7883F
:1021D0001B2D110F110BC12ED12EE12EF12E012F2F
:1021E0002F89388D498D5A8D6B8D7C8D8D8D9E8D6F
:1021F0000E94062008E00E944F21A980B888C98863
:10220000DA88EB88FC880D891E890E946D21705840
:102210008F4F9F4FAAA1BBA15396ED91FC9154976C
:102220005F01C12CD12CE12CF12C8701E983BA820A
:10223000CB82DC82ED82FE820F831887C12CD12CE9
:10224000E12CF12C00E010E00E94062001E20E9447
:102250004F212983388B498B5A8B6B8B7C8B8D8BD1
:102260009E8BA0E00E947F2109F46DC1AF8C1D857B
:10227000110F110BBD84C12ED12EE12EF12E012F95
:102280002F89388D498D5A8D6B8D7C8D8D8D9E8DCE
:102290000E9406202D873F8B488F598F6A8F7B8F36
:1022A0008C8F9D8FA8A01E85110F110BBE84C12E8F
:1022B000D12EE12EF12E012F29853A854B855C85A3
:1022C000B101C4010E94062001E10E94362159019A
:1022D0006A017B018C012D853F89488D598D6A8D5E
:1022E0007B8D8C8D9D8D0E946D21F9014B875C87C4
:1022F0001B014C01A4E07594679457944794AA95E8
:10230000D1F780E090E0A0E1B0E084199509A6093A
:10231000B7096C017D01FF0CCC08DC2C76019C0117
:10232000AD016C2D7C2D8C2D9C2D0FE10E94362152
:102330002901B42FA52F6D877E87782E692E29A1BC
:102340009F85990F990B3F85492F592F692F792F19
:10235000892F03E20E94362159016A017B018C0119
:102360009F014B855C85B101C4010E946D2159011B
:102370006A017B018C0192014B2F5A2F6D857E855E
:10238000872D962D0E9476214901542E652EB62F59
:10239000A72FF82FE92F03E00E9436215401C52C06
:1023A000D62CEB2EFA2E0F2F1E2F0E9476215901CC
:1023B0006A017B01782E192F03E00E943621072D38
:1023C0000E94762103E00E9436215401C52CD62CB0
:1023D000EB2EFA2E0F2F1E2F0E94762102E00E9474
:1023E00036210F2F0E94762101E00E9436210F2F07
:1023F0000E947621A980B888C988DA88EB88FC8891
:102400000D891E890E94612029873A874B875C8746
:1024100069837D878E879F870DE00E944F21922ED2
:10242000832E742E652E562E472E382E292EAAA1C5
:10243000BBA194963C91949793962C91932F990FCE
:10244000990BA92CB82CC72CD62CE52CF42C032DD9
:10245000122D492F592F692F792F892F0E9406207D
:102460000E94062009E10E944F2159016A017B0167
:102470008C0129853A854B855C8569817D858E85B2
:102480009F850E946D2119012A013B014C01EAA19F
:10249000FBA132A121A1932F990F990BA984BA8492
:1024A000CB84DC84E980FD840E851F85492F592F5C
:1024B000692F792F892F0E94062003E10E944F2166
:1024C00059016A017B018C019101A201B301C40190
:1024D0000E946D2108E00E944F21522E632E742E1F
:1024E000852E962EF72FE82F492EAAA1BBA19096F4
:1024F0003C9190975F962C91932F990F990B492FB0
:10250000592F692F792F892F04E00E943621590114
:102510006A017B018C01252D362D472D582D692D03
:102520007F2F8E2F942D0E946D210E94251E20E06A
:1025300030E040E85BE30E942D1F08C060E070E0DF
:1025400080EC9FE703C060E070E0CB01A3960FB67C
:10255000F894DEBF0FBECDBFDF91CF911F910F91D9
:10256000FF90EF90DF90CF90BF90AF909F908F90B3
:102570007F906F905F904F903F902F9008950F93B2
:102580001F93CF93DF93EC018B0188819981DC014C
:10259000ED91FC916F770190F081E02D0995888194
:1025A0009981DC01ED91FC91B801660F672F661FE0
:1025B000770B6F770190F081E02DDF91CF911F9124
:1025C0000F910994DC018D919C91DC01ED91FC91BE
:1025D0000190F081E02D60EF0994DC018D919C91D8
:1025E000DC01ED91FC910190F081E02D67EF099401
:1025F000CF93DF93EC0188819981DC01ED91FC910F
:102600000190F081E02D69EF099588819981DC01C5
:10261000ED91FC910190F081E02D62E009958881B7
:102620009981DC01ED91FC910190F081E02D63E056
:10263000DF91CF9109941F93CF93DF93EC018A81AF
:102640008823D9F1CE010E94E21288819981DC01B0
:10265000ED91FC910190F081E02D69E70995888169
:102660009981DC01ED91FC91AB81BC810190F081FD
:10267000E02D6C91099588819981DC01ED91FC91A7
:10268000AB81BC810190F081E02D11966C91099590
:1026900012E08A81181758F4EB81FC81E10FF11DDB
:1026A000608170E0CE010E94BF121F5FF2CFCE01A9
:1026B000DF91CF911F910C94ED12DF91CF911F917B
:1026C0000895AF92BF92CF92DF92EF92FF920F9355
:1026D0001F93CF93DF93EC018B01A42EB22E6AECF3
:1026E00071E0C8010E94091D6C016FE270E0C80131
:1026F0000E94FE1C01967C01C114D10441F0009798
:1027000031F0C81AD90AC394C394CA8208C0F80128
:1027100001900020E9F7E01BEF5FEA8378010A816E
:1027200010E0C8010E944B199C838B83DC01A00F31
:10273000B11F1C92FC01A082B1824A8150E042503C
:102740005109B7010296DF91CF911F910F91FF9030
:10275000EF90DF90CF90BF90AF900C94EF1CDC0116
:102760008D919C91DC01ED91FC910480F581E02D2F
:1027700009941F93CF93DF93EC018885813741F053
:102780008937B9F5CE01DF91CF911F910C941B13BE
:102790008FA998AD892BD1F129A53AA5C901019737
:1027A00097FDC90195958795182F99270E944B1978
:1027B000482FFC0121E03E2F341B3117A0F4DE012D
:1027C000A20FB11D18963C91308351E0520FDE01EB
:1027D000A50FB11D18965C9160E8569F3019112421
:1027E00031932E5FE8CFEFA9F8ADDF91CF911F9124
:1027F0000994E9ADFAAD309749F0AE01475F5F4FFC
:1028000069A56150DF91CF911F910994DF91CF911C
:102810001F9108950F931F93CF93DF93EC018A01CB
:1028200088819981DC01ED91FC916F70606E01905F
:10283000F081E02D0995B801CE01DF91CF911F9174
:102840000F910C94BF120F931F93CF93DF93EC0162
:102850008A0188819981DC01ED91FC916F7060693A
:102860000190F081E02D099588819981DC01ED913D
:10287000FC91602F6F770190F081E02D09958881A0
:102880009981DC01ED91FC91B801660F672F661FFD
:10289000770B0190F081E02DDF91CF911F910F9187
:1028A0000994CF92DF92EF92FF920F931F93CF93F1
:1028B000DF9300D01F92CDB7DEB78C01F42E2A83B0
:1028C0003B8369830E94E212D8018D919C91DC01C7
:1028D000ED91FC910190F081E02D698109952A81AB
:1028E000E22EC22E3B81D32E8C2D8E198F1540F4F3
:1028F000F60161916F0170E0C8010E94BF12F4CF30
:10290000C8010F900F900F90DF91CF911F910F9101
:10291000FF90EF90DF90CF900C94ED129A01FA01A6
:1029200001900020E9F73197E41BF50B4E2F0C9432
:102930005114AB0161E70C948E14FC01603DA1F0D1
:1029400028F4603959F0603C61F00895603E19F058
:10295000643F69F0089554A743A7089556A745A773
:10296000089550AB47A7089552AB41AB089554ABBF
:1029700043AB08956F3F19F4FC0156AB45AB089586
:10298000FC0152AF41AF0895FC01158216821782F7
:1029900080E090E0DF01A80FB91F18961C92019605
:1029A00080329105B9F710A612A611A605A8F6A9BE
:1029B000E02D309709F009940895CF93DF93EC014F
:1029C00088819981DC01ED91FC910680F781E02DF1
:1029D000099528A52223A1F0873F910531F418A677
:1029E000CE01DF91CF910C94B91329A53AA5FE0130
:1029F000E20FF31F80872F5F3F4F3AA729A789C0B7
:102A00002D81222309F44CC0803891050CF048C078
:102A10009FEF920F9D83FE01E90FF11D80879111B9
:102A200078C08E81882309F474C0803D79F138F430
:102A30008039B9F0803C91F5EFA5F8A929C0803E16
:102A400019F0843FD9F02AC0EBA5FCA5309731F1ED
:102A50008885698570E0B0E88B9F600D711D112439
:102A60001BC0EDA5FEA53097C9F08885698570E08B
:102A700090E8899F600D711D11240EC0EBA9FCA97F
:102A8000309761F0688570E0898507C0E9A9FAA9E7
:102A9000309721F0688570E08F8109951E8239C0DA
:102AA000803F91052CF4282F2F702F83807F99274A
:102AB000803E910511F154F4803C910501F1803D77
:102AC0009105E9F08039910521F517C0843F910502
:102AD000A1F044F4803F9105E1F481E088A71AA6B3
:102AE00019A617C0893F910571F08F3F910589F4B0
:102AF000CE01DF91CF910C94C41492E001C091E01B
:102B00009D838E8306C08FE993E0DF91CF910C9473
:102B1000F812DF91CF9108958F929F92AF92BF925A
:102B2000CF92DF92EF92FF921F93CF93DF93EB014F
:102B30004A01690161E08DE00E94650910E0EE2420
:102B4000D7FCE094FE2CAA2497FCA094BA2C812FE9
:102B500090E08C179D0794F4C701B6010E94D0083D
:102B600061E08DE00E949E09C501B4010E94D00879
:102B700060E08DE00E949E091F5FE9CFDF91CF9159
:102B80001F91FF90EF90DF90CF90BF90AF909F90FC
:102B90008F900895CF93DF93EC0161E08DE00E9468
:102BA000650922ED30E048E250E062E070E0CE01DD
:102BB0000E948C156AEF70E080E090E00E94D008DF
:102BC00022ED30E048E250E063E070E0CE010E9488
:102BD0008C156DE770E080E090E0DF91CF910C9470
:102BE000D008CF93DF93EC0185EF92E00E94960B23
:102BF000E881F9818091F7029091F80293838283B2
:102C00008091F9029091FA02A091FB02B091FC022E
:102C100084839583A683B7834091FD025091FE0281
:102C20006091FF027091000340875187628773872C
:102C3000CE010E94CA15CE010E94F812CE01DF918A
:102C4000CF910C941B1385EF92E09093A003809397
:102C50009F031092A1038FE993E00C94C414CF93C7
:102C6000CFB7F8948091DD03811127C0E0EDF0E04B
:102C70008491ECEBF0E09491E82FF0E0EE0FFF1F71
:102C8000E251FF4FA591B4918C91892321F461E029
:102C90008AE00E949E0961E08AE00E9465098CB585
:102CA00080618CBD8CB580648CBD61E08DE00E943C
:102CB000650961E08BE00E9465098091DD038F5F0B
:102CC0008093DD03CFBFCF9108951F920F920FB66F
:102CD0000F9211242F933F934F935F936F937F93A2
:102CE0008F939F93AF93BF93EF93FF938091DF03F5
:102CF00087FF05C010928500109284001AC02091B1
:102D0000DF03332727FD30958091DE0390E02817FD
:102D100039077CF48091DF03992787FD9095FC01AA
:102D2000EE0FFF1FE80FF91FE052FC4F808186FD78
:102D300015C08091DF038F5F8093DF032091DF0355
:102D4000332727FD30958091DE0390E0281739075F
:102D5000BCF48091DF038C305CF112C08091DF0302
:102D6000992787FD9095FC01EE0FFF1FE80FF91FD3
:102D7000E052FC4F808160E08F730E949E09D9CFA2
:102D80008091840090918500049680349C4918F4C9
:102D900080E49CE905C080918400909185000496B0
:102DA00090938900809388008FEF8093DF0338C071
:102DB00080918400909185002091DF03332727FDC7
:102DC0003095F901EE0FFF1FE20FF31FE052FC4FA9
:102DD00021813281820F931F909389008093880014
:102DE0008091DF03992787FD9095FC01EE0FFF1F6F
:102DF000E80FF91FE052FC4F808186FF11C08091DF
:102E0000DF03992787FD9095FC01EE0FFF1FE80F68
:102E1000F91FE052FC4F808161E08F730E949E0990
:102E2000FF91EF91BF91AF919F918F917F916F91A2
:102E30005F914F913F912F910F900FBE0F901F9078
:102E400018952091DE032C30A0F431E0320F30933E
:102E5000DE03FC012083822F90E0FC01EE0FFF1FB8
:102E6000E80FF91FE052FC4F88EB9BE092838183CF
:102E700008952FEFFC0120830895DF92EF92FF92D7
:102E80000F931F93CF93DF93EC01D62E7A01890124
:102E900088818C3008F066C061E08D2D0E94650944
:102EA0008881A82FB0E0FD01EE0FFF1FEA0FFB1F86
:102EB000E052FC4F2D2D2F739081907C922B9083AC
:102EC00060E272E06E197F0977FF02C06D5F7F4F8D
:102ED0007595679575956795698340E659E0401B40
:102EE000510B57FF02C04D5F5F4F55954795559564
:102EF00047954A836CE00E94A01F9CE0899FB00127
:102F0000112420E030E0A901460F571FFA01EE0F0F
:102F1000FF1FE40FF51FE052FC4F908196FD16C095
:102F20002F5F3F4F2C30310571F781110FC0109288
:102F3000800082E0809381001092850010928400CE
:102F4000B19A80916F00826080936F00888190E0D9
:102F5000FC01EE0FFF1FE80FF91FE052FC4F8081CC
:102F6000806480838881DF91CF911F910F91FF90C2
:102F7000EF90DF90089520E639E040E252E00C94B3
:102F80003D17FC01808190E0FC01EE0FFF1FE80F70
:102F9000F91FE052FC4F80818F7B80830895FC01F4
:102FA00080818C3070F5918128E830E0291B31094F
:102FB00097FD3395220F331F220F331F62177307BC
:102FC0007CF0928128E532E0291B310997FD339589
:102FD000220F331F220F331F621773070CF49B015C
:102FE0004FB7F89490E0FC01EE0FFF1FE80FF91FB8
:102FF000E052FC4F22503109220F331F32832183CC
:103000004FBF08954F925F926F927F92AF92BF929F
:10301000CF92DF92EF92FF920F931F93CF93DF93A4
:10302000EC01603282E078070CF040C077FD06C00A
:10303000653B71052CF064EB70E002C060E070E06D
:10304000898128E830E0281B310987FD3395220F5C
:10305000331F220F331F5901CC24B7FCC094DC2C42
:10306000882777FD8095982F2A8148E552E0421BFA
:10307000510927FD5395440F551F440F551F2A0131
:10308000662457FC6094762C7F926F925F924F92E9
:1030900014EBE12EF12C00E010E020E030E0A9017B
:1030A0000E949A1A0F900F900F900F90CE01DF910F
:1030B000CF911F910F91FF90EF90DF90CF90BF9035
:1030C000AF907F906F905F904F900C94CF17FC0162
:1030D000808190E0FC01EE0FFF1FE80FF91FE05226
:1030E000FC4F808186FB882780F908958091340405
:1030F00090E020913504821B9109089520913504B8
:1031000080913404281750F4E22FF0E0EA5CFB4F82
:10311000808190E02F5F2093350408958FEF9FEF1B
:103120000895E091350480913404E81730F4F0E01C
:10313000EA5CFB4F808190E008958FEF9FEF089548
:103140000895CF92DF92EF92FF920F931F93CF9348
:10315000DF937C01CB018A0120911004222389F0A6
:10316000EB016B01C40ED51ECC15DD0569F069912C
:10317000D701ED91FC910190F081E02DC7010995F7
:10318000F3CF642F0E94961BC801DF91CF911F914E
:103190000F91FF90EF90DF90CF900895CF93DF9342
:1031A0001F92CDB7DEB76983209110042223D1F09E
:1031B00020911104203240F021E030E0FC01338303
:1031C000228380E090E015C080911204E82FF0E0A7
:1031D000ED5EFB4F998190838F5F80931204809303
:1031E000110405C061E0CE0101960E94961B81E0AA
:1031F00090E00F90DF91CF910895FC01138212822D
:1032000048EE53E060E070E0448355836683778343
:1032100083ED91E09183808308951092350410929C
:10322000340410921204109211040C94E11A862FA7
:10323000413208F040E266E374E00E94FF1A109207
:10324000350480933404089521E00C94171981E02B
:1032500080931004609333041092120410921104AE
:1032600008950F93062F21E04091110463E174E06B
:10327000809133040E94431B109212041092110497
:10328000109210040F91089561E00C94311984E0BC
:1032900094E00C94FD18CF93DF938230910510F4E5
:1032A00082E090E0E091C604F091C70420E030E0B5
:1032B000A0E0B0E0309739F14081518148175907BB
:1032C000B8F04817590771F482819381109729F05B
:1032D00013969C938E9312972CC09093C70480935F
:1032E000C60427C02115310531F04217530718F0E5
:1032F000A901DB0101C0EF019A01BD01DF010280DC
:10330000F381E02DD7CF21153105F9F0281B390BBA
:103310002430310580F48A819B816115710521F08B
:10332000FB019383828304C09093C7048093C604F7
:10333000FE01329644C0FE01E20FF31F8193919388
:1033400022503109398328833AC02091C404309136
:10335000C504232B41F420910A0130910B013093D5
:10336000C5042093C404209108013091090121155E
:10337000310541F42DB73EB740910C0150910D013C
:10338000241B350BE091C404F091C504E217F30748
:10339000A0F42E1B3F0B2817390778F0AC014E5FC5
:1033A0005F4F2417350748F04E0F5F1F5093C50439
:1033B0004093C4048193919302C0E0E0F0E0CF0118
:1033C000DF91CF910895CF93DF93009709F487C0E1
:1033D000FC01329713821282C091C604D091C704B7
:1033E000209781F420813181280F391F8091C404F6
:1033F0009091C5048217930779F5F093C504E09383
:10340000C4046DC0DE0120E030E0AE17BF0750F409
:1034100012964D915C9113979D014115510509F14B
:10342000DA01F3CFB383A28340815181840F951FCA
:103430008A179B0771F48D919C911197840F951FAA
:1034400002969183808312968D919C91139793831A
:1034500082832115310529F4F093C704E093C60453
:103460003EC0D9011396FC93EE9312974D915D9156
:10347000A40FB51FEA17FB0779F480819181840FAF
:10348000951F0296D90111969C938E938281938108
:1034900013969C938E931297E0E0F0E08A819B81D3
:1034A000009719F0FE01EC01F9CFCE0102962881B8
:1034B0003981820F931F2091C4043091C5042817CD
:1034C000390769F4309729F41092C7041092C604A2
:1034D00002C013821282D093C504C093C404DF914A
:1034E000CF910895CF92DF92EF92FF920F931F93A7
:1034F000CF93DF936C017A01EB01E60EF71E00E03B
:1035000010E0CE15DF0561F06991D601ED91FC91D7
:103510000190F081E02DC6010995080F191FF1CF28
:10352000C801DF91CF911F910F91FF90EF90DF9035
:10353000CF9008954F925F926F927F92AF92BF9219
:10354000CF92DF92EF92FF920F931F93CF93DF936F
:10355000CDB7DEB729013A01621B730B840B950BC3
:1035600029893A894B895C892A193B094C095D09EB
:10357000298B3A8B4B8B5C8B9B01AC0169897A89D7
:103580008B899C890E94901FE418F5080609170989
:10359000A80197010E94CE1F2A0D3B1D4C1D5D1DE9
:1035A000CA01B901DF91CF911F910F91FF90EF9068
:1035B000DF90CF90BF90AF907F906F905F904F90D3
:1035C00008951092C30481E08093C1041092C00456
:1035D00061E082E10E949E0961E083E10E949E0910
:1035E000E9EBF0E080818E7F808380818D7F808316
:1035F00088E48093B80085E48093BC00089541324C
:1036000008F03FC09091C3049111FCCF91E09093DA
:10361000C3042093C1042FEF2093560410929B04FF
:10362000240F20939A049093C2049091C204880FAF
:10363000892B8093C2048091C004813041F41092A0
:10364000C0048091C2048093BB0085EC01C085EE6C
:103650008093BC008091C3048130E1F380919B048E
:10366000841710F440919B042CE934E0FB01D9014C
:103670008A2F821B841718F48D918193F9CF842FA0
:10368000089580E008950F93413208F046C090916C
:10369000C3049111FCCF92E09093C3040093C10442
:1036A0009FEF9093560410929B0440939A04FB0161
:1036B0006CE974E0DB019A2F961B941718F4919132
:1036C0009D93F9CF1092C2049091C204880F892B68
:1036D0008093C2048091C004813041F41092C004F0
:1036E0008091C2048093BB0085EC01C085EE80937D
:1036F000BC00222321F08091C3048230E1F3809149
:1037000056048F3F61F080915604803251F08091D1
:103710005604803341F483E007C081E005C080E0B7
:1037200003C082E001C084E00F910895613298F4F3
:103730002091C304243089F460937804FC018AE763
:1037400094E0DC012A2F281B261718F421912D93D1
:10375000F9CF80E0089581E0089582E0089585ED35
:103760008093BC008091BC0084FDFCCF1092C30408
:10377000089585EC8093BC001092C30408951F92B5
:103780000F920FB60F9211242F933F934F935F9395
:103790006F937F938F939F93AF93BF93EF93FF9319
:1037A0008091B900887F803609F49CC068F5883222
:1037B00009F45BC090F4803109F454C038F48823D4
:1037C00009F4F5C0883009F44DC0F5C0883109F41A
:1037D0004CC0803209F45DC0EEC0803409F468C08A
:1037E00048F4803309F455C0883309F0E4C080936D
:1037F0005604A8C0803509F44FC0883509F45DC06F
:10380000883409F0D8C0D5C0883909F4C6C0A8F4F6
:10381000883709F467C038F4883609F463C0803704
:1038200009F460C0C8C0883809F4B7C0803909F409
:103830005FC0803809F0BFC05BC0803B09F485C021
:1038400038F4803A09F466C0883A09F47EC0B3C0FF
:10385000803C09F4A6C0883C09F4A3C0883B09F465
:1038600089C0A9C08091C20410C090919B0480912E
:103870009A04981770F5E0919B0481E08E0F809375
:103880009B04F0E0E456FB4F80818093BB0085EC05
:1038900085C0809356048DC0E0919B0481E08E0F1B
:1038A00080939B048091BB00F0E0E456FB4F808343
:1038B00090919B0480919A046DC0E0919B0481E0FB
:1038C0008E0F80939B048091BB00F0E0E456FB4F89
:1038D00080838091C10481116CC081E08093C00419
:1038E00084EA60C083E08093C30410925704CFCF72
:1038F00080915704803208F050C0E091570481E075
:103900008E0F809357048091BB00F0E0E85AFB4F84
:103910008083BDCF80915704803230F4E09157040A
:10392000F0E0E85AFB4F10820E94AF1B60915704F1
:1039300070E0E091BC04F091BD0488E594E0099545
:10394000109257040E94B91B36C084E08093C304D0
:103950001092790410927804E091BE04F091BF04B3
:10396000099580917804811105C081E080937804E5
:1039700010927A04E091790481E08E0F80937904AB
:10398000F0E0E658FB4F80818093BB009091790472
:1039900080917804981708F47ACF85E88093BC006A
:1039A0000AC085EC8093BC001092C30404C010923E
:1039B00056040E94AF1BFF91EF91BF91AF919F9171
:1039C0008F917F916F915F914F913F912F910F90C8
:1039D0000FBE0F901F901895F8940C949A21FB013C
:1039E000DC014150504048F001900D920020C9F791
:1039F00001C01D9241505040E0F70895FC0181E064
:103A000090E00190061609F4CF010020D1F701974C
:103A10000895FB0151915523A9F0BF01DC014D919F
:103A200045174111E1F759F4CD010190002049F00B
:103A30004D9140154111C9F3FB014111EFCF81E0D8
:103A400090E0019708955058BB27AA270ED0C7C110
:103A5000B8D130F0BDD120F031F49F3F11F41EF405
:103A60009DC10EF4E095E7FB93C1E92FC9D180F326
:103A7000BA17620773078407950718F071F49EF56B
:103A8000E1C10EF4E0950B2EBA2FA02D0B01B90168
:103A900090010C01CA01A0011124FF27591B99F0C4
:103AA000593F50F4503E68F11A16F040A22F232FD0
:103AB000342F4427585FF3CF469537952795A79520
:103AC000F0405395C9F77EF41F16BA0B620B730BC7
:103AD000840BBAF09150A1F0FF0FBB1F661F771F38
:103AE000881FC2F70EC0BA0F621F731F841F48F4ED
:103AF000879577956795B795F7959E3F08F0B3CF73
:103B00009395880F08F09927EE0F9795879508955C
:103B10001BD108F481E008950CD061C159D140F067
:103B200050D130F021F45F3F19F032C151118BC1F7
:103B300035C166D198F39923C9F35523B1F3951B89
:103B4000550BBB27AA2762177307840738F09F5FBE
:103B50005F4F220F331F441FAA1FA9F333D00E2E2D
:103B60003AF0E0E830D091505040E695001CCAF79A
:103B700029D0FE2F27D0660F771F881FBB1F26175F
:103B800037074807AB07B0E809F0BB0B802DBF0132
:103B9000FF2793585F4F2AF09E3F510568F0F8C009
:103BA00052C15F3FECF3983EDCF3869577956795BD
:103BB000B795F7959F5FC9F7880F911D96958795E3
:103BC00097F90895E1E0660F771F881FBB1F621702
:103BD00073078407BA0720F0621B730B840BBA0BC0
:103BE000EE1F88F7E095089504D06894B1112BC1B9
:103BF00008950ED188F09F5790F0B92F9927B751AB
:103C0000A0F0D1F0660F771F881F991F1AF0BA95A0
:103C1000C9F712C0B13081F015D1B1E0089512C1D9
:103C2000672F782F8827B85F39F0B93FCCF3869596
:103C300077956795B395D9F73EF4909580957095F3
:103C400061957F4F8F4F9F4F089597FB0EF4A9D03A
:103C50003EC0E89409C097FB3EF49095809570951E
:103C600061957F4F8F4F9F4F9923A9F0F92F96E9C8
:103C7000BB279395F695879577956795B795F1113D
:103C8000F8CFFAF4BB0F11F460FF1BC06F5F7F4FDA
:103C90008F4F9F4F16C0882311F096E911C07723EC
:103CA00021F09EE8872F762F05C0662371F096E8F5
:103CB000862F70E060E02AF09A95660F771F881FC4
:103CC000DAF7880F9695879597F90895E894F92F74
:103CD00096EBFF2381F0121613061406440B9395FE
:103CE000F69587957795679557954040FF23B9F7E7
:103CF0001BC099270895882351F49850D2F7872B39
:103D0000762F652F542F432F322F20E0B1F3121658
:103D100013061406440B88233AF09A95440F551F56
:103D2000661F771F881FCAF755234AF4440F551F93
:103D300011F460FF04C06F5F7F4F8F4F9F4F880F5C
:103D40009695879597F90895990F0008550FAA0B36
:103D5000E0E8FEEF16161706E807F907C0F012169E
:103D60001306E407F50798F0621B730B840B950BA1
:103D700039F40A2661F0232B242B252B21F40895F6
:103D80000A2609F4A140A6958FEF811D811D089593
:103D900097F99F6780E870E060E008959FEF80ECFE
:103DA00008959095809570956095509540953095C3
:103DB00021953F4F4F4F5F4F6F4F7F4F8F4F9F4F1B
:103DC000089500240A941616170618060906089581
:103DD00000240A9412161306140605060895092EE7
:103DE0000394000C11F4882352F0BB0F40F4BF2B56
:103DF00011F460FF04C06F5F7F4F8F4F9F4F089596
:103E000057FD9058440F551F59F05F3F71F047958B
:103E1000880F97FB991F61F09F3F79F08795089570
:103E2000121613061406551FF2CF4695F1DF08C08F
:103E3000161617061806991FF1CF869571056105AC
:103E400008940895E894BB2766277727CB0197F954
:103E500008957ADF08F48FEF08950BD0C0CFB1DF5B
:103E600028F0B6DF18F0952309F092CF97CF1124F0
:103E7000EACFC6DFA0F3959FD1F3950F50E0551F11
:103E8000629FF001729FBB27F00DB11D639FAA27AF
:103E9000F00DB11DAA1F649F6627B00DA11D661FFE
:103EA000829F2227B00DA11D621F739FB00DA11D1F
:103EB000621F839FA00D611D221F749F3327A00DD9
:103EC000611D231F849F600D211D822F762F6A2F75
:103ED00011249F5750408AF0E1F088234AF0EE0FFA
:103EE000FF1FBB1F661F771F881F91505040A9F707
:103EF0009E3F510570F04CCFA6CF5F3FECF3983E4C
:103F0000DCF3869577956795B795F795E7959F5F6D
:103F1000C1F7FE2B880F911D9695879597F9089507
:103F2000DB018F939F930E94F31FBF91AF91A29FDC
:103F3000800D911DA39F900DB29F900D11240895A7
:103F4000991B79E004C0991F961708F0961B881FEB
:103F50007A95C9F780950895A1E21A2EAA1BBB1B7A
:103F6000FD010DC0AA1FBB1FEE1FFF1FA217B30745
:103F7000E407F50720F0A21BB30BE40BF50B661F5B
:103F8000771F881F991F1A9469F76095709580951F
:103F900090959B01AC01BD01CF010895052E97FBC3
:103FA0001EF400940E94E51F57FD07D00E94AC1F2D
:103FB00007FC03D04EF40C94E51F509540953095C6
:103FC00021953F4F4F4F5F4F089590958095709585
:103FD00061957F4F8F4F9F4F0895EE0FFF1F059004
:103FE000F491E02D09940E948B21A59F900DB49F20
:103FF000900DA49F800D911D11240895B7FF0C947E
:10400000F31F0E94F31F821B930B0895DF93CF933E
:104010001F930F939A9DF02D219FF00D8B9DF00D16
:104020008A9DE02DF10D039FF00D029FE00DF11D23
:104030004E9DE00DF11D5E9DF00D4F9DF00D7F93A7
:104040006F93BF92AF925F934F93D5010E948B21E4
:104050008B01AC01D7010E948B21EB01E80FF91F06
:10406000D6010E9456202F913F91D6010E948B21AC
:10407000C60FD71FE81FF91FAF91BF910E945620AE
:104080002F913F910E948B21C60FD71FE81FF91F68
:10409000D6010E948B21E60FF71F9801BE01CF01C8
:1040A00011240F911F91CF91DF9108950E948B21D0
:1040B000460F571FC81FD91F08F4319608956894FA
:1040C00001C0E894F92FF12B12F00C949320A0E09A
:1040D000B0E0EDE6F0E20C940521092E059422F4FF
:1040E0000E94EF20112392F4F0E80F26FFEFE094F6
:1040F000F09400951095B094C094D094A194BF0A08
:10410000CF0ADF0AEF0AFF0A0F0B1F0B0E949E2047
:1041100007FC0E94EF20CDB7DEB7ECE00C94212124
:10412000689401C0E8948F929F92CF93DF930E948E
:104130009E20DF91CF919F908F900895882499249D
:10414000F401E401B0E49F93AA279A158B049C0420
:10415000ED05FE05CF05D007A10798F4AD2FDC2FA4
:10416000CF2FFE2FE92D982C892E982F872F762F71
:10417000652F542F432F322F2227B85031F7BF918C
:1041800027C01B2EBF91BB27220F331F441F551F73
:10419000661F771F881F991F881C991CEE1FFF1F21
:1041A000CC1FDD1FAA1FBB1F8A149B04EC05FD0555
:1041B000CE05DF05A007B10748F08A189B08EC0977
:1041C000FD09CE09DF09A00BB10B21601A94E1F6BD
:1041D0002EF49401AF01BE01CD01000C089560954D
:1041E00070958095909530954095509521953F4FCD
:1041F0004F4F5F4F6F4F7F4F8F4F9F4F08952F92BD
:104200003F924F925F926F927F928F929F92AF9266
:10421000BF92CF92DF92EF92FF920F931F93CF93B3
:10422000DF93CDB7DEB7CA1BDB0B0FB6F894DEBF4A
:104230000FBECDBF09942A88398848885F846E8470
:104240007D848C849B84AA84B984C884DF80EE80BA
:10425000FD800C811B81AA81B981CE0FD11D0FB6C3
:10426000F894DEBF0FBECDBFED0108950F93083067
:1042700090F0982F872F762F652F542F432F322FB2
:1042800022270850F4CF220F331F441F551F661FEB
:10429000771F881F991F0A95B2F70F91089597FB12
:1042A00010F8169400080F93083098F00850232F48
:1042B000342F452F562F672F782F892F902DF4CF2D
:1042C0000594979587957795679557954795379571
:1042D00027950A95AAF70F9108952A0D3B1D4C1DAD
:1042E0005D1D6E1D7F1D801F911F08952A193B09BA
:1042F0004C095D096E097F09800B910B089500241C
:10430000A7FD00942A17300540055005600570058B
:10431000800590050895A29FB001B39FC001A39F9F
:10432000700D811D1124911DB29F700D811D1124EE
:08433000911D0895F894FFCFE0
:1043380001000000FF1300010000C8048000556E52
:104348006B6E6F776E2070696E206D6F6465007399
:104358006164725F6D6574656F2E696E6F004932B6
:10436800432052656164204572726F723A20546F1F
:104378006F206D616E792062797465732072656350
:104388006569766564004932432052656164204559
:1043980072726F723A20546F6F2066657720627967
:1043A8007465732072656365697665640031302DC4
:1043B8006269742061646472657373696E67206DE5
:1043C8006F6465206973206E6F742079657420733B
:1043D8007570706F7274656400746F6F206D616EB4
:1043E8007920717565726965730000000000DA0A4A
:1043F800721A860AAF0A960ACF0A2E6370700000F6
:10440800000000CE18A11876187E189118A0180080
:00000001FF
