:100000000C94BD000C94E5000C94E5000C94E50004
:100010000C94E5000C94E5000C94E5000C94E500CC
:100020000C94E5000C94E5000C94E5000C94EA0DAA
:100030000C94E5000C94E5000C94E5000C94E500AC
:100040000C9477090C94E5000C9467020C9441021F
:100050000C94E5000C94E5000C94E5000C94E5008C
:100060000C943A0C0C94E5009307AB07EB06AB0736
:100070004607AB07CB067706AB07AB07AB07AB076B
:10008000AB078C05AB074F06AB07B506CE1DD71DDA
:10009000E01DE91DF21DFB1D0F1E041E0763423605
:1000A000B79BD8A71A39685618AEBAAB558C1D3C09
:1000B000B7CC5763BD6DEDFD753EF6177231BF00CD
:1000C0000000803F08000000BE922449123EABAA07
:1000D000AA2ABECDCCCC4C3E00000080BEABAAAA62
:1000E000AA3E00000000BF000000803F00000000AA
:1000F00000084178D3BB4387D1133D190E3CC3BDE3
:100100004282AD2B3E68EC8276BED98FE1A93E4C8F
:1001100080EFFFBE01C4FF7F3F0000000000000031
:100120000000240027002A0000000000250028000D
:100130002B0000000000230026002900000000081A
:10014000000201000003040700000000000000009E
:10015000040404040404040402020202020203036D
:100160000303030301020408102040800102040875
:1001700010200102040810206F1E11241FBECFEFB3
:10018000D8E0DEBFCDBF11E0A0E0B1E0E2E3FEE4E5
:1001900002C005900D92AA3DB107D9F725E0AAED5E
:1001A000B1E001C01D92A537B207E1F710E0CDEB39
:1001B000D0E004C02197FE010E948C25CC3BD107E2
:1001C000C9F70E9452150C94AA1F0C940000CF92FC
:1001D000DF92EF92FF920F931F93CF93DF936C0107
:1001E0007A018B01C0E0D0E0CE15DF0589F0D8019F
:1001F0006D918D01D601ED91FC910190F081E02D82
:10020000C6010995892B11F47E0102C02196ECCF1D
:10021000C701DF91CF911F910F91FF90EF90DF9079
:10022000CF900895089580E090E008953FB7F89446
:100230008091460290914702A0914802B0914902F4
:1002400026B5A89B05C02F3F19F00196A11DB11D31
:100250003FBFBA2FA92F982F8827820F911DA11D6C
:10026000B11DBC01CD0142E0660F771F881F991FA9
:100270004A95D1F70895843028F4E82FF0E0E25B46
:10028000FD4F60830895803100F5409156025091F2
:10029000570221E030E0672B61F4B90102C0660F1C
:1002A000771F8A95E2F7CB0180959095842395235B
:1002B00008C002C0220F331F8A95E2F7CA01822BC1
:1002C000932B90935702809356020895843008F040
:1002D00064C0482F440F440F440F485F4F3108F06B
:1002E0004EE1582F550F550F550F90E071E0541700
:1002F000F0F42EEF250F2231B8F4252F30E0F9016C
:10030000E85AFD4FE081E23078F4972B220F331F3B
:10031000F901EE5FFD4FA1E0B0E0272F262311F495
:10032000A0E0B0E0B183A083770F5F5FE0CF8111E1
:100330000AC09C7FF8948BB1292F209582236923D2
:10034000682B6BB929C08130C1F46923F89425B1B9
:10035000892F8F7380958223262F2F73822B85B947
:1003600088B1629566956695637092959695969517
:10037000937090959823692B0EC0823071F49F7012
:10038000F89428B1892F880F880F809582236923DC
:10039000660F660F682B68B97894089587E494E037
:1003A0000E94480B21E0892B09F420E0822F089558
:1003B000EF92FF920F931F93CF93DF93D82F8B0170
:1003C000C42F6F3F8FEF7807F1F081E080935203E5
:1003D000D093730310927803109277038BE793E026
:1003E0000E94980A0E944515E0913E02F0913F025A
:1003F000E230F10550F0EE0FFF1FEE0FFF1F3597B3
:100400003197F1F702C000E010E06C2F8D2F0E94B1
:100410004310EC2EF12C2091790330E080917A0387
:10042000281B3109E216F306A1F4D093E2010093F0
:10043000E30100E010E00E151F05ACF48BE793E03C
:100440000E944C0AF801EE51FE4F82830F5F1F4F4E
:10045000F2CF2E153F051CF48DE291E002C085E538
:1004600091E00E94560BCE5F6C2F70E042EE51E09F
:1004700087E7DF91CF911F910F91FF90EF900C9440
:1004800010141F920F920FB60F9211242F933F93C7
:100490004F935F936F937F938F939F93AF93BF938C
:1004A000EF93FF9387E494E00E94260FFF91EF9172
:1004B000BF91AF919F918F917F916F915F914F917C
:1004C0003F912F910F900FBE0F901F9018951F9284
:1004D0000F920FB60F9211242F938F939F93EF9348
:1004E000FF93E0915704F09158048081E0915D04FE
:1004F000F0915E0482FD12C09081809160048F5F54
:100500008F7320916104821751F0E0916004F0E054
:10051000E95BFB4F958F8093600401C08081FF9160
:10052000EF919F918F912F910F900FBE0F901F9081
:100530001895833081F028F4813099F08230A1F051
:1005400008958730A9F08830B9F08430D1F48091D3
:1005500080008F7D03C0809180008F778093800022
:10056000089584B58F7702C084B58F7D84BD0895CA
:100570008091B0008F7703C08091B0008F7D809311
:10058000B00008951F93CF93DF93282F30E0F90137
:10059000E45CFE4F8491F901EC59FE4FD491F901CE
:1005A000E05BFE4FC491CC23C9F0162F81110E944D
:1005B0009902EC2FF0E0EE0FFF1FE85DFE4FA591D2
:1005C000B4918FB7F894111105C09C91ED2FE0956F
:1005D000E92302C0EC91ED2BEC938FBFDF91CF911B
:1005E0001F910895CF93DF9390E0FC01EC59FE4FEB
:1005F0002491FC01E05BFE4F8491882361F190E03F
:10060000880F991FFC01E25EFE4FC591D491FC0159
:10061000E85DFE4FA591B491611109C09FB7F894B0
:100620008881209582238883EC912E230BC0623031
:1006300061F49FB7F8943881822F80958323888353
:10064000EC912E2B2C939FBF06C08FB7F894E881B6
:100650002E2B28838FBFDF91CF9108956F927F92C9
:100660008F929F92AF92BF92CF92DF92EF92FF92C2
:100670000F931F93CF93DF931F92CDB7DEB7982FC1
:100680003B018E3108F003C1082F10E0F801E85A51
:10069000FD4F8081833009F48FC0843009F0F7C0AA
:1006A00092509C3008F0ECC0780182E0E81AF10822
:1006B0006701CC0CDD1C603282E078070CF042C090
:1006C00077FD05C0653B710524F4DB0104C0A0E0A3
:1006D00001C0A4EBB0E0F601EE0DFF1DE75FFA4F9D
:1006E000818128E830E04901881A910887FD9394B8
:1006F000880C991C880C991C092C000CAA08BB08B2
:10070000828128E532E0281B310987FD3395220FCD
:10071000331F220F331FA901330F660B770B9A018A
:10072000AB01281939094A095B090E94D71F24EB3C
:1007300030E040E050E00E94AD1F820E931EA41EE8
:10074000B51E01C04B01F601EE0DFF1DE75FFA4F2C
:1007500020812C3008F094C0318188E890E0831B20
:10076000910937FD9395880F991F880F991F881657
:10077000990684F0828148E552E0481B510987FDC3
:100780005395440F551F440F551FC4014815590573
:100790000CF4CA010297880F991F4FB7F89430E004
:1007A000F901EE0FFF1F2E0F3F1FF901EC51FB4F18
:1007B000928381834FBF64C0933049F08BEF890FE0
:1007C000823028F087EF890F833008F059C061E04C
:1007D000892F99830E94F20299816114710411F4A6
:1007E00060E005C08FEF6816710429F461E0892F7D
:1007F0000E94C20245C0F801E45CFE4FE491E33080
:10080000F9F048F4E130B9F0E230A1F584B5806246
:1008100084BD68BC35C0E730E9F0E83019F1E43058
:1008200049F58091800080628093800070928B00F7
:1008300060928A0025C084B5806884BD67BC20C0F2
:10084000809180008068809380007092890060921F
:10085000880016C08091B00080688093B0006092DC
:10086000B3000EC08091B00080628093B0006092AF
:10087000B40006C080E8681671040CF0B7CFB0CFA2
:10088000000F111FF801EE5FFD4F718260820F9023
:10089000DF91CF911F910F91FF90EF90DF90CF905C
:1008A000BF90AF909F908F907F906F900895BF9270
:1008B000CF92DF92EF92FF920F931F93CF93DF932C
:1008C00000D0CDB7DEB7B82E8B01C82ED12CC60113
:1008D000885A9D4F7C01FC018081863061F48091B3
:1008E0004402882341F06630710529F010924402D9
:1008F0008FEF809300014EEF4B0D4C30C8F4043065
:100900001105B1F0C6010297FC01EE0FFF1F8E0F1B
:100910009F1FFC01E75FFA4FE081F0E0CF01880FF5
:10092000991FE80FF91FEC51FB4F808186FDD3C062
:1009300092EF9B0D903170F461E070E00230110590
:1009400011F060E070E0892F49839A830E9443018F
:100950009A8149814231C8F4EB2DE695E695E695FA
:100960008B2D8770F0E0EA5FFC4F21E030E001C0A2
:10097000220F8A95EAF70115110519F48081282BB9
:1009800003C02095808128232083F601EE0FFF1FEE
:10099000EE5FFD4F118210820230110591F03CF4A0
:1009A00001151105E9F00130110541F185C0043050
:1009B000110509F44AC07CF10630110509F474C030
:1009C0007BC0903108F08AC0423140F460E08B2D4A
:1009D0000E94F20260E08B2D0E94C20282E069C098
:1009E000423108F07BC060E08B2D0E94F20260E093
:1009F0008B2D0E94C202F701108270C0423108F0B4
:100A00006DC060E08B2D0E94C20261E08B2D0E94C0
:100A1000F20281E04EC0F3E0BF1649F08BEF8B0D80
:100A2000823028F087EF8B0D833008F057C061E0EB
:100A30008B2D0E94F20261E08B2D0E94F20260E099
:100A40008B2D0E94C20283E034C04C3008F046C0B7
:100A500084E0F7018083C60102979C01220F331FB7
:100A6000820F931F875F9A4FFC01208130E0F901CC
:100A7000EE0FFF1F2E0F3F1FF901EC51FB4F20819E
:100A800026FD2CC020E639E040E252E0B6010F908E
:100A90000F90DF91CF911F910F91FF90EF90DF901A
:100AA000CF90BF900C94680D8EEE8B0D8230B0F419
:100AB00086E0F701808312C08CE791E00F900F90E1
:100AC000DF91CF911F910F91FF90EF90DF90CF902A
:100AD000BF900C94560B8F7B80832ACF0F900F9082
:100AE000DF91CF911F910F91FF90EF90DF90CF900A
:100AF000BF9008950F931F93CF93DF9390E0FC0175
:100B0000E956F109E231F10508F025C2EA01162F94
:100B1000EC5CFF4F0C948C258981982F987185FF90
:100B200003C08DE891E053C08881983069F168F482
:100B3000911111C291E0909352038093730310922C
:100B400078031092770302E007C0903109F439C0AE
:100B5000983109F45FC0FFC1011778F4FE01E00F7E
:100B6000F11D8181608120E8829F601911248BE74B
:100B700093E00E94980A0E5FEFCF0E94451583E133
:100B800091E00197F1F7E7C19B816A81163061F42A
:100B90002D814C8130E8239F4019112420E8929F39
:100BA0006019112470E007C0462F30E8939F401968
:100BB00011246FEF7FEFDF91CF911F910F910C9474
:100BC000D801E0910001E7FD08C089EB91E0DF91D9
:100BD000CF911F910F910C94560BEF5FE0930001A2
:100BE0000E2E000CFF0B9F01220F331FE20FF31F8D
:100BF000E05CFD4F80839B818A8120E8929F801971
:100C0000112481839D818C8130E8939F8019112468
:100C10008283A1C130910001131624F08FEF8093DD
:100C2000000199C120E0632F032E000C770B422FA7
:100C300050E0641775076CF0FA01EE0FFF1F4E0FBE
:100C40005F1FFA01E05CFD4F808381111FC02F5FA1
:100C5000EECF20E01BC0211118C0DC011196AD01C0
:100C6000440F551FA40FB51FA05CBD4F4C91FC0154
:100C7000EE0FFF1F8E0F9F1FFC01E05CFD4F4083B6
:100C80008C91818312968C9182832F5F822F90E0CA
:100C90006817790704F73150309300015CC128814F
:100CA000898130E8839FC0011124820F911D009734
:100CB00021F090933F0280933E0280914402811183
:100CC0004AC1C0E08EEE8C0F823028F466E070E0FE
:100CD0008C2F0E945704CF5FCE31A1F781E0809323
:100CE0004402DF91CF911F910F910C9462146530F3
:100CF00008F431C1188199814A815B812C818EEF82
:100D0000810F8C3008F027C1612F70E0DB01129752
:100D1000FD01EE0FFF1FAE0FBF1FA75FBA4FEC9193
:100D2000F0E0EF01CC0FDD1FEC0FFD1FEC51FB4F8E
:100D3000808186FF02C08F7B808380E8289F90019E
:100D40001124250F311D80E8489FA0011124490F6F
:100D5000511DCD010E94680D64E070E0812FDF918C
:100D6000CF911F910F910C945704623008F4F3C097
:100D70002881898130E8839FC0011124820F911D51
:100D8000883E23E0920714F488EE93E090930201EA
:100D900080930101E0C0623008F4DDC0698170E039
:100DA000123091F08A8130E8839FC0011124682BB2
:100DB000792B133049F08B8190E090E4899F902D3E
:100DC00088271124682B792B8881DF91CF911F917F
:100DD0000F910C942E0380EF90E00E945D148CE63E
:100DE00090E00E945D14CEEF84EF8C0F803148F4C8
:100DF00082E090E00E945D148AE090E00E945D1421
:100E00000BC0C13049F483E090E00E945D1488E09B
:100E100090E00E945D1408C08DEF8C0F823098F333
:100E200089EF8C0F833078F3CC3040F484E090E08D
:100E30000E945D148EE090E00E945D1480EF8C0FA4
:100E4000823040F486E090E00E945D1481E090E002
:100E50000E945D148FE790E00E945D14CF5FCC315B
:100E600041F1C23108F660E087E494E00E94470F48
:100E700081E090E00E945D1461E087E494E00E94CC
:100E8000470F81E090E00E945D14AECF662309F425
:100E900062C0C88180EF90E00E945D148EE690E011
:100EA0000E945D146C2F87E494E00E94470FCE31BE
:100EB00040F087EF90E0DF91CF911F910F910C945C
:100EC0005D14D0E0FE01E85AFD4F608187E494E0B4
:100ED0000E94470FCC0FDD1FCE5FDD4F0990D881F8
:100EE000C02DCE018F7799270E945D14CE018078A6
:100EF000892B49F0CE01880F892F881F990B8F7796
:100F000099270E945D14CE018827907C892B89F255
:100F1000CE01990F880B990F982F881F8F779927EB
:100F20000E945D14C6CF80EF90E00E945D148AE6B7
:100F300090E00E945D14C2EFDFEF8C2FC03110F4FF
:100F40009D2F02C08FE790E00E945D142196C03172
:100F5000D10599F7AECFDF91CF911F910F910895F1
:100F60008F929F92AF92BF92CF92DF92EF92FF92B9
:100F70006B017C010E9416014B015C01C114D1047C
:100F8000E104F104F1F00E941601DC01CB018819A3
:100F90009909AA09BB09883E9340A105B10570F3E0
:100FA00021E0C21AD108E108F10888EE880E83E03A
:100FB000981EA11CB11CC114D104E104F10419F75D
:100FC000DDCFFF90EF90DF90CF90BF90AF909F90DC
:100FD0008F900895CF93DF9380914402882329F066
:100FE000109244028FEF80930001C6E0D3E0A2E0AC
:100FF000B3E0EEE4F2E084E08E0F119219921D92BC
:101000008E13FBCFC0E082EF8C0F803118F462E0CA
:1010100070E002C061E070E08C2F0E945704CF5F47
:10102000CE3189F7109257021092560286E78093CC
:101030002E05809137058F3F19F40E9462144EC02F
:1010400061E00E94C20261E0809137050E94F202D5
:1010500080913A058F3F09F034C0CFB7F894809162
:101060004302811127C0EAE5F1E08491EEE6F1E068
:101070009491E82FF0E0EE0FFF1FE25EFE4FA59186
:10108000B491EC91E92321F461E08AE00E94C2026C
:1010900061E08AE00E94F2028CB580618CBD8CB563
:1010A00080648CBD61E08DE00E94F20261E08BE023
:1010B0000E94F202809143028F5F80934302CFBF70
:1010C0000DC061E00E94F20261E0809138050E944B
:1010D000F20260E0809139050E94F20280ED0E94E8
:1010E0008E10803609F0EEC066EB80EE0E94FE0F97
:1010F0006CE271E080E090E00E94B00783EF0E9414
:101100008E1080FF05C064E670E080E090E0F4CFD0
:1011100088E80E94D41090933C0580933B058AE8B0
:101120000E94D41090933E0580933D058CE80E9468
:10113000D4109093400580933F058EE80E94D41010
:10114000909342058093410580E90E94D4109093CA
:1011500044058093430582E90E94D410909346058C
:101160008093450584E90E94D410909348058093AC
:10117000470586E90E94D41090934A05809349055B
:1011800088E90E94D41090934C0580934B058AE91E
:101190000E94D41090934E0580934D058CE90E94D7
:1011A000D4109093500580934F058EE90E94D4107F
:1011B000909352058093510581EA0E948E1080938E
:1011C000530581EE0E94D4109093550580935405E9
:1011D00083EE0E948E108093560584EE0E948E103E
:1011E000C82F85EE0E948E10282F2F7030E1C39FEC
:1011F000C0011124822B909358058093570586EEE9
:101200000E948E10C82F85EE0E948E1090E024E080
:10121000959587952A95E1F740E1C49F90011124A7
:10122000822B932B90935A058093590587EE0E9449
:101230008E1080935B058DEE80935D0580915E0539
:101240008F71806A80935E0580915C05807C8093BD
:101250005C0565E082EF0E94FE0F90915C05692FAE
:10126000677080E2689F90011124892F869586958A
:101270008695877048E0849FB0011124622B732B00
:1012800097FB992790F9692B85EF0E94FE0F9091AB
:101290005D05692F677080E2689F90011124892F96
:1012A000869586958695877048E0849FB0011124C5
:1012B000622B732B9295969596959370692B84EF7C
:1012C0000E94FE0F62E0809164050E94F20280E3BA
:1012D00098EFAFEFBFEF8093680590936905A093F7
:1012E0006A05B0936B05DF91CF910C9462141F9245
:1012F0000F920FB60F9211242F933F938F939F93CA
:10130000AF93BF9380910A0390910B03A0910C03BC
:10131000B0910D033091450223E0230F2D3720F4C7
:101320000196A11DB11D05C026E8230F0296A11D3F
:10133000B11D2093450280930A0390930B03A09361
:101340000C03B0930D038091460290914702A09147
:101350004802B09149020196A11DB11D8093460239
:1013600090934702A0934802B0934902BF91AF9176
:101370009F918F913F912F910F900FBE0F901F90D3
:1013800018958F929F92AF92BF92CF92DF92EF9279
:10139000FF92C0905202D0905302E0905402F0901D
:1013A00055022DEC3CEC4CEC5DE3C701B6010E940C
:1013B000A5240E943D224B015C0123EC35EF48EA55
:1013C0005EE3C701B6010E94A5246B017C012AE0FF
:1013D00037ED43E25DE3C501B4010E94A5249B0102
:1013E000AC01C701B6010E9452219B01AC01609182
:1013F0004A0270914B0280914C0290914D020E94E2
:101400005121FF90EF90DF90CF90BF90AF909F90D1
:101410008F90089585ED8093BC008091BC0084FD81
:10142000FCCF1092760308954091DD02262F30E024
:10143000240F311D21323105DCF420917603243054
:10144000C9F4FC0180E090E0861758F43091DD0289
:101450002191DC01A554BD4FA30FB11D2C93019622
:10146000F3CF8091DD02680F6093DD0280E0089584
:1014700081E0089582E008950895E0917A038091D3
:101480007903E81730F4F0E0E25FFC4F808190E0F0
:1014900008958FEF9FEF089590917A0380917903DB
:1014A000981750F4E92FF0E0E25FFC4F208130E024
:1014B0009F5F90937A0302C02FEF3FEFC901089519
:1014C0008091790390E020917A03821B910908951D
:1014D000CF92DF92EF92FF920F931F93CF93DF9300
:1014E0007C01262F972F8A0180915203882391F047
:1014F000C62FD72F6E01C40ED51ECC15DD0571F099
:101500006991D701ED91FC910190F081E02DC70127
:101510000995F3CF642F822F0E94140AC801DF912E
:10152000CF911F910F91FF90EF90DF90CF90089592
:10153000CF93DF931F92CDB7DEB76983209152031B
:101540002223D1F020917703203240F021E030E0D7
:10155000FC013383228380E090E015C08091780302
:10156000E82FF0E0ED5AFC4F998190838F5F8093D4
:1015700078038093770305C061E0CE0101960E9455
:10158000140A81E090E00F90DF91CF910895E091EF
:10159000B802F091B902309709F009940895862FA6
:1015A000642FE091B602F091B702309711F0A901D3
:1015B000099408950895862FE091B402F091B50240
:1015C000309711F0BA0109940895862FE091B20284
:1015D000F091B302309711F0BA0109940895862F63
:1015E000E091B002F091B102309711F0BA01099484
:1015F0000895862FE091AE02F091AF02309711F07E
:10160000BA0109940895862FE091AC02F091AD02E1
:10161000309711F0BA0109940895862FE091AA023B
:10162000F091AB02309711F0BA0109940895FC01D2
:10163000538D448D252F30E0842F90E0821B930B37
:10164000541710F0CF96089501970895FC01918DDD
:10165000828D981761F0828DDF01A80FB11D5D9614
:101660008C91928D9F5F9F73928F90E008958FEF82
:101670009FEF0895FC01918D828D981731F0828D36
:10168000E80FF11D858D90E008958FEF9FEF08958D
:10169000FC01918D228D892F90E0805C9F4F821BF1
:1016A00091098F73992708950E943D21FC010190B3
:1016B0000020E9F73197BF01681B790BAC0181E786
:1016C0000C941014CF93DF93FC01A081B18110978B
:1016D00001F1EC01ED91FC9111970190F081E02D69
:1016E00069EFCD01099588819981DC01ED91FC912B
:1016F0000190F081E02D62E0099588819981DC01FB
:10170000ED91FC910190F081E02D65E0DF91CF91AA
:101710000994DF91CF910895009721F0805C9F4F4D
:101720000C94620B08952F923F925F926F927F927A
:101730008F929F92AF92BF92CF92DF92EF92FF92E1
:101740000F931F93CF93DF937C013901DA015C90F3
:10175000232B19F466246A94762C8A011A01260E2A
:10176000371EC0E0D0E0812C912C87E0C82ED12C10
:101770000215130509F444C08614970408F068C0E4
:101780005801F70180819181FC01A081B181F801AC
:1017900021918F01E22F0C2E01C0EE0F0A94EAF77F
:1017A000652D6E2B6F77ED91FC9109958FEF881A5F
:1017B000980AD5016C9170E0C6018C1B9D0B02C08C
:1017C000759567958A95E2F7562E2196C730D10513
:1017D00078F28614970461F2F70180819181DC012F
:1017E000ED91FC91652D6F770190F081E02D0995C9
:1017F000BFEF8B1A9B0A551C5524551C2797E6CF23
:10180000209731F18614970418F5F70180819181B2
:10181000DC01ED91FC9161E070E001C0660FCA95BA
:10182000EAF7615065210190F081E02DDF91CF91C1
:101830001F910F91FF90EF90DF90CF90BF90AF90EE
:101840009F908F907F906F905F903F902F90099422
:10185000DF91CF911F910F91FF90EF90DF90CF908C
:10186000BF90AF909F908F907F906F905F903F90D0
:101870002F9008951F920F920FB60F9211242F935D
:101880003F934F935F936F937F938F939F93AF9308
:10189000BF93EF93FF938091B900887F803609F45E
:1018A0009CC068F5883209F45BC090F4803109F47B
:1018B00054C038F4882309F4F6C0883009F44DC0C8
:1018C000F6C0883109F44CC0803209F45DC0EFC025
:1018D000803409F468C048F4803309F455C0883373
:1018E00009F0E5C080935103D8C0803509F44FC09A
:1018F000883509F45DC0883409F0D9C0D6C088396C
:1019000009F4C7C0A8F4883709F467C038F48836EA
:1019100009F463C0803709F460C0C9C0883809F48D
:10192000B8C0803909F45FC0803809F0C0C05BC01E
:10193000803B09F486C038F4803A09F466C0883ADE
:1019400009F47FC0B4C0803C09F4A7C0883C09F406
:10195000A4C0883B09F48AC0AAC080912E0310C09D
:101960009091500380914F03981770F5E0915003C8
:1019700081E08E0F80935003F0E0E15DFC4F8081A9
:101980008093BB0085EC86C0809351038EC0E091AC
:10199000500381E08E0F809350038091BB00F0E0F4
:1019A000E15DFC4F80839091500380914F036EC0A6
:1019B000E091500381E08E0F809350038091BB0033
:1019C000F0E0E15DFC4F80838091750381116DC073
:1019D00081E08093740384EA61C083E0809376039E
:1019E00010920103CFCF80910103803208F051C0E3
:1019F000E091010381E08E0F809301038091BB0091
:101A0000F0E0EF51FD4F8083BDCF85EC8093BC00AB
:101A10001092760380910103803230F4E09101034B
:101A2000F0E0EF51FD4F10826091010370E0E09112
:101A3000DF02F091E00281EE92E00995109201033D
:101A400036C084E0809376031092DE021092DD02AD
:101A5000E091DB02F091DC0209958091DD028111B9
:101A600005C081E08093DD021092BB02E091DE02AE
:101A700081E08E0F8093DE02F0E0E554FD4F80811F
:101A80008093BB009091DE028091DD02981708F4EC
:101A900079CF85E88093BC000AC085EC8093BC00B8
:101AA0001092760304C0109251030E940A0AFF911B
:101AB000EF91BF91AF919F918F917F916F915F91C6
:101AC0004F913F912F910F900FBE0F901F9018953F
:101AD000DF92EF92FF920F931F93CF93DF93EC016E
:101AE000D62E7A01890188818C3008F06AC061E0C5
:101AF0008D2D0E94F2028881E82FF0E09F01220FD5
:101B0000331FE20FF31FEC51FB4F9D2D9F7320817C
:101B1000207CD22ED92AD08260E272E0AB014E192D
:101B20005F0957FF02C04D5F5F4F5595479555952B
:101B30004795498340E659E09A01201B310B37FF56
:101B400002C02D5F3F4F35952795359527952A8300
:101B50006CE00E9480259CE0899FB001112440E048
:101B600050E09A01260F371FF901EE0FFF1F2E0FCD
:101B70003F1FF901EC51FB4F908196FD16C04F5F5E
:101B80005F4F4C30510569F781110FC010928000F2
:101B900082E0809381001092850010928400B19AB7
:101BA00080916F00826080936F00E881F0E0CF0148
:101BB000880F991FE80FF91FEC51FB4F808180645B
:101BC00080838881DF91CF911F910F91FF90EF90DB
:101BD000DF9008951F920F920FB60F9211242F934A
:101BE0003F934F935F936F937F938F939F93AF93A5
:101BF000BF93EF93FF938091BA0287FF05C01092C5
:101C00008500109284001BC02091BA02022E000CA5
:101C1000330B8091080590E02817390784F48091F0
:101C2000BA02082E000C990BFC01EE0FFF1F8E0F5D
:101C30009F1FFC01EC51FB4F808186FD15C08091F8
:101C4000BA028F5F8093BA022091BA02022E000C72
:101C5000330B8091080590E028173907C4F4809170
:101C6000BA028C3064F113C08091BA02082E000CC5
:101C7000990BFC01EE0FFF1F8E0F9F1FFC01EC5113
:101C8000FB4F808160E08F730E94C202D8CF8091A9
:101C9000840090918500049680349C4918F480E477
:101CA0009CE905C0809184009091850004969093F2
:101CB0008900809388008FEF8093BA023BC0209107
:101CC0008400309185008091BA02082E000C990B97
:101CD000FC01EE0FFF1F8E0F9F1FFC01EC51FB4F0D
:101CE00081819281820F931F909389008093880055
:101CF0008091BA02082E000C990BFC01EE0FFF1F19
:101D00008E0F9F1FFC01EC51FB4F808186FF12C09C
:101D10008091BA02082E000C990BFC01EE0FFF1FF8
:101D20008E0F9F1FFC01EC51FB4F808161E08F7390
:101D30000E94C202FF91EF91BF91AF919F918F914D
:101D40007F916F915F914F913F912F910F900FBEB7
:101D50000F901F901895DF92EF92FF920F931F93B1
:101D6000CF93DF93FC01E058FF4FD080DD2009F4D2
:101D70005CC0319600811181D8011196FC901197B9
:101D8000EC90EC01C05CDF4F88819981009709F4E9
:101D90004CC0DC01ED91FC910190F081E02D60EFF1
:101DA000099588819981DC01ED91FC910190F08188
:101DB000E02D69E7099588819981DC01ED91FC911D
:101DC0000190F081E02D6E2D099588819981DC01CB
:101DD000ED91FC910190F081E02D6F2D0995780136
:101DE000B2E0EB0EF11C0D0D111DE016F10661F0D5
:101DF00020E030E0A70161E070E0CE010E94930B8B
:101E0000EFEFEE1AFE0AF1CF88819981DC01ED91A6
:101E1000FC910190F081E02D67EFDF91CF911F9150
:101E20000F91FF90EF90DF900994DF91CF911F9178
:101E30000F91FF90EF90DF900895009711F00C94B0
:101E4000AB0E089508958CBD9DBD0895FC01848D51
:101E5000DF01A80FB11DA35ABF4F2C91848D90E0D4
:101E600001968F739927848FA689B7892C93A089AF
:101E7000B1898C9180648C93938D848D981306C066
:101E80000288F389E02D80818F7D80830895EF9211
:101E9000FF920F931F93CF93DF93EC0181E0888F24
:101EA0009B8D8C8D981305C0E889F989808185FD0B
:101EB00024C0F62E0B8D10E00F5F1F4F0F731127FC
:101EC000E02E8C8DE8120CC00FB607FCFACFE88923
:101ED000F989808185FFF5CFCE010E94260FF1CFD1
:101EE0008B8DFE01E80FF11DE35AFF4FF0820B8F3F
:101EF000EA89FB898081806207C0EE89FF8960835F
:101F0000E889F98980818064808381E090E0DF91B5
:101F1000CF911F910F91FF90EF900895CF93DF9392
:101F2000EC01888D8823C9F0EA89FB89808185FDD1
:101F300005C0A889B9898C9186FD0FC00FB607FC32
:101F4000F5CF808185FFF2CFA889B9898C9185FF73
:101F5000EDCFCE010E94260FE7CFDF91CF910895FC
:101F60008F929F92AF92BF92CF92DF92EF92FF92A9
:101F7000CF93DF93A0916605882311F03A2F01C01B
:101F800030E08091670590E0880F991F8E5C9E4F2E
:101F9000C0906C05D0906D05E0906E05F0906F05D7
:101FA00040E050E0BA01FC01C591D49128812A2378
:101FB00023130FC04A015B012FEF821A920AA20A73
:101FC000B20A4C155D056E057F0538F4B501A40114
:101FD000EACF342F252FCB0104C030E020E080E091
:101FE00090E0632F722FDF91CF91FF90EF90DF9001
:101FF000CF90BF90AF909F908F900895CF93DF9335
:10200000D82FC62F809137058F3FC9F480912E05B8
:1020100091E090935203809373031092780310928F
:1020200077036D2F8BE793E00E94980A6C2F8BE764
:1020300093E00E94980ADF91CF910C94451580910E
:102040003A058F3F21F482E591E00E94230F60E082
:10205000809137050E94C2028D2F8F770E948814CD
:102060008C2F0E94881461E0809137050E94C20283
:1020700080913A058F3F21F4DF91CF910C94220F8C
:10208000DF91CF910895909176039111FCCF613249
:1020900008F060E291E090937603909375032FEF40
:1020A0002093510310925003260F20934F039093D7
:1020B0002E0390912E03880F892B80932E038091FD
:1020C0007403813061F41092740380912E03809325
:1020D000BB008091BC0083FDF8CF85EC01C085EE8C
:1020E0008093BC00809176038130E1F380915003AE
:1020F000861710F460915003AFE2B3E02EE033E0B6
:10210000F9018E2F821B861718F48D918193F9CFD8
:1021100010927A0360937903862F0895CF93C82F86
:10212000809137058F3FE9F480912E0591E09093DF
:1021300052038093730310927803109277036C2FED
:102140008BE793E00E94980A0E94451561E0809118
:102150002E050E9443108BE793E00E944C0AC82F83
:1021600020C080913A058F3F21F482E591E00E94E2
:10217000230F60E0809137050E94C2028C2F806897
:102180000E94881480E00E948814C82F61E080912A
:1021900037050E94C20280913A058F3F11F40E94D8
:1021A000220F8C2FCF910895CF93DF93C82F80916A
:1021B00037058F3F39F580912E0591E090935203BA
:1021C0008093730310927803109277036C2F8BE740
:1021D00093E00E94980A0E94451562E080912E05C6
:1021E0000E9443108BE793E00E944C0AC82F8BE7B4
:1021F00093E00E944C0A20E030E03C2FE901C82B1C
:10220000D92B29C080913A058F3F21F482E591E0D6
:102210000E94230F60E0809137050E94C2028C2F3C
:1022200080680E94881480E00E948814C82F80E093
:102230000E9488142C2F30E0322F2227E901C82B6E
:1022400061E0809137050E94C20280913A058F3F7C
:1022500011F40E94220F9C2F8D2FDF91CF910895B2
:10226000CF92DF92EF92FF920F931F93CF93DF9362
:10227000CDB7DEB7C054D1400FB6F894DEBF0FBE65
:10228000CDBF2FB7F89480910A0390910B03A091D2
:102290000C03B0910D032FBF409168055091690563
:1022A00060916A0570916B058C019D01041B150BF3
:1022B000260B370BB901A801403D57406105710558
:1022C00018F480917005BCC08093680590936905EF
:1022D000A0936A05B0936B05109263051092620596
:1022E000109261051092600510925F0561E0809187
:1022F00064050E94C2026AEF70E080E090E00E94F4
:10230000B00761E0809164050E94F20260E0809174
:1023100064050E94C20264E170E080E090E00E94E7
:10232000B007F89461E0809164050E94C2028BE9D5
:1023300090E00197F1F762E0809164050E94F2025B
:1023400083E290E00197F1F780E00E94B00F672BE5
:10235000682B692B21F41092700578943EC081E0BF
:102360000E94B00F672B682B692BA9F38E010F5FBA
:102370001F4F6E012FEBC21A2EEFD20A780180E0B8
:102380000E94B00FF701608371838283938381E0A1
:102390000E94B00FF7016483758386839783F8E00A
:1023A000EF0EF11CEC14FD0451F7789420E030E0BE
:1023B000F8014081518162817381C480D580E680BB
:1023C000F780411551056105710529F0C114D1044B
:1023D000E104F10421F41092700580E031C0F901AC
:1023E00083E0F595E7958A95E1F7E15AFA4F808108
:1023F000880F4C155D056E057F0508F481608083AC
:102400002F5F3F4F085F1F4F2832310589F620911B
:10241000630530E040915F058091600590E0840F96
:10242000911D40916105840F911D40916205840FBB
:10243000911D99272817390771F681E0809370055F
:10244000C05CDE4F0FB6F894DEBF0FBECDBFDF918C
:10245000CF911F910F91FF90EF90DF90CF90089553
:10246000CF92DF92EF92FF92CF93C82F80913705E2
:102470008F3F09F040C080912E0591E09093520368
:102480008093730310927803109277036C2F8BE77D
:1024900093E00E94980A0E94451563E080912E0502
:1024A0000E9443108BE793E00E944C0A6C01990F45
:1024B000EE08FF08FE2CED2CDC2CCC248BE793E0FF
:1024C0000E944C0AAC01990F660B770BC42AD52ADF
:1024D000E62AF72AFE2CED2CDC2CCC248BE793E0AB
:1024E0000E944C0AAC01990F660B770BC42AD52ABF
:1024F000E62AF72A33C080913A058F3F21F482E51E
:1025000091E00E94230F60E0809137050E94C20293
:102510008C2F80680E94881480E00E948814C82E46
:10252000D12CE12CF12CFE2CED2CDC2CCC2480E0E9
:102530000E948814C82AFE2CED2CDC2CCC2480E0D0
:102540000E948814C82A61E0809137050E94C20267
:1025500080913A058F3F11F40E94220FC701B60106
:10256000CF91FF90EF90DF90CF9008958F929F9240
:10257000AF92BF92CF92DF92EF92FF928AEF0E94CA
:1025800030126115710520E88207910509F47CC0BD
:1025900040913B0550913C054A01A12CB12CC72E1E
:1025A000D82EE92EFF24E7FCFA94C818D908EA08C7
:1025B000FB08DC01CB0137E0B595A795979587958A
:1025C0003A95D1F7B501A401440F551F661F771F37
:1025D0004C015D01841A950AA60AB70AA501940167
:1025E000A0913D05B0913E050E94D71F4B015C01B3
:1025F000FBE0B594A79497948794FA95D1F7A70137
:102600009601C701B6010E9470259B01AC01ACE0A8
:102610005595479537952795AA95D1F7A0913F05F0
:10262000B09140050E94D71FDC01CB012EE0B5958B
:10263000A795979587952A95D1F7A5019401280F1D
:10264000391F4A1F5B1F2093330530933405409395
:10265000350550933605A5E0B0E00E94CC1FDC01A3
:10266000CB0180589F4FAF4FBF4F692F7A2F8B2FD1
:10267000992787FD9A950E94AD2220E030E048EC32
:1026800052E40E94C32104C060E070E080EC9FE748
:10269000FF90EF90DF90CF90BF90AF909F908F9082
:1026A0000895CF93DF9390912D0521E0209352035D
:1026B000909373031092780310927703682F8BE73F
:1026C00093E00E94980A80E00E94E81463E0809101
:1026D0002D050E9443108BE793E00E944C0AEC0109
:1026E0008BE793E00E944C0A20E030E0382FC22BA9
:1026F000D32B8BE793E00E944C0ACE01DF91CF9160
:102700000895FF920F931F93CF93DF9300D0CDB71F
:10271000DEB7082F10E0F801EA5FFC4F9081F62E3B
:10272000F9220E5F1C4FF80190819F1511F12F2D9A
:1027300030E03A832983A091C703B091C803109772
:10274000B1F0682FED91FC9111976F706069019065
:10275000F081E02DCD01099522E030E0AE014F5F20
:102760005F4F62E070E087EC93E00E94930BF8010A
:10277000F0820F900F90DF91CF911F910F91FF90FA
:1027800008951F93CF93DF93182FEB018091CC0313
:102790009091CD036817790748F46091CA0370914E
:1027A000CB03C60FD71F188380E018C0E091F90350
:1027B000F091FA03309711F481E010C081E080932A
:1027C000C9038091E5039091E60309958091CC03BC
:1027D0009091CD03C817D90778F7DFCFDF91CF915C
:1027E0001F910895CF93DF93EC01FB0120E030E0CF
:1027F000CF01861B970B2C173D0778F4DB01A20F46
:10280000B31F9C91908311964C914795442747950F
:10281000942B91932E5F3F4FEBCFDF91CF91089593
:10282000EF92FF920F931F93CF93DF93C82F809166
:10283000C7039091C8030097C9F17A018B01DC01AD
:10284000ED91FC910190F081E02D60EF0995809170
:10285000C7039091C803DC01ED91FC910190F081D8
:10286000E02D6C2F0995E7010E0D1F1DC017D10734
:1028700059F020E030E0AE0161E070E087EC93E0D9
:102880000E94930B2196F2CF8091C7039091C803C9
:10289000DC01ED91FC910190F081E02D67EFDF917B
:1028A000CF911F910F91FF90EF900994DF91CF91FD
:1028B0001F910F91FF90EF900895682F87E494E0A7
:1028C0000C94470F10927A031092790310927803B8
:1028D000109277031092760381E080937503109233
:1028E000740361E082E10E94C20261E083E10E9420
:1028F000C202E9EBF0E080818E7F808380818D7F52
:10290000808388E48093B80085E48093BC000895B8
:10291000CF92DF92EF92FF920F931F93CF93DF93AB
:1029200090913A059F3F39F48EBD00000DB407FE2B
:10293000FDCF8EB544C0E82EC7E0D0E0D12C01E039
:1029400010E0DD0C60E080913A050E94C202B801FF
:102950000C2E01C0660F0A94EAF76E2180913805AB
:102960000E94C20261E080913A050E94C202209159
:10297000390530E0F901E45CFE4F8491F901EC592E
:10298000FE4FC490F901E05BFE4FF490FF2071F020
:1029900081110E949902EF2DF0E0EE0FFF1FEE5C17
:1029A000FE4FA591B491EC91EC2129F4219708F008
:1029B000C8CF8D2D04C08D2D8160D82EF7CFDF912B
:1029C000CF911F910F91FF90EF90DF90CF900895DE
:1029D000382F2091770390917303213208F049C07A
:1029E000809176038111FCCF42E0409376033093CF
:1029F00075033FEF309351031092500320934F0320
:102A0000A3E5B3E04FE253E0FA013E2F341B321747
:102A100018F43D913193F9CF10922E0320912E039B
:102A2000990F922B90932E0390917403913061F43F
:102A30001092740390912E039093BB009091BC0070
:102A400093FDF8CF95EC01C095EE9093BC0090916A
:102A500076039230E1F3909151039F3F79F080919A
:102A60005103803241F080915103803331F084E092
:102A700005C081E003C082E001C083E010927803CA
:102A80001092770310925203089581E00C94E81499
:102A900080E090E0892B29F00E94CE0181110C94F6
:102AA00000000895CF93DF93CDB7DEB7A7970FB699
:102AB000F894DEBF0FBECDBF789484B5826084BD2C
:102AC00084B5816084BD85B5826085BD85B5816032
:102AD00085BD80916E00816080936E0010928100B0
:102AE000809181008260809381008091810081606B
:102AF000809381008091800081608093800080912C
:102B0000B10084608093B1008091B00081608093B7
:102B1000B00080917A00846080937A0080917A007E
:102B2000826080937A0080917A00816080937A003D
:102B300080917A00806880937A001092C10060E1F1
:102B4000F62EF092070480910804909109040E94E7
:102B5000A5200091070410E0C80101960E941020F2
:102B60009093090480930804FC01E00FF11F108288
:102B700072E0E72EDC01EC9225E011962C93A8017F
:102B8000425051096AEC71E002960E9442218EE2A5
:102B900093E09093AB028093AA0286E691E0909333
:102BA000AD028093AC0283E491E09093B3028093F2
:102BB000B2028BE391E09093B5028093B40287E573
:102BC00094E09093AF028093AE028AE795E09093F1
:102BD000B7028093B6028AEE97E09093B902809391
:102BE000B802E0915704F0915804E082E091570454
:102BF000F09158041082E0915304F0915404108233
:102C0000E0915504F0915604F08210925F04E09137
:102C10005B04F0915C0486E08083E0915904F091BC
:102C20005A04808180618083E0915904F0915A04B4
:102C3000808188608083E0915904F0915A048081FA
:102C400080688083E0915904F0915A0480818F7DDF
:102C5000808380914604811150C061E08DE00E9424
:102C6000F20262ED70E080E090E00E94B00761E067
:102C70008DE00E94C20268E270E080E090E00E9475
:102C8000B00760E08DE00E94C20262ED70E080E07B
:102C900090E00E94B00761E08DE00E94C20268E20D
:102CA00070E080E090E00E94B00760E08DE00E945C
:102CB000C2026AEF70E080E090E00E94B00710E08E
:102CC00062ED70E080E090E00E94B00761E08DE08E
:102CD0000E94C20268E270E080E090E00E94B007CB
:102CE00060E08DE00E94C2021F5F153049F76DE77A
:102CF00070E080E090E00E94B00787E494E0909359
:102D00000604809305049093C8038093C70387EC5F
:102D100093E00E94620B87E893E00E94AB0E0E9452
:102D2000EA078091050490910604DC01ED91FC9185
:102D30000084F185E02D0995892B09F4D3C1809198
:102D4000050490910604DC01ED91FC910284F38569
:102D5000E02D09959C018F3FBFEF9B0711F3982F42
:102D60008091D203882309F492C0973F09F07EC076
:102D70001092D203A091CA03B091CB036C9161373A
:102D8000C1F1693709F05CC0E091FF03F0910004E4
:102D9000309739F28091D3039091D4038330910519
:102DA00038F420E030E040E050E060E070E01BC02C
:102DB000BD016D5F7F4F03970E94F213BC016D5FF1
:102DC0007F4F80E00E94C113E091CA03F091CB03D2
:102DD0009F012D5F3F4F428150E0618170E0E091A3
:102DE000FF03F09100048091E1039091E2030995C3
:102DF00098CF8091FB039091FC03892B09F491CF2C
:102E0000BD016F5F7F4F8091D3039091D4030197F1
:102E10000E94F213BC016F5F7F4F80E00E94C113DC
:102E20006091CA037091CB036F5F7F4FE091FB030A
:102E3000F091FC038091E7039091E803099571CF2D
:102E4000E091FD03F091FE03309709F46ACF9D01F4
:102E50002F5F3F4F4091D3035091D403415051090C
:102E60008091E9039091EA0309955BCF6091D303C8
:102E70007091D403822F0E94C1138091D30390914B
:102E8000D40301969093D4038093D3034ACF6091E7
:102E9000D0037091D1036115710509F4AFC027FD0E
:102EA000ADC0615071097093D1036093D003822F3C
:102EB0000E94C1138091D0039091D103892B09F016
:102EC00030CF8091CE03882309F42BCF803D09F4C5
:102ED0007FC030F4803939F1803C09F466C08BC082
:102EE000843FE1F1853F09F44DC0803E09F083C085
:102EF000E091ED03F091EE03309709F47CC0A091CE
:102F0000CA03B091CB038C9111964C9150E020E80C
:102F1000829F400D511D11246091CF038091D503F4
:102F20009091D60367C0E091EF03F091F0033097E2
:102F300009F461C0A091CA03B091CB038C911196A2
:102F40004C9150E030E8839F400D511D1124609159
:102F5000CF038091D7039091D8034CC0E091F50343
:102F6000F091F603309709F446C0A091CA03B091DE
:102F7000CB034C9150E011966C918091DD039091C0
:102F8000DE0338C0E091F703F091F803309799F130
:102F9000A091CA03B091CB034C9150E011966C9173
:102FA0008091DF039091E00325C0E091F103F0915F
:102FB000F203309701F1A091CA03B091CB034C9179
:102FC00050E06091CF038091D9039091DA0312C051
:102FD000E091F303F091F403309769F0A091CA03F4
:102FE000B091CB034C9150E06091CF038091DB0313
:102FF0009091DC0309951092CE0393CE903F30F46C
:10300000822F8F708093CF03922F907F903F99F102
:1030100058F4903C39F118F49039E9F082CE903DA3
:1030200009F1903EC1F07DCE993F09F44EC028F4DD
:103030008CE0890F823078F074CE9F3F09F071CE1A
:103040001092D1031092D0031092CE031092CF03AE
:1030500080E090E018C042E050E05093D1034093EC
:10306000D00306C0A1E0B0E0B093D103A093D00399
:103070009093CE0356CEB1E0B093D2031092D40316
:103080001092D3034ECE2091CC033091CD03821702
:10309000930748F4E091CA03F091CB03E80FF91FBE
:1030A00010820196F0CF1092D2031092D4031092A6
:1030B000D303E0910304F0910404309709F431CE76
:1030C0008091EB039091EC030BC0E0910104F0912F
:1030D0000204309709F425CE8091E3039091E40334
:1030E00009951FCE8FB7F89400910A0310910B0336
:1030F00020910C0330910D038FBF0093A602109313
:10310000A7022093A8023093A9028091A202909175
:10311000A302A091A402B091A50240910101509197
:103120000201052E000C660B770B081B190B2A0BEE
:103130003B0B401751076207730708F0CDC5840F9A
:10314000951FA61FB71F8093A2029093A302A0937E
:10315000A402B093A5028091840290918502019708
:1031600011F461E001C060E085E00E94C20280913C
:10317000760290917702019711F461E001C060E05E
:1031800086E00E94C20280917802909179020197B4
:1031900011F461E001C060E087E00E94C20280910A
:1031A0007A0290917B02019711F461E001C060E026
:1031B00088E00E94C20260E089E00E94C20260E0F2
:1031C0008AE00E94C20287E00E945113BC0180E0A5
:1031D00090E00E94AB222AE037ED43EA5CE30E94D4
:1031E000A52423E333E948E853E40E945121609386
:1031F0004A0270934B0280934C0290934D0286E0FA
:103200000E945113BC0180E090E00E94AB222AE0B2
:1032100037ED43EA5CE30E94A52423E333E948E861
:1032200053E40E9451216093860270938702809339
:103230008802909389020E94C1096B017C0120E001
:1032400030E040E051EC0E94BE2187FD0DC020E03F
:1032500030E0A901C701B6010E94D22318164CF430
:10326000C12CD12C760105C0C12CD12CE12C51EC04
:10327000F52E20E030E040E051E4C701B6010E94A5
:10328000522120E030E048EC52E40E94A52420E0E6
:1032900030E040E05EE30E94A5246B017C01609376
:1032A0008A0270938B0280938C0290938D020E940D
:1032B000C10960939A0270939B0280939C02909341
:1032C0009D0220E030E040EF51E4C701B6010E94CA
:1032D000D22318163CF4E1E0F0E0F0938502E0938D
:1032E000840204C010928502109284020E94B612D9
:1032F0006093800270938102809382029093830294
:103300000E94B61287EF0E9430126E877F87888BEB
:10331000998B611571058048910509F400C280916F
:10332000330590913405A0913505B09136056C01B7
:103330007D01FF0CCC08DC2C76019C01AD016C2DCD
:103340007C2D8C2D9C2D345F414051096109710900
:10335000810991092B833F83488759876A877B8737
:103360008C879D8759016A017B018C010E949225FF
:103370002D8F3E8F4F8F58A369A37AA38BA39CA355
:1033800020914B052DA330914C053A8B4091490576
:103390004EA350914A055B8B809147058FA3909176
:1033A00048059C8BB0904405A09043051B2D110F40
:1033B000110BC12ED12EE12EF12E012F2B813F8139
:1033C000488559856A857B858C859D850E949225D7
:1033D0000CE00E94C22619012A013B014C01B09069
:1033E0004605A09045051B2D110F110BC12ED12EA6
:1033F000E12EF12E012F2D8D3E8D4F8D58A169A10B
:103400007AA18BA19CA10E94922508E00E94DB2654
:1034100051016201730184010E94F92670588F4F97
:103420009F4F20904105309042055101C12CD12C75
:10343000E12CF12C00E010E00E94922501E20E94B4
:10344000DB262D8B3E8B4F8B588F698F7A8F8B8F1E
:103450009C8FA0E00E940B2709F466C1ADA01A89D9
:10346000110F110BBA88C12ED12EE12EF12E012F92
:103470002D8D3E8D4F8D58A169A17AA18BA19CA164
:103480000E94922519012A013B014C01AEA01B8923
:10349000110F110BBB88C12ED12EE12EF12E012F61
:1034A0002B813F81488559856A857B858C859D85E3
:1034B0000E94922501E10E94C22659016A017B0106
:1034C0008C019101A201B301C4010E94F9261901E6
:1034D0002A013B014C018E859F85A889B98924E08A
:1034E000B595A795979587952A95D1F720E030E077
:1034F00040E150E0281B390B4A0B5B0BDA01C90194
:1035000069017A01FF0CCC08DC2C76019C01AD012D
:103510006C2D7C2D8C2D9C2D0FE10E94C226B22F8C
:10352000A32FF42FE52F6B837F83888799872FA1A3
:103530009C89990F990B3C89492F592F692F792F15
:10354000892F03E20E94C22659016A017B018C0186
:103550009101A201B301C4010E94F92659016A0137
:103560007B018C012B2F3A2F4F2F5E2F6B817F8198
:10357000888599850E940227722E832E942EB52F5E
:10358000A62FF72FE82F592E03E00E94C226A72C62
:10359000B82CC92CDB2EEA2EFF2E0E2F152D0E94E3
:1035A000022759016A017B01682E192F03E00E944E
:1035B000C226062D0E94022703E00E94C226A72CE5
:1035C000B82CC92CDB2EEA2EFF2E0E2F152D0E94B3
:1035D000022702E00E94C2260E2F0E94022701E06D
:1035E0000E94C2260E2F0E940227AD88BE88CF8877
:1035F000D88CE98CFA8C0B8D1C8D0E94ED252B83C9
:103600003F83488759876A877B878C879D870DE032
:103610000E94DB26322E432E542E652E762E872EC8
:10362000982E292E3091520520915105932F990FF4
:10363000990BA32CB42CC52CD62CE72CF82C092DD7
:10364000122D492F592F692F792F892F0E949225EA
:103650000E94922509E10E94DB2659016A017B0143
:103660008C012B813F81488559856A857B858C85B6
:103670009D850E94F92619012A013B014C013091D8
:10368000500520914F05932F990F990BAB80BF8068
:10369000C884D984EA84FB840C851D85492F592F61
:1036A000692F792F892F0E94922503E10E94DB2642
:1036B00059016A017B018C019101A201B301C4018E
:1036C0000E94F92608E00E94DB2639014A01B62F44
:1036D000A72FF82FE92F30914E0520914D05932FFC
:1036E000990F990B492F592F692F792F892F04E0B2
:1036F0000E94C22659016A017B018C019301A40139
:103700006B2F7A2F8F2F9E2F0E94F9260E94A522C1
:1037100020E030E040E85BE30E94A52408C060E0C0
:1037200070E080EC9FE703C060E070E0CB0120E038
:1037300030E048EC52E40E94C321609396027093FB
:10374000970280939802909399020E9430118823E7
:1037500099F1809165058B3039F170F18551823096
:1037600058F560915F0570E080E090E00E94AB2228
:1037700020E030E040E853E40E94A5246B017C0186
:103780006091600570E080E090E00E94AD229B01B6
:10379000AC01C701B6010E9452212DEC3CEC4CEC6F
:1037A0005DE30E94A5240CC060915F0570E080E09D
:1037B00090E00E94AB2204C060E070E080EC9FE7E4
:1037C0006093920270939302809394029093950277
:1037D0000E9430118823C9F1809165058B3029F052
:1037E000A0F18551823048F030C06091610570E0F1
:1037F00080E090E00E94AB222CC010916105612F07
:103800006F7770E080E090E00E94AD2220E030E031
:1038100040E853E40E94A5246B017C01609162059D
:1038200070E080E090E00E94AD229B01AC01C701F6
:10383000B6010E9452212DEC3CEC4CEC5DE30E9461
:10384000A52417FF06C0905804C060E070E080EC2B
:103850009FE760937C0270937D0280937E02909339
:103860007F0230E430937C0080917A008064809302
:103870007A0080917A0086FDFCCF6091780080917B
:10388000790070E0782B072E000C880B990B0E94B2
:10389000AD2260939E0270939F028093A00290934A
:1038A000A10220E030E040EA50E40E94D223181642
:1038B0003CF441E050E050937B0240937A0204C014
:1038C00010927B0210927A02C0908602D0908702FA
:1038D000E0908802F0908902C0925202D092530286
:1038E000E0925402F092550220E030E040E050E4D3
:1038F000C701B6010E94BE2118163CF081E090E09D
:10390000909379028093780204C010927902109209
:10391000780223E333E948E853E4C701B6010E9483
:1039200052219B01AC0163E373E98AEB93E40E94AB
:10393000C3214B015C0120E030E040E85FE30E94DE
:1039400051216B837C838D839E8326E335EE4CEF80
:1039500050EC0E94A5242B013C01C501B4010E943A
:10396000192428E036EE40EA50E40E94A5249B0189
:10397000AC01C301B2010E9452212B013C01A501FF
:10398000940160E070E080E89FE30E94C3219B0106
:10399000AC0160E070E080E89FE30E94512126E0E6
:1039A00031E845E351E40E94A5249B01AC0160E0AD
:1039B00070E080E291E40E94122520E030E040E8CF
:1039C0005FE30E94512122E239E544E154EB0E9479
:1039D000A5249B01AC01C301B2010E9452212B011D
:1039E0003C0122E934E74FE550EC6B817C818D810D
:1039F0009E810E94A5249B01AC0160E070E080E202
:103A000091E40E94122520E030E040E85FE30E944C
:103A1000512120E73FE345E05CE30E94A5249B01A0
:103A2000AC01C301B2010E94522122EA3DE540E40B
:103A300050E40E94522120E030E040E450E40E9433
:103A400051219B01AC0160E070E080E291E40E94B2
:103A5000122520919202309193024091940250914C
:103A600095020E94A52424E13CE54CE15FE30E941D
:103A7000C3210E9429244B015C0128E431EE41E777
:103A800053E40E94A5242B013C01A501940169EC9B
:103A900076E78CE891E40E9451219B01AC01C301BF
:103AA000B2010E94C32160938E0270938F028093B3
:103AB00090029093910220E030E040E050E40E94B8
:103AC00052219B01AC01C701B6010E94BE2118160C
:103AD0003CF0A1E0B0E0B0937702A093760204C07E
:103AE000109277021092760280914E02882341F064
:103AF00069B18091060368236C7F80E00E94811386
:103B000080914F02882371F063B196B1B0E49B9F1E
:103B1000C00111246F73862B60910703682381E035
:103B20000E94811380915002882351F066B16C731A
:103B30006695669580910803682382E00E94811350
:103B400080915102882321F060E083E00E9481137C
:103B500008E512E0E12C82EFF82EFE0CEFE0EF1505
:103B600008F4B4C0D8018C91823009F0AFC08091C4
:103B70005602909157020F2C02C0959587950A9492
:103B8000E2F780FFA3C08F2D90E08830910508F008
:103B900046C0FC01EA5BFF4F0C948C2560919E02AD
:103BA00070919F028091A0029091A10235C0609116
:103BB00052027091530280915402909155022CC090
:103BC00060919A0270919B0280919C0290919D025B
:103BD00023C0609196027091970280919802909113
:103BE00099021AC06091920270919302809194029E
:103BF0009091950211C060918E0270918F02809118
:103C000090029091910208C060918A0270918B029B
:103C100080918C0290918D020E946F2202C060E020
:103C200070E07A8369838091C7039091C8030097FD
:103C300009F44CC0DC01ED91FC916115704490F4E5
:103C40006F2D606E0190F081E02D099522E030E04B
:103C5000AE014F5F5F4F62E070E087EC93E00E943F
:103C6000930B34C00190F081E02D60EF09958091B5
:103C7000C7039091C803DC01ED91FC910190F081A4
:103C8000E02D6FE609958091C7039091C803DC0190
:103C9000ED91FC910190F081E02D6F2D099522E0CE
:103CA00030E0AE014F5F5F4F62E070E087EC93E081
:103CB0000E94930B8091C7039091C803DC01ED91A2
:103CC000FC910190F081E02D67EF0995E3940F5F7F
:103CD0001F4FBEE1EB123FCF0E94481522C8109241
:103CE0007E0310927D0348EE53E060E070E0409365
:103CF0007F035093800360938103709382038DE070
:103D000091E090937C0380937B0387E893E010928B
:103D1000C8031092C7039093CB038093CA0320E497
:103D200030E03093CD032093CC031092CE03109259
:103D3000CF031092D1031092D0031092D2031092AD
:103D4000D4031092D3031092D6031092D50310928D
:103D5000D8031092D7031092DA031092D90310926D
:103D6000DC031092DB031092DE031092DD0310924D
:103D7000E0031092DF031092E6031092E503109225
:103D8000E8031092E7031092EA031092E9031092FD
:103D9000EC031092EB031092FA031092F9031092C5
:103DA000C90310920704109209041092080410929B
:103DB00046042DE03BE03093EE032093ED0323E037
:103DC0003BE03093F0032093EF0325EE3AE030938D
:103DD000F2032093F1032BED3AE03093F4032093A8
:103DE000F30329EF3AE03093F6032093F5032FEE27
:103DF0003AE03093F8032093F7032AED3AE030934A
:103E0000FC032093FB032FEC3AE03093FE03209356
:103E1000FD032DE13FE0309300042093FF039093D6
:103E2000E2038093E1032CE83BE03093020420930B
:103E300001049093E4038093E30387EC9AE090936A
:103E400004048093030410924A041092490440939E
:103E50004B0450934C0460934D0470934E048FE1D7
:103E600091E0909348048093470485EC90E0909310
:103E700054048093530484EC90E090935604809310
:103E8000550480EC90E0909358048093570481ECA3
:103E900090E090935A048093590482EC90E09093C0
:103EA0005C0480935B0486EC90E090935E048093C6
:103EB0005D041092600410926104109262041092EA
:103EC000630484E08093640586E180936505E8E6F9
:103ED000F1E0E491E0936605E4E5F1E0E491E0933C
:103EE000670580E89EE3A0E0B0E080936C059093C6
:103EF0006D05A0936E05B0936F058FEF8093370526
:103F0000809338058093390580933A058AE580933C
:103F10002D0580910805A9E0B5E09FEF48EB5BE037
:103F20008C3078F48C93282F30E0F901EE0FFF1FCE
:103F30002E0F3F1FF901EC51FB4F528341838F5FDE
:103F400001C09C93139625E0AD32B20749F78093E8
:103F500008050895F8940C941727052E97FB1EF476
:103F600000940E94C41F57FD07D00E94DF1F07FC6A
:103F700003D04EF40C94C41F509540953095219574
:103F80003F4F4F4F5F4F0895909580957095619585
:103F90007F4F8F4F9F4F08950E940120A59F900D46
:103FA000B49F900DA49F800D911D11240895B7FF1B
:103FB0000C94CC1F0E94CC1F821B930B0895A1E28E
:103FC0001A2EAA1BBB1BFD010DC0AA1FBB1FEE1F93
:103FD000FF1FA217B307E407F50720F0A21BB30BDE
:103FE000E40BF50B661F771F881F991F1A9469F75A
:103FF00060957095809590959B01AC01BD01CF01B6
:104000000895A29FB001B39FC001A39F700D811DB1
:104010001124911DB29F700D811D1124911D0895D1
:10402000CF93DF938230910510F482E090E0E0912D
:104030007305F091740520E030E0C0E0D0E03097E7
:1040400011F14081518148175907C0F048175907AD
:1040500061F482819381209719F09B838A832BC01E
:10406000909374058093730526C02115310519F0CE
:104070004217530718F49A01BE01DF01EF010280D5
:10408000F381E02DDCCF2115310509F1281B390B17
:104090002430310590F412968D919C9113976115FF
:1040A000710521F0FB019383828304C09093740512
:1040B00080937305FD01329644C0FD01E20FF31FAA
:1040C00081939193225031092D933C933AC02091D2
:1040D000710530917205232B41F420910501309137
:1040E00006013093720520937105209103013091F0
:1040F00004012115310541F42DB73EB74091070168
:1041000050910801241B350BE0917105F091720567
:10411000E217F307A0F42E1B3F0B2817390778F09E
:10412000AC014E5F5F4F2417350748F04E0F5F1FFD
:1041300050937205409371058193919302C0E0E022
:10414000F0E0CF01DF91CF9108950F931F93CF93AC
:10415000DF93009709F48CC0FC013297138212821E
:1041600000917305109174050115110581F42081EA
:104170003181820F931F20917105309172052817AC
:10418000390779F5F0937205E093710571C0D80194
:1041900040E050E0AE17BF0750F412962D913C91CD
:1041A0001397AD012115310509F1D901F3CF9D0117
:1041B000DA013383228360817181860F971F821712
:1041C000930769F4EC0128813981260F371F2E5F90
:1041D0003F4F318320838A819B8193838283452B48
:1041E00029F4F0937405E093730542C01396FC9391
:1041F000EE931297ED01499159919E01240F351FBD
:10420000E217F30771F480819181840F951F029664
:1042100011969C938E938281938113969C938E9397
:104220001297E0E0F0E0D80112968D919C911397DF
:10423000009719F0F8018C01F6CF8D919C919801AF
:104240002E5F3F4F820F931F2091710530917205B1
:104250002817390769F4309729F4109274051092E1
:10426000730502C0138212821093720500937105C8
:10427000DF91CF911F910F91089581E090E0F89424
:104280000C941727FB01DC014150504048F001908D
:104290000D920020C9F701C01D9241505040E0F737
:1042A00008955058BB27AA270E9469210C9498238F
:1042B0000E948A2338F00E94912320F039F49F3F16
:1042C00019F426F40C9450230EF4E095E7FB0C94BB
:1042D0004A23E92F0E94A92358F3BA1762077307EC
:1042E0008407950720F079F4A6F50C94CB230EF4FF
:1042F000E0950B2EBA2FA02D0B01B90190010C01F6
:10430000CA01A0011124FF27591B99F0593F50F40D
:10431000503E68F11A16F040A22F232F342F442765
:10432000585FF3CF469537952795A795F04053955D
:10433000C9F77EF41F16BA0B620B730B840BBAF02D
:104340009150A1F0FF0FBB1F661F771F881FC2F798
:104350000EC0BA0F621F731F841F48F487957795AC
:104360006795B795F7959E3F08F0B0CF9395880F66
:1043700008F09927EE0F9795879508950E942623B8
:1043800008F481E008950E94D7210C9498230E949C
:10439000912358F00E948A2340F029F45F3F29F0CE
:1043A0000C944A2351110C94CC230C9450230E945A
:1043B000A92368F39923B1F3552391F3951B550B6A
:1043C000BB27AA2762177307840738F09F5F5F4FE8
:1043D000220F331F441FAA1FA9F335D00E2E3AF027
:1043E000E0E832D091505040E695001CCAF72BD03F
:1043F000FE2F29D0660F771F881FBB1F2617370790
:104400004807AB07B0E809F0BB0B802DBF01FF27C1
:1044100093585F4F3AF09E3F510578F00C944A2331
:104420000C94CC235F3FE4F3983ED4F386957795C4
:104430006795B795F7959F5FC9F7880F911D96957A
:10444000879597F90895E1E0660F771F881FBB1FD6
:10445000621773078407BA0720F0621B730B840B83
:10446000BA0BEE1F88F7E095089529F416F00C9426
:104470004A230C94CB230C9450230E94B123A8F31D
:104480009638A0F707F80F92E8942BE33AEA48EB46
:104490005FE70E94BB240F920F920F924DB75EB759
:1044A0000F920E947124ECE9F0E00E9463234F9187
:1044B0005F91EF91FF91E595EE1FFF1F49F0FE57C9
:1044C000E0684427EE0F441FFA95E1F74195550B3C
:1044D0000E94E3230F9007FE0C94D72308950E94B7
:1044E00076226894B1110C94CC2308950E94B123D4
:1044F00088F09F5798F0B92F9927B751B0F0E1F0A5
:10450000660F771F881F991F1AF0BA95C9F714C054
:10451000B13091F00E94CB23B1E008950C94CB23ED
:10452000672F782F8827B85F39F0B93FCCF386958D
:1045300077956795B395D9F73EF4909580957095EA
:1045400061957F4F8F4F9F4F089597FB16F40E9400
:1045500053230C94E922E89409C097FB3EF490950C
:104560008095709561957F4F8F4F9F4F9923A9F04C
:10457000F92F96E9BB279395F695879577956795DB
:10458000B795F111F8CFFAF4BB0F11F460FF1BC01F
:104590006F5F7F4F8F4F9F4F16C0882311F096E9B2
:1045A00011C0772321F09EE8872F762F05C0662360
:1045B00071F096E8862F70E060E02AF09A95660F19
:1045C000771F881FDAF7880F9695879597F90895D2
:1045D000E894F92F96EBFF2381F0121613061406C8
:1045E000440B9395F6958795779567955795404039
:1045F000FF23B9F71BC099270895882351F49850D9
:10460000D2F7872B762F652F542F432F322F20E0A0
:10461000B1F3121613061406440B88233AF09A9548
:10462000440F551F661F771F881FCAF755234AF48A
:10463000440F551F11F460FF04C06F5F7F4F8F4F11
:104640009F4F880F9695879597F90895990F0008C1
:10465000550FAA0BE0E8FEEF16161706E807F90754
:10466000C0F012161306E407F50798F0621B730BEF
:10467000840B950B39F40A2661F0232B242B252B70
:1046800021F408950A2609F4A140A6958FEF811D13
:10469000811D089597F99F6780E870E060E00895B4
:1046A0009FEF80EC0895909580957095609550955A
:1046B0004095309521953F4F4F4F5F4F6F4F7F4F44
:1046C0008F4F9F4F0895DF93CF931F930F93FF92C8
:1046D000EF92DF927B018C01689406C0DA2EEF0125
:1046E0000E94B824FE01E894A59125913591459149
:1046F0005591A6F3EF010E946921FE019701A801DF
:10470000DA9469F7DF90EF90FF900F911F91CF91AE
:10471000DF91089500240A94161617061806090654
:10472000089500240A941216130614060506089527
:10473000092E0394000C11F4882352F0BB0F40F4AF
:10474000BF2B11F460FF04C06F5F7F4F8F4F9F4FEF
:10475000089557FD9058440F551F59F05F3F71F071
:104760004795880F97FB991F61F09F3F79F08795D8
:104770000895121613061406551FF2CF4695F1DF61
:1047800008C0161617061806991FF1CF86957105F1
:10479000610508940895E894BB2766277727CB0125
:1047A00097F908950E94262308F48FEF08959B013E
:1047B000AC0160E070E080E89FE30C94C3210C94AE
:1047C0004A230C9462250E94B123D8F39923C9F39C
:1047D000940F511DA3F39150504094F059F0882349
:1047E00032F0660F771F881F91505040C1F79E3FEF
:1047F00051052CF7880F911D9695879597F9089587
:104800005F3FACF0983E9CF0BB2786957795679507
:10481000B79508F4B1609395C1F7BB0F58F711F441
:1048200060FFE8CF6F5F7F4F8F4F9F4FE3CF0C94B8
:10483000CC230E94292429ED3BE54EED5EE30C9448
:10484000A52416F00C9462250C94502368940C94C3
:104850004A230E94B123A8F39923C1F3AEF3DF9357
:10486000CF931F930F93FF92C92FDD2788232AF040
:104870002197660F771F881FDAF720E030E040E8C5
:104880005FEB9FE3883920F0803E38F021968F77E8
:104890000E945221E4ECF0E004C00E945221E1EFBA
:1048A000F0E00E9463238B01BE01EC01FB2E6F57E9
:1048B00071097595771F880B990B0E94AD2228E12D
:1048C00032E741E35FE30E94B824AF2D9801AE01C7
:1048D000FF900F911F91CF91DF910E9469210C945D
:1048E0009823FA01DC01AA0FBB1F9B01AC01BF5743
:1048F00028F4222733274427507820C0B75190F45A
:10490000AB2F0024469537952795011CA395D2F32C
:10491000002071F0220F331F441FB395DAF30ED03D
:104920000C94512161307105A0E88A07B94630F432
:104930009B01AC016627772788279078309621F075
:10494000208331834283538308950E94B8240C94BA
:1049500098230E948A2338F00E94912320F0952307
:1049600011F00C944A230C94502311240C94CC2362
:104970000E94A92370F3959FC1F3950F50E0551F36
:10498000629FF001729FBB27F00DB11D639FAA27A4
:10499000F00DB11DAA1F649F6627B00DA11D661FF3
:1049A000829F2227B00DA11D621F739FB00DA11D14
:1049B000621F839FA00D611D221F749F3327A00DCE
:1049C000611D231F849F600D211D822F762F6A2F6A
:1049D00011249F5750409AF0F1F088234AF0EE0FCF
:1049E000FF1FBB1F661F771F881F91505040A9F7FC
:1049F0009E3F510580F00C944A230C94CC235F3FDA
:104A0000E4F3983ED4F3869577956795B795F79537
:104A1000E7959F5FC1F7FE2B880F911D96958795AF
:104A200097F90895FA01EE0FFF1F30962105310521
:104A3000A1F16115710561F48038BFE39B0749F16D
:104A400068949038810561F08038BFEF9B0741F092
:104A500099234AF5FF3FE1053105210519F1E89455
:104A60000894E795D901AA2329F4AB2FBE2FF85F4C
:104A7000D0F310C0FF5F70F4A695E0F7F73950F05F
:104A800019F0FF3A38F49F779F930DD00F9007FCF1
:104A90009058089546F00C94502360E070E080E850
:104AA0009FE308954FE79F775F934F933F932F9333
:104AB0000E9429242F913F914F915F910E94A5243C
:104AC0000C943D229F3F31F0915020F487957795CB
:104AD0006795B795880F911D9695879597F90895D5
:104AE000DB018F939F930E94CC1FBF91AF91A29F38
:104AF000800D911DA39F900DB29F900D11240895DC
:104B0000991B79E004C0991F961708F0961B881F1F
:104B10007A95C9F780950895EE0FFF1F0590F491DF
:104B2000E02D0994DF93CF931F930F939A9DF02D5F
:104B3000219FF00D8B9DF00D8A9DE02DF10D039FBF
:104B4000F00D029FE00DF11D4E9DE00DF11D5E9DEB
:104B5000F00D4F9DF00D7F936F93BF92AF925F93D7
:104B60004F93D5010E9401208B01AC01D7010E9417
:104B70000120EB01E80FF91FD6010E94E2252F91D9
:104B80003F91D6010E940120C60FD71FE81FF91FD1
:104B9000AF91BF910E94E2252F913F910E94012089
:104BA000C60FD71FE81FF91FD6010E940120E60F8C
:104BB000F71F9801BE01CF0111240F911F91CF91D2
:104BC000DF9108950E940120460F571FC81FD91F6B
:104BD00008F431960895689401C0E894F92FF12BF8
:104BE00012F00C941F26A0E0B0E0E9EFF5E20C947F
:104BF0009126092E059422F40E947B26112392F41B
:104C0000F0E80F26FFEFE094F09400951095B09433
:104C1000C094D094A194BF0ACF0ADF0AEF0AFF0A1A
:104C20000F0B1F0B0E942A2607FC0E947B26CDB784
:104C3000DEB7ECE00C94AD26689401C0E8948F9246
:104C40009F92CF93DF930E942A26DF91CF919F906E
:104C50008F90089588249924F401E401B0E49F938F
:104C6000AA279A158B049C04ED05FE05CF05D007F5
:104C7000A10798F4AD2FDC2FCF2FFE2FE92D982C14
:104C8000892E982F872F762F652F542F432F322F61
:104C90002227B85031F7BF9127C01B2EBF91BB27E9
:104CA000220F331F441F551F661F771F881F991F30
:104CB000881C991CEE1FFF1FCC1FDD1FAA1FBB1FE6
:104CC0008A149B04EC05FD05CE05DF05A007B1079E
:104CD00048F08A189B08EC09FD09CE09DF09A00BF2
:104CE000B10B21601A94E1F62EF49401AF01BE01DC
:104CF000CD01000C08956095709580959095309544
:104D00004095509521953F4F4F4F5F4F6F4F7F4FCD
:104D10008F4F9F4F08952F923F924F925F926F92C5
:104D20007F928F929F92AF92BF92CF92DF92EF923B
:104D3000FF920F931F93CF93DF93CDB7DEB7CA1BBC
:104D4000DB0B0FB6F894DEBF0FBECDBF09942A88E7
:104D5000398848885F846E847D848C849B84AA848F
:104D6000B984C884DF80EE80FD800C811B81AA811C
:104D7000B981CE0FD11D0FB6F894DEBF0FBECDBFE7
:104D8000ED0108950F93083090F0982F872F762F1C
:104D9000652F542F432F322F22270850F4CF220F94
:104DA000331F441F551F661F771F881F991F0A95C1
:104DB000B2F70F91089597FB10F8169400080F931F
:104DC000083098F00850232F342F452F562F672F87
:104DD000782F892F902DF4CF059497958795779507
:104DE000679557954795379527950A95AAF70F9197
:104DF00008952A0D3B1D4C1D5D1D6E1D7F1D801FDE
:104E0000911F08952A193B094C095D096E097F0914
:104E1000800B910B08950024A7FD00942A173005FC
:104E20004005500560057005800590050895F894CB
:024E3000FFCFB2
:104E3200FF130000007505800000000000980A685A
:104E42000A13013C0A600A4C0A3D0A0000000047AE
:104E52000FE700170B8E0F480B260B3A0B49324314
:104E62002052656164204572726F723A20546F6FEE
:104E7200206D616E79206279746573207265636555
:104E82006976656400493243205265616420457247
:104E9200726F723A20546F6F206665772062797460
:104EA200657320726563656976656400556E6B6E25
:104EB2006F776E2070696E206D6F64650031302DE2
:104EC2006269742061646472657373696E67206DD0
:104ED2006F6465206973206E6F7420796574207326
:104EE2007570706F7274656400746F6F206D616E9F
:104EF20079207175657269657300736164725F6DA3
:0A4F02006574656F2E696E6F000084
:00000001FF
