:100000000C946F000C9497000C9497000C9497003C
:100010000C9497000C9497000C9497000C94970004
:100020000C9497000C9497000C9497000C941E0C61
:100030000C9497000C9497000C9497000C949700E4
:100040000C9420080C9497000C9432010C940C0131
:100050000C9497000C9497000C9497000C949700C4
:100060000C946E0A0C949700DE07F6073607F60725
:100070009107F6071607C206F607F607F607F60712
:10008000F607B605F6077906F60700070000000038
:10009000240027002A0000000000250028002B0073
:1000A000040404040404040402020202020203031E
:1000B0000303030301020408102040800102040826
:1000C00010200102040810200000000800020100B6
:1000D000000304070000000000000000D7131124F3
:1000E0001FBECFEFD8E0DEBFCDBF11E0A0E0B1E092
:1000F000E4EDFEE202C005900D92AA3DB107D9F7EA
:1001000025E0AAEDB1E001C01D92A830B207E1F7E9
:1001100010E0CFE6D0E004C02197FE010E946217F4
:10012000CE36D107C9F70E94540F0C94EA140C94F0
:100130000000CF92DF92EF92FF920F931F93CF9325
:10014000DF936C017A018B01C0E0D0E0CE15DF05B2
:1001500089F0D8016D918D01D601ED91FC9101904E
:10016000F081E02DC6010995892B11F47E0102C0B2
:100170002196ECCFC701DF91CF911F910F91FF9096
:10018000EF90DF90CF900895089580E090E008957B
:100190008EE194E00E94A80921E0892B09F420E077
:1001A000822F08958F929F92AF92BF92CF92DF924B
:1001B000EF92FF926B017C010E94FB074B015C01F7
:1001C000C114D104E104F104F1F00E94FB07DC0149
:1001D000CB0188199909AA09BB09883E9340A1055A
:1001E000B10570F321E0C21AD108E108F10888EEE8
:1001F000880E83E0981EA11CB11CC114D104E10437
:10020000F10419F7DDCFFF90EF90DF90CF90BF9012
:10021000AF909F908F9008951F920F920FB60F92FC
:1002200011242F933F934F935F936F937F938F93FB
:100230009F93AF93BF93EF93FF938EE194E00E945F
:10024000560DFF91EF91BF91AF919F918F917F914B
:100250006F915F914F913F912F910F900FBE0F9033
:100260001F9018951F920F920FB60F9211242F9383
:100270008F939F93EF93FF93E0912E04F0912F04BF
:100280008081E0913404F091350482FD12C09081A8
:10029000809137048F5F8F7320913804821751F05B
:1002A000E0913704F0E0E25EFB4F958F80933704D6
:1002B00001C08081FF91EF919F918F912F910F90BD
:1002C0000FBE0F901F90189590E0FC01E853FF4F70
:1002D0003491FC01EC54FF4F2491FC01E056FF4F98
:1002E000E491EE2309F43BC0332339F1333091F02C
:1002F00038F43130A9F0323001F584B58F7D12C069
:10030000373091F03830A1F03430B9F4809180006A
:100310008F7D03C0809180008F77809380000DC017
:1003200084B58F7784BD09C08091B0008F7703C0FA
:100330008091B0008F7D8093B000F0E0EE0FFF1F42
:10034000EA56FF4FA591B4918FB7F894EC916111E3
:1003500003C020952E2301C02E2B2C938FBF089510
:10036000CF93DF9390E0FC01EC54FF4F2491FC010C
:10037000E056FF4F8491882361F190E0880F991F28
:10038000FC01E457FF4FC591D491FC01EA56FF4FA1
:10039000A591B491611109C09FB7F8948881209507
:1003A00082238883EC912E230BC0623061F49FB7C7
:1003B000F8943881822F809583238883EC912E2BAB
:1003C0002C939FBF06C08FB7F894E8812E2B28830B
:1003D0008FBFDF91CF910895843028F4E82FF0E0AB
:1003E000E252FE4F60830895803100F54091E201B2
:1003F0005091E30121E030E0672B61F4B90102C0C4
:10040000660F771F8A95E2F7CB018095909584233C
:10041000952308C002C0220F331F8A95E2F7CA0154
:10042000822B932B9093E3018093E2010895843013
:1004300008F064C0482F440F440F440F485F4F3109
:1004400008F04EE1582F550F550F550F90E071E011
:100450005417F0F42EEF250F2231B8F4252F30E099
:10046000F901EC51FE4FE081E23078F4972B220F36
:10047000331FF901E25CFD4FA1E0B0E0272F2623F6
:1004800011F4A0E0B0E0B183A083770F5F5FE0CF0D
:1004900081110AC09C7FF8948BB1292F209582236B
:1004A0006923682B6BB929C08130C1F46923F894A2
:1004B00025B1892F8F7380958223262F2F73822B4E
:1004C00085B988B1629566956695637092959695A3
:1004D0009695937090959823692B0EC0823071F495
:1004E0009F70F89428B1892F880F880F80958223F8
:1004F0006923660F660F682B68B9789408956F9228
:100500007F928F929F92AF92BF92CF92DF92EF92A3
:10051000FF920F931F93CF93DF931F92CDB7DEB758
:10052000982F3B018E3108F003C1082F10E0F8012D
:10053000EC51FE4F8081833009F48FC0843009F084
:10054000F7C092509C3008F0ECC0780182E0E81AC5
:10055000F1086701CC0CDD1C603282E078070CF0FA
:1005600042C077FD05C0653B710524F4DB0104C082
:10057000A0E001C0A4EBB0E0F601EE0DFF1DE052DB
:10058000FB4F818128E830E04901881A910887FDF6
:100590009394880C991C880C991C092C000CAA08AF
:1005A000BB08828128E532E0281B310987FD33959D
:1005B000220F331F220F331FA901330F660B770B56
:1005C0009A01AB01281939094A095B090E941715DC
:1005D00024EB30E040E050E00E94ED14820E931EC8
:1005E000A41EB51E01C04B01F601EE0DFF1DE05229
:1005F000FB4F20812C3008F094C0318188E890E0D6
:10060000831B910937FD9395880F991F880F991FB8
:100610008816990684F0828148E552E0481B51090A
:1006200087FD5395440F551F440F551FC4014815AE
:1006300059050CF4CA010297880F991F4FB7F89417
:1006400030E0F901EE0FFF1F2E0F3F1FF901E554B7
:10065000FB4F928381834FBF64C0933049F08BEF8F
:10066000890F823028F087EF890F833008F059C056
:1006700061E0892F99830E94B0019981611471040E
:1006800011F460E005C08FEF6816710429F461E091
:10069000892F0E94640145C0F801E853FF4FE4919F
:1006A000E330F9F048F4E130B9F0E230A1F584B577
:1006B000806284BD68BC35C0E730E9F0E83019F1EC
:1006C000E43049F5809180008062809380007092D0
:1006D0008B0060928A0025C084B5806884BD67BCA9
:1006E00020C0809180008068809380007092890093
:1006F0006092880016C08091B00080688093B0003E
:100700006092B3000EC08091B00080628093B00010
:100710006092B40006C080E8681671040CF0B7CF90
:10072000B0CF000F111FF801E25CFD4F71826082B3
:100730000F90DF91CF911F910F91FF90EF90DF907D
:10074000CF90BF90AF909F908F907F906F900895C3
:10075000BF92CF92DF92EF92FF920F931F93CF93AE
:10076000DF9300D0CDB7DEB7B82E8B01C82ED12CC9
:10077000C6018C519E4F7C01FC018081863061F462
:1007800080917F02882341F06630710529F0109234
:100790007F028FEF809302014EEF4B0D4C30C8F477
:1007A00004301105B1F0C6010297FC01EE0FFF1FE6
:1007B0008E0F9F1FFC01E052FB4FE081F0E0CF0164
:1007C000880F991FE80FF91FE554FB4F808186FDC4
:1007D000D3C092EF9B0D903170F461E070E0023075
:1007E000110511F060E070E0892F49839A830E941F
:1007F000F4019A8149814231C8F4EB2DE695E695E2
:10080000E6958B2D8770F0E0E25BFC4F21E030E055
:1008100001C0220F8A95EAF70115110519F48081AC
:10082000282B03C02095808128232083F601EE0F1A
:10083000FF1FE25CFD4F118210820230110591F022
:100840003CF401151105E9F00130110541F185C0B5
:100850000430110509F44AC07CF10630110509F491
:1008600074C07BC0903108F08AC0423140F460E02F
:100870008B2D0E94B00160E08B2D0E94640182E00C
:1008800069C0423108F07BC060E08B2D0E94B0014E
:1008900060E08B2D0E946401F701108270C042312C
:1008A00008F06DC060E08B2D0E94640161E08B2D2B
:1008B0000E94B00181E04EC0F3E0BF1649F08BEF1B
:1008C0008B0D823028F087EF8B0D833008F057C0F6
:1008D00061E08B2D0E94B00161E08B2D0E94B00180
:1008E00060E08B2D0E94640183E034C04C3008F03E
:1008F00046C084E0F7018083C60102979C01220F65
:10090000331F820F931F80529B4FFC01208130E0E8
:10091000F901EE0FFF1F2E0F3F1FF901E554FB4FAA
:10092000208126FD2CC020E639E040E252E0B601ED
:100930000F900F90DF91CF911F910F91FF90EF904B
:10094000DF90CF90BF900C949C0B8EEE8B0D82307D
:10095000B0F486E0F701808312C08CE391E00F9041
:100960000F90DF91CF911F910F91FF90EF90DF904B
:10097000CF90BF900C94C10E8F7B80832ACF0F90B5
:100980000F90DF91CF911F910F91FF90EF90DF902B
:10099000CF90BF900895CF93DF9380917F028823FB
:1009A00029F010927F028FEF80930201CEE4D3E012
:1009B000AAE4B3E0EEEDF1E084E08E0F119219921B
:1009C0001D928E13FBCFC0E082EF8C0F803118F4A4
:1009D00062E070E002C061E070E08C2F0E94A8032A
:1009E000CF5FCE3189F71092E3011092E201DF91DF
:1009F000CF910895EF92FF920F931F93CF93DF93C0
:100A0000D82F8B01C42F6F3F8FEF7807F1F081E073
:100A100080932603D0934803109227031092490332
:100A200082E593E00E94F8080E94F70EE0917A02B6
:100A3000F0917B02E230F10550F0EE0FFF1FEE0F58
:100A4000FF1F35973197F1F702C000E010E0809169
:100A500025038111FCCF2C2FC13208F020E281E068
:100A600080932503809324039FEF90932303109298
:100A70002203920F9093210380930003809100033F
:100A80009D2F990F892B809300038091FF02813065
:100A900061F41092FF02809100038093BB0080916B
:100AA000BC0083FDF8CF85EC01C085EE8093BC00CF
:100AB000809125038130E1F380912203821710F4A5
:100AC00020912203A1E0B3E045E952E0FA018E2F24
:100AD000841B821718F48D918193F9CF1092B6027E
:100AE0002093B502EC2EF12C30E0E216F306A1F4CF
:100AF000D0931E0200931F0200E010E00E151F05A8
:100B0000ACF482E593E00E94AC08F801E25EFD4F90
:100B100082830F5F1F4FF2CF2E153F051CF48DE42B
:100B200091E002C085E791E00E94C10ECE5F6C2F7C
:100B300070E04EE152E087E7DF91CF911F910F9176
:100B4000FF90EF900C94740E0F931F93CF93DF934D
:100B500090E0FC01E956F109E231F10508F046C2E6
:100B6000EA01162FEC5CFF4F0C9462178981982FD5
:100B7000987185FF03C08CE991E053C0888198305B
:100B800069F168F4911132C291E090932603809349
:100B90004803109227031092490302E007C09031E6
:100BA00009F439C0983109F45FC020C2011778F404
:100BB000FE01E00FF11D8181608120E8829F6019B4
:100BC000112482E593E00E94F8080E5FEFCF0E94A7
:100BD000F70E83E191E00197F1F708C29B816A81EA
:100BE000163061F42D814C8130E8239F4019112487
:100BF00020E8929F6019112470E007C0462F30E86A
:100C0000939F401911246FEF7FEFDF91CF911F91D8
:100C10000F910C94FA04E0910201E7FD08C088EC02
:100C200091E0DF91CF911F910F910C94C10EEF5F76
:100C3000E09302010E2E000CFF0B9F01220F331FC9
:100C4000E20FF31FE458FD4F80839B818A8120E8E7
:100C5000929F8019112481839D818C8130E8939F1C
:100C6000801911248283C2C130910201131624F02D
:100C70008FEF80930201BAC120E0632F032E000C96
:100C8000770B422F50E0641775076CF0FA01EE0FF6
:100C9000FF1F4E0F5F1FFA01E458FD4F8083811143
:100CA0001FC02F5FEECF20E01BC0211118C0DC0158
:100CB0001196AD01440F551FA40FB51FA458BD4F89
:100CC0004C91FC01EE0FFF1F8E0F9F1FFC01E4589B
:100CD000FD4F40838C91818312968C9182832F5F8C
:100CE000822F90E06817790704F7315030930201A2
:100CF0007DC12881898130E8839FC0011124820F42
:100D0000911D009721F090937B0280937A0280914D
:100D10007F0281116BC1C0E08EEE8C0F823028F40F
:100D200066E070E08C2F0E94A803CF5FCE31A1F760
:100D300081E080937F021092B6021092B502109269
:100D400027031092490310922503809324031092E5
:100D5000FF0261E082E10E94640161E083E10E94A0
:100D600064018091B9008E7F8093B9008091B900B1
:100D70008D7F8093B90088E48093B80085E48093E8
:100D8000BC0034C1653008F431C1188199814A81B1
:100D90005B812C818EEF810F8C3008F027C1612F91
:100DA00070E0DB011297FD01EE0FFF1FAE0FBF1FBA
:100DB000A052BB4FEC91F0E0EF01CC0FDD1FEC0F28
:100DC000FD1FE554FB4F808186FF02C08F7B80832F
:100DD00080E8289F90011124250F311D80E8489F4D
:100DE000A0011124490F511DCD010E949C0B64E00C
:100DF00070E0812FDF91CF911F910F910C94A80388
:100E0000623008F4F3C02881898130E8839FC001F3
:100E10001124820F911D883E23E0920714F488EE7E
:100E200093E09093010180930001E0C0623008F4E8
:100E3000DDC0698170E0123091F08A8130E8839FD3
:100E4000C0011124682B792B133049F08B8190E07D
:100E500090E4899F902D88271124682B792B888115
:100E6000DF91CF911F910F910C947F0280EF90E062
:100E70000E94E00D8CE690E00E94E00DCEEF84EF42
:100E80008C0F803148F482E090E00E94E00D8AE00F
:100E900090E00E94E00D0BC0C13049F483E090E087
:100EA0000E94E00D88E090E00E94E00D08C08DEF08
:100EB0008C0F823098F389EF8C0F833078F3CC302D
:100EC00040F484E090E00E94E00D8EE090E00E940B
:100ED000E00D80EF8C0F823040F486E090E00E94BD
:100EE000E00D81E090E00E94E00D8FE790E00E942D
:100EF000E00DCF5FCC3141F1C23108F660E08EE108
:100F000094E00E94770D81E090E00E94E00D61E0A6
:100F10008EE194E00E94770D81E090E00E94E00D68
:100F2000AECF662309F462C0C88180EF90E00E94D2
:100F3000E00D8EE690E00E94E00D6C2F8EE194E0D3
:100F40000E94770DCE3140F087EF90E0DF91CF9196
:100F50001F910F910C94E00DD0E0FE01EC51FE4F7B
:100F600060818EE194E00E94770DCC0FDD1FC25CA2
:100F7000DD4F0990D881C02DCE018F7799270E942F
:100F8000E00DCE018078892B49F0CE01880F892FA2
:100F9000881F990B8F7799270E94E00DCE01882733
:100FA000907C892B89F2CE01990F880B990F982F8D
:100FB000881F8F7799270E94E00DC6CF80EF90E0C1
:100FC0000E94E00D8AE690E00E94E00DC2EFDFEFA4
:100FD0008C2FC03110F49D2F02C08FE790E00E944B
:100FE000E00D2196C031D10599F7AECFDF91CF91B9
:100FF0001F910F9108953FB7F894809181029091CD
:101000008202A0918302B091840226B5A89B05C0FC
:101010002F3F19F00196A11DB11D3FBFBA2FA92F77
:10102000982F8827820F911DA11DB11DBC01CD01F4
:1010300042E0660F771F881F991F4A95D1F70895E0
:101040001F920F920FB60F9211242F933F938F93FD
:101050009F93AF93BF938091DA019091DB01A091B0
:10106000DC01B091DD013091800223E0230F2D37A8
:1010700020F40196A11DB11D05C026E8230F02969C
:10108000A11DB11D209380028093DA019093DB01B2
:10109000A093DC01B093DD018091810290918202E6
:1010A000A0918302B09184020196A11DB11D80938D
:1010B000810290938202A0938302B0938402BF9135
:1010C000AF919F918F913F912F910F900FBE0F90F5
:1010D0001F90189585ED8093BC008091BC0084FD25
:1010E000FCCF1092250308954091DA02262F30E0BC
:1010F000240F311D21323105DCF4209125032430E9
:10110000C9F4FC0180E090E0861758F43091DA02CF
:101110002191DC01A854BD4FA30FB11D2C93019662
:10112000F3CF8091DA02680F6093DA0280E00895CD
:1011300081E0089582E008950895E091B6028091DB
:10114000B502E81730F4F0E0EB56FD4F808190E0F7
:1011500008958FEF9FEF08959091B6028091B502A8
:10116000981750F4E92FF0E0EB56FD4F208130E066
:101170009F5F9093B60202C02FEF3FEFC901089521
:101180008091B50290E02091B602821B91090895EA
:10119000CF92DF92EF92FF920F931F93CF93DF9343
:1011A0007C01262F972F8A0180912603882391F0B6
:1011B000C62FD72F6E01C40ED51ECC15DD0571F0DC
:1011C0006991D701ED91FC910190F081E02DC7016B
:1011D0000995F3CF642F822F0E947408C801DF9114
:1011E000CF911F910F91FF90EF90DF90CF900895D6
:1011F000CF93DF931F92CDB7DEB76983209126038B
:101200002223D1F020914903203240F021E030E048
:10121000FC013383228380E090E015C08091270396
:10122000E82FF0E0E85DFC4F998190838F5F809319
:1012300027038093490305C061E0CE0101960E9417
:10124000740881E090E00F90DF91CF910895E091D4
:101250009302F0919402309709F009940895862F33
:10126000642FE0919102F0919202309711F0A90160
:10127000099408950895862FE0918F02F0919002CD
:10128000309711F0BA0109940895862FE0918D02EC
:10129000F0918E02309711F0BA0109940895862FCB
:1012A000E0918B02F0918C02309711F0BA01099411
:1012B0000895862FE0918902F0918A02309711F00B
:1012C000BA0109940895862FE0918702F09188026F
:1012D000309711F0BA0109940895862FE0918502A4
:1012E000F0918602309711F0BA0109940895FC013B
:1012F000538D448D252F30E0842F90E0821B930B7B
:10130000541710F0CF96089501970895FC01918D20
:10131000828D981761F0828DDF01A80FB11D5D9657
:101320008C91928D9F5F9F73928F90E008958FEFC5
:101330009FEF0895FC01918D828D981731F0828D79
:10134000E80FF11D858D90E008958FEF9FEF0895D0
:10135000FC01918D228D892F90E0805C9F4F821B34
:1013600091098F739927089580E090E0892B29F0E7
:101370000E94C80081110C94000008950E947D16FF
:10138000009721F0805C9F4F0C94CD0E08952F9212
:101390003F925F926F927F928F929F92AF92BF9295
:1013A000CF92DF92EF92FF920F931F93CF93DF9331
:1013B0007C013901DA015C90232B19F466246A94CC
:1013C000762C8A011A01260E371EC0E0D0E0812C4F
:1013D000912C87E0C82ED12C0215130509F444C0C6
:1013E0008614970408F068C05801F7018081918144
:1013F000FC01A081B181F80121918F01E22F0C2E17
:1014000001C0EE0F0A94EAF7652D6E2B6F77ED9110
:10141000FC9109958FEF881A980AD5016C9170E0BC
:10142000C6018C1B9D0B02C0759567958A95E2F7E6
:10143000562E2196C730D10578F28614970461F2B2
:10144000F70180819181DC01ED91FC91652D6F7731
:101450000190F081E02D0995BFEF8B1A9B0A551C76
:101460005524551C2797E6CF209731F18614970411
:1014700018F5F70180819181DC01ED91FC9161E02B
:1014800070E001C0660FCA95EAF7615065210190CE
:10149000F081E02DDF91CF911F910F91FF90EF90A0
:1014A000DF90CF90BF90AF909F908F907F906F9084
:1014B0005F903F902F900994DF91CF911F910F91F2
:1014C000FF90EF90DF90CF90BF90AF909F908F9064
:1014D0007F906F905F903F902F9008951F920F9292
:1014E0000FB60F9211242F933F934F935F936F93F7
:1014F0007F938F939F93AF93BF93EF93FF938091CD
:10150000B900887F803609F49CC068F5883209F4F8
:101510005BC090F4803109F454C038F4882309F496
:10152000F6C0883009F44DC0F6C0883109F44CC0CB
:10153000803209F45DC0EFC0803409F468C048F41B
:10154000803309F455C0883309F0E5C08093230344
:10155000D8C0803509F44FC0883509F45DC088349F
:1015600009F0D9C0D6C0883909F4C7C0A8F48837B3
:1015700009F467C038F4883609F463C0803709F489
:1015800060C0C9C0883809F4B8C0803909F45FC0A8
:10159000803809F0C0C05BC0803B09F486C038F4D5
:1015A000803A09F466C0883A09F47FC0B4C0803C30
:1015B00009F4A7C0883C09F4A4C0883B09F48AC098
:1015C000AAC08091000310C0909122038091210352
:1015D000981770F5E091220381E08E0F809322032B
:1015E000F0E0EF5FFC4F80818093BB0085EC86C00C
:1015F000809323038EC0E091220381E08E0F8093BD
:1016000022038091BB00F0E0EF5FFC4F808390915C
:101610002203809121036EC0E091220381E08E0FAE
:10162000809322038091BB00F0E0EF5FFC4F80834A
:101630008091240381116DC081E08093FF0284EAD0
:1016400061C083E0809325031092FE02CFCF80918A
:10165000FE02803208F051C0E091FE0281E08E0F60
:101660008093FE028091BB00F0E0E252FD4F808348
:10167000BDCF85EC8093BC00109225038091FE02C3
:10168000803230F4E091FE02F0E0E252FD4F108231
:101690006091FE0270E0E091DC02F091DD028EEDDF
:1016A00092E009951092FE0236C084E080932503F3
:1016B0001092DB021092DA02E091D802F091D90286
:1016C00009958091DA02811105C081E08093DA02E8
:1016D0001092B802E091DB0281E08E0F8093DB0272
:1016E000F0E0E854FD4F80818093BB009091DB02D5
:1016F0008091DA02981708F479CF85E88093BC00CE
:101700000AC085EC8093BC001092250304C010929F
:1017100023030E946A08FF91EF91BF91AF919F91BF
:101720008F917F916F915F914F913F912F910F908A
:101730000FBE0F901F901895DF92EF92FF920F93BC
:101740001F93CF93DF93EC01D62E7A018901888114
:101750008C3008F06AC061E08D2D0E94B001888154
:10176000E82FF0E09F01220F331FE20FF31FE55433
:10177000FB4F9D2D9F732081207CD22ED92AD082B1
:1017800060E272E0AB014E195F0957FF02C04D5F86
:101790005F4F5595479555954795498340E659E0E4
:1017A0009A01201B310B37FF02C02D5F3F4F35954B
:1017B0002795359527952A836CE00E9456179CE063
:1017C000899FB001112440E050E09A01260F371F95
:1017D000F901EE0FFF1F2E0F3F1FF901E554FB4FDC
:1017E000908196FD16C04F5F5F4F4C30510569F7F1
:1017F00081110FC01092800082E0809381001092CE
:10180000850010928400B19A80916F00826080936D
:101810006F00E881F0E0CF01880F991FE80FF91FF2
:10182000E554FB4F8081806480838881DF91CF9174
:101830001F910F91FF90EF90DF9008951F920F92EC
:101840000FB60F9211242F933F934F935F936F9393
:101850007F938F939F93AF93BF93EF93FF93809169
:10186000B70287FF05C010928500109284001BC04C
:101870002091B702022E000C330B8091DF0490E020
:101880002817390784F48091B702082E000C990BB1
:10189000FC01EE0FFF1F8E0F9F1FFC01E554FB4F55
:1018A000808186FD15C08091B7028F5F8093B7025B
:1018B0002091B702022E000C330B8091DF0490E0E0
:1018C00028173907C4F48091B7028C3064F113C033
:1018D0008091B702082E000C990BFC01EE0FFF1F40
:1018E0008E0F9F1FFC01E554FB4F808160E08F73DA
:1018F0000E946401D8CF8091840090918500049665
:1019000080349C4918F480E49CE905C080918400EF
:1019100090918500049690938900809388008FEFC2
:101920008093B7023BC02091840030918500809164
:10193000B702082E000C990BFC01EE0FFF1F8E0F53
:101940009F1FFC01E554FB4F81819281820F931F01
:1019500090938900809388008091B702082E000C34
:10196000990BFC01EE0FFF1F8E0F9F1FFC01E5542A
:10197000FB4F808186FF12C08091B702082E000CB9
:10198000990BFC01EE0FFF1F8E0F9F1FFC01E5540A
:10199000FB4F808161E08F730E946401FF91EF91A2
:1019A000BF91AF919F918F917F916F915F914F9177
:1019B0003F912F910F900FBE0F901F901895DF92BF
:1019C000EF92FF920F931F93CF93DF93FC01E058A8
:1019D000FF4FD080DD2009F45CC031960081118179
:1019E000D8011196FC901197EC90EC01C05CDF4F90
:1019F00088819981009709F44CC0DC01ED91FC913C
:101A00000190F081E02D60EF099588819981DC01DA
:101A1000ED91FC910190F081E02D69E709958881B5
:101A20009981DC01ED91FC910190F081E02D6E2D0A
:101A3000099588819981DC01ED91FC910190F081FB
:101A4000E02D6F2D09957801B2E0EB0EF11C0D0D24
:101A5000111DE016F10661F020E030E0A70161E021
:101A600070E0CE010E94C709EFEFEE1AFE0AF1CF37
:101A700088819981DC01ED91FC910190F081E02D4C
:101A800067EFDF91CF911F910F91FF90EF90DF9063
:101A90000994DF91CF911F910F91FF90EF90DF900C
:101AA0000895009711F00C94DF0C0895FC01848DCB
:101AB000DF01A80FB11DA35ABF4F2C91848D90E078
:101AC00001968F739927848FA689B7892C93A08953
:101AD000B1898C9180648C93938D848D981306C00A
:101AE0000288F389E02D80818F7D80830895EF92B5
:101AF000FF920F931F93CF93DF93EC0181E0888FC8
:101B00009B8D8C8D981305C0E889F989808185FDAE
:101B100024C0F62E0B8D10E00F5F1F4F0F7311279F
:101B2000E02E8C8DE8120CC00FB607FCFACFE889C6
:101B3000F989808185FFF5CFCE010E94560DF1CF46
:101B40008B8DFE01E80FF11DE35AFF4FF0820B8FE2
:101B5000EA89FB898081806207C0EE89FF89608302
:101B6000E889F98980818064808381E090E0DF9159
:101B7000CF911F910F91FF90EF900895CF93DF9336
:101B8000EC01888D8823C9F0EA89FB89808185FD75
:101B900005C0A889B9898C9186FD0FC00FB607FCD6
:101BA000F5CF808185FFF2CFA889B9898C9185FF17
:101BB000EDCFCE010E94560DE7CFDF91CF91089572
:101BC000682F8EE194E00C94770DFF920F931F9392
:101BD000CF93DF9300D0CDB7DEB7082F10E0F80128
:101BE000E25BFC4F9081F62EF922065B1C4FF80158
:101BF00090819F1511F12F2D30E03A832983A09118
:101C00009E03B0919F031097B1F0682FED91FC9166
:101C100011976F7060690190F081E02DCD010995F9
:101C200022E030E0AE014F5F5F4F62E070E08EE98E
:101C300093E00E94C709F801F0820F900F90DF91A6
:101C4000CF911F910F91FF9008951F93CF93DF9332
:101C5000182FEB018091A3039091A40368177907D3
:101C600048F46091A1037091A203C60FD71F188397
:101C700080E018C0E091D003F091D103309711F4C7
:101C800081E010C081E08093A0038091BC0390911B
:101C9000BD0309958091A3039091A403C817D907A8
:101CA00078F7DFCFDF91CF911F910895CF93DF9326
:101CB000EC01FB0120E030E0CF01861B970B2C17D5
:101CC0003D0778F4DB01A20FB31F9C91908311961E
:101CD0004C91479544274795942B91932E5F3F4F06
:101CE000EBCFDF91CF910895EF92FF920F931F9367
:101CF000CF93DF93C82F80919E0390919F0300970D
:101D0000C9F17A018B01DC01ED91FC910190F08128
:101D1000E02D60EF099580919E0390919F03DC0177
:101D2000ED91FC910190F081E02D6C2F0995E70178
:101D30000E0D1F1DC017D10759F020E030E0AE0195
:101D400061E070E08EE993E00E94C7092196F2CF2E
:101D500080919E0390919F03DC01ED91FC91019095
:101D6000F081E02D67EFDF91CF911F910F91FF90F0
:101D7000EF900994DF91CF911F910F91FF90EF9019
:101D80000895FC0101900020E9F73197BF01681B1D
:101D9000790BAC0181E70C94740ECF93DF93FC01B7
:101DA000A081B181109701F1EC01ED91FC911197A7
:101DB0000190F081E02D69EFCD010995888199812D
:101DC000DC01ED91FC910190F081E02D62E009953C
:101DD00088819981DC01ED91FC910190F081E02DE9
:101DE00065E0DF91CF910994DF91CF910895209123
:101DF000490390914803213208F04AC0809125039D
:101E00008111FCCF32E03093250331E0309324037D
:101E10003FEF309323031092220320932103A8E283
:101E2000B3E041E053E0FA013E2F341B321718F4BF
:101E30003D913193F9CF1092000320910003990F47
:101E4000922B909300039091FF02913061F41092D5
:101E5000FF02909100039093BB009091BC0093FD12
:101E6000F8CF95EC01C095EE9093BC0090912503BE
:101E70009230E1F3909123039F3F79F08091230307
:101E8000803241F080912303803331F084E005C03B
:101E900081E003C082E001C083E01092270310922A
:101EA0004903109226030895CF93DF9300D0CDB756
:101EB000DEB7789484B5826084BD84B5816084BDCA
:101EC00085B5826085BD85B5816085BD80916E00D8
:101ED000816080936E001092810080918100826009
:101EE0008093810080918100816080938100809146
:101EF00080008160809380008091B1008460809335
:101F0000B1008091B00081608093B00080917A0030
:101F1000846080937A0080917A00826080937A0056
:101F200080917A00816080937A0080917A00806845
:101F300080937A001092C10040E1F42EF092DE030B
:101F40008091DF039091E0030E94E5150091DE038C
:101F500010E0C80101960E9450159093E003809311
:101F6000DF03FC01E00FF11F108252E0E52EDC01DF
:101F7000EC9225E011962C93A801425051096DE294
:101F800071E002960E9482168FE792E0909386029B
:101F90008093850287E192E0909388028093870284
:101FA00084EF91E090938E0280938D028CEE91E00D
:101FB0009093900280938F0288EA93E090938A0234
:101FC0008093890284EA95E0909392028093910233
:101FD0008BEC94E09093940280939302E0912E0412
:101FE000F0912F04E082E0912E04F0912F041082F2
:101FF000E0912A04F0912B041082E0912C04F091DE
:102000002D04F08210923604E0913204F0913304F2
:1020100086E08083E0913004F0913104808180611A
:102020008083E0913004F091310480818860808366
:10203000E0913004F0913104808180688083E091E8
:102040003004F091310480818F7D808380911D0464
:10205000811150C061E08DE00E94B00162ED70E03E
:1020600080E090E00E94D20061E08DE00E94640177
:1020700068E270E080E090E00E94D20060E08DE0D5
:102080000E94640162ED70E080E090E00E94D20066
:1020900061E08DE00E94640168E270E080E090E021
:1020A0000E94D20060E08DE00E9464016AEF70E05F
:1020B00080E090E00E94D20010E062ED70E080E0ED
:1020C00090E00E94D20061E08DE00E94640168E22D
:1020D00070E080E090E00E94D20060E08DE00E941D
:1020E00064011F5F153049F76DE770E080E090E014
:1020F0000E94D2008EE194E09093DD038093DC0394
:1021000090939F0380939E038EE993E00E94CD0EEF
:102110008EE593E00E94DF0C0E94CB04DD24D39473
:1021200022E0E22EF12C01E010E030E4C32E809199
:10213000DC039091DD03DC01ED91FC910084F185DD
:10214000E02D0995892B09F4CEC18091DC03909193
:10215000DD03DC01ED91FC910284F385E02D09950E
:102160009C018F3FBFEF9B0711F3982F8091A9032C
:10217000882309F492C0973F09F07EC01092A9030A
:10218000A091A103B091A2036C916137C1F16937AD
:1021900009F05CC0E091D603F091D703309739F293
:1021A0008091AA039091AB038330910538F420E02D
:1021B00030E040E050E060E070E01BC0BD016D5FCA
:1021C0007F4F03970E94560EBC016D5F7F4F80E0EA
:1021D0000E94250EE091A103F091A2039F012D5FC3
:1021E0003F4F428150E0618170E0E091D603F09171
:1021F000D7038091B8039091B903099598CF809146
:10220000D2039091D303892B09F491CFBD016F5F65
:102210007F4F8091AA039091AB0301970E94560EC5
:10222000BC016F5F7F4F80E00E94250E6091A1038B
:102230007091A2036F5F7F4FE091D203F091D303BF
:102240008091BE039091BF03099571CFE091D403B3
:10225000F091D503309709F46ACF9D012F5F3F4F6E
:102260004091AA035091AB03415051098091C003A2
:102270009091C10309955BCF6091AA037091AB0364
:10228000822F0E94250E8091AA039091AB030196A4
:102290009093AB038093AA034ACF6091A7037091F8
:1022A000A8036115710509F4AFC027FDADC06150E9
:1022B00071097093A8036093A703822F0E94250ED3
:1022C0008091A7039091A803892B09F030CF8091CA
:1022D000A503882309F42BCF803D09F47FC030F497
:1022E000803939F1803C09F466C08BC0843FE1F14C
:1022F000853F09F44DC0803E09F083C0E091C403DE
:10230000F091C503309709F47CC0A091A103B0916E
:10231000A2038C9111964C9150E020E8829F400DD1
:10232000511D11246091A6038091AC039091AD03DF
:1023300067C0E091C603F091C703309709F461C00C
:10234000A091A103B091A2038C9111964C9150E001
:1023500090E8899F400D511D11246091A603809142
:10236000AE039091AF034CC0E091CC03F091CD034C
:10237000309709F446C0A091A103B091A2034C91FB
:1023800050E011966C918091B4039091B50338C0E0
:10239000E091CE03F091CF03309799F1A091A10382
:1023A000B091A2034C9150E011966C918091B603CC
:1023B0009091B70325C0E091C803F091C90330970D
:1023C00001F1A091A103B091A2034C9150E0609162
:1023D000A6038091B0039091B10312C0E091CA03AB
:1023E000F091CB03309769F0A091A103B091A203C3
:1023F0004C9150E06091A6038091B2039091B30399
:1024000009951092A50393CE903F30F4822F8F70E0
:102410008093A603922F907F903F79F158F4903CDF
:1024200029F118F49039E9F082CE903DF9F0903E10
:10243000C1F07DCE993F09F449C028F48CE0890FA2
:10244000823078F074CE9F3F09F071CE1092A803CD
:102450001092A7031092A5031092A60380E090E0CB
:1024600013C0F092A803E092A70304C01093A8033E
:102470000093A7039093A5035ACED092A90310927C
:10248000AB031092AA0353CE2091A3033091A4036F
:102490008217930748F4E091A103F091A203E80F9B
:1024A000F91F10820196F0CF1092A9031092AB038E
:1024B0001092AA03E091DA03F091DB03309709F45C
:1024C00036CE8091C2039091C3030BC0E091D80334
:1024D000F091D903309709F42ACE8091BA039091F4
:1024E000BB03099524CE8FB7F8948090DA019090C1
:1024F000DB01A090DC01B090DD018FBF8092120261
:1025000090921302A0921402B092150280910E02D2
:1025100090910F02A0911002B09111024091000120
:1025200050910101052E000C660B770B881A990A51
:10253000AA0ABB0A481559056A057B0508F034C18B
:10254000840F951FA61FB71F80930E0290930F0252
:10255000A0931002B093110260E085E00E94640134
:1025600060E086E00E946401809102029091030283
:10257000019711F461E001C060E087E00E9464010E
:102580008091080290910902019711F461E001C065
:1025900060E088E00E94640160E089E00E946401DC
:1025A00060E08AE00E94640161E08DE00E946401C5
:1025B00061E08DE00E946401C0927C0080917A000D
:1025C000806480937A0080917A0086FDFCCF6091D0
:1025D00078008091790070E0782B072E000C880B32
:1025E000990B0E94C91660930A0270930B028093A4
:1025F0000C0290930D0220E030E040EA50E40E948B
:102600002D1718162CF4109309020093080204C029
:102610001092090210920802109204021092050210
:102620001092060210920702109303020093020216
:102630008091DE01882341F069B180914E036823C7
:102640006C7F80E00E94E50D8091DF01882371F0AE
:1026500063B196B1B0E49B9FC00111246F73862BC8
:1026600060914F03682381E00E94E50D8091E001B5
:10267000882351F066B16C7366956695809150031E
:10268000682382E00E94E50D8091E101882321F01A
:1026900060E083E00E94E50D94EE892E91E0992E92
:1026A000A12C82EFB82EBA0CEFE0EB1508F475C040
:1026B000D4018C91823009F070C08091E201909138
:1026C000E3010B2C02C0959587950A94E2F780FFF1
:1026D00064C0B1100BC060910A0270910B0280912E
:1026E0000C0290910D020E94911602C060E070E011
:1026F0007A83698380919E0390919F03009709F4E8
:102700004CC0DC01ED91FC916115704490F46B2D8F
:10271000606E0190F081E02D099522E030E0AE017D
:102720004F5F5F4F62E070E08EE993E00E94C7095F
:1027300034C00190F081E02D60EF099580919E03F7
:1027400090919F03DC01ED91FC910190F081E02DCF
:102750006FE6099580919E0390919F03DC01ED91B6
:10276000FC910190F081E02D6B2D099522E030E085
:10277000AE014F5F5F4F62E070E08EE993E00E9430
:10278000C70980919E0390919F03DC01ED91FC911C
:102790000190F081E02D67EF0995A394BFEF8B1AAC
:1027A0009B0AEEE1AE127DCF0E94B409C0CC10921C
:1027B00055031092540348EE53E060E070E04093FC
:1027C00056035093570360935803709359038DE059
:1027D00091E090935303809352038EE593E010921F
:1027E0009F0310929E039093A2038093A10320E481
:1027F00030E03093A4032093A3031092A50310921A
:10280000A6031092A8031092A7031092A903109296
:10281000AB031092AA031092AD031092AC03109276
:10282000AF031092AE031092B1031092B003109256
:10283000B3031092B2031092B5031092B403109236
:10284000B7031092B6031092BD031092BC0310920E
:10285000BF031092BE031092C1031092C0031092E6
:10286000C3031092C2031092D1031092D0031092AE
:10287000A0031092DE031092E0031092DF03109287
:102880001D042DE639E03093C5032093C40323E6ED
:1028900039E03093C7032093C60325E439E0309331
:1028A000C9032093C8032BE339E03093CB03209373
:1028B000CA0329E539E03093CD032093CC032FE4FC
:1028C00039E03093CF032093CE032AE339E03093ED
:1028D000D3032093D2032FE239E03093D503209322
:1028E000D40321E53DE03093D7032093D6039093A2
:1028F000B9038093B80320EC39E03093D9032093D7
:10290000D8039093BB038093BA0387E299E0909336
:10291000DB038093DA031092210410922004409389
:1029200022045093230460932404709325048FE1C0
:1029300091E090931F0480931E0485EC90E09093A7
:102940002B0480932A0484EC90E090932D048093D0
:102950002C0480EC90E090932F0480932E0481EC63
:1029600090E0909331048093300482EC90E0909357
:1029700033048093320486EC90E090933504809386
:1029800034041092370410923804109239041092D3
:102990003A048091DF04A0EEB4E09FEF48EB5BE0E7
:1029A0008C3078F48C93282F30E0F901EE0FFF1F64
:1029B0002E0F3F1FF901E554FB4F528341838F5F78
:1029C00001C09C93139625E0A430B20749F7809389
:1029D000DF040895F8940C946817052E97FB1EF4F5
:1029E00000940E94041557FD07D00E941F1507FC94
:1029F00003D04EF40C9404155095409530952195D4
:102A00003F4F4F4F5F4F089590958095709561951A
:102A10007F4F8F4F9F4F08950E944115A59F900DA6
:102A2000B49F900DA49F800D911D11240895B7FFB0
:102A30000C940C150E940C15821B930B0895A1E2B7
:102A40001A2EAA1BBB1BFD010DC0AA1FBB1FEE1F28
:102A5000FF1FA217B307E407F50720F0A21BB30B73
:102A6000E40BF50B661F771F881F991F1A9469F7EF
:102A700060957095809590959B01AC01BD01CF014B
:102A80000895A29FB001B39FC001A39F700D811D47
:102A90001124911DB29F700D811D1124911D089567
:102AA000CF93DF938230910510F482E090E0E091C3
:102AB0000605F091070520E030E0C0E0D0E0309757
:102AC00011F14081518148175907C0F04817590743
:102AD00061F482819381209719F09B838A832BC0B4
:102AE000909307058093060526C02115310519F03E
:102AF0004217530718F49A01BE01DF01EF0102806B
:102B0000F381E02DDCCF2115310509F1281B390BAC
:102B10002430310590F412968D919C911397611594
:102B2000710521F0FB019383828304C09093070514
:102B300080930605FD01329644C0FD01E20FF31FAC
:102B400081939193225031092D933C933AC0209167
:102B5000040530910505232B41F4209105013091A6
:102B6000060130930505209304052091030130915F
:102B700004012115310541F42DB73EB740910701FD
:102B800050910801241B350BE0910405F0910505D7
:102B9000E217F307A0F42E1B3F0B2817390778F034
:102BA000AC014E5F5F4F2417350748F04E0F5F1F93
:102BB00050930505409304058193919302C0E0E092
:102BC000F0E0CF01DF91CF9108950F931F93CF9342
:102BD000DF93009709F48CC0FC01329713821282B4
:102BE00000910605109107050115110581F420815A
:102BF0003181820F931F209104053091050528171C
:102C0000390779F5F0930505E093040571C0D80103
:102C100040E050E0AE17BF0750F412962D913C9162
:102C20001397AD012115310509F1D901F3CF9D01AC
:102C3000DA013383228360817181860F971F8217A7
:102C4000930769F4EC0128813981260F371F2E5F25
:102C50003F4F318320838A819B8193838283452BDD
:102C600029F4F0930705E093060542C01396FC9300
:102C7000EE931297ED01499159919E01240F351F52
:102C8000E217F30771F480819181840F951F0296FA
:102C900011969C938E938281938113969C938E932D
:102CA0001297E0E0F0E0D80112968D919C91139775
:102CB000009719F0F8018C01F6CF8D919C91980145
:102CC0002E5F3F4F820F931F209104053091050521
:102CD0002817390769F4309729F4109207051092E4
:102CE000060502C0138212821093050500930405A5
:102CF000DF91CF911F910F91089581E090E0F894BA
:102D00000C946817FB01DC014150504048F00190E1
:102D10000D920020C9F701C01D9241505040E0F7CC
:102D200008950E9498166894B1110C94271708957D
:102D30000E940C1788F09F5798F0B92F9927B75128
:102D4000B0F0E1F0660F771F881F991F1AF0BA954F
:102D5000C9F714C0B13091F00E942617B1E0089570
:102D60000C942617672F782F8827B85F39F0B93F62
:102D7000CCF3869577956795B395D9F73EF4909502
:102D80008095709561957F4F8F4F9F4F0895E89480
:102D900009C097FB3EF490958095709561957F4FA3
:102DA0008F4F9F4F9923A9F0F92F96E9BB27939551
:102DB000F695879577956795B795F111F8CFFAF461
:102DC000BB0F11F460FF1BC06F5F7F4F8F4F9F4F92
:102DD00016C0882311F096E911C0772321F09EE8F0
:102DE000872F762F05C0662371F096E8862F70E056
:102DF00060E02AF09A95660F771F881FDAF7880F30
:102E00009695879597F9089557FD9058440F551F4B
:102E100059F05F3F71F04795880F97FB991F61F05C
:102E20009F3F79F087950895121613061406551FD3
:102E3000F2CF4695F1DF08C0161617061806991F3F
:102E4000F1CF86957105610508940895E894BB2734
:102E500066277727CB0197F908950E94321708F467
:102E60008FEF0895990F0008550FAA0BE0E8FEEFC9
:102E700016161706E807F907C0F012161306E4073E
:102E8000F50798F0621B730B840B950B39F40A2637
:102E900061F0232B242B252B21F408950A2609F415
:102EA000A140A6958FEF811D811D0895991B79E0A2
:102EB00004C0991F961708F0961B881F7A95C9F7CA
:102EC00080950895EE0FFF1F0590F491E02D099471
:042ED000F894FFCFA4
:102ED4001300FF00000805800000000000F808C887
:102EE40008C5009C08C008AC089D080000000077D5
:102EF4000D99007709BE0DA80986099A09736164C2
:102F0400725F6D6574656F2E696E6F00556E6B6EC2
:102F14006F776E2070696E206D6F6465004932436F
:102F24002052656164204572726F723A20546F6F4B
:102F3400206D616E792062797465732072656365B2
:102F440069766564004932432052656164204572A4
:102F5400726F723A20546F6F2066657720627974BD
:102F640065732072656365697665640031302D622E
:102F740069742061646472657373696E67206D6F30
:102F84006465206973206E6F74207965742073758D
:102F940070706F7274656400746F6F206D616E7908
:0A2FA4002071756572696573000005
:00000001FF
