:100000000C9479000C94A1000C94A1000C94A10014
:100010000C94A1000C94A1000C94A1000C94A100DC
:100020000C94A1000C94A1000C94A1000C947C0FE2
:100030000C94A1000C94A1000C94A1000C94A100BC
:100040000C941F080C94A1000C94B70A0C94FA0AA3
:100050000C94A1000C94A1000C94A1000C94A1009C
:100060000C94D6140C94A10006021302200238024C
:1000700041024A025702F70715081D0715089307A2
:100080001508F8069F06150815081508150815081F
:100090009E05150882061508DE060000000700020E
:1000A000010000030406000000000000000001023F
:1000B00004081020408001020408102001020408F6
:1000C00010200404040404040404020202020202D4
:1000D00003030303030300000000250028002B0096
:1000E00000000000240027002A006F04B60B700FE8
:1000F0005E1211241FBECFEFD8E0DEBFCDBF11E0EE
:10010000A0E0B1E0E8EDF0E302C005900D92A03E62
:10011000B107D9F724E0A0EEB1E001C01D92AB38E1
:10012000B207E1F710E0C2EFD0E004C02297FE0171
:100130000E944C18CA3ED107C9F70E94180A0C94B5
:1001400003160C940000843028F4E82FF0E0EB57FD
:10015000FD4F60830895843008F064C0482F440F39
:10016000440F440F485F4A3108F049E1582F550FBA
:10017000550F550F90E071E05417E8F42EEF250F5E
:100180002231B0F4E52FF0E0DF01A859BD4F2C91EA
:10019000223070F4972BEE0FFF1FEE5CFD4F21E035
:1001A00030E0A72FA62311F420E030E03183208334
:1001B000770F5F5FE1CF81110AC09C7FF8942BB16C
:1001C000892F809582239623892B8BB92AC0813071
:1001D000C9F46923F89425B1892F8F738095822300
:1001E000262F2F73822B85B988B162956695669507
:1001F0006370929596959695937090959823692B38
:1002000068B90FC0823071F49F70F89428B1892FBB
:10021000880F880F809582236923660F660F862BCF
:1002200088B9789408958B30C0F440918902509138
:100230008A0221E030E002C0220F331F8A95E2F7E4
:10024000672B29F4209530952423352302C0242BD5
:10025000352B30938A022093890208950F931F93C0
:10026000CF93DF93EB01893170F5082F10E0F8018F
:10027000E859FD4F9081933091F0943021F58250F0
:100280008C30D0F4980122503109C901880F991F90
:10029000820F931F80529E4F0E9419110DC0833010
:1002A00041F09BEF980F923020F097EF980F93302A
:1002B00018F4BE010E94B909F801EE0FFF1FEE5CB1
:1002C000FD4FD183C083DF91CF911F910F9108958E
:1002D000DC01ED91FC910190F081E02D09948EE01C
:1002E0000E949C09BC01882777FD8095982F0E9469
:1002F000D6166093A3027093A4028093A5029093F4
:10030000A60220E030E040EA50E40E94861718166A
:100310003CF481E090E090938C0280938B0204C0C7
:1003200010928C0210928B0220E030E040E050E40A
:1003300060919F027091A0028091A1029091A2020F
:100340000E949F1618163CF081E090E09093920274
:100350008093910208951092920210929102089552
:100360008091950290919602019711F461E001C08D
:1003700060E085E00E94660980919302909194026A
:10038000019711F461E001C060E086E00E94660917
:100390008091910290919202019711F461E001C065
:1003A00060E087E00E94660980918B0290918C0248
:1003B000019711F461E001C060E088E00E946609E5
:1003C00080918F02909190020B9714F061E001C030
:1003D00060E089E00E94660980918D0290918E0212
:1003E0008739910514F061E001C060E08AE00C9467
:1003F0006609CF93DF93EC01FC013497E730F105F8
:1004000008F062C0EC5CFF4F0C944A1820E030E02A
:1004100048EC52E46091AB027091AC028091AD0265
:100420009091AE021FC020E030E848E853E46091AC
:10043000AF027091B0028091B1029091B2020CC0F3
:1004400020E030E848E853E46091A7027091A802E8
:100450008091A9029091AA020E943B1620E030E010
:1004600040EA51E40E948A170E94A316AB012EC0F5
:100470006091A3027091A4028091A5029091A602BE
:10048000F3CF60919B0270919C0280919D029091AC
:100490009E02EACF20E030E848E853E460919702FA
:1004A000709198028091990290919A02D5CF20E0A4
:1004B00030E848E853E460919F027091A002809177
:1004C000A1029091A202C8CF40E050E06C2F86E6D6
:1004D00093E00E94570DDF91CF9108951F93CF9322
:1004E000DF93162FC82FD0E0FE01EC59FD4F90810D
:1004F0001923CF57DD4F411103C09881911741F067
:10050000412F50E0682F86E693E00E94700D18831B
:10051000DF91CF911F91089580918502882349F042
:1005200069B18091640268236C7F40E080E00E94A2
:100530006E0280918602882379F063B186B120E44F
:10054000829FC00111246F73682B8091650268231C
:1005500040E081E00E946E0280918702882359F07A
:1005600066B16C736695669580916602682340E07B
:1005700082E00E946E0280918802882329F040E088
:1005800060E083E00C946E020895109206028FEFF3
:100590008093040108958F929F92BF92CF92DF9231
:1005A000EF92FF920F931F93CF93DF9300D0CDB7BD
:1005B000DEB7B82E4B01C82ED12C860108591D4F2D
:1005C000F8018081863049F480910602882329F061
:1005D0006630710511F00E94C5024EEF4B0D4C3094
:1005E000B0F484E08816910491F0C60102977C0172
:1005F000EE0CFF1CE80EF91EF701E052FE4F7F01E2
:10060000CF014A830E947E114A818111D0C092EFAE
:100610009B0D9B3078F461E070E0F2E08F1691045E
:1006200011F060E070E0892F4A8399830E941301E2
:1006300099814A814231D8F4EB2DE695E695E6950D
:100640008B2D8770F0E0EC59FD4F21E030E0082E53
:1006500001C0220F0A94EAF78114910421F48081E9
:10066000822B808304C02095808128232083F6017B
:10067000EE0FFF1FEE5CFD4F1182108282E08816A4
:100680009104A1F03CF481149104F9F08A94892832
:1006900051F17AC0F4E08F16910409F448C084F156
:1006A00096E08916910409F467C06EC09B3008F08B
:1006B00084C0423140F460E08B2D0E942D0960E03F
:1006C0008B2D0E94660982E05CC0423108F075C043
:1006D00060E08B2D0E942D0960E08B2D0E94660941
:1006E000F80110826AC0423108F067C060E08B2DCB
:1006F0000E94660961E08B2D0E942D0981E041C0B6
:10070000F3E0BF1649F08BEF8B0D823028F087EFB6
:100710008B0D833008F051C061E08B2D0E942D09B4
:1007200060E070E08B2D0E94B90983E02AC04C3054
:1007300008F043C084E0F8018083C60102978C0171
:10074000000F111F080F191F00521E4FC8010E94F1
:100750007E11811132C0B601C8010F900F90DF9158
:10076000CF911F910F91FF90EF90DF90CF90BF90AE
:100770009F908F900C94D2108EEE8B0D8230E8F407
:1007800086E0F801808319C06EE071E086E693E0B0
:100790000F900F90DF91CF911F910F91FF90EF90ED
:1007A000DF90CF90BF909F908F900C94E60DC70183
:1007B0004A830E94D8104A812ACF0F900F90DF9170
:1007C000CF911F910F91FF90EF90DF90CF90BF904E
:1007D0009F908F900895CF93C0E08EEE8C0F823063
:1007E00028F466E070E08C2F0E94CB02CF5FC93105
:1007F000A1F781E08093060287EC93E0CF910C94FF
:100800002412CF93DF938091060281110E94C502CA
:10081000E5E8F2E0C4E6D2E0A1E8B2E01192199274
:100820001D9282E0E938F807C9F7C0E082EF8C0F2B
:100830008B3018F462E070E002C061E070E08C2F51
:100840000E94CB02CF5FC93189F710928A021092C1
:100850008902DF91CF91089523E042E06FE171E0DA
:1008600086E693E00E94AE0C4EE251E060EE86E632
:1008700093E00E94EA0D4BEA50E060E986E693E0DF
:100880000E94EA0D43E151E060EC86E693E00E94AD
:10089000EA0D43EA50E060ED86E693E00E94EA0D3F
:1008A0004BEC52E064EF86E693E00E94EA0D47E8E5
:1008B00055E060EF86E693E00E940D0E41E054E0C3
:1008C0006FEF86E693E00E94070E40E051EE60E095
:1008D00070E086E693E00E943E0F0C940104CF93F3
:1008E000DF93C0EED1E0CE010E943810239682E063
:1008F000C430D807C1F7DF91CF910895DF92EF920E
:10090000FF920F931F93CF93DF93F82EEB01D42E1A
:100910006F3F8FEF7807A9F06F2D87EC93E00E946F
:100920003E126C2F87EC93E00E94E51187EC93E078
:100930000E945B1280910402909105020E94BE0801
:1009400002C0C0E0D0E04D2D6F2D87EC93E00E94F7
:100950003B120D2D10E087EC93E00E948D110817DB
:100960001907B1F4F0920702C0930802E9E0EE2EF5
:10097000E2E0FE2EC0E0D0E0C017D107CCF487EC57
:1009800093E00E949511F70181937F012196F4CFA6
:1009900087EC93E00E948D11801791071CF46EE2A2
:1009A00071E002C066E571E086E693E00E94E60D24
:1009B00042E04D0D27E032E067E786E693E0DF9105
:1009C000CF911F910F91FF90EF90DF900C949E0DAF
:1009D0008F929F92AF92BF92CF92DF92EF92FF924F
:1009E0000F931F93CF93DF9386E693E00E94FC0C56
:1009F000892B29F086E693E00E942A0EF5CF0E940B
:100A0000690860932E0270932F02809330029093B6
:100A10003102C0902A02D0902B02E0902C02F0907C
:100A20002D0240910501509106014A01AA2497FC2C
:100A3000A094BA2C8B019C010C191D092E093F09A9
:100A400080169106A206B30608F054C0D501C40171
:100A50008C0D9D1DAE1DBF1D80932A0290932B020D
:100A6000A0932C02B0932D020E94B0010E946F014E
:100A70000E948C02C8E6D2E012EF1B3090F488810D
:100A8000823079F4812F90E02091890230918A029E
:100A9000012E02C0359527950A94E2F720FD0E94A9
:100AA000F9011F5F21961B3041F78091040187FDFA
:100AB00021C0C0E02C2F30E080910401992787FDF0
:100AC000909582179307B4F0C901880F991F820F80
:100AD000931FFC01E75DFD4FDC01A85DBD4F6C91EC
:100AE00070E0DC01A95DBD4F40818C910E947E04C5
:100AF000CF5FE0CFDF91CF911F910F91FF90EF90EB
:100B0000DF90CF90BF90AF909F908F900895BF924D
:100B1000CF92DF92EF92FF920F931F93CF93DF93C9
:100B2000162FEA0190E0FC01E956F109E231F105E6
:100B300008F07BC2E55CFF4F0C944A188981982F1E
:100B4000987185FF03C06DE771E05EC088819830C1
:100B500099F148F4911169C2682F87EC93E00E94E3
:100B60003E1202E007C0903109F448C0983109F400
:100B70007CC05BC2011778F4FE01E00FF11D81819A
:100B8000608120E8829F6019112487EC93E00E9425
:100B9000E5110E5FEFCF87EC93E00E945B1286E4D5
:100BA00090E0DF91CF911F910F91FF90EF90DF9038
:100BB000CF90BF900C94BE089B816A81163061F47F
:100BC0002D814C8130E8239F40191124E0E89E9F3D
:100BD0006019112470E007C0462FF0E89F9F40196C
:100BE00011246FEF7FEFDF91CF911F910F91FF9055
:100BF000EF90DF90CF90BF900C947E044091040161
:100C000047FD0FC069EA71E086E693E0DF91CF917E
:100C10001F910F91FF90EF90DF90CF90BF900C94B9
:100C2000E60D4F5F40930401552747FD50959A010B
:100C3000220F331F240F351FF901E95DFD4F80831B
:100C4000F901E85DFD4F9B818A8140E8949F8019FE
:100C500011248083F901E75DFD4F9D818C8120E89F
:100C6000929F801911248083E0C1609104011616BF
:100C700034F470E0A62FBB27A7FDB0950FC08FEF0F
:100C800080930401D2C1F901EE0FFF1FE20FF31FA1
:100C9000E95DFD4F808381112CC07F5F272F30E0FD
:100CA000A217B30784F770E024C0711121C0C901F5
:100CB0000196AC01440F551F480F591FFA01E95D19
:100CC000FD4F1081C901880F991F820F931FEC01FE
:100CD000C95DDD4F18832081FC01E85DFD4F208355
:100CE000FA01E75DFD4F2081FC01E75DFD4F2083A8
:100CF0007F5F272F30E0A217B307BCF661506093E7
:100D0000040193C12881898130E8839FC0011124A7
:100D1000820F911D009721F09093050280930402A9
:100D200080910602811181C1DF91CF911F910F91B6
:100D3000FF90EF90DF90CF90BF900C94EB03653065
:100D400008F473C1F880E980DA80CB80BC808EEF34
:100D50008F0D8C3008F069C10F2D10E0B801625082
:100D60007109EB01CC0FDD1FC60FD71FC052DE4F3C
:100D7000CE010E947E11882319F0CE010E94D81066
:100D800040E8B49E900111242C0D311D80E8D89EBE
:100D9000A00111244E0D511DB801CE010E94541026
:100DA00064E070E08F2DDF91CF911F910F91FF9044
:100DB000EF90DF90CF90BF900C94CB02623008F49C
:100DC00034C128818981E0E88E9FC0011124820FFF
:100DD000911D9093060180930501883E93400CF08D
:100DE00024C188EE93E090930601809305011DC114
:100DF000623008F41AC1698170E0123091F08A8182
:100E000020E8829FC0011124682B792B133049F010
:100E10008B8190E090E4899F902D88271124682B86
:100E2000792B8881DF91CF911F910F91FF90EF90E7
:100E3000DF90CF90BF900C942E0160EF70E08CEBB0
:100E400092E00E9468016CE670E08CEB92E00E94F8
:100E50006801CEEF84EF8C0F8B3068F462E070E0B5
:100E60008CEB92E00E9468016AE070E08CEB92E00B
:100E70000E9468010FC0C13069F463E070E08CEB40
:100E800092E00E94680168E070E08CEB92E00E94C2
:100E9000680108C08DEF8C0F823078F389EF8C0FDA
:100EA000833058F3CC3060F464E070E08CEB92E077
:100EB0000E9468016EE070E08CEB92E00E94680195
:100EC00080EF8C0F823060F466E070E08CEB92E093
:100ED0000E94680161E070E08CEB92E00E94680182
:100EE0006FE770E08CEB92E00E946801CF5FC73142
:100EF00089F1C23108F0AECF60E08CEB92E00E9445
:100F0000790A61E070E08CEB92E00E94680161E098
:100F10008CEB92E00E94790A61E070E08CEB92E049
:100F20000E94680197CF662309F47FC0C88160EFF3
:100F300070E08CEB92E00E9468016EE670E08CEB52
:100F400092E00E9468016C2F8CEB92E00E94790A7B
:100F5000C93178F067EF70E08CEB92E0DF91CF91D0
:100F60001F910F91FF90EF90DF90CF90BF900C9466
:100F70006801D0E0FE01E859FD4F60818CEB92E002
:100F80000E94790ACC0FDD1F8E010E5C1D4FF80107
:100F9000608171816F7777278CEB92E00E94680106
:100FA000F80160817181CB018078892B51F0660F47
:100FB000672F661F770B6F7777278CEB92E00E9485
:100FC0006801CE5CDD4F68817981CB018827907CF8
:100FD000892B09F4BFCF770F660B770F762F661F2B
:100FE0006F7777278CEB92E00E946801B3CF60EFB8
:100FF00070E08CEB92E00E9468016AE670E08CEB96
:1010000092E00E946801C2EFDFEFCB3018F46C2F42
:101010007D2F02C06FE770E08CEB92E00E946801C8
:101020002196CB30D10589F795CFDF91CF911F91D4
:101030000F91FF90EF90DF90CF90BF9008951F9297
:101040000F920FB60F9211242F933F938F939F937C
:10105000AF93BF938091B4029091B502A091B60274
:10106000B091B7023091B30223E0230F2D3720F463
:101070000196A11DB11D05C026E8230F0296A11DF2
:10108000B11D2093B3028093B4029093B502A09354
:10109000B602B093B7028091B8029091B902A091C4
:1010A000BA02B091BB020196A11DB11D8093B80296
:1010B0009093B902A093BA02B093BB02BF91AF91D3
:1010C0009F918F913F912F910F900FBE0F901F9086
:1010D00018952FB7F8946091B4027091B502809181
:1010E000B6029091B7022FBF08953FB7F894809150
:1010F000B8029091B902A091BA02B091BB0226B594
:10110000A89B05C02F3F19F00196A11DB11D3FBF3F
:101110006627782F892F9A2F620F711D811D911DCF
:1011200042E0660F771F881F991F4A95D1F70895EF
:10113000CF92DF92EF92FF92CF93DF936B017C010E
:101140000E947508EB01C114D104E104F10479F0A7
:101150000E9475086C1B7D0B683E7340A0F381E014
:10116000C81AD108E108F108C851DC4FECCFDF9173
:10117000CF91FF90EF90DF90CF9008950197009767
:1011800039F0880F991F880F991F02970197F1F77F
:101190000895789484B5826084BD84B5816084BDEF
:1011A00085B5826085BD85B5816085BDEEE6F0E0E0
:1011B000808181608083E1E8F0E01082808182603C
:1011C0008083808181608083E0E8F0E080818160BD
:1011D0008083E1EBF0E0808184608083E0EBF0E0ED
:1011E000808181608083EAE7F0E080818460808391
:1011F000808182608083808181608083808180683B
:1012000080831092C1000895833081F028F48130EA
:1012100099F08230A1F008958630A9F08730B9F0B6
:101220008430D1F4809180008F7D03C08091800054
:101230008F7780938000089584B58F7702C084B53E
:101240008F7D84BD08958091B0008F7703C0809119
:10125000B0008F7D8093B0000895CF93DF9390E02E
:10126000FC01E255FF4F2491FC01EE53FF4F8491A6
:10127000882349F190E0880F991FFC01E052FF4F4D
:10128000A591B4918A529F4FFC01C591D4919FB70B
:10129000611108C0F8948C91209582238C938881E9
:1012A00082230AC0623051F4F8948C91322F309529
:1012B00083238C938881822B888304C0F8948C913B
:1012C000822B8C939FBFDF91CF9108950F931F9333
:1012D000CF93DF931F92CDB7DEB7282F30E0F9010F
:1012E000E656FF4F8491F901E255FF4F1491F90141
:1012F000EE53FF4F04910023C9F0882321F0698346
:101300000E9404096981E02FF0E0EE0FFF1FEA520E
:10131000FF4FA591B4919FB7F8948C91611103C0D0
:101320001095812301C0812B8C939FBF0F90DF917B
:10133000CF911F910F9108958E3008F08E508770D5
:101340002091070190E4299F90011124822B809322
:101350007C0080917A00806480937A0080917A008A
:1013600086FDFCCF809178002091790090E0922B4F
:1013700008951F93CF93DF93182FEB0161E00E9434
:101380002D09209711F460E004C0CF3FD10539F456
:1013900061E0812FDF91CF911F910C946609E12FBD
:1013A000F0E0E656FF4FE491E330F9F048F4E13025
:1013B000B9F0E230A1F584B5806284BDC8BD34C007
:1013C000E630E9F0E73019F1E43049F5809180002A
:1013D000806280938000D0938B00C0938A0024C0E9
:1013E00084B5806884BDC7BD1FC0809180008068BF
:1013F00080938000D0938900C093880015C08091AD
:10140000B00080688093B000C093B3000DC080919D
:10141000B00080628093B000C093B40005C0C038B3
:10142000D1050CF0B5CFAFCFDF91CF911F910895CB
:101430000E94C9080E942C04C1EFDAE00E94E8046F
:101440002097E1F30E94F10AF9CFFC01248535854C
:10145000F901E05CFF4F80819181329620813181DA
:10146000821B930B8F7399270895FC0184859585C2
:10147000FC01E05CFF4F4081518132962081318137
:101480004217530741F00190F081E02DE80FF91F5A
:10149000808190E008958FEF9FEF0895FC0184858F
:1014A0009585FC01E05CFF4F40815181329620819F
:1014B00031814217530779F0A081B181A80FB91F7C
:1014C0008C91208131812F5F3F4F2F7333273183E0
:1014D000208390E008958FEF9FEF0895FC0181A194
:1014E000882329F0A489B5898C9186FFFBCF11A2AE
:1014F0000895CF93DF93FC0126853785D901A05C41
:10150000BF4F8D919C91119701968F739927E90197
:10151000CE5BDF4F4881598184179507D9F30D9031
:10152000BC91A02DA20FB31F6C93A685B785A05CBC
:10153000BF4F11969C938E93A689B7892C9181E019
:1015400090E0078C02C0880F991F0A94E2F7282BBD
:101550002C9381E081A30488F589E02D808180644B
:10156000808381E090E0DF91CF91089508951F92EC
:101570000F920FB60F9211242F933F934F938F9397
:101580009F93EF93FF938091C00082FD1CC0409118
:10159000C600809162039091630301968F7399272F
:1015A00020916403309165038217930771F0E091F5
:1015B0006203F0916303EE5DFC4F408390936303FD
:1015C0008093620302C08091C600FF91EF919F91CA
:1015D0008F914F913F912F910F900FBE0F901F90C1
:1015E00018958CEB92E00E94250A892B11F00C943F
:1015F000B60A08951F920F920FB60F9211242F93DF
:101600003F938F939F93EF93FF9320911E0330910D
:101610001F0380912003909121032817390731F48B
:101620008091C1008F7D8093C10014C0E0912003A0
:10163000F0912103E252FD4F20818091200390918F
:10164000210301968F7399279093210380932003A0
:101650002093C600FF91EF919F918F913F912F9121
:101660000F900FBE0F901F901895CF92DF92EF92C0
:10167000FF92CF93DF93EC016A017B01411581EE6C
:10168000580761057105F9F0EC89FD8981E090E06A
:1016900008A002C0880F991F0A94E2F7808360E0D7
:1016A00079E08DE390E0A70196010E94091821508E
:1016B00031094109510956954795379527952115C7
:1016C00080E1380798F0EC89FD89108260E874E8C1
:1016D0008EE190E0A70196010E940918215031097E
:1016E000410951095695479537952795E889F98914
:1016F0003083EA89FB89208319A2EE89FF89408122
:1017000081E090E09C010C8C02C0220F331F0A94F0
:10171000E2F7422B4083EE89FF8940819C010D8CCA
:1017200002C0220F331F0A94E2F7422B4083EE8956
:10173000FF8940819C010E8C02C0220F331F0A9446
:10174000E2F7422B4083EE89FF8920810F8C02C093
:10175000880F991F0A94E2F7809582238083DF9196
:10176000CF91FF90EF90DF90CF9008951092BF023D
:101770001092BE0288EE93E0A0E0B0E08093C00239
:101780009093C102A093C202B093C3028EEB91E08A
:101790009093BD028093BC0282E293E09093C902D1
:1017A0008093C8028EED92E09093CB028093CA02A0
:1017B00085EC90E09093CD028093CC0284EC90E095
:1017C0009093CF028093CE0280EC90E09093D10270
:1017D0008093D00281EC90E09093D3028093D20268
:1017E00082EC90E09093D5028093D40286EC90E056
:1017F0009093D7028093D60284E08093D80283E04E
:101800008093D90287E08093DA0285E08093DB023F
:1018100081E08093DC0208950F931F93CF93DF93B1
:10182000EC018B0188819981DC01ED91FC916F774E
:101830000190F081E02D099588819981DC01ED917D
:10184000FC91B801660F672F661F770B6F770190C9
:10185000F081E02DDF91CF911F910F910994DC0170
:101860008D919C91DC01ED91FC910190F081E02D36
:1018700060EF0994DC018D919C91DC01ED91FC916C
:101880000190F081E02D67EF0994CF93DF93EC0195
:1018900088819981DC01ED91FC910190F081E02D2E
:1018A00069EF099588819981DC01ED91FC910190A6
:1018B000F081E02D62E0099588819981DC01ED914C
:1018C000FC910190F081E02D63E0DF91CF910994CC
:1018D0001F93CF93DF93EC018A818823D9F1CE0146
:1018E0000E942F0C88819981DC01ED91FC9101907F
:1018F000F081E02D69E7099588819981DC01ED91FE
:10190000FC91AB81BC810190F081E02D6C91099537
:1019100088819981DC01ED91FC91AB81BC810190C2
:10192000F081E02D11966C91099512E08A811817CB
:1019300058F4EB81FC81E10FF11D608170E0CE0174
:101940000E940C0C1F5FF2CFCE01DF91CF911F914F
:101950000C943A0CDF91CF911F910895AF92BF92F2
:10196000CF92DF92EF92FF920F931F93CF93DF936B
:10197000EC018B01A42EB22E6AEC71E0C8010E942A
:1019800020166C016FE270E0C8010E9415160196E6
:101990007C01C114D10441F0009731F0C81AD90A72
:1019A000C394C394CA8208C0F80101900020E9F7EB
:1019B000E01BEF5FEA8378010A8110E0C8010E9412
:1019C00062129C838B83DC01A00FB11F1C92FC016F
:1019D000A082B1824A8150E042505109B70102967B
:1019E000DF91CF911F910F91FF90EF90DF90CF90FB
:1019F000BF90AF900C940616DC018D919C91DC0198
:101A0000ED91FC910480F581E02D09941F93CF9313
:101A1000DF93EC018885813741F08937B9F5CE0134
:101A2000DF91CF911F910C94680C8FA998AD892BF1
:101A3000D1F129A53AA5C901019797FDC90195954D
:101A40008795182F99270E946212482FFC0121E0E8
:101A50003E2F341B3117A0F4DE01A20FB11D1896E2
:101A60003C91308351E0520FDE01A50FB11D189655
:101A70005C9160E8569F3019112431932E5FE8CFB6
:101A8000EFA9F8ADDF91CF911F910994E9ADFAADBF
:101A9000309749F0AE01475F5F4F69A56150DF9114
:101AA000CF911F910994DF91CF911F9108950F93CA
:101AB0001F93CF93DF93EC018A0188819981DC0128
:101AC000ED91FC916F70606E0190F081E02D0995B1
:101AD000B801CE01DF91CF911F910F910C940C0CA6
:101AE0000F931F93CF93DF93EC018A018881998133
:101AF000DC01ED91FC916F7060690190F081E02D47
:101B0000099588819981DC01ED91FC91602F6F77B7
:101B10000190F081E02D099588819981DC01ED919A
:101B2000FC91B801660F672F661F770B0190F0815B
:101B3000E02DDF91CF911F910F910994CF92DF9209
:101B4000EF92FF920F931F93CF93DF9300D01F92DA
:101B5000CDB7DEB78C01F42E2A833B8369830E94C4
:101B60002F0CD8018D919C91DC01ED91FC9101909D
:101B7000F081E02D698109952A81E22EC22E3B81F8
:101B8000D32E8C2D8E198F1540F4F60161916F01C3
:101B900070E0C8010E940C0CF4CFC8010F900F90A8
:101BA0000F90DF91CF911F910F91FF90EF90DF90F9
:101BB000CF900C943A0C9A01FA0101900020E9F7B9
:101BC0003197E41BF50B4E2F0C949E0DAB0161E792
:101BD0000C94DB0DFC01603DA1F028F4603959F054
:101BE000603C61F00895603E19F0643F69F008952B
:101BF00054A743A7089556A745A7089550AB47A7F4
:101C0000089552AB41AB089554AB43AB08956F3F79
:101C100019F4FC0156AB45AB0895FC0152AF41AF3E
:101C20000895FC0115821682178280E090E0DF01A2
:101C3000A80FB91F18961C92019680329105B9F72A
:101C400010A612A611A605A8F6A9E02D309709F056
:101C500009940895CF93DF93EC0188819981DC0189
:101C6000ED91FC910680F781E02D099528A52223AE
:101C7000A1F0873F910531F418A6CE01DF91CF91F5
:101C80000C94060D29A53AA5FE01E20FF31F8087EB
:101C90002F5F3F4F3AA729A789C02D81222309F43E
:101CA0004CC0803891050CF048C09FEF920F9D8387
:101CB000FE01E90FF11D8087911178C08E81882384
:101CC00009F474C0803D79F138F48039B9F0803C72
:101CD00091F5EFA5F8A929C0803E19F0843FD9F00D
:101CE0002AC0EBA5FCA5309731F18885698570E0A5
:101CF000B0E88B9F600D711D11241BC0EDA5FEA5E2
:101D00003097C9F08885698570E090E8899F600DFB
:101D1000711D11240EC0EBA9FCA9309761F06885F4
:101D200070E0898507C0E9A9FAA9309721F0688594
:101D300070E08F8109951E8239C0803F91052CF497
:101D4000282F2F702F83807F9927803E910511F1D6
:101D500054F4803C910501F1803D9105E9F0803912
:101D6000910521F517C0843F9105A1F044F4803F0F
:101D70009105E1F481E088A71AA619A617C0893F4A
:101D8000910571F08F3F910589F4CE01DF91CF91DC
:101D90000C94110E92E001C091E09D838E8306C0E9
:101DA00086E693E0DF91CF910C94450CDF91CF91C3
:101DB00008958F929F92AF92BF92CF92DF92EF924F
:101DC000FF921F93CF93DF93EB014A01690161E01A
:101DD0008DE00E942D0910E0EE24D7FCE094FE2C4B
:101DE000AA2497FCA094BA2C812F90E08C179D0711
:101DF00094F4C701B6010E94980861E08DE00E944A
:101E00006609C501B4010E94980860E08DE00E9457
:101E100066091F5FE9CFDF91CF911F91FF90EF908F
:101E2000DF90CF90BF90AF909F908F900895CF9309
:101E3000DF93EC0161E08DE00E942D0922ED30E09E
:101E400048E250E062E070E0CE010E94D90E6AEFF5
:101E500070E080E090E00E94980822ED30E048E2D7
:101E600050E063E070E0CE010E94D90E6DE770E0B3
:101E700080E090E0DF91CF910C949808CF93DF93AE
:101E8000EC018CEB92E00E94350BE881F9818091A6
:101E9000BE029091BF02938382838091C002909191
:101EA000C102A091C202B091C30284839583A6832C
:101EB000B7834091C4025091C5026091C6027091EF
:101EC000C7024087518762877387CE010E94170F30
:101ED000CE010E94450CCE01DF91CF910C94680C8D
:101EE0008CEB92E0909367038093660310926803F3
:101EF00086E693E00C94110E1F920F920FB60F928C
:101F000011242F933F934F935F936F937F938F93FE
:101F10009F93AF93BF93EF93FF938091A20387FFAB
:101F200005C010928500109284001AC02091A2036F
:101F3000332727FD30958091A10390E028173907BA
:101F40007CF48091A203992787FD9095FC01EE0F08
:101F5000FF1FE80FF91FED55FC4F808186FD15C06E
:101F60008091A2038F5F8093A2032091A203332765
:101F700027FD30958091A10390E028173907BCF424
:101F80008091A2038C305CF112C08091A20399274A
:101F900087FD9095FC01EE0FFF1FE80FF91FED552F
:101FA000FC4F808160E08F730E946609D9CF8091D9
:101FB000840090918500049680349C4918F480E454
:101FC0009CE905C0809184009091850004969093CF
:101FD0008900809388008FEF8093A20338C080919E
:101FE0008400909185002091A203332727FD30952E
:101FF000F901EE0FFF1FE20FF31FED55FC4F21819A
:102000003281820F931F9093890080938800809182
:10201000A203992787FD9095FC01EE0FFF1FE80FA3
:10202000F91FED55FC4F808186FF11C08091A203FE
:10203000992787FD9095FC01EE0FFF1FE80FF91F10
:10204000ED55FC4F808161E08F730E946609FF911E
:10205000EF91BF91AF919F918F917F916F915F9120
:102060004F913F912F910F900FBE0F901F90189599
:102070002091A1032C30A0F431E0320F3093A10362
:10208000FC012083822F90E0FC01EE0FFF1FE80F80
:10209000F91FED55FC4F88EB9BE0928381830895F7
:1020A0002FEFFC0120830895DF92EF92FF920F93B0
:1020B0001F93CF93DF93EC01D62E7A01890188819B
:1020C0008C3008F066C061E08D2D0E942D0988815A
:1020D000A82FB0E0FD01EE0FFF1FEA0FFB1FED552B
:1020E000FC4F2D2D2F739081907C922B908360E27A
:1020F00072E06E197F0977FF02C06D5F7F4F7595A3
:10210000679575956795698340E659E0401B510BCB
:1021100057FF02C04D5F5F4F5595479555954795C1
:102120004A836CE00E94FD179CE0899FB001112456
:1021300020E030E0A901460F571FFA01EE0FFF1F04
:10214000E40FF51FED55FC4F908196FD16C02F5FF3
:102150003F4F2C30310571F781110FC01092800074
:1021600082E0809381001092850010928400B19AE1
:1021700080916F00826080936F00888190E0FC0105
:10218000EE0FFF1FE80FF91FED55FC4F80818064B3
:1021900080838881DF91CF911F910F91FF90EF9005
:1021A000DF90089520E639E040E252E00C945410AC
:1021B000FC01808190E0FC01EE0FFF1FE80FF91F8A
:1021C000ED55FC4F80818F7B80830895FC018081D9
:1021D0008C3070F5918128E830E0291B310997FD9A
:1021E0003395220F331F220F331F621773077CF0C2
:1021F000928128E532E0291B310997FD3395220FA2
:10220000331F220F331F621773070CF49B014FB764
:10221000F89490E0FC01EE0FFF1FE80FF91FED5559
:10222000FC4F22503109220F331F328321834FBFCD
:1022300008954F925F926F927F92AF92BF92CF922A
:10224000DF92EF92FF920F931F93CF93DF93EC01F6
:10225000603282E078070CF040C077FD06C0653B35
:1022600071052CF064EB70E002C060E070E08981E1
:1022700028E830E0281B310987FD3395220F331FF2
:10228000220F331F5901CC24B7FCC094DC2C8827C3
:1022900077FD8095982F2A8148E552E0421B51092D
:1022A00027FD5395440F551F440F551F2A016624DF
:1022B00057FC6094762C7F926F925F924F9214EB52
:1022C000E12EF12C00E010E020E030E0A9010E94B6
:1022D000B1130F900F900F900F90CE01DF91CF911F
:1022E0001F910F91FF90EF90DF90CF90BF90AF9034
:1022F0007F906F905F904F900C94E610FC0180816E
:1023000090E0FC01EE0FFF1FE80FF91FED55FC4FA9
:10231000808186FB882780F908958091F70390E0FB
:102320002091F803821B910908952091F803809170
:10233000F703281750F4E22FF0E0E750FC4F8081BC
:1023400090E02F5F2093F80308958FEF9FEF08959B
:10235000E091F8038091F703E81730F4F0E0E750DC
:10236000FC4F808190E008958FEF9FEF08950895CE
:10237000CF92DF92EF92FF920F931F93CF93DF9351
:102380007C01CB018A012091D303222389F0EB0148
:102390006B01C40ED51ECC15DD0569F06991D7011E
:1023A000ED91FC910190F081E02DC7010995F3CFEB
:1023B000642F0E94AD14C801DF91CF911F910F913E
:1023C000FF90EF90DF90CF900895CF93DF931F920F
:1023D000CDB7DEB769832091D3032223D1F02091BA
:1023E000D403203240F021E030E0FC01338322832B
:1023F00080E090E015C08091D503E82FF0E0EA522C
:10240000FC4F998190838F5F8093D5038093D40391
:1024100005C061E0CE0101960E94AD1481E090E01C
:102420000F90DF91CF910895FC011382128248EE44
:1024300053E060E070E0448355836683778383EDE7
:1024400091E09183808308951092F8031092F7032E
:102450001092D5031092D4030C94F813862F4132B6
:1024600008F040E269EF73E00E9416141092F8033E
:102470008093F703089521E00C942E1281E080935D
:10248000D3036093F6031092D5031092D4030895FA
:102490000F93062F21E04091D40366ED73E0809105
:1024A000F6030E945A141092D5031092D40310928E
:1024B000D3030F91089561E00C94481287EC93E0E8
:1024C0000C941412CF93DF938230910510F482E0C4
:1024D00090E0E0918904F0918A0420E030E0A0E0EF
:1024E000B0E0309739F14081518148175907B8F071
:1024F0004817590771F482819381109729F0139638
:102500009C938E9312972CC090938A048093890495
:1025100027C02115310531F04217530718F0A901E2
:10252000DB0101C0EF019A01BD01DF010280F381EF
:10253000E02DD7CF21153105F9F0281B390B2430B8
:10254000310580F48A819B816115710521F0FB01C1
:102550009383828304C090938A0480938904FE014C
:10256000329644C0FE01E20FF31F819391932250F3
:102570003109398328833AC0209187043091880437
:10258000232B41F420910A0130910B0130938804F0
:10259000209387042091080130910901211531050C
:1025A00041F42DB73EB740910C0150910D01241B11
:1025B000350BE0918704F0918804E217F307A0F44B
:1025C0002E1B3F0B2817390778F0AC014E5F5F4F89
:1025D0002417350748F04E0F5F1F5093880440932F
:1025E00087048193919302C0E0E0F0E0CF01DF9196
:1025F000CF910895CF93DF93009709F487C0FC0132
:10260000329713821282C0918904D0918A04209754
:1026100081F420813181280F391F809187049091A6
:1026200088048217930779F5F0938804E093870470
:102630006DC0DE0120E030E0AE17BF0750F4129607
:102640004D915C9113979D014115510509F1DA01F6
:10265000F3CFB383A28340815181840F951F8A17E2
:102660009B0771F48D919C911197840F951F029691
:102670009183808312968D919C911397938382838B
:102680002115310529F4F0938A04E09389043EC0B2
:10269000D9011396FC93EE9312974D915D91A40F7F
:1026A000B51FEA17FB0779F480819181840F951F8C
:1026B0000296D90111969C938E93828193811396F1
:1026C0009C938E931297E0E0F0E08A819B810097C3
:1026D00019F0FE01EC01F9CFCE0102962881398173
:1026E000820F931F2091870430918804281739079F
:1026F00069F4309729F410928A041092890402C078
:1027000013821282D0938804C0938704DF91CF9103
:102710000895CF92DF92EF92FF920F931F93CF9382
:10272000DF936C017A01EB01E60EF71E00E010E08A
:10273000CE15DF0561F06991D601ED91FC91019014
:10274000F081E02DC6010995080F191FF1CFC801CE
:10275000DF91CF911F910F91FF90EF90DF90CF907D
:1027600008954F925F926F927F92AF92BF92CF92F5
:10277000DF92EF92FF920F931F93CF93DF93CDB72A
:10278000DEB729013A01621B730B840B950B298973
:102790003A894B895C892A193B094C095D09298BC7
:1027A0003A8B4B8B5C8B9B01AC0169897A898B8955
:1027B0009C890E94ED17E418F50806091709A8017D
:1027C00097010E942B182A0D3B1D4C1D5D1DCA014F
:1027D000B901DF91CF911F910F91FF90EF90DF90A2
:1027E000CF90BF90AF907F906F905F904F90089583
:1027F0001092860481E0809384041092830461E047
:1028000082E10E94660961E083E10E946609E9EBCA
:10281000F0E080818E7F808380818D7F808388E45B
:102820008093B80085E48093BC000895413208F09D
:102830003FC0909186049111FCCF91E09093860463
:10284000209384042FEF2093190410925E04240F28
:1028500020935D049093850490918504880F892BC3
:102860008093850480918304813041F41092830425
:10287000809185048093BB0085EC01C085EE809338
:10288000BC00809186048130E1F380915E0484175E
:1028900010F440915E042FE534E0FB01D9018A2F4A
:1028A000821B841718F48D918193F9CF842F08959A
:1028B00080E008950F93413208F046C0909186045D
:1028C0009111FCCF92E090938604009384049FEFD3
:1028D0009093190410925E0440935D04FB016FE530
:1028E00074E0DB019A2F961B941718F491919D9335
:1028F000F9CF1092850490918504880F892B8093DD
:10290000850480918304813041F410928304809186
:1029100085048093BB0085EC01C085EE8093BC00EC
:10292000222321F0809186048230E1F38091190402
:102930008F3F61F080911904803251F08091190429
:10294000803341F483E007C081E005C080E003C02C
:1029500082E001C084E00F910895613298F42091E3
:102960008604243089F460933B04FC018DE394E0F9
:10297000DC012A2F281B261718F421912D93F9CF5B
:1029800080E0089581E0089582E0089585ED8093C8
:10299000BC008091BC0084FDFCCF10928604089599
:1029A00085EC8093BC001092860408951F920F92CC
:1029B0000FB60F9211242F933F934F935F936F9312
:1029C0007F938F939F93AF93BF93EF93FF938091E8
:1029D000B900887F803609F49CC068F5883209F414
:1029E0005BC090F4803109F454C038F4882309F4B2
:1029F000F5C0883009F44DC0F5C0883109F44CC0E9
:102A0000803209F45DC0EEC0803409F468C048F437
:102A1000803309F455C0883309F0E4C08093190469
:102A2000A8C0803509F44FC0883509F45DC08834EA
:102A300009F0D8C0D5C0883909F4C6C0A8F48837D1
:102A400009F467C038F4883609F463C0803709F4A4
:102A500060C0C8C0883809F4B7C0803909F45FC0C5
:102A6000803809F0BFC05BC0803B09F485C038F4F2
:102A7000803A09F466C0883A09F47EC0B3C0803C4D
:102A800009F4A6C0883C09F4A3C0883B09F489C0B6
:102A9000A9C08091850410C090915E0480915D046E
:102AA000981770F5E0915E0481E08E0F80935E04CC
:102AB000F0E0E15AFB4F80818093BB0085EC85C03C
:102AC000809319048DC0E0915E0481E08E0F8093A5
:102AD0005E048091BB00F0E0E15AFB4F808390914F
:102AE0005E0480915D046DC0E0915E0481E08E0F14
:102AF00080935E048091BB00F0E0E15AFB4F80833D
:102B00008091840481116CC081E08093830484EA05
:102B100060C083E08093860410921A04CFCF809126
:102B20001A04803208F050C0E0911A0481E08E0F40
:102B300080931A048091BB00F0E0E55EFB4F808338
:102B4000BDCF80911A04803230F4E0911A04F0E095
:102B5000E55EFB4F10820E94C61460911A0470E07B
:102B6000E0917F04F09180048BE194E0099510924C
:102B70001A040E94D01436C084E080938604109218
:102B80003C0410923B04E0918104F0918204099589
:102B900080913B04811105C081E080933B04109239
:102BA0003D04E0913C0481E08E0F80933C04F0E012
:102BB000E35CFB4F80818093BB0090913C0480914B
:102BC0003B04981708F47ACF85E88093BC000AC0CC
:102BD00085EC8093BC001092860404C01092190406
:102BE0000E94C614FF91EF91BF91AF919F918F9179
:102BF0007F916F915F914F913F912F910F900FBEF9
:102C00000F901F901895F8940C946A18FB01DC0142
:102C10004150504048F001900D920020C9F701C08A
:102C20001D9241505040E0F70895FC0181E090E092
:102C30000190061609F4CF010020D1F701970895FD
:102C4000FB0151915523A9F0BF01DC014D914517BE
:102C50004111E1F759F4CD010190002049F04D9167
:102C600040154111C9F3FB014111EFCF81E090E024
:102C7000019708955058BB27AA270ED00DC1FED04A
:102C800030F003D120F031F49F3F11F41EF4F3C073
:102C90000EF4E095E7FBE9C0E92F0FD180F3BA17F6
:102CA000620773078407950718F071F49EF527C132
:102CB0000EF4E0950B2EBA2FA02D0B01B901900157
:102CC0000C01CA01A0011124FF27591B99F0593F9B
:102CD00050F4503E68F11A16F040A22F232F342FE3
:102CE0004427585FF3CF469537952795A795F04031
:102CF0005395C9F77EF41F16BA0B620B730B840B46
:102D0000BAF09150A1F0FF0FBB1F661F771F881FFD
:102D1000C2F70EC0BA0F621F731F841F48F4879555
:102D200077956795B795F7959E3F08F0B3CF939544
:102D3000880F08F09927EE0F97958795089571D021
:102D400008F481E0089504D06894B111D9C00895C1
:102D5000BCD088F09F5790F0B92F9927B751A0F0B9
:102D6000D1F0660F771F881F991F1AF0BA95C9F71F
:102D700012C0B13081F0C3D0B1E00895C0C0672F58
:102D8000782F8827B85F39F0B93FCCF386957795CF
:102D90006795B395D9F73EF49095809570956195B8
:102DA0007F4F8F4F9F4F0895E89409C097FB3EF4E3
:102DB00090958095709561957F4F8F4F9F4F992388
:102DC000A9F0F92F96E9BB279395F6958795779506
:102DD0006795B795F111F8CFFAF4BB0F11F460FFC6
:102DE0001BC06F5F7F4F8F4F9F4F16C0882311F01E
:102DF00096E911C0772321F09EE8872F762F05C032
:102E0000662371F096E8862F70E060E02AF09A95CC
:102E1000660F771F881FDAF7880F9695879597F9C1
:102E20000895990F0008550FAA0BE0E8FEEF16165B
:102E30001706E807F907C0F012161306E407F507AE
:102E400098F0621B730B840B950B39F40A2661F022
:102E5000232B242B252B21F408950A2609F4A140C5
:102E6000A6958FEF811D811D089597F99F6780E8D2
:102E700070E060E008959FEF80EC089500240A94CC
:102E80001616170618060906089500240A94121645
:102E90001306140605060895092E0394000C11F478
:102EA000882352F0BB0F40F4BF2B11F460FF04C025
:102EB0006F5F7F4F8F4F9F4F089557FD9058440F7E
:102EC000551F59F05F3F71F04795880F97FB991F89
:102ED00061F09F3F79F08795089512161306140646
:102EE000551FF2CF4695F1DF08C0161617061806D3
:102EF000991FF1CF86957105610508940895E894AE
:102F0000BB2766277727CB0197F908958ADF08F456
:102F10008FEF08950BD0C0CFB1DF28F0B6DF18F0E7
:102F2000952309F0A2CFA7CF1124EACFC6DFA0F3E3
:102F3000959FD1F3950F50E0551F629FF001729F4E
:102F4000BB27F00DB11D639FAA27F00DB11DAA1F6D
:102F5000649F6627B00DA11D661F829F2227B00DBA
:102F6000A11D621F739FB00DA11D621F839FA00D45
:102F7000611D221F749F3327A00D611D231F849F95
:102F8000600D211D822F762F6A2F11249F575040EC
:102F90008AF0E1F088234AF0EE0FFF1FBB1F661F87
:102FA000771F881F91505040A9F79E3F510570F040
:102FB0005CCFA6CF5F3FECF3983EDCF38695779528
:102FC0006795B795F795E7959F5FC1F7FE2B880F3B
:102FD000911D9695879597F90895DB018F939F939F
:102FE0000E945018BF91AF91A29F800D911DA39F89
:102FF000900DB29F900D11240895991B79E004C0A3
:10300000991F961708F0961B881F7A95C9F7809527
:103010000895A1E21A2EAA1BBB1BFD010DC0AA1F19
:10302000BB1FEE1FFF1FA217B307E407F50720F031
:10303000A21BB30BE40BF50B661F771F881F991FAC
:103040001A9469F760957095809590959B01AC01F5
:10305000BD01CF010895052E97FB1EF400940E9438
:10306000421857FD07D00E94091807FC03D04EF400
:103070000C94421850954095309521953F4F4F4FF5
:103080005F4F089590958095709561957F4F8F4F14
:103090009F4F0895EE0FFF1F0590F491E02D0994C6
:1030A0000E945B18A59F900DB49F900DA49F800D6A
:1030B000911D11240895A29FB001B39FC001A39F49
:1030C000700D811D1124911DB29F700D811D112461
:0830D000911D0895F894FFCF53
:1030D80001000000FF13000100008B048000556E02
:1030E8006B6E6F776E2070696E206D6F646500730C
:1030F8006164725F6D6574656F2E696E6F00493229
:10310800432052656164204572726F723A20546F91
:103118006F206D616E7920627974657320726563C2
:1031280065697665640049324320526561642045CB
:1031380072726F723A20546F6F20666577206279D9
:103148007465732072656365697665640031302D36
:103158006269742061646472657373696E67206D57
:103168006F6465206973206E6F74207965742073AD
:103178007570706F7274656400746F6F206D616E26
:103188007920717565726965730000000000790A1D
:103198008913250A4E0A350A6E0A2E6370700000DC
:1031A800000000E511B8118D119511A811B7110093
:00000001FF
