:100000000C9435000C945D000C945D000C945D0024
:100010000C945D000C945D000C945D000C945D00EC
:100020000C945D000C945D000C945D000C945D00DC
:100030000C945D000C945D000C945D000C945D00CC
:100040000C94C5000C945D000C94B4030C94F7035D
:100050000C945D000C945D000C945D000C945D00AC
:100060000C945D000C945D00B30411241FBECFEF0F
:10007000D8E0DEBFCDBF11E0A0E0B1E0EEEFFAE0E6
:1000800002C005900D92A033B107D9F721E0A0E39B
:10009000B1E001C01D92A73EB207E1F710E0CAE649
:1000A000D0E004C02297FE010E946A05C836D1073D
:1000B000C9F70E9415030C9409050C94000040E850
:1000C00055E260E070E08DE391E00C943204AF9271
:1000D000BF92CF92DF92EF92FF920F931F938EE029
:1000E0000E9493019093330180933201BC018827D1
:1000F00077FD8095982F1F921F9223E12F9328E878
:100100002F93A12CB12C6501EE24EA9413E0F12E7B
:1001100000E010E020E030E0A9010E94CE027093E0
:1001200031016093300165E071E08DE391E00E9460
:10013000EE0160913201709133014AE050E08DE3AD
:1001400091E00E94AE026FE071E08DE391E00E94C9
:10015000EE0160913001709131014AE050E08DE391
:1001600091E00E94B6020F900F900F900F9064E6FE
:1001700070E080E090E01F910F91FF90EF90DF9092
:10018000CF90BF90AF900C9432011F920F920FB698
:100190000F9211242F933F938F939F93AF93BF930D
:1001A0008091350190913601A0913701B0913801CD
:1001B0003091340123E0230F2D3720F40196A11D47
:1001C000B11D05C026E8230F0296A11DB11D209385
:1001D00034018093350190933601A0933701B09399
:1001E00038018091390190913A01A0913B01B09181
:1001F0003C010196A11DB11D8093390190933A01F4
:10020000A0933B01B0933C01BF91AF919F918F911F
:100210003F912F910F900FBE0F901F9018953FB7F1
:10022000F8948091390190913A01A0913B01B091ED
:100230003C0126B5A89B05C02F3F19F00196A11DD2
:10024000B11D3FBF6627782F892F9A2F620F711D2E
:10025000811D911D42E0660F771F881F991F4A95E7
:10026000D1F70895CF92DF92EF92FF92CF93DF9371
:100270006B017C010E940F01EB01C114D104E10468
:10028000F10479F00E940F016C1B7D0B683E7340F6
:10029000A0F381E0C81AD108E108F108C851DC4F89
:1002A000ECCFDF91CF91FF90EF90DF90CF9008954A
:1002B000789484B5826084BD84B5816084BD85B541
:1002C000826085BD85B5816085BDEEE6F0E0808108
:1002D00081608083E1E8F0E0108280818260808329
:1002E000808181608083E0E8F0E0808181608083AC
:1002F000E1EBF0E0808184608083E0EBF0E08081DE
:1003000081608083EAE7F0E080818460808380817F
:100310008260808380818160808380818068808327
:100320001092C10008958E3008F08E508770209191
:10033000040190E4299F90011124822B80937C007A
:1003400080917A00806480937A0080917A0086FDA3
:10035000FCCF809178002091790090E0922B089555
:10036000CF92DF92EF92FF920F931F93CF93DF9381
:100370006C017A01EB01E60EF71E00E010E0CE15ED
:10038000DF0561F06991D601ED91FC910190F0815A
:10039000E02DC6010995080F191FF1CFC801DF91A3
:1003A000CF911F910F91FF90EF90DF90CF90089524
:1003B0006115710581F0DB010D900020E9F7AD01B9
:1003C00041505109461B570BDC01ED91FC91028015
:1003D000F381E02D099480E090E008950C94D80119
:1003E000DC01ED91FC910190F081E02D09940F93D7
:1003F0001F93CF93DF93EC016DE00E94F0018C011D
:100400006AE0CE010E94F001800F911FDF91CF9131
:100410001F910F9108958F929F92AF92BF92CF92AA
:10042000DF92EF92FF920F931F93CF93DF93CDB79D
:10043000DEB7A1970FB6F894DEBF0FBECDBF7C012B
:10044000C42EE52FCB01D22E19A221E02D1510F0DC
:100450002AE0D22E8E010F5D1F4F8D2C912CA12CE6
:10046000B12C6C2D7E2FA50194010E941C058C2DB2
:10047000D29E80191124015011098A3014F4805D34
:1004800001C0895CF80180832115310541055105C2
:1004900021F0C22EE32FCA01E4CFB801C7010E94A8
:1004A000D801A1960FB6F894DEBF0FBECDBFDF9185
:1004B000CF911F910F91FF90EF90DF90CF90BF9061
:1004C000AF909F908F900895CF92DF92EF92FF921E
:1004D0000F931F93CF93DF93EC016A017B012115EA
:1004E000310579F4E881F9810190F081E02D642FE4
:1004F000DF91CF911F910F91FF90EF90DF90CF9000
:1005000009942A303105E9F477FF1AC06DE20E94A0
:10051000F0018C0144275527BA014C195D096E0979
:100520007F092AE0CE010E940B02800F911FDF910C
:10053000CF911F910F91FF90EF90DF90CF90089592
:100540002AE0B701A601CE01DF91CF911F910F9153
:10055000FF90EF90DF90CF900C940B029A01AB01CB
:10056000662757FD6095762F0C9464020F931F93B6
:10057000CF93DF93EC019A01AB01662757FD60959D
:10058000762F0E9464028C01CE010E94F701800F39
:10059000911FDF91CF911F910F9108954F925F921C
:1005A0006F927F92AF92BF92CF92DF92EF92FF92C3
:1005B0000F931F93CF93DF93CDB7DEB729013A0195
:1005C000621B730B840B950B29893A894B895C89D3
:1005D0002A193B094C095D09298B3A8B4B8B5C8BA3
:1005E0009B01AC0169897A898B899C890E940C05E1
:1005F000E418F50806091709A80197010E943E05AD
:100600002A0D3B1D4C1D5D1DCA01B901DF91CF9123
:100610001F910F91FF90EF90DF90CF90BF90AF9020
:100620007F906F905F904F9008950E9458010E94B4
:100630005F00CEEED3E00E9467002097E1F30E94B6
:10064000EE03F9CFFC0124853585F901E05CFF4F0D
:1006500080819181329620813181821B930B8F732F
:1006600099270895FC0184859585FC01E05CFF4F86
:10067000408151813296208131814217530741F0E8
:100680000190F081E02DE80FF91F808190E008953E
:100690008FEF9FEF0895FC0184859585FC01E05C58
:1006A000FF4F40815181329620813181421753079B
:1006B00079F0A081B181A80FB91F8C91208131817F
:1006C0002F5F3F4F2F7333273183208390E00895AE
:1006D0008FEF9FEF0895FC0181A1882329F0A48961
:1006E000B5898C9186FFFBCF11A20895CF93DF933C
:1006F000FC0126853785D901A05CBF4F8D919C9167
:10070000119701968F739927E901CE5BDF4F4881DE
:10071000598184179507D9F30D90BC91A02DA20F94
:10072000B31F6C93A685B785A05CBF4F11969C93B1
:100730008E93A689B7892C9181E090E0078C02C046
:10074000880F991F0A94E2F7282B2C9381E081A34C
:100750000488F589E02D80818064808381E090E0C9
:10076000DF91CF91089508951F920F920FB60F92C7
:1007700011242F933F934F938F939F93EF93FF9366
:100780008091C00082FD1CC04091C6008091E301B1
:100790009091E40101968F7399272091E5013091A2
:1007A000E6018217930771F0E091E301F091E40113
:1007B000ED55FE4F40839093E4018093E30102C026
:1007C0008091C600FF91EF919F918F914F913F9142
:1007D0002F910F900FBE0F901F9018958DE391E011
:1007E0000E942203892B11F00C94B30308951F92E9
:1007F0000F920FB60F9211242F933F938F939F93D5
:10080000EF93FF9320919F013091A0018091A1016E
:100810009091A2012817390731F48091C1008F7D92
:100820008093C10014C0E091A101F091A201E15AAE
:10083000FE4F20818091A1019091A20101968F73BA
:1008400099279093A2018093A1012093C600FF9164
:10085000EF919F918F913F912F910F900FBE0F902D
:100860001F901895CF92DF92EF92FF92CF93DF9374
:10087000EC016A017B01411581EE580761057105A4
:10088000F9F0EC89FD8981E090E008A002C0880FB2
:10089000991F0A94E2F7808360E079E08DE390E0AD
:1008A000A70196010E941C052150310941095109F7
:1008B0005695479537952795211580E1380798F08B
:1008C000EC89FD89108260E874E88EE190E0A70170
:1008D00096010E941C052150310941095109569584
:1008E000479537952795E889F9893083EA89FB8907
:1008F000208319A2EE89FF89408181E090E09C016C
:100900000C8C02C0220F331F0A94E2F7422B408363
:10091000EE89FF8940819C010D8C02C0220F331F9C
:100920000A94E2F7422B4083EE89FF8940819C01C3
:100930000E8C02C0220F331F0A94E2F7422B408331
:10094000EE89FF8920810F8C02C0880F991F0A94BD
:10095000E2F7809582238083DF91CF91FF90EF9023
:10096000DF90CF9008951092400110923F0188EEE1
:1009700093E0A0E0B0E08093410190934201A09306
:100980004301B093440183E291E090933E01809350
:100990003D0183EA91E090934A01809349018FE5FC
:1009A00091E090934C0180934B0185EC90E0909303
:1009B0004E0180934D0184EC90E090935001809320
:1009C0004F0180EC90E0909352018093510181ECB3
:1009D00090E0909354018093530182EC90E09093C7
:1009E00056018093550186EC90E0909358018093D6
:1009F000570184E08093590183E080935A0187E096
:100A000080935B0185E080935C0181E080935D01D0
:100A10000895F8940C947D05DB018F939F930E94B9
:100A20005D05BF91AF91A29F800D911DA39F900D79
:100A3000B29F900D11240895A1E21A2EAA1BBB1B90
:100A4000FD010DC0AA1FBB1FEE1FFF1FA217B3079A
:100A5000E407F50720F0A21BB30BE40BF50B661FB0
:100A6000771F881F991F1A9469F760957095809574
:100A700090959B01AC01BD01CF010895052E97FB18
:100A80001EF400940E94550557FD07D00E941C05D6
:100A900007FC03D04EF40C945505509540953095C5
:100AA00021953F4F4F4F5F4F0895909580957095DA
:100AB00061957F4F8F4F9F4F08950E946E05A59FB0
:100AC000900DB49F900DA49F800D911D1124089549
:100AD000EE0FFF1F0590F491E02D0994A29FB00145
:100AE000B39FC001A39F700D811D1124911DB29F62
:0E0AF000700D811D1124911D0895F894FFCF03
:100AFE00010000000173656E736F72203D200009C6
:100B0E00206F757470757420286D76293D20000055
:100B1E000000007603B00122034B0332036B030087
:00000001FF
