:100000000C945D000C9485000C9485000C94850084
:100010000C9485000C9485000C9485000C9485004C
:100020000C9485000C9485000C9485000C9485003C
:100030000C9485000C9485000C9485000C9485002C
:100040000C94C6020C9485000C9494020C946E02DD
:100050000C9485000C9485000C9485000C9485000C
:100060000C9485000C9485000000000024002700FB
:100070002A0000000000250028002B0004040404CE
:100080000404040402020202020203030303030342
:10009000010204081020408001020408102001021F
:1000A00004081020000000080002010000030407FB
:1000B0000000000000000000C30411241FBECFEFA9
:1000C000D8E0DEBFCDBF11E0A0E0B1E0ECEBFEE098
:1000D00002C005900D92A232B107D9F721E0A2E249
:1000E000B1E001C01D92A83CB207E1F710E0CDE5F8
:1000F000D0E004C02197FE010E945607CC35D107FD
:10010000C9F70E9410030C94F0040C940000FC0149
:10011000538D448D252F30E0842F90E0821B930B6C
:10012000541710F0CF96089501970895FC01918D12
:10013000828D981761F0828DDF01A80FB11D5D9649
:100140008C91928D9F5F9F73928F90E008958FEFB7
:100150009FEF0895FC01918D828D981731F0828D6B
:10016000E80FF11D858D90E008958FEF9FEF0895C2
:10017000FC01918D228D892F90E0805C9F4F821B26
:1001800091098F7399270895FC01848DDF01A80FD1
:10019000B11DA35ABF4F2C91848D90E001968F73AF
:1001A0009927848FA689B7892C93A089B1898C91CE
:1001B00080648C93938D848D981306C00288F38994
:1001C000E02D80818F7D80830895EF92FF920F93C1
:1001D0001F93CF93DF93EC0181E0888F9B8D8C8DF3
:1001E000981305C0E889F989808185FD24C0F62E21
:1001F0000B8D10E00F5F1F4F0F731127E02E8C8DBA
:10020000E8120CC00FB607FCFACFE889F9898081A3
:1002100085FFF5CFCE010E94C400F1CF8B8DFE018A
:10022000E80FF11DE35AFF4FF0820B8FEA89FB893B
:100230008081806207C0EE89FF896083E889F9893F
:1002400080818064808381E090E0DF91CF911F9175
:100250000F91FF90EF900895CF93DF93EC01888D7D
:100260008823C9F0EA89FB89808185FD05C0A889BA
:10027000B9898C9186FD0FC00FB607FCF5CF808140
:1002800085FFF2CFA889B9898C9185FFEDCFCE018A
:100290000E94C400E7CFDF91CF9108958BE291E0F7
:1002A0000E94B80021E0892B09F420E0822F0895F4
:1002B00080E090E0892B29F00E944E0181110C947E
:1002C00000000895CF92DF92EF92FF920F931F9359
:1002D000CF93DF936C017A018B01C0E0D0E0CE15A3
:1002E000DF0589F0D8016D918D01D601ED91FC916A
:1002F0000190F081E02DC6010995892B11F47E0152
:1003000002C02196ECCFC701DF91CF911F910F91D1
:10031000FF90EF90DF90CF900895089580E090E0F7
:10032000089590E0FC01EC55FF4F3491FC01E0573B
:10033000FF4F2491FC01E458FF4FE491EE2309F4B0
:100340003BC0332339F1333091F038F43130A9F028
:10035000323001F584B58F7D12C0373091F03830DE
:10036000A1F03430B9F4809180008F7D03C080917A
:1003700080008F77809380000DC084B58F7784BD17
:1003800009C08091B0008F7703C08091B0008F7D4D
:100390008093B000F0E0EE0FFF1FEE58FF4FA591E5
:1003A000B4918FB7F894EC91611103C020952E237E
:1003B00001C02E2B2C938FBF0895CF93DF9390E035
:1003C000FC01E057FF4F2491FC01E458FF4F84915A
:1003D000882361F190E0880F991FFC01E859FF4FD5
:1003E000C591D491FC01EE58FF4FA591B4916111D4
:1003F00009C09FB7F8948881209582238883EC9167
:100400002E230BC0623061F49FB7F8943881822F9D
:10041000809583238883EC912E2B2C939FBF06C05D
:100420008FB7F894E8812E2B28838FBFDF91CF916F
:100430000895009769F0FC0101900020E9F73197D9
:10044000AF01481B590BBC018BE291E00C94620197
:1004500080E090E008958F929F92AF92BF920F93A9
:100460001F93CF93DF93CDB7DEB7A1970FB6F89464
:10047000DEBF0FBECDBF19A2423008F44AE08E01A4
:100480000F5D1F4F842E912CA12CB12CA50194013E
:100490000E943407E62FB901CA0101501109EA3060
:1004A00014F4E05D01C0E95CD801EC93232B242B0C
:1004B000252B61F7C8010E941902A1960FB6F89486
:1004C000DEBF0FBECDBFDF91CF911F910F91BF90C7
:1004D000AF909F908F9008950E94F3041F920F9207
:1004E0000FB60F9211242F933F934F935F936F9307
:1004F0007F938F939F93AF93BF93EF93FF938BE281
:1005000091E00E94C400FF91EF91BF91AF919F9144
:100510008F917F916F915F914F913F912F910F90AC
:100520000FBE0F901F9018951F920F920FB60F924B
:1005300011242F938F939F93EF93FF93E0913B01AF
:10054000F0913C018081E0914101F091420182FDF6
:1005500012C09081809144018F5F8F73209145017B
:10056000821751F0E0914401F0E0E55DFE4F958F78
:100570008093440101C08081FF91EF919F918F9101
:100580002F910F900FBE0F901F9018951F920F92F2
:100590000FB60F9211242F933F938F939F93AF9396
:1005A000BF938091270190912801A0912901B091DA
:1005B0002A013091260123E0230F2D3720F40196E4
:1005C000A11DB11D05C026E8230F0296A11DB11D76
:1005D000209326018093270190932801A09329015D
:1005E000B0932A018091220190912301A0912401CE
:1005F000B09125010196A11DB11D80932201909318
:100600002301A0932401B0932501BF91AF919F9145
:100610008F913F912F910F900FBE0F901F901895C3
:10062000789484B5826084BD84B5816084BD85B5CD
:10063000826085BD85B5816085BD80916E008160D9
:1006400080936E001092810080918100826080937F
:100650008100809181008160809381008091800081
:100660008160809380008091B10084608093B100AC
:100670008091B00081608093B00080917A008460A6
:1006800080937A0080917A00826080937A008091D2
:100690007A00816080937A0080917A0080688093EC
:1006A0007A001092C10061E080E10E94DD0161E00A
:1006B0008FE00E94DD0161E08DE00E94DD01E091AC
:1006C0003B01F0913C0182E08083E0913701F091A1
:1006D00038011082E0913901F0913A018FEC80836A
:1006E00010924301E0913F01F091400186E0808348
:1006F000E0913D01F0913E01808180618083E09135
:100700003D01F0913E01808188608083E0913D0150
:10071000F0913E01808180688083E0913D01F091FD
:100720003E0180818F7D808381E4382E0FEF13E0BE
:10073000C8E7D0E0C12CD12C760160E08FE00E94A8
:10074000DD0161E080E10E94910130927C008091A6
:100750007A00806480937A0080917A0086FDFCCFD5
:100760006090780080917900712C782A60E080E1B7
:100770000E94910161E08FE00E94DD01B301072C2E
:10078000000C880B990B0E940D0620E030E048EF2A
:1007900051E40E94C2064B015C01B8016619770959
:1007A000072E000C880B990B0E940D069B01AC01D3
:1007B000C501B4010E946A059B01AC01C701B601E5
:1007C0000E94F9046B017C01219709F0B6CF20E06B
:1007D00030E040EF52E40E946A056B017C019B010E
:1007E000AC010E942F07882319F082E191E01AC022
:1007F00046015701E894B7F82FEF3FEF4FE75FE767
:10080000C501B4010E942F0781110FC02FEF3FEFE8
:100810004FE75FE7C501B4010E94650518162CF487
:1008200086E191E00E94190282C02FEF3FEF4FE76F
:100830005FE4C701B6010E94BD0618161CF48AE1E8
:1008400091E0F0CF2FEF3FEF4FE75FECC701B6012C
:100850000E94650587FDF3CF20E030E0A901C701C4
:10086000B6010E94650587FF0FC0E0912B01F09152
:100870002C010190F081E02D6DE28BE291E0099571
:10088000C701B601905802C0C701B6012AE037ED92
:1008900043EA5BE30E94F9042B013C010E94DC0562
:1008A0004B015C010E940B069B01AC01C301B2012C
:1008B0000E94F8042B013C014AE0C501B4010E94EA
:1008C0002B02E0912B01F0912C010190F081E02DA1
:1008D0006EE28BE291E0099520E030E040E251E4E5
:1008E000C301B2010E94C2064B015C010E94DC05FB
:1008F0002B01612C712C4AE0C301B2010E942B0232
:10090000C301B2010E940B069B01AC01C501B401F9
:100910000E94F80420E030E040E251E40E94C20668
:100920000E94DC0580E090E04AE00E942B028EE10C
:1009300091E00E94190220E030E048EC52E4C70147
:10094000B6010E94BD06181614F461E001C060E013
:100950008DE00E9491012FB7F8946091270170916A
:1009600028018091290190912A012FBF28EE33E0C0
:1009700040E050E00E943407672B682B692B59F741
:100980000E945801D5CEEBE2F1E01382128288EE8C
:1009900093E0A0E0B0E084839583A683B78384E0EE
:1009A00091E09183808385EC90E09587848784EC47
:1009B00090E09787868780EC90E0918B808B81EC2C
:1009C00090E0938B828B82EC90E0958B848B86EC0D
:1009D00090E0978B868B118E128E138E148E089555
:1009E000F8940C945C0781E090E0F8940C945C0718
:1009F0005058BB27AA270E9410050C9483060E941A
:100A0000750638F00E947C0620F039F49F3F19F4F7
:100A100026F40C9472060EF4E095E7FB0C946C0639
:100A2000E92F0E94940658F3BA17620773078407E8
:100A3000950720F079F4A6F50C94B6060EF4E0952F
:100A40000B2EBA2FA02D0B01B90190010C01CA0188
:100A5000A0011124FF27591B99F0593F50F4503E33
:100A600068F11A16F040A22F232F342F4427585F25
:100A7000F3CF469537952795A795F0405395C9F73D
:100A80007EF41F16BA0B620B730B840BBAF09150F5
:100A9000A1F0FF0FBB1F661F771F881FC2F70EC094
:100AA000BA0F621F731F841F48F487957795679567
:100AB000B795F7959E3F08F0B0CF9395880F08F053
:100AC0009927EE0F9795879508950E94480608F498
:100AD00081E008950E947E050C9483060E947C06A6
:100AE00058F00E94750640F029F45F3F29F00C94FD
:100AF0006C0651110C94B7060C9472060E94940671
:100B000068F39923B1F3552391F3951B550BBB273C
:100B1000AA2762177307840738F09F5F5F4F220F81
:100B2000331F441FAA1FA9F335D00E2E3AF0E0E878
:100B300032D091505040E695001CCAF72BD0FE2FC2
:100B400029D0660F771F881FBB1F26173707480756
:100B5000AB07B0E809F0BB0B802DBF01FF2793580E
:100B60005F4F3AF09E3F510578F00C946C060C9460
:100B7000B7065F3FE4F3983ED4F386957795679583
:100B8000B795F7959F5FC9F7880F911D9695879543
:100B900097F90895E1E0660F771F881FBB1F621762
:100BA00073078407BA0720F0621B730B840BBA0B20
:100BB000EE1F88F7E09508950E949C0688F09F57E5
:100BC00098F0B92F9927B751B0F0E1F0660F771F71
:100BD000881F991F1AF0BA95C9F714C0B13091F067
:100BE0000E94B606B1E008950C94B606672F782FE0
:100BF0008827B85F39F0B93FCCF38695779567952C
:100C0000B395D9F73EF490958095709561957F4F97
:100C10008F4F9F4F0895E89409C097FB3EF490953D
:100C20008095709561957F4F8F4F9F4F9923A9F0C5
:100C3000F92F96E9BB279395F69587957795679554
:100C4000B795F111F8CFFAF4BB0F11F460FF1BC098
:100C50006F5F7F4F8F4F9F4F16C0882311F096E92B
:100C600011C0772321F09EE8872F762F05C06623D9
:100C700071F096E8862F70E060E02AF09A95660F92
:100C8000771F881FDAF7880F9695879597F908954B
:100C9000990F0008550FAA0BE0E8FEEF161617068D
:100CA000E807F907C0F012161306E407F50798F0F5
:100CB000621B730B840B950B39F40A2661F0232B0E
:100CC000242B252B21F408950A2609F4A140A6958A
:100CD0008FEF811D811D089597F99F6780E870E06F
:100CE00060E008959FEF80EC089500240A941616A2
:100CF000170618060906089500240A94121613060A
:100D0000140605060895092E0394000C11F4882397
:100D100052F0BB0F40F4BF2B11F460FF04C06F5FB3
:100D20007F4F8F4F9F4F089557FD9058440F551F89
:100D300059F05F3F71F04795880F97FB991F61F05D
:100D40009F3F79F087950895121613061406551FD4
:100D5000F2CF4695F1DF08C0161617061806991F40
:100D6000F1CF86957105610508940895E894BB2735
:100D700066277727CB0197F908950E94480608F463
:100D80008FEF08950E94D5060C9483060E94750685
:100D900038F00E947C0620F0952311F00C946C062C
:100DA0000C94720611240C94B7060E94940670F3FA
:100DB000959FC1F3950F50E0551F629FF001729F00
:100DC000BB27F00DB11D639FAA27F00DB11DAA1F0F
:100DD000649F6627B00DA11D661F829F2227B00D5C
:100DE000A11D621F739FB00DA11D621F839FA00DE7
:100DF000611D221F749F3327A00D611D231F849F37
:100E0000600D211D822F762F6A2F11249F5750408D
:100E10009AF0F1F088234AF0EE0FFF1FBB1F661F08
:100E2000771F881F91505040A9F79E3F510580F0D1
:100E30000C946C060C94B7065F3FE4F3983ED4F331
:100E4000869577956795B795F795E7959F5FC1F775
:100E5000FE2B880F911D9695879597F908950E940E
:100E60004806880B990B0895A1E21A2EAA1BBB1BFA
:100E7000FD010DC0AA1FBB1FEE1FFF1FA217B30766
:100E8000E407F50720F0A21BB30BE40BF50B661F7C
:100E9000771F881F991F1A9469F760957095809540
:100EA00090959B01AC01BD01CF010895EE0FFF1F8E
:0C0EB0000590F491E02D0994F894FFCF18
:100EBC0000000000E500620187002C01B8009600DC
:100ECC00AA006E616E00696E66006F7666000D0A90
:020EDC00000014
:00000001FF
