:100000000C9453000C94C3020C949C020C947B003F
:100010000C947B000C947B000C947B000C947B0074
:100020000C947B000C947B000C947B000C947B0064
:100030000C947B000C947B000C947B000C947B0054
:100040000C94EA020C947B000C946A020C94440217
:100050000C947B000C947B000C947B000C947B0034
:100060000C947B000C947B0000000000250028000D
:100070002B0000000000240027002A0004040404D0
:100080000404040402020202020203030303030342
:10009000010204081020408001020408102001021F
:1000A00004081020050511241FBECFEFD8E0DEBFE5
:1000B000CDBF11E0A0E0B1E0ECE5FEE002C00590AC
:1000C0000D92A832B107D9F721E0A8E2B1E001C052
:1000D0001D92AA3DB207E1F710E0C3E5D0E004C0ED
:1000E0002197FE010E942607C235D107C9F70E9459
:1000F00034030C9432050C940000FC01538D448DA4
:10010000252F30E0842F90E0821B930B541710F0C2
:10011000CF96089501970895FC01918D828D9817CF
:1001200061F0828DDF01A80FB11D5D968C91928DDB
:100130009F5F9F73928F90E008958FEF9FEF0895D8
:10014000FC01918D828D981731F0828DE80FF11DA1
:10015000858D90E008958FEF9FEF0895FC01918DBC
:10016000228D892F90E0805C9F4F821B91098F73B5
:1001700099270895FC01848DDF01A80FB11DA35AB2
:10018000BF4F2C91848D90E001968F739927848FB7
:10019000A689B7892C93A089B1898C9180648C93AE
:1001A000938D848D981306C00288F389E02D808199
:1001B0008F7D80830895EF92FF920F931F93CF93CB
:1001C000DF93EC0181E0888F9B8D8C8D981305C0A7
:1001D000E889F989808185FD24C0F62E0B8D10E019
:1001E0000F5F1F4F0F731127E02E8C8DE8120CC08C
:1001F0000FB607FCFACFE889F989808185FFF5CF32
:10020000CE010E94BA00F1CF8B8DFE01E80FF11DE7
:10021000E35AFF4FF0820B8FEA89FB89808180626D
:1002200007C0EE89FF896083E889F989808180644D
:10023000808381E090E0DF91CF911F910F91FF903B
:10024000EF900895CF93DF93EC01888D8823C9F058
:10025000EA89FB89808185FD05C0A889B9898C91CF
:1002600086FD0FC00FB607FCF5CF808185FFF2CF6A
:10027000A889B9898C9185FFEDCFCE010E94BA0083
:10028000E7CFDF91CF9108958DE391E00E94AE001A
:1002900021E0892B09F420E0822F089580E090E08E
:1002A000892B29F00E94440181110C9400000895CB
:1002B000CF92DF92EF92FF920F931F93CF93DF9332
:1002C0006C017A018B01C0E0D0E0CE15DF0589F02A
:1002D000D8016D918D01D601ED91FC910190F081D5
:1002E000E02DC6010995892B11F47E0102C02196EB
:1002F000ECCFC701DF91CF911F910F91FF90EF904D
:10030000DF90CF900895089580E090E008950895DB
:100310003FB7F8948091310190913201A09133015F
:10032000B091340126B5A89B05C02F3F19F0019666
:10033000A11DB11D3FBFBA2FA92F982F8827820F6B
:10034000911DA11DB11DBC01CD0142E0660F771FBB
:10035000881F991F4A95D1F708952FB7F894809177
:100360002D0190912E01A0912F01B09130012FBF4E
:10037000409128015091290160912A0170912B012F
:10038000841B950BA60BB70B4097A105B10530F167
:100390008091390190913A01A0913B01B0913C01CB
:1003A0000196A11DB11D8093390190933A01A0934C
:1003B0003B01B0933C012FB7F89480912D019091AF
:1003C0002E01A0912F01B09130012FBF8093280101
:1003D00090932901A0932A01B0932B0108950097CF
:1003E00069F0FC0101900020E9F73197AF01481B4B
:1003F000590BBC018DE391E00C94580180E090E032
:1004000008958F929F92AF92BF920F931F93CF93B5
:10041000DF93CDB7DEB7A1970FB6F894DEBF0FBE5E
:10042000CDBF19A2423008F44AE08E010F5D1F4F84
:10043000842E912CA12CB12CA50194010E940407BB
:10044000E62FB901CA0101501109EA3014F4E05D48
:1004500001C0E95CD801EC93232B242B252B61F7F9
:10046000C8010E94EF01A1960FB6F894DEBF0FBE3F
:10047000CDBFDF91CF911F910F91BF90AF909F9013
:100480008F9008950E9435051F920F920FB60F921C
:1004900011242F933F934F935F936F937F938F9389
:1004A0009F93AF93BF93EF93FF938DE391E00E94EF
:1004B000BA00FF91EF91BF91AF919F918F917F9182
:1004C0006F915F914F913F912F910F900FBE0F90C1
:1004D0001F9018951F920F920FB60F9211242F9311
:1004E0008F939F93EF93FF93E0914D01F0914E0115
:1004F0008081E0915301F091540182FD12C09081FE
:10050000809156018F5F8F7320915701821751F0B0
:10051000E0915601F0E0E35CFE4F958F8093560129
:1005200001C08081FF91EF919F918F912F910F904A
:100530000FBE0F901F9018951F920F920FB60F923B
:1005400011242F933F934F935F936F937F938F93D8
:100550009F93AF93BF93EF93FF93E0910201F091CC
:1005600003010995FF91EF91BF91AF919F918F91F9
:100570007F916F915F914F913F912F910F900FBE9F
:100580000F901F9018951F920F920FB60F92112483
:100590002F933F934F935F936F937F938F939F938B
:1005A000AF93BF93EF93FF93E0910001F0910101AE
:1005B0000995FF91EF91BF91AF919F918F917F919D
:1005C0006F915F914F913F912F910F900FBE0F90C0
:1005D0001F9018951F920F920FB60F9211242F9310
:1005E0003F938F939F93AF93BF9380912D019091F1
:1005F0002E01A0912F01B091300130912C0123E008
:10060000230F2D3720F40196A11DB11D05C026E84A
:10061000230F0296A11DB11D20932C0180932D0163
:1006200090932E01A0932F01B0933001809131015E
:1006300090913201A0913301B09134010196A11D36
:10064000B11D8093310190933201A0933301B09397
:100650003401BF91AF919F918F913F912F910F9056
:100660000FBE0F901F901895789484B5826084BD5A
:1006700084B5816084BD85B5826085BD85B58160A6
:1006800085BD80916E00816080936E001092810024
:1006900080918100826080938100809181008160DF
:1006A00080938100809180008160809380008091A0
:1006B000B10084608093B1008091B000816080932C
:1006C000B00080917A00846080937A0080917A00F3
:1006D000826080937A0080917A00816080937A00B2
:1006E00080917A00806880937A001092C100E3E9DB
:1006F000F0E02491EFE7F0E084918823C1F090E0EE
:10070000880F991FFC01EE58FF4FC591D491FC0151
:10071000E859FF4FA591B4919FB7F8948881E22FD3
:10072000E0958E2388838C91E823EC939FBFEDE9BD
:10073000F0E02491E9E8F0E08491882399F090E0DA
:10074000880F991FFC01EE58FF4FA591B491FC0151
:10075000E859FF4F859194918FB7F894EC91E22B73
:10076000EC938FBF8DEA91E0909303018093020197
:1007700080916900837F886080936900E99AE091A5
:100780004D01F0914E0182E08083E0914901F091AA
:100790004A011082E0914B01F0914C018FEC808373
:1007A00010925501E0915101F091520186E0808351
:1007B000E0914F01F0915001808180618083E09150
:1007C0004F01F0915001808188608083E0914F015A
:1007D000F0915001808180688083E0914F01F09119
:1007E000500180818F7D80831092390110923A01EF
:1007F00010923B0110923C0178940E9488014B01B9
:100800005C0188EBC82E8BE0D82EE12CF12C0E94E5
:100810008801DC01CB0188199909AA09BB09883E26
:100820009340A105B10558F021E0C21AD108E108B2
:10083000F10888EE880E83E0981EA11CB11CC1143B
:10084000D104E104F10419F7F89460913901709131
:100850003A0180913B0190913C010E94DB0520E030
:1008600030E040E45FE30E949206609335017093AC
:10087000360180933701909338016091390170916E
:100880003A0180913B0190913C014AE00E940102B3
:1008900086E191E00E94EF01C0903501D0903601D1
:1008A000E0903701F0903801A7019601C701B60129
:1008B0000E94FF06882319F089E191E01AC04601E1
:1008C0005701E894B7F82FEF3FEF4FE75FE7C50117
:1008D000B4010E94FF0681110FC02FEF3FEF4FE7D9
:1008E0005FE7C501B4010E94A70518162CF48DE13D
:1008F00091E00E94EF0182C02FEF3FEF4FE75FE4EE
:10090000C701B6010E948D0618161CF481E291E021
:10091000F0CF2FEF3FEF4FE75FECC701B6010E942A
:10092000A70587FDF3CF20E030E0A901C701B6019C
:100930000E94A70587FF0FC0E0913D01F0913E01A5
:100940000190F081E02D6DE28DE391E00995F7FAD9
:10095000F094F7F8F0942AE037ED43EA5BE3C7013F
:10096000B6010E943B054B015C010E94AC056B0186
:100970007C010E94DB059B01AC01C501B4010E9412
:100980003A054B015C014AE0C701B6010E94010231
:10099000E0913D01F0913E010190F081E02D6EE289
:1009A0008DE391E0099520E030E040E251E4C5019B
:1009B000B4010E9492064B015C010E94AC056B01E0
:1009C000E12CF12C4AE0C701B6010E940102C701E7
:1009D000B6010E94DB059B01AC01C501B4010E9478
:1009E0003A0520E030E040E251E40E9492060E9485
:1009F000AC0580E090E04AE00E94010285E291E0CF
:100A00000E94EF010E944E01EFCEEDE3F1E0138270
:100A1000128288EE93E0A0E0B0E084839583A68301
:100A2000B78388E091E09183808385EC90E095879F
:100A3000848784EC90E09787868780EC90E0918BA8
:100A4000808B81EC90E0938B828B82EC90E0958B95
:100A5000848B86EC90E0978B868B118E128E138E92
:100A6000148E0895F8940C942C0781E090E0F8948B
:100A70000C942C075058BB27AA270E9452050C94AF
:100A800053060E94450638F00E944C0620F039F4C7
:100A90009F3F19F426F40C9442060EF4E095E7FB10
:100AA0000C943C06E92F0E94640658F3BA176207BB
:100AB00073078407950720F079F4A6F50C94860651
:100AC0000EF4E0950B2EBA2FA02D0B01B901900169
:100AD0000C01CA01A0011124FF27591B99F0593FAD
:100AE00050F4503E68F11A16F040A22F232F342FF5
:100AF0004427585FF3CF469537952795A795F04043
:100B00005395C9F77EF41F16BA0B620B730B840B57
:100B1000BAF09150A1F0FF0FBB1F661F771F881F0F
:100B2000C2F70EC0BA0F621F731F841F48F4879567
:100B300077956795B795F7959E3F08F0B0CF939559
:100B4000880F08F09927EE0F9795879508950E94D2
:100B5000180608F481E008950E946C0688F09F57FB
:100B600098F0B92F9927B751B0F0E1F0660F771FD1
:100B7000881F991F1AF0BA95C9F714C0B13091F0C7
:100B80000E948606B1E008950C948606672F782FA0
:100B90008827B85F39F0B93FCCF38695779567958C
:100BA000B395D9F73EF490958095709561957F4FF8
:100BB0008F4F9F4F0895E89409C097FB3EF490959E
:100BC0008095709561957F4F8F4F9F4F9923A9F026
:100BD000F92F96E9BB279395F695879577956795B5
:100BE000B795F111F8CFFAF4BB0F11F460FF1BC0F9
:100BF0006F5F7F4F8F4F9F4F16C0882311F096E98C
:100C000011C0772321F09EE8872F762F05C0662339
:100C100071F096E8862F70E060E02AF09A95660FF2
:100C2000771F881FDAF7880F9695879597F90895AB
:100C3000990F0008550FAA0BE0E8FEEF16161706ED
:100C4000E807F907C0F012161306E407F50798F055
:100C5000621B730B840B950B39F40A2661F0232B6E
:100C6000242B252B21F408950A2609F4A140A695EA
:100C70008FEF811D811D089597F99F6780E870E0CF
:100C800060E008959FEF80EC089500240A94161602
:100C9000170618060906089500240A94121613066A
:100CA000140605060895092E0394000C11F48823F8
:100CB00052F0BB0F40F4BF2B11F460FF04C06F5F14
:100CC0007F4F8F4F9F4F089557FD9058440F551FEA
:100CD00059F05F3F71F04795880F97FB991F61F0BE
:100CE0009F3F79F087950895121613061406551F35
:100CF000F2CF4695F1DF08C0161617061806991FA1
:100D0000F1CF86957105610508940895E894BB2795
:100D100066277727CB0197F908950E94180608F4F3
:100D20008FEF08950E94A5060C9453060E94450675
:100D300038F00E944C0620F0952311F00C943C06EC
:100D40000C94420611240C9487060E94640670F3EA
:100D5000959FC1F3950F50E0551F629FF001729F60
:100D6000BB27F00DB11D639FAA27F00DB11DAA1F6F
:100D7000649F6627B00DA11D661F829F2227B00DBC
:100D8000A11D621F739FB00DA11D621F839FA00D47
:100D9000611D221F749F3327A00D611D231F849F97
:100DA000600D211D822F762F6A2F11249F575040EE
:100DB0009AF0F1F088234AF0EE0FFF1FBB1F661F69
:100DC000771F881F91505040A9F79E3F510580F032
:100DD0000C943C060C9487065F3FE4F3983ED4F3F2
:100DE000869577956795B795F795E7959F5FC1F7D6
:100DF000FE2B880F911D9695879597F908950E946F
:100E00001806880B990B0895A1E21A2EAA1BBB1B8A
:100E1000FD010DC0AA1FBB1FEE1FFF1FA217B307C6
:100E2000E407F50720F0A21BB30BE40BF50B661FDC
:100E3000771F881F991F1A9469F7609570958095A0
:100E400090959B01AC01BD01CF010895EE0FFF1FEE
:0C0E50000590F491E02D0994F894FFCF78
:100E5C008701870100000000DB0058017D002201A2
:100E6C00AE008C00A0000909006E616E00696E6610
:080E7C00006F7666000D0A000C
:00000001FF
