:100000000C948A000C94B2000C94B2000C94B200D0
:100010000C94B2000C94B2000C94B2000C94B20098
:100020000C94B2000C94B2000C94B2000C94B20088
:100030000C94B2000C94B2000C94B2000C94B20078
:100040000C9437040C94B2000C94A7040C94810413
:100050000C94B2000C94B2000C94B2000C94B20058
:100060000C94B2000C94B20008000000BE92244927
:10007000123EABAAAA2ABECDCCCC4C3E00000080DA
:10008000BEABAAAAAA3E00000000BF000000803F4D
:100090000000000000084178D3BB4387D1133D190D
:1000A0000E3CC3BD4282AD2B3E68EC8276BED98F3A
:1000B000E1A93E4C80EFFFBE01C4FF7F3F0000007E
:1000C0000000000000080002010000030407000017
:1000D00000000000000000000000250028002B00A8
:1000E00000000000240027002A0004040404040483
:1000F00004040202020202020303030303030102D7
:1001000004081020408001020408102001020408A5
:100110001020D90411241FBECFEFD8E0DEBFCDBF21
:1001200011E0A0E0B1E0E6E9F8E102C005900D922F
:10013000A234B107D9F722E0A2E4B1E001C01D92D8
:10014000AE35B207E1F710E0CAE8D0E004C021976D
:10015000FE010E94430CC938D107C9F70E947305FC
:100160000C9451090C940000E9E0F1E02491E5EFD2
:10017000F0E08491882399F090E0880F991FFC01AA
:10018000E052FF4FA591B491FC01EA52FF4F8591D7
:1001900094918FB7F894EC91E22BEC938FBF089574
:1001A000EDECF0E02491E9E0F1E09491E5EFF0E08E
:1001B000E491EE2309F43BC0222339F1233091F07E
:1001C00038F42130A9F0223001F524B52F7D12C07A
:1001D000273091F02830A1F02430B9F4209180002C
:1001E0002F7D03C0209180002F77209380000DC0C9
:1001F00024B52F7724BD09C02091B0002F7703C00C
:100200002091B0002F7D2093B000F0E0EE0FFF1F93
:10021000EA52FF4FA591B4912FB7F894EC91811158
:1002200003C090959E2301C09E2B9C932FBF0895E1
:100230004F925F926F927F928F929F92AF92BF92F6
:10024000CF92DF92EF92FF920F931F93CF93DF93A2
:1002500000D000D0CDB7DEB74B015C0129013A01D7
:100260006701780100913C0210913D0220E030E0EE
:10027000A9010E94C60987FDA2C020E030E0A901C3
:10028000C301B2010E94C60987FD99C020E030E099
:10029000A901C701B6010E94C60987FD90C081E08F
:1002A0000130110509F080E080935D028092220206
:1002B00090922302A0922402B0922502409226023C
:1002C000509227026092280270922902C0922A025C
:1002D000D0922B02E0922C02F0922D0260915002FB
:1002E0007091510280915202909153020E94730AC0
:1002F00020E030E04AE754E40E94CB0969837A8326
:100300008B839C8380922E0290922F02A0923002C7
:10031000B09231029B01AC01C301B2010E947A0B81
:100320002B013C01609332027093330280933402BC
:100330009093350229813A814B815C81C701B601D6
:100340000E94CB096B017C016093360270933702E7
:10035000809338029093390280913A0290913B0247
:10036000019769F5A501940160E070E0CB010E945E
:10037000590960932E0270932F028093300290935C
:100380003102A301920160E070E0CB010E945909A3
:10039000609332027093330280933402909335025B
:1003A000A701960160E070E0CB010E9459096093BB
:1003B00036027093370280933802909339020F907F
:1003C0000F900F900F90DF91CF911F910F91FF90A1
:1003D000EF90DF90CF90BF90AF909F908F907F90E5
:1003E0006F905F904F900895FC01538D448D252FA1
:1003F00030E0842F90E0821B930B541710F0CF96BF
:10040000089501970895FC01918D828D981761F0F0
:10041000828DDF01A80FB11D5D968C91928D9F5F3B
:100420009F73928F90E008958FEF9FEF0895FC01E6
:10043000918D828D981731F0828DE80FF11D858D99
:1004400090E008958FEF9FEF0895FC01918D228D2C
:10045000892F90E0805C9F4F821B91098F739927B1
:100460000895FC01848DDF01A80FB11DA35ABF4F71
:100470002C91848D90E001968F739927848FA689A3
:10048000B7892C93A089B1898C9180648C93938DCA
:10049000848D981306C00288F389E02D80818F7DBA
:1004A00080830895EF92FF920F931F93CF93DF9372
:1004B000EC0181E0888F9B8D8C8D981305C0E889B5
:1004C000F989808185FD24C0F62E0B8D10E00F5F29
:1004D0001F4F0F731127E02E8C8DE8120CC00FB642
:1004E00007FCFACFE889F989808185FFF5CFCE0135
:1004F0000E943102F1CF8B8DFE01E80FF11DE35A0E
:10050000FF4FF0820B8FEA89FB898081806207C0F0
:10051000EE89FF896083E889F9898081806480831E
:1005200081E090E0DF91CF911F910F91FF90EF90CC
:100530000895CF93DF93EC01888D8823C9F0EA8971
:10054000FB89808185FD05C0A889B9898C9186FDCC
:100550000FC00FB607FCF5CF808185FFF2CFA889C9
:10056000B9898C9185FFEDCFCE010E943102E7CF92
:10057000DF91CF91089589E791E00E94250221E063
:10058000892B09F420E0822F089580E090E0892BE8
:1005900029F00E94BB0281110C9400000895CF92B3
:1005A000DF92EF92FF920F931F93CF93DF936C0133
:1005B0007A018B01C0E0D0E0CE15DF0589F0D801CB
:1005C0006D918D01D601ED91FC910190F081E02DAE
:1005D000C6010995892B11F47E0102C02196ECCF4A
:1005E000C701DF91CF911F910F91FF90EF90DF90A6
:1005F000CF900895089580E090E00895009769F005
:10060000FC0101900020E9F73197AF01481B590B1D
:10061000BC0189E791E00C94CF0280E090E008955E
:100620008F929F92AF92BF920F931F93CF93DF93BE
:10063000CDB7DEB7A1970FB6F894DEBF0FBECDBF22
:1006400019A2423008F44AE08E010F5D1F4F842E3C
:10065000912CA12CB12CA50194010E94210CE62F14
:10066000B901CA0101501109EA3014F4E05D01C07A
:10067000E95CD801EC93232B242B252B61F7C801CF
:100680000E94FE02A1960FB6F894DEBF0FBECDBF4A
:10069000DF91CF911F910F91BF90AF909F908F905E
:1006A00008954F925F926F927F928F929F92AF9236
:1006B000BF92CF92DF92EF92FF926B017C01B42E3A
:1006C0009B01AC010E94E70B882319F086E191E0C1
:1006D00027C026013701E89477F82FEF3FEF4FE767
:1006E0005FE7C301B2010E94E70B81110DC02FEF3C
:1006F0003FEF4FE75FE7C301B2010E94C60918163A
:100700001CF48AE191E00CC02FEF3FEF4FE75FE46C
:10071000C701B6010E94250B181684F48EE191E002
:10072000FF90EF90DF90CF90BF90AF909F908F9011
:100730007F906F905F904F900C94FE022FEF3FEFF1
:100740004FE75FECC701B6010E94C60987FDE6CFFF
:1007500020E030E0A901C701B6010E94C60987FF69
:1007600011C0E0917901F0917A010190F081E02DC2
:100770006DE289E791E009954C01F7FAF094F7F8FA
:10078000F09402C0812C912CA12C60E070E080E0FC
:100790009FE3AB1441F020E030E040E251E40E94DE
:1007A000CB09A394F6CF9B01AC01C701B6010E940F
:1007B0005A092B013C010E94440A6B017C010E94F2
:1007C000730A9B01AC01C301B2010E9459092B01BC
:1007D0003C014AE0C701B6010E9410037C01E80C0D
:1007E000F91CBB2069F0E0917901F0917A01019048
:1007F000F081E02D6EE289E791E00995E80EF91E9F
:10080000DB2CDD2021F120E030E040E251E4C301A7
:10081000B2010E947A0B2B013C010E94440A4B0159
:10082000A12CB12C4AE0C501B4010E941003E80ECE
:10083000F91EC501B4010E94730A9B01AC01C301FA
:10084000B2010E9459092B013C01DA94DACFC701A9
:10085000FF90EF90DF90CF90BF90AF909F908F90E0
:100860007F906F905F904F9008950E9454091F925F
:100870000F920FB60F9211242F933F938F939F9354
:10088000AF93BF938091160290911702A091180226
:10089000B09119023091780123E0230F2D3720F415
:1008A0000196A11DB11D05C026E8230F0296A11DCA
:1008B000B11D209378018093160290931702A093A4
:1008C0001802B09319028091740190917501A09162
:1008D0007601B09177010196A11DB11D809374013D
:1008E00090937501A0937601B0937701BF91AF917A
:1008F0009F918F913F912F910F900FBE0F901F905E
:1009000018951F920F920FB60F9211242F933F93B9
:100910004F935F936F937F938F939F93AF93BF9307
:10092000EF93FF9389E791E00E943102FF91EF91ED
:10093000BF91AF919F918F917F916F915F914F91F7
:100940003F912F910F900FBE0F901F9018951F92FF
:100950000F920FB60F9211242F938F939F93EF93C3
:10096000FF93E0918901F0918A018081E0918F01EC
:10097000F091900182FD12C09081809192018F5F71
:100980008F7320919301821751F0E0919201F0E072
:10099000E758FE4F958F8093920101C08081FF91AF
:1009A000EF919F918F912F910F900FBE0F901F90FD
:1009B0001895E9E7F1E01382128288EE93E0A0E057
:1009C000B0E084839583A683B78388E091E0918328
:1009D000808385EC90E09587848784EC90E097870E
:1009E000868780EC90E0918B808B81EC90E0938BFC
:1009F000828B82EC90E0958B848B86EC90E0978BD9
:100A0000868B118E128E138E148EE2E2F2E08AE152
:100A100092E0978F868F8EE192E0958F848F80E0B1
:100A200091E091A380A312AE12AA13AA14AA15AA48
:100A300080E090E0AFE7B3E486AB97ABA0AFB1AF97
:100A400084E690E0A0E0B0E086A797A7A0ABB1ABAA
:100A5000118E108E81E090E0938F828F83AF80E0C3
:100A600090E0A0E8BFE380839183A283B3834DEC41
:100A70005CEC6CE47DE3448355836683778340E0DC
:100A800050E060E87EE34087518762877387848700
:100A90009587A687B7878BE097EDA3EABBE3808BAA
:100AA000918BA28BB38B80E090E0A0E2B0E4848BCA
:100AB000958BA68BB78B2FB7F894809116029091E7
:100AC0001702A0911802B09119022FBF46A557A591
:100AD00060A971A9841B950BA60BB70B82A393A3E6
:100AE000A4A3B5A30895CF93DF93CDB7DEB76297E4
:100AF0000FB6F894DEBF0FBECDBF789484B5826088
:100B000084BD84B5816084BD85B5826085BD85B5B1
:100B1000816085BD80916E00816080936E0010922F
:100B200081008091810082608093810080918100AA
:100B3000816080938100809180008160809380003B
:100B40008091B10084608093B1008091B000816099
:100B50008093B00080917A00846080937A008091C5
:100B60007A00826080937A0080917A00816080931D
:100B70007A0080917A00806880937A001092C10098
:100B80000E94B400E0918901F0918A0182E08083A3
:100B9000E0918501F09186011082E0918701F0914A
:100BA00088018FEC808310929101E0918D01F0918A
:100BB0008E0186E08083E0918B01F0918C01808131
:100BC00080618083E0918B01F0918C01808188604D
:100BD0008083E0918B01F0918C018081806880831B
:100BE000E0918B01F0918C0180818F7D8083109248
:100BF0005402109255021092560210925702C12CC4
:100C0000D12C3FE7E32E33E4F32EC0925802D0926A
:100C10005902E0925A02F0925B0280915C020091CC
:100C2000400210914102D8018D909D90AD90BC90F2
:100C3000882309F44EC0A7019601C501B4010E94A2
:100C4000250B181634F4F801C082D182E282F382B7
:100C50000FC020E030E0A901C501B4010E94C6091F
:100C600087FF06C0D8011D921D921D921C921397FA
:100C70008090480290904902A0904A02B0904B02A6
:100C8000C0905802D0905902E0905A02F0905B0256
:100C9000A7019601C501B4010E94250B181684F026
:100CA000C0905402D0905502E0905602F090570246
:100CB000A7019601C501B4010E94C60987FF3CC087
:100CC000C0924802D0924902E0924A02F0924B024E
:100CD00033C08092480290924902A0924A02B09298
:100CE0004B02E0913E02F0913F0280819181A2810E
:100CF000B38180934C0290934D02A0934E02B09327
:100D00004F0220E030E04FE753E4C501B4010E94F8
:100D1000250B1816ACF220E030E0A901C501B401A2
:100D20000E94C60987FF08C010924802109249022B
:100D300010924A0210924B0281E080935C0223E4FD
:100D4000222E02E411E0F80120927C0080917A00CA
:100D5000806480937A0080917A0086FDFCCF809138
:100D600078002091790090E0922B81939193B1E0EB
:100D7000E437FB0749F7C12CD12C7601F8016191CA
:100D800071918F01072E000C880B990B0E94750A38
:100D90009B01AC01C701B6010E945A096B017C019D
:100DA000F1E004371F0751F720E030E048EC51E450
:100DB0000E94CB099B01AC0160E070EC8FE794E4EA
:100DC0000E94CB0920E030E040E85FE30E9459092F
:100DD0009B01AC0160E072E785EB97E40E94CB09D0
:100DE00020E030E543EC57E40E94CB090E94320B2F
:100DF00020E030EC40E855E40E94CB092FE03FECC6
:100E00004BE55BE30E945A099B01AC0160E070E096
:100E100080E89FE30E94CB0923E333E948E853E4E9
:100E20000E9459099B01AC0160931E0270931F023E
:100E30008093200290932102609100017091010142
:100E400080910201909103010E9459096B017C017C
:100E500020E030E0A9010E94250B181624F0F7FAD3
:100E6000F094F7F8F09420E030E040E050E4C7015F
:100E7000B6010E94C60987FF0DC0E12CF12C00E8E5
:100E80001EE32DEC3CEC4CE45DE360E070E080E8B8
:100E90009FE30CC0E12CF12C00E81FE320E030E0E0
:100EA00040E450E460E070E080EC90E40E941801BF
:100EB00080915C02882309F44CC18FB7F89420918B
:100EC0001602309117024091180250911902298799
:100ED0003A874B875C878FBF80914402909145028F
:100EE000A0914602B091470249855A856B857C8561
:100EF000481B590B6A0B7B0B809150029091510259
:100F0000A0915202B0915302481759076A077B0714
:100F100008F41FC1E0913E02F0913F02808191816F
:100F2000A281B38189839A83AB83BC83E09142021F
:100F3000F09143029C01AD016081718182819381B6
:100F40000E9459094B015C0120914C0230914D02E5
:100F500040914E0250914F0269817A818B819C8130
:100F60000E9459096B017C012091320230913302B9
:100F70004091340250913502C501B4010E947A0BB0
:100F8000209148023091490240914A0250914B020F
:100F90000E945A092B013C01609348027093490258
:100FA00080934A0290934B0230905D0231101AC038
:100FB00020912E0230912F02409130025091310247
:100FC000C701B6010E947A0B9B01AC01C301B201BB
:100FD0000E945909609348027093490280934A0223
:100FE00090934B02409048025090490260904A0210
:100FF00070904B021091580290915902998BA091D8
:101000005A02AA8B00915B02212F392F4A2F502FB1
:10101000C301B2010E94250B18162CF4812F998967
:10102000AA89B02F16C020915402309155024091E8
:101030005602509157022D833E834F835887C30138
:10104000B2010E94C60987FF0CC08D819E81AF81CD
:10105000B8858093480290934902A0934A02B093C6
:101060004B02332079F020912E0230912F024091D3
:10107000300250913102C501B4010E947A0B4B013C
:101080005C0103C0812C912C5401209136023091D7
:1010900037024091380250913902C701B6010E94CF
:1010A0007A0B9B01AC0160914802709149028091DA
:1010B0004A0290914B020E9459099B01AC01C50163
:1010C000B4010E945A096B017C01212F39894A8998
:1010D000502F0E94250B1816C4F0109154029091C5
:1010E0005502998BA0915602AA8B00915702212F8D
:1010F000392F4A2F502FB601C7010E94C60987FD1C
:1011000004C01C2DD98AEA8A0F2DE0914002F0918B
:101110004102812F9989AA89B02F80839183A2836C
:10112000B38329813A814B815C8120934C023093B7
:101130004D0240934E0250934F0289859A85AB85AC
:10114000BC858093440290934502A0934602B093DD
:10115000470260911A0270911B0280911C029091CB
:101160001D020E943D0A8B016D877E878F87988BB9
:101170000E94B4006D857E850115110511F480E093
:1011800004C00F3F110521F481E00E94D00043C04C
:10119000EDECF0E024912330F9F048F42130B9F07F
:1011A0002230A1F524B5206224BD68BD34C02730AB
:1011B000E9F0283019F1243049F5209180002062AF
:1011C0002093800070938B0060938A0024C024B524
:1011D000206824BD67BD1FC0209180002068209337
:1011E0008000709389006093880015C02091B00042
:1011F00020682093B0006093B3000DC02091B00030
:1012000020622093B0006093B40005C0003811053F
:101210000CF0BACFB4CF82E291E00E94FE0260915E
:10122000000170910101809102019091030142E05F
:101230000E9451038BE291E00E94FE028DE291E058
:101240000E94FE0260911E0270911F028091200296
:101250009091210242E00E9451038BE291E00E94B2
:10126000FE0285E391E00E94FE0220E030E040E0D3
:101270005FE360911A0270911B0280911C029091B1
:101280001D020E947A0B42E00E9451038BE291E022
:101290000E94FE028EE391E00E94FE020E94C502BF
:1012A00050CDF8940C94490C81E090E0F8940C94A3
:1012B000490C5058BB27AA270E9471090C94EB0ACD
:1012C0000E94DD0A38F00E94E40A20F039F49F3FC2
:1012D00019F426F40C94DA0A0EF4E095E7FB0C946A
:1012E000D40AE92F0E94FC0A58F3BA176207730761
:1012F0008407950720F079F4A6F50C941E0B0EF4E4
:10130000E0950B2EBA2FA02D0B01B90190010C0115
:10131000CA01A0011124FF27591B99F0593F50F42D
:10132000503E68F11A16F040A22F232F342F442785
:10133000585FF3CF469537952795A795F04053957D
:10134000C9F77EF41F16BA0B620B730B840BBAF04D
:101350009150A1F0FF0FBB1F661F771F881FC2F7B8
:101360000EC0BA0F621F731F841F48F487957795CC
:101370006795B795F7959E3F08F0B0CF9395880F86
:1013800008F09927EE0F9795879508950E94B00A67
:1013900008F481E008950E94DF090C94EB0A0E9492
:1013A000E40A58F00E94DD0A40F029F45F3F29F07A
:1013B0000C94D40A51110C941F0B0C94DA0A0E945D
:1013C000FC0A68F39923B1F3552391F3951B550B50
:1013D000BB27AA2762177307840738F09F5F5F4F08
:1013E000220F331F441FAA1FA9F335D00E2E3AF047
:1013F000E0E832D091505040E695001CCAF72BD05F
:10140000FE2F29D0660F771F881FBB1F26173707AF
:101410004807AB07B0E809F0BB0B802DBF01FF27E1
:1014200093585F4F3AF09E3F510578F00C94D40AE0
:101430000C941F0B5F3FE4F3983ED4F386957795A9
:101440006795B795F7959F5FC9F7880F911D96959A
:10145000879597F90895E1E0660F771F881FBB1FF6
:10146000621773078407BA0720F0621B730B840BA3
:10147000BA0BEE1F88F7E09508950E94440A68941D
:10148000B1110C941F0B08950E94040B88F09F5714
:1014900098F0B92F9927B751B0F0E1F0660F771F98
:1014A000881F991F1AF0BA95C9F714C0B13091F08E
:1014B0000E941E0BB1E008950C941E0B672F782F2D
:1014C0008827B85F39F0B93FCCF386957795679553
:1014D000B395D9F73EF490958095709561957F4FBF
:1014E0008F4F9F4F0895E89409C097FB3EF4909565
:1014F0008095709561957F4F8F4F9F4F9923A9F0ED
:10150000F92F96E9BB279395F6958795779567957B
:10151000B795F111F8CFFAF4BB0F11F460FF1BC0BF
:101520006F5F7F4F8F4F9F4F16C0882311F096E952
:1015300011C0772321F09EE8872F762F05C0662300
:1015400071F096E8862F70E060E02AF09A95660FB9
:10155000771F881FDAF7880F9695879597F9089572
:10156000990F0008550FAA0BE0E8FEEF16161706B4
:10157000E807F907C0F012161306E407F50798F01C
:10158000621B730B840B950B39F40A2661F0232B35
:10159000242B252B21F408950A2609F4A140A695B1
:1015A0008FEF811D811D089597F99F6780E870E096
:1015B00060E008959FEF80EC089500240A941616C9
:1015C000170618060906089500240A941216130631
:1015D000140605060895092E0394000C11F48823BF
:1015E00052F0BB0F40F4BF2B11F460FF04C06F5FDB
:1015F0007F4F8F4F9F4F089557FD9058440F551FB1
:1016000059F05F3F71F04795880F97FB991F61F084
:101610009F3F79F087950895121613061406551FFB
:10162000F2CF4695F1DF08C0161617061806991F67
:10163000F1CF86957105610508940895E894BB275C
:1016400066277727CB0197F908950E94B00A08F41E
:101650008FEF089516F00C94EC0B0C94DA0A689452
:101660000C94D40A0E94040BA8F39923C1F3AEF39F
:10167000DF93CF931F930F93FF92C92FDD2788230A
:101680002AF02197660F771F881FDAF720E030E0F5
:1016900040E85FEB9FE3883920F0803E38F02196E8
:1016A0008F770E945A09E8E6F0E004C00E945A09C8
:1016B000E5E9F0E00E94FA0B8B01BE01EC01FB2E84
:1016C0006F5771097595771F880B990B0E94750AE2
:1016D00028E132E741E35FE30E948D0BAF2D9801D3
:1016E000AE01FF900F911F91CF91DF910E94710980
:1016F0000C94EB0A0E948D0B0C94EB0A0E94DD0AFD
:1017000038F00E94E40A20F0952311F00C94D40ADA
:101710000C94DA0A11240C941F0B0E94FC0A70F33B
:10172000959FC1F3950F50E0551F629FF001729F86
:10173000BB27F00DB11D639FAA27F00DB11DAA1F95
:10174000649F6627B00DA11D661F829F2227B00DE2
:10175000A11D621F739FB00DA11D621F839FA00D6D
:10176000611D221F749F3327A00D611D231F849FBD
:10177000600D211D822F762F6A2F11249F57504014
:101780009AF0F1F088234AF0EE0FFF1FBB1F661F8F
:10179000771F881F91505040A9F79E3F510580F058
:1017A0000C94D40A0C941F0B5F3FE4F3983ED4F3DF
:1017B000869577956795B795F795E7959F5FC1F7FC
:1017C000FE2B880F911D9695879597F908950E9495
:1017D000B00A880B990B08959F3F31F0915020F487
:1017E000879577956795B795880F911D96958795FD
:1017F00097F90895DF93CF931F930F93FF92EF9282
:10180000DF927B018C01689406C0DA2EEF010E9402
:101810008D0BFE01E894A591259135914591559147
:10182000A6F3EF010E947109FE019701A801DA9465
:1018300069F7DF90EF90FF900F911F91CF91DF91AB
:101840000895A1E21A2EAA1BBB1BFD010DC0AA1F01
:10185000BB1FEE1FFF1FA217B307E407F50720F019
:10186000A21BB30BE40BF50B661F771F881F991F94
:101870001A9469F760957095809590959B01AC01DD
:10188000BD01CF010895EE0FFF1F0590F491E02DEB
:061890000994F894FFCF5B
:1018960000000C42000000005202CF02F40199023F
:1018A6002502030217026E616E00696E66006F768E
:1018B6006600736574706F696E743A2000696E70A5
:1018C60075743A20006F75747075743A20000D0AAD
:0218D600000010
:00000001FF
