:100000000C94A3000C94E0020C94B9020C94CB0065
:100010000C94CB000C94CB000C94CB000C94CB0034
:100020000C94CB000C94CB000C94CB000C94CB0024
:100030000C94CB000C94CB000C94CB000C94CB0014
:100040000C9418040C94CB000C9487020C9461025D
:100050000C94CB000C94CB000C94CB000C94CB00F4
:100060000C94420A0C94CB0007634236B79BD8A786
:100070001A39685618AEBAAB558C1D3CB7CC5763CD
:10008000BD6DEDFD753EF6177231BF000000803F7B
:1000900008000000BE922449123EABAAAA2ABECD97
:1000A000CCCC4C3E00000080BEABAAAAAA3E000009
:1000B0000000BF000000803F000000000008417801
:1000C000D3BB4387D1133D190E3CC3BD4282AD2B38
:1000D0003E68EC8276BED98FE1A93E4C80EFFFBE30
:1000E00001C4FF7F3F000000000000000000250069
:1000F00028002B0000000000240027002A00000038
:100100000000230026002900000000080002010072
:1001100000030407000000000000000004040404C1
:1001200004040404020202020202030303030303A1
:10013000010204081020408001020408102001027E
:1001400004081020101911241FBECFEFD8E0DEBF25
:10015000CDBF11E0A0E0B1E0E2E1F0E402C0059023
:100160000D92A235B107D9F724E0A2E5B1E001C0B4
:100170001D92AF36B207E1F710E0C3EAD0E004C049
:100180002197FE010E94F21FC23AD107C9F70E94CF
:10019000BA0D0C94FC190C940000FC01538D448D95
:1001A000252F30E0842F90E0821B930B541710F022
:1001B000CF96089501970895FC01918D828D98172F
:1001C00061F0828DDF01A80FB11D5D968C91928D3B
:1001D0009F5F9F73928F90E008958FEF9FEF089538
:1001E000FC01918D828D981731F0828DE80FF11D01
:1001F000858D90E008958FEF9FEF0895FC01918D1C
:10020000228D892F90E0805C9F4F821B91098F7314
:1002100099270895FC01848DDF01A80FB11DA35A11
:10022000BF4F2C91848D90E001968F739927848F16
:10023000A689B7892C93A089B1898C9180648C930D
:10024000938D848D981306C00288F389E02D8081F8
:100250008F7D80830895EF92FF920F931F93CF932A
:10026000DF93EC0181E0888F9B8D8C8D981305C006
:10027000E889F989808185FD24C0F62E0B8D10E078
:100280000F5F1F4F0F731127E02E8C8DE8120CC0EB
:100290000FB607FCFACFE889F989808185FFF5CF91
:1002A000CE010E940A01F1CF8B8DFE01E80FF11DF6
:1002B000E35AFF4FF0820B8FEA89FB8980818062CD
:1002C00007C0EE89FF896083E889F98980818064AD
:1002D000808381E090E0DF91CF911F910F91FF909B
:1002E000EF900895CF93DF93EC01888D8823C9F0B8
:1002F000EA89FB89808185FD05C0A889B9898C912F
:1003000086FD0FC00FB607FCF5CF808185FFF2CFC9
:10031000A889B9898C9185FFEDCFCE010E940A0191
:10032000E7CFDF91CF91089588E393E00E94FE002C
:1003300021E0892B09F420E0822F089580E090E0ED
:10034000892B29F00E94940181110C9400000895DA
:10035000CF92DF92EF92FF920F931F93CF93DF9391
:100360006C017A018B01C0E0D0E0CE15DF0589F089
:10037000D8016D918D01D601ED91FC910190F08134
:10038000E02DC6010995892B11F47E0102C021964A
:10039000ECCFC701DF91CF911F910F91FF90EF90AC
:1003A000DF90CF900895089580E090E008958E301A
:1003B00008F08E508770806480937C0080917A0072
:1003C000806480937A0080917A0086FDFCCF8091D2
:1003D00078002091790090E0922B089508953FB71E
:1003E000F89480915B0190915C01A0915D01B091C6
:1003F0005E0126B5A89B05C02F3F19F00196A11DEF
:10040000B11D3FBFBA2FA92F982F8827820F911DAA
:10041000A11DB11DBC01CD0142E0660F771F881FF1
:10042000991F4A95D1F708958F929F92AF92BF92EC
:10043000CF92DF92EF92FF92C090A601D090A701D9
:10044000E090A801F090A9012DEC3CEC4CEC5DE3B0
:10045000C701B6010E94581D0E94F01A4B015C01B1
:1004600023EC35EF48EA5EE3C701B6010E94581D50
:100470006B017C012AE037ED43E25DE3C501B40185
:100480000E94581D9B01AC01C701B6010E94051ACC
:100490009B01AC016091800170918101809182018A
:1004A000909183010E94041AFF90EF90DF90CF900B
:1004B000BF90AF909F908F90089508958CBD9DBD83
:1004C00008951F920F920FB60F9211242F933F930E
:1004D0004F935F936F937F938F939F93AF93BF934C
:1004E000EF93FF9388E393E00E940A01FF91EF915D
:1004F000BF91AF919F918F917F916F915F914F913C
:100500003F912F910F900FBE0F901F9018951F9243
:100510000F920FB60F9211242F938F939F93EF9307
:10052000FF93E0914803F09149038081E0914E03ED
:10053000F0914F0382FD12C09081809151038F5F33
:100540008F7320915203821751F0E0915103F0E034
:10055000E85CFC4F958F8093510301C08081FF912F
:10056000EF919F918F912F910F900FBE0F901F9041
:1005700018951F920F920FB60F9211242F933F934D
:100580004F935F936F937F938F939F93AF93BF939B
:10059000EF93FF93E0910201F09103010995FF9120
:1005A000EF91BF91AF919F918F917F916F915F91EB
:1005B0004F913F912F910F900FBE0F901F90189564
:1005C0001F920F920FB60F9211242F933F934F93C8
:1005D0005F936F937F938F939F93AF93BF93EF93AB
:1005E000FF93E0910001F09101010995FF91EF91D6
:1005F000BF91AF919F918F917F916F915F914F913B
:100600003F912F910F900FBE0F901F901895833040
:1006100081F028F4813099F08230A1F0089587307C
:10062000A9F08830B9F08430D1F4809180008F7DBA
:1006300003C0809180008F7780938000089584B5F7
:100640008F7702C084B58F7D84BD08958091B000FE
:100650008F7703C08091B0008F7D8093B0000895A4
:100660001F93CF93DF93282F30E0F901E85FFE4F0F
:100670008491F901E05DFE4FD491F901E45EFE4FF3
:10068000C491CC23C9F0162F81110E940703EC2FCF
:10069000F0E0EE0FFF1FE651FF4FA591B4918FB729
:1006A000F894111105C09C91ED2FE095E92302C04B
:1006B000EC91ED2BEC938FBFDF91CF911F910895BB
:1006C000CF93DF9390E0FC01E05DFE4F2491FC01AD
:1006D000E45EFE4F8491882361F190E0880F991FBA
:1006E000FC01EC50FF4FC591D491FC01E651FF4F46
:1006F000A591B491611109C09FB7F89488812095A4
:1007000082238883EC912E230BC0623061F49FB763
:10071000F8943881822F809583238883EC912E2B47
:100720002C939FBF06C08FB7F894E8812E2B2883A7
:100730008FBFDF91CF9108958F929F92AF92BF921A
:10074000CF92DF92EF92FF926B017C010E94EF014A
:100750004B015C01C114D104E104F104F1F00E94E9
:10076000EF01DC01CB0188199909AA09BB09883E70
:100770009340A105B10570F321E0C21AD108E10848
:10078000F10888EE880E83E0981EA11CB11CC114EC
:10079000D104E104F10419F7DDCFFF90EF90DF9071
:1007A000CF90BF90AF909F908F9008952FB7F894FF
:1007B00060915701709158018091590190915A01AF
:1007C0002FBF08950F931F930E94D60300915201EB
:1007D000109153012091540130915501DC01CB015E
:1007E000801B910BA20BB30B4097A105B105E8F05C
:1007F00080916E0190916F01A0917001B091710193
:100800000196A11DB11D80936E0190936F01A0937D
:100810007001B09371010E94D603609352017093EE
:10082000530180935401909355011F910F910895A6
:100830001F920F920FB60F9211242F933F938F9315
:100840009F93AF93BF938091570190915801A091CE
:100850005901B0915A013091560123E0230F2D37F1
:1008600020F40196A11DB11D05C026E8230F0296B4
:10087000A11DB11D209356018093570190935801FB
:10088000A0935901B0935A0180915B0190915C0152
:10089000A0915D01B0915E010196A11DB11D8093F3
:1008A0005B0190935C01A0935D01B0935E01BF91E9
:1008B000AF919F918F913F912F910F900FBE0F900D
:1008C0001F901895E0913803F09139030190F08161
:1008D000E02D682F88E393E0099485ED8093BC00B8
:1008E0008091BC0084FDFCCF1092070308954091D5
:1008F0009A02262F30E0240F311D21323105DCF41D
:10090000209107032430C9F4FC0180E090E08617B1
:1009100058F430919A022191DC01A858BD4FA30FE1
:10092000B11D2C930196F3CF80919A02680F6093CA
:100930009A0280E0089581E0089582E00895089584
:10094000E091C0028091BF02E81730F4F0E0EF536D
:10095000FD4F808190E008958FEF9FEF0895909173
:10096000C0028091BF02981750F4E92FF0E0EF53D6
:10097000FD4F208130E09F5F9093C00202C02FEFB7
:100980003FEFC90108958091BF0290E02091C0021D
:10099000821B91090895CF92DF92EF92FF920F93FD
:1009A0001F93CF93DF937C01262F972F8A0180918D
:1009B0000803882391F0C62FD72F6E01C40ED51ED1
:1009C000CC15DD0571F06991D701ED91FC91019095
:1009D000F081E02DC7010995F3CF642F822F0E948B
:1009E0007704C801DF91CF911F910F91FF90EF9095
:1009F000DF90CF900895CF93DF931F92CDB7DEB7EE
:100A00006983209108032223D1F020912B03203207
:100A100040F021E030E0FC013383228380E090E06D
:100A200015C080910903E82FF0E0E65FFC4F998143
:100A300090838F5F8093090380932B0305C061E04F
:100A4000CE0101960E94770481E090E00F90DF9143
:100A5000CF9108958F929F92AF92BF92CF92DF92E3
:100A6000EF92FF920F931F93CF93DC011796CC91D7
:100A70001797662311F08C2F01C080E018962C91F7
:100A8000189730E0220F331F22503F4F40E050E0D4
:100A9000BA01F90105911491F80190819C239813F2
:100AA00015C06A017B019FEFC91AD90AE90AF90A40
:100AB0001D968D909D90AD90BC905097481559050E
:100AC0006A057B0538F4B701A601E3CF342F252F43
:100AD000CB0104C030E020E080E090E0632F722F73
:100AE000CF911F910F91FF90EF90DF90CF90BF902B
:100AF000AF909F908F9008958F929F92AF92BF92E8
:100B0000CF92DF92EF92FF920F931F93CF93DF93D9
:100B1000CDB7DEB7C054D1400FB6F894DEBF0FBEDC
:100B2000CDBF8C010E94D603F801C184D284E38436
:100B3000F4849B01AC012C193D094E095F09690140
:100B40007A0130EDC31637E0D306E104F10410F466
:100B50008189B4C0F8016187728783879487148282
:100B6000138212821182108261E085810E9430031B
:100B70006AEF70E080E090E00E949C0361E0F80181
:100B800085810E94600360E0F80185810E94300346
:100B900064E170E080E090E00E949C03F89461E0E2
:100BA000F80185810E9430038BE990E00197F1F70D
:100BB00062E0F80185810E94600383E290E0019782
:100BC000F1F760E0C8010E942A05672B682B692BAA
:100BD00021F4F801118A789442C061E0C8010E94B2
:100BE0002A05672B682B692BA1F39E012F5F3F4FCE
:100BF00079015E013FEBA31A3EEFB30A670160E0A3
:100C0000C8010E942A05F601608371838283938361
:100C100061E0C8010E942A05F6016483758386831A
:100C20009783F8E0CF0ED11CCA14DB0441F7789407
:100C300020E030E0F701408151816281738184803E
:100C40009580A680B780411551056105710529F091
:100C500081149104A104B10421F4F801118A80E007
:100C60002DC0F90183E0F595E7958A95E1F7E00F4E
:100C7000F11F8081880F481559056A057B0508F426
:100C8000816080832F5F3F4FF8E0EF0EF11C283228
:100C9000310581F6F801248130E04081818190E0C6
:100CA000840F911D4281840F911D4381840F911DFA
:100CB00099272817390789F681E0818BC05CDE4FC0
:100CC0000FB6F894DEBF0FBECDBFDF91CF911F915D
:100CD0000F91FF90EF90DF90CF90BF90AF909F90DB
:100CE0008F9008950E94FF19CF93C82F80912304FD
:100CF0008F3FE9F480911A0491E090930803809368
:100D00002A031092090310922B036C2F8CE293E0BC
:100D10000E94FB040E94270D61E080911A040E944A
:100D20006F0D8CE293E00E94AF04C82F20C0809129
:100D300026048F3F21F482E591E00E945E0260E08C
:100D4000809123040E9430038C2F80680E946A0CDB
:100D500080E00E946A0CC82F61E0809123040E9409
:100D60003003809126048F3F11F40E945D028C2F86
:100D7000CF910895CF93DF93C82F809123048F3FA5
:100D800039F580911A0491E09093080380932A0327
:100D90001092090310922B036C2F8CE293E00E94B7
:100DA000FB040E94270D62E080911A040E946F0DDF
:100DB0008CE293E00E94AF04C82F8CE293E00E9483
:100DC000AF0420E030E03C2FE901C82BD92B29C02B
:100DD000809126048F3F21F482E591E00E945E021B
:100DE00060E0809123040E9430038C2F80680E9471
:100DF0006A0C80E00E946A0CC82F80E00E946A0C96
:100E00002C2F30E0322F2227E901C82B61E080919E
:100E100023040E943003809126048F3F11F40E9426
:100E20005D029C2F8D2FDF91CF910895CF92DF929D
:100E3000EF92FF921F93CF93DF93EC010E947C050A
:100E40008823B1F18E818B3029F090F18551823069
:100E500040F02EC06A8170E080E090E00E945E1B4E
:100E60002BC01A81612F6F7770E080E090E00E94C4
:100E7000601B20E030E040E853E40E94581D6B0105
:100E80007C018B81682F70E080E090E00E94601B05
:100E90009B01AC01C701B6010E94051A2DEC3CEC88
:100EA0004CEC5DE30E94581D17FF06C0905804C02B
:100EB00060E070E080EC9FE7DF91CF911F91FF90A1
:100EC000EF90DF90CF900895CF92DF92EF92FF9254
:100ED000CF93DF93EC010E947C05882381F18E8102
:100EE0008B3031F160F18551823048F5688170E0D6
:100EF00080E090E00E945E1B20E030E040E853E498
:100F00000E94581D6B017C018981682F70E080E090
:100F100090E00E94601B9B01AC01C701B6010E94DA
:100F2000051A2DEC3CEC4CEC5DE30E94581D0BC007
:100F3000688170E080E090E00E945E1B04C060E089
:100F400070E080EC9FE7DF91CF91FF90EF90DF9012
:100F5000CF900895CF92DF92EF92FF92CF93C82F58
:100F6000809123048F3F09F040C080911A0491E0E2
:100F70009093080380932A031092090310922B0385
:100F80006C2F8CE293E00E94FB040E94270D63E02B
:100F900080911A040E946F0D8CE293E00E94AF04CE
:100FA0006C01990FEE08FF08FE2CED2CDC2CCC24F4
:100FB0008CE293E00E94AF04AC01990F660B770BB3
:100FC000C42AD52AE62AF72AFE2CED2CDC2CCC24C8
:100FD0008CE293E00E94AF04AC01990F660B770B93
:100FE000C42AD52AE62AF72A33C0809126048F3FE7
:100FF00021F482E591E00E945E0260E0809123048A
:101000000E9430038C2F80680E946A0C80E00E944E
:101010006A0CC82ED12CE12CF12CFE2CED2CDC2CF2
:10102000CC2480E00E946A0CC82AFE2CED2CDC2C1B
:10103000CC2480E00E946A0CC82A61E080912304DD
:101040000E943003809126048F3F11F40E945D02BC
:10105000C701B601CF91FF90EF90DF90CF90089538
:101060008F929F92AF92BF92CF92DF92EF92FF92B8
:101070008AEF0E94AA076115710520E88207910591
:1010800009F47CC040912704509128044A01A12C06
:10109000B12CC72ED82EE92EFF24E7FCFA94C818ED
:1010A000D908EA08FB08DC01CB0137E0B595A79524
:1010B000979587953A95D1F7B501A401440F551F2F
:1010C000661F771F4C015D01841A950AA60AB70AAC
:1010D000A5019401A0912904B0912A040E94651EE3
:1010E0004B015C01FBE0B594A79497948794FA9523
:1010F000D1F7A7019601C701B6010E94281E9B01E6
:10110000AC01ACE05595479537952795AA95D1F751
:10111000A0912B04B0912C040E94651EDC01CB0130
:101120002EE0B595A795979587952A95D1F7A501B6
:101130009401280F391F4A1F5B1F20931F0430930F
:1011400020044093210450932204A5E0B0E00E94C3
:101150005A1EDC01CB0180589F4FAF4FBF4F692F04
:101160007A2F8B2F992787FD9A950E94601B20E08C
:1011700030E048EC52E40E94761A04C060E070E06F
:1011800080EC9FE7FF90EF90DF90CF90BF90AF9003
:101190009F908F900895CF93DF939091190421E051
:1011A0002093080390932A031092090310922B03B3
:1011B000682F8CE293E00E94FB0480E00E94CA0C3E
:1011C00063E0809119040E946F0D8CE293E00E940D
:1011D000AF04EC018CE293E00E94AF0420E030E029
:1011E000382FC22BD32B8CE293E00E94AF04CE01A8
:1011F000DF91CF910895009769F0FC0101900020E4
:10120000E9F73197AF01481B590BBC0188E393E024
:101210000C94A80180E090E008950C94FB088F9254
:101220009F92AF92BF920F931F93CF93DF93CDB74F
:10123000DEB7A1970FB6F894DEBF0FBECDBF19A2DF
:10124000423008F44AE08E010F5D1F4F842E912C2E
:10125000A12CB12CA50194010E94381EE62FB901E2
:10126000CA0101501109EA3014F4E05D01C0E95CE3
:10127000D801EC93232B242B252B61F7C8010E9466
:10128000FB08A1960FB6F894DEBF0FBECDBFDF916D
:10129000CF911F910F91BF90AF909F908F90089525
:1012A0008F929F92AF92BF92CF92DF92EF92FF9276
:1012B000CF93DF936B017C019B01AC010E94151E53
:1012C000882319F086E491E027C046015701E8948D
:1012D000B7F82FEF3FEF4FE75FE7C501B4010E947A
:1012E000151E81110DC02FEF3FEF4FE75FE7C501DE
:1012F000B4010E94711A18161CF48AE491E00CC023
:101300002FEF3FEF4FE75FE4C701B6010E94851C56
:10131000181674F48EE491E0DF91CF91FF90EF9076
:10132000DF90CF90BF90AF909F908F900C94FB0870
:101330002FEF3FEF4FE75FECC701B6010E94711A34
:1013400087FDE8CF20E030E0A901C701B6010E9487
:10135000711A87FF09C08DE20E946204EC01F7FA5E
:10136000F094F7F8F09402C0C0E0D0E02AE037ED46
:1013700043EA5BE3C701B6010E94051A4B015C0119
:101380000E94291B6B017C010E945E1B9B01AC012A
:10139000C501B4010E94041A4B015C014AE0C70177
:1013A000B6010E940F09C80FD91F8EE20E94620485
:1013B000C80FD91F20E030E040E251E4C501B4017C
:1013C0000E94581D4B015C010E94291B6B01E12CFE
:1013D000F12C4AE0C701B6010E940F09C80FD91FBE
:1013E000C701B6010E945E1B9B01AC01C501B4019F
:1013F0000E94041A20E030E040E251E40E94581DAF
:101400000E94291B80E090E04AE00E940F098C0FA7
:101410009D1FDF91CF91FF90EF90DF90CF90BF9015
:10142000AF909F908F900895CF92DF92EF92FF92AE
:10143000CF93DF936C01990FEE08FF08F7FE17C0FA
:101440008DE20E946204EC0166277727CB016C19BC
:101450007D098E099F094AE00E940F098C0F9D1F8C
:10146000DF91CF91FF90EF90DF90CF9008954AE009
:10147000C701B601DF91CF91FF90EF90DF90CF9041
:101480000C940F091F920F920FB60F9211242F93F5
:101490003F934F935F936F937F938F939F93AF93FC
:1014A000BF93EF93FF938091B900887F803609F452
:1014B0009CC068F5883209F45BC090F4803109F46F
:1014C00054C038F4882309F4F6C0883009F44DC0BC
:1014D000F6C0883109F44CC0803209F45DC0EFC019
:1014E000803409F468C048F4803309F455C0883367
:1014F00009F0E5C080930503D8C0803509F44FC0DA
:10150000883509F45DC0883409F0D9C0D6C088395F
:1015100009F4C7C0A8F4883709F467C038F48836DE
:1015200009F463C0803709F460C0C9C0883809F481
:10153000B8C0803909F45FC0803809F0C0C05BC012
:10154000803B09F486C038F4803A09F466C0883AD2
:1015500009F47FC0B4C0803C09F4A7C0883C09F4FA
:10156000A4C0883B09F48AC0AAC08091E20210C0DE
:101570009091040380910303981770F5E0910403A0
:1015800081E08E0F80930403F0E0ED51FD4F8081E8
:101590008093BB0085EC86C0809305038EC0E091EC
:1015A000040381E08E0F809304038091BB00F0E080
:1015B000ED51FD4F808390910403809103036EC031
:1015C000E091040381E08E0F809304038091BB00BF
:1015D000F0E0ED51FD4F80838091060381116DC0D5
:1015E00081E08093E10284EA61C083E08093070395
:1015F0001092BE02CFCF8091BE02803208F051C05F
:10160000E091BE0281E08E0F8093BE028091BB000C
:10161000F0E0E256FD4F8083BDCF85EC8093BC00A7
:10162000109207038091BE02803230F4E091BE0236
:10163000F0E0E256FD4F10826091BE0270E0E09152
:101640009C02F0919D028EE992E009951092BE02F3
:1016500036C084E08093070310929B0210929A0296
:10166000E0919802F0919902099580919A02811176
:1016700005C081E080939A0210927802E0919B026B
:1016800081E08E0F80939B02F0E0E858FD4F80814F
:101690008093BB0090919B0280919A02981708F466
:1016A00079CF85E88093BC000AC085EC8093BC00AC
:1016B0001092070304C0109205030E946D04FF916D
:1016C000EF91BF91AF919F918F917F916F915F91BA
:1016D0004F913F912F910F900FBE0F901F90189533
:1016E0001092070381E0809306031092E10261E00B
:1016F00082E10E94300361E083E10E943003E9EB64
:10170000F0E080818E7F808380818D7F808388E47C
:101710008093B80085E48093BC0008954F925F9257
:101720006F927F928F929F92AF92BF92CF92DF92F1
:10173000EF92FF920F931F93CF93DF9300D000D0CF
:10174000CDB7DEB74B015C0129013A016701780191
:101750000091F7031091F80320E030E0A9010E9406
:10176000711A87FDA2C020E030E0A901C301B201D7
:101770000E94711A87FD99C020E030E0A901C701DD
:10178000B6010E94711A87FD90C081E001301105F9
:1017900009F080E0809318048092DD039092DE03CC
:1017A000A092DF03B092E0034092E1035092E20383
:1017B0006092E3037092E403C092E503D092E603E3
:1017C000E092E703F092E80360910B0470910C043F
:1017D00080910D0490910E040E945E1B20E030E089
:1017E0004AE754E40E94761A69837A838B839C8348
:1017F0008092E9039092EA03A092EB03B092EC038B
:101800009B01AC01C301B2010E94581D2B013C0198
:101810006093ED037093EE038093EF039093F003D6
:1018200029813A814B815C81C701B6010E94761AF9
:101830006B017C016093F1037093F2038093F303D7
:101840009093F4038091F5039091F603019769F565
:10185000A501940160E070E0CB010E94041A60933E
:10186000E9037093EA038093EB039093EC03A301E5
:10187000920160E070E0CB010E94041A6093ED03D6
:101880007093EE038093EF039093F003A70196010A
:1018900060E070E0CB010E94041A6093F103709342
:1018A000F2038093F3039093F4030F900F900F9043
:1018B0000F90DF91CF911F910F91FF90EF90DF90EC
:1018C000CF90BF90AF909F908F907F906F905F90E0
:1018D0004F900895CF92DF92EF92FF920F931F9354
:1018E000CF93DF93909126049F3F39F48EBD000083
:1018F0000DB407FEFDCF8EB544C0E82EC7E0D0E0A2
:10190000D12C01E010E0DD0C60E0809126040E9403
:101910003003B8010C2E01C0660F0A94EAF76E215D
:10192000809124040E94300361E0809126040E948B
:1019300030032091250430E0F901E85FFE4F8491E7
:10194000F901E05DFE4FC490F901E45EFE4FF490B2
:10195000FF2071F081110E940703EF2DF0E0EE0FE0
:10196000FF1FE250FF4FA591B491EC91EC2129F4B7
:10197000219708F0C8CF8D2D04C08D2D8160D82E01
:10198000F7CFDF91CF911F910F91FF90EF90DF90F4
:10199000CF900895382F20912B0390912A03213264
:1019A00008F049C0809107038111FCCF42E04093C9
:1019B0000703309306033FEF3093050310920403AF
:1019C00020930303AAE0B3E043EE52E0FA013E2F76
:1019D000341B321718F43D913193F9CF1092E20283
:1019E0002091E202990F922B9093E2029091E102F2
:1019F000913061F41092E1029091E2029093BB0069
:101A00009091BC0093FDF8CF95EC01C095EE9093BA
:101A1000BC00909107039230E1F3909105039F3F42
:101A200079F080910503803241F080910503803385
:101A300031F084E005C081E003C082E001C083E0B2
:101A40001092090310922B0310920803089581E06D
:101A50000C94CA0CCF93DF93D82FC62F8091230408
:101A60008F3FC9F480911A0491E09093080380930A
:101A70002A031092090310922B036D2F8CE293E03E
:101A80000E94FB046C2F8CE293E00E94FB04DF9128
:101A9000CF910C94270D809126048F3F21F482E58D
:101AA00091E00E945E0260E0809123040E94300376
:101AB0008D2F8F770E946A0C8C2F0E946A0C61E038
:101AC000809123040E943003809126048F3F21F4EB
:101AD000DF91CF910C945D02DF91CF9108959091A9
:101AE00007039111FCCF613208F060E291E090931E
:101AF0000703909306032FEF20930503109204032E
:101B0000260F209303039093E2029091E202880F44
:101B1000892B8093E2028091E102813061F410927E
:101B2000E1028091E2028093BB008091BC0083FDC2
:101B3000F8CF85EC01C085EE8093BC00809107034F
:101B40008130E1F380910403861710F4609104035F
:101B5000A3EEB2E021EC32E0F9018E2F821B861752
:101B600018F48D918193F9CF1092C0026093BF0257
:101B7000862F0895CF93DF93CDB7DEB7AC970FB61E
:101B8000F894DEBF0FBECDBF789484B5826084BD6B
:101B900084B5816084BD85B5826085BD85B5816071
:101BA00085BD80916E00816080936E0010928100EF
:101BB00080918100826080938100809181008160AA
:101BC000809381008091800081608093800080916B
:101BD000B10084608093B1008091B00081608093F7
:101BE000B00080917A00846080937A0080917A00BE
:101BF000826080937A0080917A00816080937A007D
:101C000080917A00806880937A001092C100E09100
:101C10004803F091490382E08083E0914403F0910E
:101C200045031082E0914603F09147038FEC8083D7
:101C300010925003E0914C03F0914D0386E08083B5
:101C4000E0914A03F0914B03808180618083E091B1
:101C50004A03F0914B03808188608083E0914A03BE
:101C6000F0914B03808180688083E0914A03F0917A
:101C70004B0380818F7D808386E780931A04809157
:101C800023048F3F59F41092C0021092BF021092A9
:101C9000090310922B030E94700B4EC061E00E945A
:101CA000300361E0809123040E9460038091260448
:101CB0008F3F09F034C01FB7F89480915F01811104
:101CC00027C0E6E2F1E08491EAE3F1E09491E82FA5
:101CD000F0E0EE0FFF1FEC50FF4FA591B491EC9197
:101CE000E92321F461E08AE00E94300361E08AE0A8
:101CF0000E9460038CB580618CBD8CB580648CBD06
:101D000061E08DE00E94600361E08BE00E9460036F
:101D100080915F018F5F80935F011FBF0DC061E005
:101D20000E94600361E0809124040E94600360E0EF
:101D3000809125040E94600380ED0E947406803625
:101D400009F0EEC066EB80EE0E942A0D6CE271E0B5
:101D500080E090E00E949C0383EF0E94740680FF65
:101D600005C064E670E080E090E0F4CF88E80E946F
:101D7000BA0690932804809327048AE80E94BA0642
:101D800090932A04809329048CE80E94BA069093C9
:101D90002C0480932B048EE80E94BA0690932E04A4
:101DA00080932D0480E90E94BA06909330048093BA
:101DB0002F0482E90E94BA06909332048093310482
:101DC00084E90E94BA06909334048093330486E930
:101DD0000E94BA06909336048093350488E90E94E5
:101DE000BA0690933804809337048AE90E94BA06B1
:101DF00090933A04809339048CE90E94BA06909338
:101E00003C0480933B048EE90E94BA0690933E0402
:101E100080933D0481EA0E94740680933F0481EE22
:101E20000E94BA06909341048093400483EE0E947E
:101E300074068093420484EE0E947406182F85EE87
:101E40000E947406282F2F7030E1139FC0011124C7
:101E5000822B909344048093430486EE0E94740680
:101E6000182F85EE0E94740690E0A4E09595879562
:101E7000AA95E1F740E1149F90011124822B932B46
:101E8000909346048093450487EE0E9474068093E5
:101E900047048DEE8093490480914A048F71806AD3
:101EA00080934A0480914804807C8093480465E0D4
:101EB00082EF0E942A0D90914804692F677050E2CA
:101EC000659F90011124892F869586958695877048
:101ED000A8E08A9FB0011124622B732B97FB9927EE
:101EE00090F9692B85EF0E942A0D90914904692F82
:101EF0006770B0E26B9F90011124892F86958695BB
:101F000086958770E8E08E9FB0011124622B732BB9
:101F10009295969596959370692B84EF0E942A0D61
:101F200062E0809162040E946003E0E3CE2EE8EF5D
:101F3000DE2EEE24EA94FE2CC0926604D092670452
:101F4000E0926804F092690462E0809150040E947B
:101F50006003C0925404D0925504E0925604F0926B
:101F600057041092C0021092BF02109209031092FF
:101F70002B030E94700B60E083E00E94600382EEFE
:101F800093E0909303018093020180916900837F25
:101F9000886080936900E99A61E080E10E946003B3
:101FA00061E08FE00E94600361E08BE00E946003CB
:101FB00010920F0410921004109211041092120447
:101FC000C12CD12CFFE7EF2EF3E4FF2EC0921304B7
:101FD000D0921404E0921504F09216048091170434
:101FE0000091FB031091FC03D8018D909D90AD9062
:101FF000BC90882309F44EC0A7019601C501B40125
:102000000E94851C181634F4F801C082D182E28245
:10201000F3820FC020E030E0A901C501B4010E94A5
:10202000711A87FF06C0D8011D921D921D921C9245
:1020300013978090030490900404A0900504B0903E
:102040000604C0901304D0901404E0901504F0909E
:102050001604A7019601C501B4010E94851C18163B
:1020600084F0C0900F04D0901004E0901104F09020
:102070001204A7019601C501B4010E94711A87FFDD
:102080003CC0C0920304D0920404E0920504F09294
:10209000060433C08092030490920404A0920504C5
:1020A000B0920604E091F903F091FA0380819181E6
:1020B000A281B3818093070490930804A09309043C
:1020C000B0930A0420E030E04FE753E4C501B401C7
:1020D0000E94851C1816ACF220E030E0A901C50171
:1020E000B4010E94711A87FF08C010920304109275
:1020F0000404109205041092060481E080931704F2
:102100000E94D6030091740210917502209176020C
:1021100030917702DC01CB01801B910BA20BB30B3A
:1021200089389341A105B10508F402C687E00E94F1
:10213000CB08BC0180E090E00E945E1B2AE037EDF6
:1021400043EA5CE30E94581D23E333E948E853E483
:102150000E94041A60938001709381018093820130
:102160009093830186E00E94CB08BC0180E090E060
:102170000E945E1B2AE037ED43EA5CE30E94581D93
:1021800023E333E948E853E40E94041A69877A8715
:102190008B879C876093840170938501809386016F
:1021A000909387010E9414026B017C0120E030E0D3
:1021B00040E051EC0E94711A87FD0DC020E030E034
:1021C000A901C701B6010E94851C18164CF4C12C48
:1021D000D12C760105C0C12CD12CE12C71ECF72E4D
:1021E00020E030E040E051E4C701B6010E94051A4A
:1021F00020E030E048EC52E40E94581D20E030E03E
:1022000040E05EE30E94581D6B017C016093780101
:102210007093790180937A0190937B010E9414025C
:1022200060937C0170937D0180937E0190937F0188
:1022300020E030E040EF51E4C701B6010E94851C68
:1022400018163CF421E030E03093770120937601BA
:1022500004C010927701109276010E9430086093BA
:1022600064017093650180936601909367010E94F9
:10227000300887EF0E94AA07698B7A8B8B8B9C8B27
:10228000611571058048910509F402C280911F040F
:1022900090912004A0912104B09122046C017D0151
:1022A000FF0CCC08DC2C76019C01AD016C2D7C2D43
:1022B0008C2D9C2D345F41405109610971098109C0
:1022C00091092CA73BA749835D836D877E878F8704
:1022D000988B59016A017B018C010E946D1E28A315
:1022E00039A34AA35BA36CA37DA38EA39FA34091B4
:1022F000370448A7509138045D8B8091350489A735
:10230000909136049E8BA0913304AAA7B091340417
:10231000BF8BB0903004A0902F041B2D110F110B18
:10232000C12ED12EE12EF12E012F2CA53BA54981E6
:102330005D816D857E858F8598890E946D1E0CE07C
:102340000E949D1F19012A013B014C01B0903204EB
:10235000A09031041B2D110F110BC12ED12EE12E97
:10236000F12E012F28A139A14AA15BA16CA17DA169
:102370008EA19FA10E946D1E08E00E94B61F510110
:102380006201730184010E94D41F70588F4F9F4FC8
:10239000A0902D04B0902E04C12CD12CE12CF12C56
:1023A00000E010E00E946D1E01E20E94B61F288F1F
:1023B000398F4A8F5B8F6C8F7D8F8E8F9F8FA0E0C0
:1023C0000E94E61F09F469C1A8A41D89110F110B11
:1023D000BD88C12ED12EE12EF12E012F28A139A1C9
:1023E0004AA15BA16CA17DA18EA19FA10E946D1E3F
:1023F00019012A013B014C01A9A41E89110F110BDF
:10240000BE88C12ED12EE12EF12E012F2CA53BA589
:1024100049815D816D857E858F8598890E946D1EBD
:1024200001E10E949D1F59016A017B018C0191010C
:10243000A201B301C4010E94D41F1901FA012B01AA
:102440003C0189899A89AB89BC8944E0B595A795F7
:10245000979587954A95D1F720E030E040E150E02C
:10246000281B390B4A0B5B0BDA01C90169017A01A0
:10247000FF0CCC08DC2C76019C01AD016C2D7C2D71
:102480008C2D9C2D0FE10E949D1F4901B42FA52F7B
:102490006E877F8789839D832AA59F89990F990BD2
:1024A0003F89492F592F692F792F892F03E20E94E5
:1024B0009D1F59016A017B018C019101AF01B2019D
:1024C000C3010E94D41F59016A017B018C01940150
:1024D0004B2F5A2F6E857F8589819D810E94DD1F3C
:1024E0004901542E652EB62FA72FF82FE92F03E0B0
:1024F0000E949D1F5401C52CD62CEB2EFA2E0F2FB7
:102500001E2F0E94DD1F59016A017B01782E192FB1
:1025100003E00E949D1F072D0E94DD1F03E00E9423
:102520009D1F5401C52CD62CEB2EFA2E0F2F1E2FDB
:102530000E94DD1F02E00E949D1F0F2F0E94DD1FE1
:1025400001E00E949D1F0F2F0E94DD1FA88CB98CF7
:10255000CA8CDB8CEC8CFD8C0E8D1F8D0E94C81EEE
:10256000298B232E49835D836D877E878F87988B88
:102570000DE00E94B61F322E432E542E652E762E6D
:10258000872E982E9D8B30913E0420913D04932FF1
:10259000990F990BA32CB42CC52CD62CE72CF82C16
:1025A000092D1D89492F592F692F792F892F0E94B5
:1025B0006D1E0E946D1E09E10E94B61F59016A013D
:1025C0007B018C012989322D49815D816D857E8554
:1025D0008F8598890E94D41F322E432E542E652E4B
:1025E000762E872E982E9D8B30913C0420913B04B3
:1025F000932F990F990BA988B22CC980DD80ED84A7
:10260000FE840F851889492F592F692F792F892F1B
:102610000E946D1E03E10E94B61F59016A017B01F1
:102620008C01232D342D452D562D672D782D892D88
:102630009D890E94D41F08E00E94B61F49013A01FB
:10264000B62FA72FF82FE92F30913A0420913904A3
:10265000932F990F990B492F592F692F792F892F74
:1026600004E00E949D1F59016A017B018C019401C5
:10267000A3016B2F7A2F8F2F9E2F0E94D41F0E94B1
:10268000581B20E030E040E85BE30E94581D08C082
:1026900060E070E080EC9FE703C060E070E0CB0199
:1026A00020E030E048EC52E40E94761A6093720118
:1026B0007093730180937401909375018DE594E09C
:1026C0000E9464076093960170939701809398012C
:1026D000909399018DE594E00E94160760939A010A
:1026E00070939B0180939C0190939D018BE494E0F7
:1026F0000E94640769837A838B839C8360938E0135
:1027000070938F0180939001909391018BE494E0FA
:102710000E94160760939201709393018093940135
:102720009093950180E00E94D701BC01990F880B1E
:10273000990B0E94601B26EF38E24CE950E40E949E
:10274000581D6093A0017093A1018093A201909302
:10275000A30120E030E040EA50E40E94851C1816F6
:102760003CF441E050E050939F0140939E0104C02F
:1027700010929F0110929E0189859A85AB85BC8538
:102780008093A6019093A701A093A801B093A901FB
:1027900020E030E040E050E4BC01CD010E94711A1D
:1027A00018163CF0A1E0B0E0B093A501A093A401FD
:1027B00004C01092A5011092A40123E333E948E874
:1027C00053E469857A858B859C850E94051A9B0157
:1027D000AC0163E373E98AEB93E40E94761A6B0120
:1027E0007C0120E030E040E85FE30E94041A4B01E6
:1027F0005C0126E335EE4CEF50EC0E94581D2B0196
:102800003C01C701B6010E94CC1C28E036EE40EA2C
:1028100050E40E94581D9B01AC01C301B2010E940B
:10282000051A2B013C01A701960160E070E080E8E9
:102830009FE30E94761A9B01AC0160E070E080E8A3
:102840009FE30E94041A26E031E845E351E40E9428
:10285000581D9B01AC0160E070E080E291E40E94B1
:10286000C51D20E030E040E85FE30E94041A22E248
:1028700039E544E154EB0E94581D9B01AC01C301B2
:10288000B2010E94051A6B017C0122E934E74FE591
:1028900050ECC501B4010E94581D9B01AC0160E0E1
:1028A00070E080E291E40E94C51D20E030E040E845
:1028B0005FE30E94041A20E73FE345E05CE30E94E7
:1028C000581D9B01AC01C701B6010E94051A22EAFE
:1028D0003DE540E450E40E94051A20E030E040E489
:1028E00050E40E94041A9B01AC0160E070E080E2B9
:1028F00091E40E94C51D29813A814B815C810E942F
:10290000581D24E13CE54CE15FE30E94761A0E94E9
:10291000DC1C6B017C0128E431EE41E753E40E94AA
:10292000581D4B015C01A701960169EC76E78CE824
:1029300091E40E94041A9B01AC01C501B4010E94FC
:10294000761A60938A0170938B0180938C01909327
:102950008D0120E030E040E050E40E94051A9B0128
:10296000AC0169857A858B859C850E94711A181641
:102970006CF0E1E0F0E0F0938901E093880138E742
:10298000632E712CC12CD12C760105C010928901C7
:1029900010928801F4CF60E08FE00E94600361E054
:1029A00080E10E9430038FE00E94D7018C0160E03B
:1029B00080E10E94300361E08FE00E946003B80173
:1029C000012E000C880B990B0E94601B20E030E068
:1029D00048EF51E40E94581D4B015C016FEF73E01A
:1029E000601B710B072E000C880B990B0E94601B5B
:1029F0009B01AC01C501B4010E94761A9B01AC0198
:102A0000C701B6010E94051A6B017C01F1E06F1A43
:102A1000710809F0C0CF20E030E040EF52E40E949E
:102A2000761A609368017093690180936A019093AC
:102A30006B0120E030E044EB52E40E94851C181644
:102A40003CF421E030E0309373022093720204C022
:102A5000109273021092720260916E0170916F0178
:102A600080917001909171010E945E1B20E030E026
:102A700040E45FE30E94581D609360017093610120
:102A8000809362019093630120E030E040E251E4E2
:102A90000E94851C18163CF441E050E050936D01F3
:102AA00040936C0104C010926D0110926C0188E398
:102AB00091E00E940D096091A6017091A70180919B
:102AC000A8019091A9010E9450098DE391E00E9414
:102AD0000D098091A4019091A5010E94140A8DE333
:102AE00091E00E940D096091A0017091A101809177
:102AF000A2019091A3010E9450098DE391E00E94F0
:102B00000D0980919E0190919F010E94140A8DE30E
:102B100091E00E940D0960919A0170919B01809152
:102B20009C0190919D010E9450098DE391E00E94CB
:102B30000D09609196017091970180919801909193
:102B400099010E9450098DE391E00E940D09609166
:102B500092017091930180919401909195010E944E
:102B600050098DE391E00E940D0960918E017091F2
:102B70008F0180919001909191010E9450098DE305
:102B800091E00E940D0960918A0170918B01809102
:102B90008C0190918D010E9450098DE391E00E947B
:102BA0000D0980918801909189010E94140A8DE39A
:102BB00091E00E940D0960918401709185018091DE
:102BC0008601909187010E9450098DE391E00E9457
:102BD0000D09609180017091810180918201909135
:102BE00083010E9450098DE391E00E940D096091DC
:102BF0007C0170917D0180917E0190917F010E9406
:102C000050098DE391E00E940D0960917801709167
:102C1000790180917A0190917B010E9450098DE3A6
:102C200091E00E940D0980917601909177010E94B8
:102C3000140A8DE391E00E940D0960917201709178
:102C4000730180917401909175010E9450098DE388
:102C500091E00E940D0960916E0170916F01809169
:102C60007001909171014AE00E940F098DE391E09B
:102C70000E940D0980916C0190916D010E94140ACF
:102C80008DE391E00E940D096091680170916901E6
:102C900080916A0190916B010E9450098DE391E04F
:102CA0000E940D0980917202909173020E94140A91
:102CB0008DE391E00E940D0960910401709105017E
:102CC00080910601909107010E9450098DE391E0E7
:102CD0000E940D096091D9037091DA038091DB03A2
:102CE0009091DC030E9450098DE391E00E940D0950
:102CF0006091D5037091D6038091D7039091D8034A
:102D00000E9450098DE391E00E940D098FE391E04C
:102D10000E94FB0883E491E00E94FB080E94D60316
:102D20006093740270937502809376029093770299
:102D30008091720290917302019791F480E090E08B
:102D4000A8E4B2E48093040190930501A0930601E6
:102D5000B09307012AEAA22E21E0B22E85010DC010
:102D600020E030E040E751E4209304013093050176
:102D70004093060150930701EDCF81E10E94D701F6
:102D8000D8018D939D938D01B2E002371B07A9F7FF
:102D9000C12CD12C7601F501619171915F01072E53
:102DA000000C880B990B0E94601B9B01AC01C701B2
:102DB000B6010E94051A6B017C01F2E7AF16F2E042
:102DC000BF0649F720E030E048EC52E40E94761A52
:102DD0009B01AC0160E070EC8FE794E40E94761AEE
:102DE00020E030E040E85FE30E94041A9B01AC0160
:102DF00060E072E785EB97E40E94761A20E030E508
:102E000043EC57E40E94761A0E94DC1C20E030EC70
:102E100040E855E40E94761A2FE03FEC4BE55BE377
:102E20000E94051A9B01AC0160E070E080E89FE31E
:102E30000E94761A23E333E948E853E40E94041A17
:102E40009B01AC016093D9037093DA038093DB0399
:102E50009093DC036091040170910501809106015B
:102E6000909107010E94041A6B017C0120E030E080
:102E7000A9010E94851C181624F0F7FAF094F7F8BF
:102E8000F09420E030E040E050E4C701B6010E9439
:102E9000711A87FF0DC0E12CF12C00E81EE32DEC28
:102EA0003CEC4CE45DE360E070E080E89FE30CC044
:102EB000E12CF12C00E81FE320E030E040E450E496
:102EC00060E070E080EC90E40E948E0B809117042B
:102ED000882309F440C10E94D60369877A878B87CB
:102EE0009C878091FF0390910004A0910104B09110
:102EF000020449855A856B857C85481B590B6A0BF2
:102F00007B0B80910B0490910C04A0910D04B09167
:102F10000E04481759076A077B0708F41CC1E091A3
:102F2000F903F091FA034080518062807380E09150
:102F3000FD03F091FE03A301920160817181828102
:102F400093810E94041A6B017C0120910704309147
:102F500008044091090450910A04C301B2010E947F
:102F6000041A69837A838B839C832091ED033091CB
:102F7000EE034091EF035091F003C701B6010E94A8
:102F8000581D209103043091040440910504509190
:102F900006040E94051A4B015C01609303047093C0
:102FA00004048093050490930604309018043110B3
:102FB0001CC02091E9033091EA034091EB0350914A
:102FC000EC0369817A818B819C810E94581D9B0151
:102FD000AC01C501B4010E94041A6093030470930C
:102FE0000404809305049093060420910304309117
:102FF000040440910504509106042D833E834F83C1
:1030000058870091130410911404309115043D87E2
:103010002090160498014D85522D6D817E818F81FF
:1030200098850E94851C181664F4C801AD85B22DE0
:103030008093030490930404A0930504B0930604C2
:103040001AC080900F0490901004A0901104B090CA
:103050001204A50194016D817E818F8198850E9463
:10306000711A87FF08C08092030490920404A09212
:103070000504B0920604332079F02091E9033091E1
:10308000EA034091EB035091EC03C701B6010E94A3
:10309000581D6B017C0103C0C12CD12C76012091FD
:1030A000F1033091F2034091F3035091F4036981ED
:1030B0007A818B819C810E94581D9B01AC0160919B
:1030C00003047091040480910504909106040E9409
:1030D000041A9B01AC01C701B6010E94051A6B01DD
:1030E0007C0198014D85522D0E94851C1816A4F074
:1030F00000910F0410911004409111044D8720900D
:1031000012049801522DB601C7010E94711A87FD61
:1031100003C08601ED862F2CE091FB03F091FC03A8
:10312000C801AD85B22D80839183A283B383409281
:103130000704509208046092090470920A04898579
:103140009A85AB85BC858093FF0390930004A09380
:103150000104B09302046091D5037091D60380916D
:10316000D7039091D8030E94221B6B017C018B0135
:1031700061E08BE00E946003C114D10411F460E0AF
:1031800004C00F3F110529F461E08BE00E94300379
:1031900043C0E3E1F1E084918330F9F048F48130F9
:1031A000B9F08230A1F584B5806284BDC8BC34C05A
:1031B0008730E9F0883019F1843049F5809180003A
:1031C000806280938000D0928B00C0928A0024C0DD
:1031D00084B5806884BDC7BC1FC0809180008068B2
:1031E00080938000D0928900C092880015C08091A1
:1031F000B00080688093B000C092B3000DC0809191
:10320000B00080628093B000C092B40005C0003866
:1032100011050CF0B9CFB3CF0E949E010C94801021
:103220000F931F93CF93DF93ECE2F3E013821282AC
:1032300088EE93E0A0E0B0E084839583A683B78313
:103240002CE031E031832083E8E3F3E01382128243
:1032500084839583A683B7838EE191E091838083F5
:1032600085EC90E09587848784EC90E0978786874B
:1032700080EC90E0918B808B81EC90E0938B828B43
:1032800082EC90E0958B848B86EC90E0978B868B1C
:10329000118E128E138E148EADE5B4E082E0159679
:1032A0008C93159786E116968C931697E2E3F1E0DE
:1032B000E4911796EC931797EEE1F1E0E4911896FC
:1032C000EC93189740E85EE360E070E01D964D9344
:1032D0005D936D937C935097ABE4B4E094E01596C6
:1032E0009C93159716968C931697E4E3F1E0E4917E
:1032F0001796EC931797E0E2F1E0E4911896EC93BF
:1033000018971D964D935D936D937C935097EAE1CA
:10331000F4E08FEF81878287838784878AE58093B3
:103320001904CDEDD3E085ED93E09F8F8E8F89ED6D
:1033300093E09D8F8C8F84E091E099A388A31AAECF
:103340001AAA1BAA1CAA1DAA80E090E0AFE7B3E46A
:103350008EAB9FABA8AFB9AF84E690E0A0E0B0E041
:103360008EA79FA7A8ABB9AB198E188E81E090E00D
:103370009B8F8A8F8BAF80E090E0A0E8BFE38883CB
:103380009983AA83BB834DEC5CEC6CE47DE34C83B6
:103390005D836E837F8340E050E060E87EE3488792
:1033A00059876A877B878C879D87AE87BF878BE02D
:1033B00097EDA3EABBE3888B998BAA8BBB8B80E04C
:1033C00090E0A0E2B0E48C8B9D8BAE8BBF8B0E9413
:1033D000D6030EA51FA528A939A9DC01CB01801BA6
:1033E000910BA20BB30B8AA39BA3ACA3BDA3DF914C
:1033F000CF911F910F910895F8940C94072081E0CC
:1034000090E0F8940C9407205058BB27AA270E94FC
:103410001C1A0C944B1C0E943D1C38F00E94441C4A
:1034200020F039F49F3F19F426F40C94031C0EF499
:10343000E095E7FB0C94FD1BE92F0E945C1C58F300
:10344000BA17620773078407950720F079F4A6F589
:103450000C947E1C0EF4E0950B2EBA2FA02D0B01C0
:10346000B90190010C01CA01A0011124FF27591BC9
:1034700099F0593F50F4503E68F11A16F040A22FCF
:10348000232F342F4427585FF3CF46953795279540
:10349000A795F0405395C9F77EF41F16BA0B620B3F
:1034A000730B840BBAF09150A1F0FF0FBB1F661F86
:1034B000771F881FC2F70EC0BA0F621F731F841FC9
:1034C00048F4879577956795B795F7959E3F08F0EF
:1034D000B0CF9395880F08F09927EE0F97958795B1
:1034E00008950E94D91B08F481E008950E948A1A69
:1034F0000C944B1C0E94441C58F00E943D1C40F050
:1035000029F45F3F29F00C94FD1B51110C947F1C92
:103510000C94031C0E945C1C68F39923B1F355239F
:1035200091F3951B550BBB27AA27621773078407D6
:1035300038F09F5F5F4F220F331F441FAA1FA9F36C
:1035400035D00E2E3AF0E0E832D091505040E6955A
:10355000001CCAF72BD0FE2F29D0660F771F881FBB
:10356000BB1F261737074807AB07B0E809F0BB0BAE
:10357000802DBF01FF2793585F4F3AF09E3F5105C2
:1035800078F00C94FD1B0C947F1C5F3FE4F3983E95
:10359000D4F3869577956795B795F7959F5FC9F7AB
:1035A000880F911D9695879597F90895E1E0660F2C
:1035B000771F881FBB1F621773078407BA0720F0A5
:1035C000621B730B840BBA0BEE1F88F7E09508950E
:1035D00029F416F00C94FD1B0C947E1C0C94031C17
:1035E0000E94641CA8F39638A0F707F80F92E8949D
:1035F0002BE33AEA48EB5FE70E946E1D0F920F92B1
:103600000F924DB75EB70F920E94241DE8E6F0E0DE
:103610000E94161C4F915F91EF91FF91E595EE1F6F
:10362000FF1F49F0FE57E0684427EE0F441FFA954C
:10363000E1F74195550B0E94961C0F9007FE0C94E4
:103640008A1C08950E94291B6894B1110C947F1C58
:1036500008950E94641C88F09F5798F0B92F99270D
:10366000B751B0F0E1F0660F771F881F991F1AF06D
:10367000BA95C9F714C0B13091F00E947E1CB1E038
:1036800008950C947E1C672F782F8827B85F39F037
:10369000B93FCCF3869577956795B395D9F73EF406
:1036A00090958095709561957F4F8F4F9F4F0895AE
:1036B00097FB16F40E94061C0C949C1BE89409C00E
:1036C00097FB3EF490958095709561957F4F8F4F55
:1036D0009F4F9923A9F0F92F96E9BB279395F6956B
:1036E000879577956795B795F111F8CFFAF4BB0FE9
:1036F00011F460FF1BC06F5F7F4F8F4F9F4F16C04D
:10370000882311F096E911C0772321F09EE8872FD6
:10371000762F05C0662371F096E8862F70E060E092
:103720002AF09A95660F771F881FDAF7880F96950B
:10373000879597F90895E894F92F96EBFF2381F088
:10374000121613061406440B9395F69587957795F4
:10375000679557954040FF23B9F71BC099270895F7
:10376000882351F49850D2F7872B762F652F542F4A
:10377000432F322F20E0B1F3121613061406440B28
:1037800088233AF09A95440F551F661F771F881FAC
:10379000CAF755234AF4440F551F11F460FF04C0C3
:1037A0006F5F7F4F8F4F9F4F880F9695879597F943
:1037B0000895990F0008550FAA0BE0E8FEEF1616C2
:1037C0001706E807F907C0F012161306E407F50715
:1037D00098F0621B730B840B950B39F40A2661F089
:1037E000232B242B252B21F408950A2609F4A1402C
:1037F000A6958FEF811D811D089597F99F6780E839
:1038000070E060E008959FEF80EC089590958095BA
:103810007095609550954095309521953F4F4F4F4D
:103820005F4F6F4F7F4F8F4F9F4F0895DF93CF9321
:103830001F930F93FF92EF92DF927B018C016894AC
:1038400006C0DA2EEF010E946B1DFE01E894A591DF
:103850002591359145915591A6F3EF010E941C1ACF
:10386000FE019701A801DA9469F7DF90EF90FF90CD
:103870000F911F91CF91DF91089500240A9416169D
:10388000170618060906089500240A94121613064E
:10389000140605060895092E0394000C11F48823DC
:1038A00052F0BB0F40F4BF2B11F460FF04C06F5FF8
:1038B0007F4F8F4F9F4F089557FD9058440F551FCE
:1038C00059F05F3F71F04795880F97FB991F61F0A2
:1038D0009F3F79F087950895121613061406551F19
:1038E000F2CF4695F1DF08C0161617061806991F85
:1038F000F1CF86957105610508940895E894BB277A
:1039000066277727CB0197F908950E94D91B08F401
:103910008FEF08959B01AC0160E070E080E89FE3C9
:103920000C94761A0C94FD1B0C941A1E0E94641CB5
:10393000D8F39923C9F3940F511DA3F3915050402C
:1039400094F059F0882332F0660F771F881F91504A
:103950005040C1F79E3F51052CF7880F911D969559
:10396000879597F908955F3FACF0983E9CF0BB2790
:10397000869577956795B79508F4B1609395C1F7EB
:10398000BB0F58F711F460FFE8CF6F5F7F4F8F4F89
:103990009F4FE3CF0C947F1C0E94DC1C29ED3BE57C
:1039A0004EED5EE30C94581D16F00C941A1E0C9408
:1039B000031C68940C94FD1B0E94641CA8F39923BB
:1039C000C1F3AEF3DF93CF931F930F93FF92C92FF1
:1039D000DD2788232AF02197660F771F881FDAF7E3
:1039E00020E030E040E85FEB9FE3883920F0803E44
:1039F00038F021968F770E94051AE0E9F0E004C0C4
:103A00000E94051AEDEBF0E00E94161C8B01BE012E
:103A1000EC01FB2E6F5771097595771F880B990B79
:103A20000E94601B28E132E741E35FE30E946B1DC7
:103A3000AF2D9801AE01FF900F911F91CF91DF91B3
:103A40000E941C1A0C944B1CFA01DC01AA0FBB1F2C
:103A50009B01AC01BF5728F4222733274427507815
:103A600020C0B75190F4AB2F002446953795279589
:103A7000011CA395D2F3002071F0220F331F441FC5
:103A8000B395DAF30ED00C94041A61307105A0E8F6
:103A90008A07B94630F49B01AC016627772788274F
:103AA0009078309621F020833183428353830895A8
:103AB0000E946B1D0C944B1C0E943D1C38F00E9410
:103AC000441C20F0952311F00C94FD1B0C94031C56
:103AD00011240C947F1C0E945C1C70F3959FC1F311
:103AE000950F50E0551F629FF001729FBB27F00DAC
:103AF000B11D639FAA27F00DB11DAA1F649F662701
:103B0000B00DA11D661F829F2227B00DA11D621F4F
:103B1000739FB00DA11D621F839FA00D611D221F09
:103B2000749F3327A00D611D231F849F600D211DED
:103B3000822F762F6A2F11249F5750409AF0F1F070
:103B400088234AF0EE0FFF1FBB1F661F771F881FD9
:103B500091505040A9F79E3F510580F00C94FD1BF9
:103B60000C947F1C5F3FE4F3983ED4F386957795E1
:103B70006795B795F795E7959F5FC1F7FE2B880F7F
:103B8000911D9695879597F90895FA01EE0FFF1FFD
:103B9000309621053105A1F16115710561F4803878
:103BA000BFE39B0749F168949038810561F0803844
:103BB000BFEF9B0741F099234AF5FF3FE10531052F
:103BC000210519F1E8940894E795D901AA2329F46D
:103BD000AB2FBE2FF85FD0F310C0FF5F70F4A69537
:103BE000E0F7F73950F019F0FF3A38F49F779F93D8
:103BF0000DD00F9007FC9058089546F00C94031CCC
:103C000060E070E080E89FE308954FE79F775F935F
:103C10004F933F932F930E94DC1C2F913F914F9124
:103C20005F910E94581D0C94F01A0E94D91B880BBA
:103C3000990B08959F3F31F0915020F48795779527
:103C40006795B795880F911D9695879597F9089573
:103C5000DB018F939F930E945A1EBF91AF91A29F49
:103C6000800D911DA39F900DB29F900D112408957A
:103C7000A1E21A2EAA1BBB1BFD010DC0AA1FBB1F70
:103C8000EE1FFF1FA217B307E407F50720F0A21BE2
:103C9000B30BE40BF50B661F771F881F991F1A944F
:103CA00069F760957095809590959B01AC01BD0179
:103CB000CF0108950E94F81FA59F900DB49F900D0D
:103CC000A49F800D911D11240895B7FF0C945A1ED6
:103CD0000E945A1E821B930B0895DF93CF931F936C
:103CE0000F939A9DF02D219FF00D8B9DF00D8A9DD5
:103CF000E02DF10D039FF00D029FE00DF11D4E9D93
:103D0000E00DF11D5E9DF00D4F9DF00D7F936F93C3
:103D1000BF92AF925F934F93D5010E94F81F8B0122
:103D2000AC01D7010E94F81FEB01E80FF91FD60183
:103D30000E94BD1E2F913F91D6010E94F81FC60F11
:103D4000D71FE81FF91FAF91BF910E94BD1E2F9191
:103D50003F910E94F81FC60FD71FE81FF91FD60119
:103D60000E94F81FE60FF71F9801BE01CF01112432
:103D70000F911F91CF91DF9108950E94F81F460F78
:103D8000571FC81FD91F08F431960895689401C0C1
:103D9000E894F92FF12B12F00C94FA1EA0E0B0E099
:103DA000E4EDFEE10C946C1F092E059422F40E94B0
:103DB000561F112392F4F0E80F26FFEFE094F094E1
:103DC00000951095B094C094D094A194BF0ACF0AE6
:103DD000DF0AEF0AFF0A0F0B1F0B0E94051F07FCEB
:103DE0000E94561FCDB7DEB7ECE00C94881F689494
:103DF00001C0E8948F929F92CF93DF930E94051F9A
:103E0000DF91CF919F908F90089588249924F40199
:103E1000E401B0E49F93AA279A158B049C04ED0556
:103E2000FE05CF05D007A10798F4AD2FDC2FCF2FCB
:103E3000FE2FE92D982C892E982F872F762F652F0E
:103E4000542F432F322F2227B85031F7BF9127C06C
:103E50001B2EBF91BB27220F331F441F551F661F08
:103E6000771F881F991F881C991CEE1FFF1FCC1FEE
:103E7000DD1FAA1FBB1F8A149B04EC05FD05CE05A0
:103E8000DF05A007B10748F08A189B08EC09FD0977
:103E9000CE09DF09A00BB10B21601A94E1F62EF4D4
:103EA0009401AF01BE01CD01000C0895609570959D
:103EB0008095909530954095509521953F4F4F4F67
:103EC0005F4F6F4F7F4F8F4F9F4F08952F923F92BD
:103ED0004F925F926F927F928F929F92AF92BF921A
:103EE000CF92DF92EF92FF920F931F93CF93DF93C6
:103EF000CDB7DEB7CA1BDB0B0FB6F894DEBF0FBE23
:103F0000CDBF09942A88398848885F846E847D846F
:103F10008C849B84AA84B984C884DF80EE80FD8071
:103F20000C811B81AA81B981CE0FD11D0FB6F894E7
:103F3000DEBF0FBECDBFED0108950F93083090F0A6
:103F4000982F872F762F652F542F432F322F22271C
:103F50000850F4CF220F331F441F551F661F771FD1
:103F6000881F991F0A95B2F70F91089597FB10F8D3
:103F7000169400080F93083098F00850232F342F20
:103F8000452F562F672F782F892F902DF4CF05942A
:103F90009795879577956795579547953795279581
:103FA0000A95AAF70F9108952A0D3B1D4C1D5D1D22
:103FB0006E1D7F1D801F911F08952A193B094C0912
:103FC0005D096E097F09800B910B08950024A7FD00
:103FD00000942A17300540055005600570058005DE
:103FE00090050895EE0FFF1F0590F491E02D0994C0
:103FF000A29FB001B39FC001A39F700D811D11242A
:10400000911DB29F700D811D1124911D0895F8948A
:02401000FFCFE0
:10401200EE01EE010000704100000000FB04CB0441
:10402200D4019F04C304AF04A004000000002B01CC
:10403200A801CD007201FE00DC00F0000000803F0C
:10404200CDCC4C3D0000803E53544152542C00458F
:104052004E44000D0A006E616E00696E66006F7656
:024062006600F6
:00000001FF
