:100000000C94A3000C94AD030C9486030C94CB00C9
:100010000C94CB000C94CB000C94CB000C94CB0034
:100020000C94CB000C94CB000C94CB000C94CB0024
:100030000C94CB000C94CB000C94CB000C94CB0014
:100040000C946B050C94CB000C9454030C942E036D
:100050000C94CB000C94CB000C94CB000C94CB00F4
:100060000C94B30A0C94CB0007634236B79BD8A715
:100070001A39685618AEBAAB558C1D3CB7CC5763CD
:10008000BD6DEDFD753EF6177231BF000000803F7B
:1000900008000000BE922449123EABAAAA2ABECD97
:1000A000CCCC4C3E00000080BEABAAAAAA3E000009
:1000B0000000BF000000803F000000000008417801
:1000C000D3BB4387D1133D190E3CC3BD4282AD2B38
:1000D0003E68EC8276BED98FE1A93E4C80EFFFBE30
:1000E00001C4FF7F3F000000000000000000250069
:1000F00028002B0000000000240027002A00000038
:100100000000230026002900000000080002010072
:1001100000030407000000000000000004040404C1
:1001200004040404020202020202030303030303A1
:10013000010204081020408001020408102001027E
:1001400004081020C21911241FBECFEFD8E0DEBF73
:10015000CDBF11E0A0E0B1E0E6E7F1E402C0059018
:100160000D92AA34B107D9F724E0AAE4B1E001C0A6
:100170001D92A337B207E1F710E0C3EAD0E004C054
:100180002197FE010E94A420C23AD107C9F70E941C
:10019000530E0C94AE1A0C9400009091C4028091FE
:1001A000C302981750F4E92FF0E0EB53FD4F208184
:1001B00030E09F5F9093C40202C02FEF3FEFC90170
:1001C00008958091C30290E02091C402821B91099E
:1001D0000895FC01538D448D252F30E0842F90E04D
:1001E000821B930B541710F0CF9608950197089532
:1001F000FC01918D828D981761F0828DDF01A80F2F
:10020000B11D5D968C91928D9F5F9F73928F90E050
:1002100008958FEF9FEF0895FC01918D828D9817BF
:1002200031F0828DE80FF11D858D90E008958FEFFC
:100230009FEF0895FC01918D228D892F90E0805CC5
:100240009F4F821B91098F7399270895FC01848D1C
:10025000DF01A80FB11DA35ABF4F2C91848D90E0F0
:1002600001968F739927848FA689B7892C93A089CB
:10027000B1898C9180648C93938D848D981306C082
:100280000288F389E02D80818F7D80830895EF922D
:10029000FF920F931F93CF93DF93EC0181E0888F40
:1002A0009B8D8C8D981305C0E889F989808185FD27
:1002B00024C0F62E0B8D10E00F5F1F4F0F73112718
:1002C000E02E8C8DE8120CC00FB607FCFACFE8893F
:1002D000F989808185FFF5CFCE010E942601F1CFFB
:1002E0008B8DFE01E80FF11DE35AFF4FF0820B8F5B
:1002F000EA89FB898081806207C0EE89FF8960837B
:10030000E889F98980818064808381E090E0DF91D1
:10031000CF911F910F91FF90EF900895CF93DF93AE
:10032000EC01888D8823C9F0EA89FB89808185FDED
:1003300005C0A889B9898C9186FD0FC00FB607FC4E
:10034000F5CF808185FFF2CFA889B9898C9185FF8F
:10035000EDCFCE010E942601E7CFDF91CF91089526
:100360008CE393E00E941A0121E0892B09F420E03C
:10037000822F089580E090E0892B29F00E94B0013F
:1003800081110C9400000895CF92DF92EF92FF92BA
:100390000F931F93CF93DF936C017A018B01C0E021
:1003A000D0E0CE15DF0589F0D8016D918D01D60121
:1003B000ED91FC910190F081E02DC6010995892B0A
:1003C00011F47E0102C02196ECCFC701DF91CF91DD
:1003D0001F910F91FF90EF90DF90CF9008950895B7
:1003E00080E090E008958E3008F08E508770806431
:1003F00080937C0080917A00806480937A00809161
:100400007A0086FDFCCF809178002091790090E001
:10041000922B089508953FB7F894809157019091D9
:100420005801A0915901B0915A0126B5A89B05C069
:100430002F3F19F00196A11DB11D3FBFBA2FA92F63
:10044000982F8827820F911DA11DB11DBC01CD01E0
:1004500042E0660F771F881F991F4A95D1F70895CC
:10046000CF92DF92EF92FF920F931F93CF93DF9380
:100470007C01262F972F8A0180910C03882391F00D
:10048000C62FD72F6E01C40ED51ECC15DD0571F019
:100490006991D701ED91FC910190F081E02DC701A8
:1004A0000995F3CF642F822F0E94E10BC801DF91E1
:1004B000CF911F910F91FF90EF90DF90CF90089513
:1004C000CF93DF931F92CDB7DEB7698320910C03E2
:1004D0002223D1F020912F03203240F021E030E0A0
:1004E000FC013383228380E090E015C080910D03EE
:1004F000E82FF0E0E25FFC4F998190838F5F80935B
:100500000D0380932F0305C061E0CE0101960E9488
:10051000E10B81E090E00F90DF91CF9108958F92F1
:100520009F92AF92BF92CF92DF92EF92FF92C090D4
:10053000A201D090A301E090A401F090A5012DECC0
:100540003CEC4CEC5DE3C701B6010E940A1E0E9420
:10055000A21B4B015C0123EC35EF48EA5EE3C701C7
:10056000B6010E940A1E6B017C012AE037ED43E2CE
:100570005DE3C501B4010E940A1E9B01AC01C701E5
:10058000B6010E94B71A9B01AC0160917C01709189
:100590007D0180917E0190917F010E94B61AFF90AB
:1005A000EF90DF90CF90BF90AF909F908F90089585
:1005B0008F929F92AF92BF92CF92DF92EF92FF9273
:1005C0000F931F93CF93DC011796CC911797662357
:1005D00011F08C2F01C080E018962C91189730E014
:1005E000220F331F22503F4F40E050E0BA01F90183
:1005F00005911491F80190819C23981315C06A010C
:100600007B019FEFC91AD90AE90AF90A1D968D9054
:100610009D90AD90BC905097481559056A057B0593
:1006200038F4B701A601E3CF342F252FCB0104C046
:1006300030E020E080E090E0632F722FCF911F9197
:100640000F91FF90EF90DF90CF90BF90AF909F9071
:100650008F90089508958CBD9DBD08951F920F92AF
:100660000FB60F9211242F933F934F935F936F9385
:100670007F938F939F93AF93BF93EF93FF938CE3FD
:1006800093E00E942601FF91EF91BF91AF919F915E
:100690008F917F916F915F914F913F912F910F902B
:1006A0000FBE0F901F9018951F920F920FB60F92CA
:1006B00011242F938F939F93EF93FF93E0914C031B
:1006C000F0914D038081E0915203F091530382FD3C
:1006D00012C09081809155038F5F8F7320915603D4
:1006E000821751F0E0915503F0E0E45CFC4F958FE8
:1006F0008093550301C08081FF91EF919F918F916D
:100700002F910F900FBE0F901F9018951F920F9270
:100710000FB60F9211242F933F934F935F936F93D4
:100720007F938F939F93AF93BF93EF93FF93E0914A
:100730000201F09103010995FF91EF91BF91AF91F3
:100740009F918F917F916F915F914F913F912F91E9
:100750000F900FBE0F901F9018951F920F920FB61B
:100760000F9211242F933F934F935F936F937F9337
:100770008F939F93AF93BF93EF93FF93E09100010B
:10078000F09101010995FF91EF91BF91AF919F9178
:100790008F917F916F915F914F913F912F910F902A
:1007A0000FBE0F901F901895833081F028F4813090
:1007B00099F08230A1F008958730A9F08830B9F01F
:1007C0008430D1F4809180008F7D03C080918000BF
:1007D0008F7780938000089584B58F7702C084B5A9
:1007E0008F7D84BD08958091B0008F7703C0809184
:1007F000B0008F7D8093B00008951F93CF93DF9357
:10080000282F30E0F901E85FFE4F8491F901E05DA7
:10081000FE4FD491F901E45EFE4FC491CC23C9F0A0
:10082000162F81110E94D403EC2FF0E0EE0FFF1F72
:10083000E651FF4FA591B4918FB7F894111105C0FF
:100840009C91ED2FE095E92302C0EC91ED2BEC9308
:100850008FBFDF91CF911F910895CF93DF9390E0E9
:10086000FC01E05DFE4F2491FC01E45EFE4F8491AB
:10087000882361F190E0880F991FFC01EC50FF4F35
:10088000C591D491FC01E651FF4FA591B49161113E
:1008900009C09FB7F8948881209582238883EC91C2
:1008A0002E230BC0623061F49FB7F8943881822FF9
:1008B000809583238883EC912E2B2C939FBF06C0B9
:1008C0008FB7F894E8812E2B28838FBFDF91CF91CB
:1008D00008958F929F92AF92BF92CF92DF92EF9244
:1008E000FF926B017C010E940B024B015C01C11461
:1008F000D104E104F104F1F00E940B02DC01CB0110
:1009000088199909AA09BB09883E9340A105B10538
:1009100070F321E0C21AD108E108F10888EE880ED0
:1009200083E0981EA11CB11CC114D104E104F104A0
:1009300019F7DDCFFF90EF90DF90CF90BF90AF9091
:100940009F908F9008952FB7F89460915301709104
:10095000540180915501909156012FBF0895CF9277
:10096000DF92EF92FF920E94A3046B017C016093DF
:100970004E0170934F0180935001909351018091EB
:100980004A0190914B01A0914C01B0914D01A701FA
:100990009601281B390B4A0B5B0B233331054105AC
:1009A000510508F453C08091740290917502A09192
:1009B0007602B09177020196A11DB11D8093740259
:1009C00090937502A0937602B093770280914A01CA
:1009D00090914B01A0914C01B0914D01A70196015E
:1009E000281B390B4A0B5B0BCA01B9010E94101C72
:1009F0002091700230917102409172025091730205
:100A00000E94231B87FF1AC080914A0190914B01DD
:100A1000A0914C01B0914D01A7019601281B390B03
:100A20004A0B5B0BCA01B9010E94101C6093700253
:100A3000709371028093720290937302C0924A0184
:100A4000D0924B01E0924C01F0924D012091700246
:100A50003091710240917202509173026AE979E912
:100A600089E190E40E94281B20E030E04AE754E44A
:100A70000E940A1E60936201709363018093640177
:100A80009093650160917402709175028091760275
:100A9000909177020E94101C2AE939E949E150E45B
:100AA0000E940A1E20E030E44CE955E40E94281B15
:100AB00020E030E04AE754E40E940A1E6093660199
:100AC000709367018093680190936901FF90EF90A4
:100AD000DF90CF9008951F920F920FB60F921124BE
:100AE0002F933F938F939F93AF93BF938091530125
:100AF00090915401A0915501B0915601309152014D
:100B000023E0230F2D3720F40196A11DB11D05C050
:100B100026E8230F0296A11DB11D20935201809358
:100B2000530190935401A0935501B09356018091C5
:100B3000570190915801A0915901B0915A01019625
:100B4000A11DB11D8093570190935801A0935901A5
:100B5000B0935A01BF91AF919F918F913F912F9187
:100B60000F900FBE0F901F901895E0913C03F091ED
:100B70003D030190F081E02D682F8CE393E0099410
:100B800085ED8093BC008091BC0084FDFCCF109269
:100B90000B0308950895E091C4028091C302E81701
:100BA00030F4F0E0EB53FD4F808190E008958FEF3B
:100BB0009FEF08958F929F92AF92BF92CF92DF9254
:100BC000EF92FF920F931F93CF93DF93CDB7DEB7D2
:100BD000C054D1400FB6F894DEBF0FBECDBF8C011C
:100BE0000E94A304F801C184D284E384F4849B01AD
:100BF000AC012C193D094E095F0969017A0130EDFC
:100C0000C31637E0D306E104F10410F48189B4C0BF
:100C1000F801618772878387948714821382128216
:100C20001182108261E085810E94FD036AEF70E00D
:100C300080E090E00E94690461E0F80185810E94F3
:100C40002D0460E0F80185810E94FD0364E170E0FD
:100C500080E090E00E946904F89461E0F8018581E9
:100C60000E94FD038BE990E00197F1F762E0F80143
:100C700085810E942D0483E290E00197F1F760E006
:100C8000C8010E94D802672B682B692B21F4F80158
:100C9000118A789442C061E0C8010E94D802672B93
:100CA000682B692BA1F39E012F5F3F4F79015E01F5
:100CB0003FEBA31A3EEFB30A670160E0C8010E9450
:100CC000D802F601608371838283938361E0C80157
:100CD0000E94D802F6016483758386839783F8E0C7
:100CE000CF0ED11CCA14DB0441F7789420E030E029
:100CF000F701408151816281738184809580A68053
:100D0000B780411551056105710529F081149104E1
:100D1000A104B10421F4F801118A80E02DC0F90189
:100D200083E0F595E7958A95E1F7E00FF11F808163
:100D3000880F481559056A057B0508F48160808392
:100D40002F5F3F4FF8E0EF0EF11C2832310581F69E
:100D5000F801248130E04081818190E0840F911D71
:100D60004281840F911D4381840F911D992728177B
:100D7000390789F681E0818BC05CDE4F0FB6F894AD
:100D8000DEBF0FBECDBFDF91CF911F910F91FF90BE
:100D9000EF90DF90CF90BF90AF909F908F9008958D
:100DA0000E94B11ACF93C82F809127048F3FE9F496
:100DB00080911E0491E090930C0380932E03109277
:100DC0000D0310922F036C2F80E393E00E946002CA
:100DD0000E94C00D61E080911E040E94080E80E315
:100DE00093E00E94CD00C82F20C080912A048F3F3D
:100DF00021F482E591E00E942B0360E080912704BA
:100E00000E94FD038C2F80680E94030D80E00E94E9
:100E1000030DC82F61E0809127040E94FD0380919B
:100E20002A048F3F11F40E942A038C2FCF9108953A
:100E3000CF93DF93C82F809127048F3F39F580919E
:100E40001E0491E090930C0380932E0310920D03E7
:100E500010922F036C2F80E393E00E9460020E94A7
:100E6000C00D62E080911E040E94080E80E393E0B2
:100E70000E94CD00C82F80E393E00E94CD0020E0C7
:100E800030E03C2FE901C82BD92B29C080912A04DE
:100E90008F3F21F482E591E00E942B0360E0809176
:100EA00027040E94FD038C2F80680E94030D80E0C0
:100EB0000E94030DC82F80E00E94030D2C2F30E00C
:100EC000322F2227E901C82B61E0809127040E947C
:100ED000FD0380912A048F3F11F40E942A039C2F66
:100EE0008D2FDF91CF910895CF92DF92EF92FF92F5
:100EF0001F93CF93DF93EC010E94DA058823B1F1B1
:100F00008E818B3029F090F18551823040F02EC0D7
:100F10006A8170E080E090E00E94101C2BC01A8172
:100F2000612F6F7770E080E090E00E94121C20E05B
:100F300030E040E853E40E940A1E6B017C018B8183
:100F4000682F70E080E090E00E94121C9B01AC01D1
:100F5000C701B6010E94B71A2DEC3CEC4CEC5DE3E6
:100F60000E940A1E17FF06C0905804C060E070E09F
:100F700080EC9FE7DF91CF911F91FF90EF90DF9082
:100F8000CF900895CF92DF92EF92FF92CF93DF93AD
:100F9000EC010E94DA05882381F18E818B3031F1DA
:100FA00060F18551823048F5688170E080E090E022
:100FB0000E94101C20E030E040E853E40E940A1E2A
:100FC0006B017C018981682F70E080E090E00E94D5
:100FD000121C9B01AC01C701B6010E94B71A2DEC8F
:100FE0003CEC4CEC5DE30E940A1E0BC0688170E093
:100FF00080E090E00E94101C04C060E070E080EC93
:101000009FE7DF91CF91FF90EF90DF90CF90089511
:10101000CF92DF92EF92FF92CF93C82F8091270457
:101020008F3F09F040C080911E0491E090930C0323
:1010300080932E0310920D0310922F036C2F80E3E8
:1010400093E00E9460020E94C00D63E080911E0444
:101050000E94080E80E393E00E94CD006C01990F7E
:10106000EE08FF08FE2CED2CDC2CCC2480E393E072
:101070000E94CD00AC01990F660B770BC42AD52ACC
:10108000E62AF72AFE2CED2CDC2CCC2480E393E01E
:101090000E94CD00AC01990F660B770BC42AD52AAC
:1010A000E62AF72A33C080912A048F3F21F482E593
:1010B00091E00E942B0360E0809127040E94FD03D1
:1010C0008C2F80680E94030D80E00E94030DC82EC3
:1010D000D12CE12CF12CFE2CED2CDC2CCC2480E04E
:1010E0000E94030DC82AFE2CED2CDC2CCC2480E0C1
:1010F0000E94030DC82A61E0809127040E94FD032D
:1011000080912A048F3F11F40E942A03C701B6017F
:10111000CF91FF90EF90DF90CF9008958F929F92A4
:10112000AF92BF92CF92DF92EF92FF928AEF0E942E
:1011300008086115710520E88207910509F47CC053
:1011400040912B0450912C044A01A12CB12CC72EA4
:10115000D82EE92EFF24E7FCFA94C818D908EA082B
:10116000FB08DC01CB0137E0B595A79597958795EE
:101170003A95D1F7B501A401440F551F661F771F9B
:101180004C015D01841A950AA60AB70AA5019401CB
:10119000A0912D04B0912E040E94171F4B015C01F9
:1011A000FBE0B594A79497948794FA95D1F7A7019B
:1011B0009601C701B6010E94DA1E9B01AC01ACE0AA
:1011C0005595479537952795AA95D1F7A0912F0466
:1011D000B09130040E94171FDC01CB012EE0B595C1
:1011E000A795979587952A95D1F7A5019401280F82
:1011F000391F4A1F5B1F209323043093240440931C
:10120000250450932604A5E0B0E00E940C1FDC01E9
:10121000CB0180589F4FAF4FBF4F692F7A2F8B2F35
:10122000992787FD9A950E94121C20E030E048EC37
:1012300052E40E94281B04C060E070E080EC9FE74D
:10124000FF90EF90DF90CF90BF90AF909F908F90E6
:101250000895CF93DF9390911D0421E020930C0318
:1012600090932E0310920D0310922F03682F80E3AA
:1012700093E00E94600280E00E94630D63E0809131
:101280001D040E94080E80E393E00E94CD00EC0153
:1012900080E393E00E94CD0020E030E0382FC22BA5
:1012A000D32B80E393E00E94CD00CE01DF91CF915C
:1012B0000895009769F0FC0101900020E9F731974B
:1012C000AF01481B590BBC018CE393E00C94C401A3
:1012D00080E090E008958F929F92AF92BF920F931B
:1012E0001F93CF93DF93CDB7DEB7A1970FB6F894D6
:1012F000DEBF0FBECDBF19A2423008F44AE08E0116
:101300000F5D1F4F842E912CA12CB12CA5019401AF
:101310000E94EA1EE62FB901CA0101501109EA3004
:1013200014F4E05D01C0E95CD801EC93232B242B7D
:10133000252B61F7C8010E945909A1960FB6F894B0
:10134000DEBF0FBECDBFDF91CF911F910F91BF9038
:10135000AF909F908F9008954F925F926F927F927F
:101360008F929F92AF92BF92CF92DF92EF92FF92B5
:101370006B017C01B42E9B01AC010E94C71E882327
:1013800019F08EE391E027C026013701E89477F841
:101390002FEF3FEF4FE75FE7C301B2010E94C71E87
:1013A00081110DC02FEF3FEF4FE75FE7C301B2019F
:1013B0000E94231B18161CF482E491E00CC02FEF4E
:1013C0003FEF4FE75FE4C701B6010E94371D1816D3
:1013D00084F486E491E0FF90EF90DF90CF90BF908F
:1013E000AF909F908F907F906F905F904F900C94F4
:1013F00059092FEF3FEF4FE75FECC701B6010E949D
:10140000231B87FDE6CF20E030E0A901C701B6012C
:101410000E94231B87FF09C08DE20E94B5054C0185
:10142000F7FAF094F7F8F09402C0812C912CA12CDB
:1014300060E070E080E09FE3AB1441F020E030E03A
:1014400040E251E40E94281BA394F6CF9B01AC011B
:10145000C701B6010E94B71A2B013C010E94DB1B99
:101460006B017C010E94101C9B01AC01C301B20105
:101470000E94B61A2B013C014AE0C701B6010E9446
:101480006B097C01E80CF91CBB2029F08EE20E945C
:10149000B505E80EF91EDB2CDD2021F120E030E05F
:1014A00040E251E4C301B2010E940A1E2B013C013B
:1014B0000E94DB1B4B01A12CB12C4AE0C501B401F9
:1014C0000E946B09E80EF91EC501B4010E94101CB0
:1014D0009B01AC01C301B2010E94B61A2B013C0171
:1014E000DA94DACFC701FF90EF90DF90CF90BF90F2
:1014F000AF909F908F907F906F905F904F900895E6
:101500000C94590942E00C94AC09CF92DF92EF920F
:10151000FF92CF93DF936C01990FEE08FF08F7FE5F
:1015200017C08DE20E94B505EC0166277727CB0135
:101530006C197D098E099F094AE00E946B098C0F86
:101540009D1FDF91CF91FF90EF90DF90CF90089596
:101550004AE0C701B601DF91CF91FF90EF90DF9095
:10156000CF900C946B091F920F920FB60F9211241B
:101570002F933F934F935F936F937F938F939F939B
:10158000AF93BF93EF93FF938091B900887F80362C
:1015900009F49CC068F5883209F45BC090F480318E
:1015A00009F454C038F4882309F4F6C0883009F4EB
:1015B0004DC0F6C0883109F44CC0803209F45DC0DA
:1015C000EFC0803409F468C048F4803309F455C092
:1015D000883309F0E5C080930903D8C0803509F449
:1015E0004FC0883509F45DC0883409F0D9C0D6C031
:1015F000883909F4C7C0A8F4883709F467C038F4FB
:10160000883609F463C0803709F460C0C9C08838DF
:1016100009F4B8C0803909F45FC0803809F0C0C04F
:101620005BC0803B09F486C038F4803A09F466C098
:10163000883A09F47FC0B4C0803C09F4A7C0883C54
:1016400009F4A4C0883B09F48AC0AAC08091E602CC
:1016500010C09091080380910703981770F5E091EE
:10166000080381E08E0F80930803F0E0E951FD4FFD
:1016700080818093BB0085EC86C0809309038EC077
:10168000E091080381E08E0F809308038091BB00F6
:10169000F0E0E951FD4F80839091080380910703AA
:1016A0006EC0E091080381E08E0F80930803809163
:1016B000BB00F0E0E951FD4F808380910A03811166
:1016C0006DC081E08093E50284EA61C083E080938D
:1016D0000B031092C202CFCF8091C202803208F079
:1016E00051C0E091C20281E08E0F8093C2028091CE
:1016F000BB00F0E0EE55FD4F8083BDCF85EC8093BD
:10170000BC0010920B038091C202803230F4E09151
:10171000C202F0E0EE55FD4F10826091C20270E00F
:10172000E091A002F091A10282EA92E00995109264
:10173000C20236C084E080930B0310929F02109285
:101740009E02E0919C02F0919D02099580919E027B
:10175000811105C081E080939E0210927C02E0918D
:101760009F0281E08E0F80939F02F0E0E458FD4FCE
:1017700080818093BB0090919F0280919E02981778
:1017800008F479CF85E88093BC000AC085EC80938B
:10179000BC0010920B0304C0109209030E94C00504
:1017A000FF91EF91BF91AF919F918F917F916F9139
:1017B0005F914F913F912F910F900FBE0F901F900F
:1017C000189540919E02262F30E0240F311D2132C2
:1017D0003105DCF420910B032430C9F4FC0180E0D6
:1017E00090E0861758F430919E022191DC01A458B4
:1017F000BD4FA30FB11D2C930196F3CF80919E0294
:10180000680F60939E0280E0089581E0089582E071
:10181000089510920B0381E080930A031092E50271
:1018200061E082E10E94FD0361E083E10E94FD032B
:10183000E9EBF0E080818E7F808380818D7F8083E3
:1018400088E48093B80085E48093BC0008954F92AB
:101850005F926F927F928F929F92AF92BF92CF9240
:10186000DF92EF92FF920F931F93CF93DF9300D0FD
:1018700000D0CDB7DEB74B015C0129013A01670109
:1018800078010091FB031091FC0320E030E0A901F6
:101890000E94231B87FDA2C020E030E0A901C30104
:1018A000B2010E94231B87FD99C020E030E0A9010E
:1018B000C701B6010E94231B87FD90C081E0013063
:1018C000110509F080E080931C048092E10390925E
:1018D000E203A092E303B092E4034092E503509246
:1018E000E6036092E7037092E803C092E903D092A6
:1018F000EA03E092EB03F092EC0360910F04709125
:10190000100480911104909112040E94101C20E098
:1019100030E04AE754E40E94281B69837A838B8372
:101920009C838092ED039092EE03A092EF03B0921D
:10193000F0039B01AC01C301B2010E940A1E2B01FE
:101940003C016093F1037093F2038093F30390934F
:10195000F40329813A814B815C81C701B6010E9461
:10196000281B6B017C016093F5037093F603809351
:10197000F7039093F8038091F9039091FA0301978C
:1019800069F5A501940160E070E0CB010E94B61AF0
:101990006093ED037093EE038093EF039093F00355
:1019A000A301920160E070E0CB010E94B61A60933F
:1019B000F1037093F2038093F3039093F403A70170
:1019C000960160E070E0CB010E94B61A6093F503C7
:1019D0007093F6038093F7039093F8030F900F90A2
:1019E0000F900F90DF91CF911F910F91FF90EF908B
:1019F000DF90CF90BF90AF909F908F907F906F902F
:101A00005F904F900895CF92DF92EF92FF920F93E5
:101A10001F93CF93DF9390912A049F3F39F48EBD9B
:101A200000000DB407FEFDCF8EB544C0E82EC7E020
:101A3000D0E0D12C01E010E0DD0C60E080912A04C0
:101A40000E94FD03B8010C2E01C0660F0A94EAF74C
:101A50006E21809128040E94FD0361E080912A0498
:101A60000E94FD032091290430E0F901E85FFE4F58
:101A70008491F901E05DFE4FC490F901E45EFE4FF0
:101A8000F490FF2071F081110E94D403EF2DF0E05B
:101A9000EE0FFF1FE250FF4FA591B491EC91EC21A6
:101AA00029F4219708F0C8CF8D2D04C08D2D8160B9
:101AB000D82EF7CFDF91CF911F910F91FF90EF902C
:101AC000DF90CF900895382F20912F0390912E030F
:101AD000213208F049C080910B038111FCCF42E014
:101AE00040930B0330930A033FEF309309031092A6
:101AF000080320930703AEE0B3E047EE52E0FA019B
:101B00003E2F341B321718F43D913193F9CF1092C8
:101B1000E6022091E602990F922B9093E6029091B3
:101B2000E502913061F41092E5029091E602909303
:101B3000BB009091BC0093FDF8CF95EC01C095EEF1
:101B40009093BC0090910B039230E1F390910903C4
:101B50009F3F79F080910903803241F08091090321
:101B6000803331F084E005C081E003C082E001C031
:101B700083E010920D0310922F0310920C0308952E
:101B800081E00C94630DCF93DF93D82FC62F809103
:101B900027048F3FC9F480911E0491E090930C03B9
:101BA00080932E0310920D0310922F036D2F80E36C
:101BB00093E00E9460026C2F80E393E00E94600239
:101BC000DF91CF910C94C00D80912A048F3F21F4B6
:101BD00082E591E00E942B0360E0809127040E943F
:101BE000FD038D2F8F770E94030D8C2F0E94030D14
:101BF00061E0809127040E94FD0380912A048F3FB9
:101C000021F4DF91CF910C942A03DF91CF910895B5
:101C100090910B039111FCCF613208F060E291E0EA
:101C200090930B0390930A032FEF209309031092D4
:101C30000803260F209307039093E6029091E60293
:101C4000880F892B8093E6028091E502813061F450
:101C50001092E5028091E6028093BB008091BC0067
:101C600083FDF8CF85EC01C085EE8093BC008091A8
:101C70000B038130E1F380910803861710F4609123
:101C80000803A7EEB2E025EC32E0F9018E2F821BAB
:101C9000861718F48D918193F9CF1092C402609346
:101CA000C302862F0895CF93DF93CDB7DEB7AC97ED
:101CB0000FB6F894DEBF0FBECDBF789484B58260B6
:101CC00084BD84B5816084BD85B5826085BD85B5E0
:101CD000816085BD80916E00816080936E0010925E
:101CE00081008091810082608093810080918100D9
:101CF000816080938100809180008160809380006A
:101D00008091B10084608093B1008091B0008160C7
:101D10008093B00080917A00846080937A008091F3
:101D20007A00826080937A0080917A00816080934B
:101D30007A0080917A00806880937A001092C100C6
:101D4000E0914C03F0914D0382E08083E0914803E1
:101D5000F09149031082E0914A03F0914B038FEC1C
:101D6000808310925403E0915003F091510386E078
:101D70008083E0914E03F0914F03808180618083E6
:101D8000E0914E03F0914F03808188608083E09161
:101D90004E03F0914F03808180688083E0914E0371
:101DA000F0914F0380818F7D808386E780931E04AE
:101DB000809127048F3F59F41092C4021092C302FD
:101DC00010920D0310922F030E94090C4EC061E087
:101DD0000E94FD0361E0809127040E942D04809100
:101DE0002A048F3F09F034C01FB7F89480915B013B
:101DF000811127C0E6E2F1E08491EAE3F1E09491F9
:101E0000E82FF0E0EE0FFF1FEC50FF4FA591B491CB
:101E1000EC91E92321F461E08AE00E94FD0361E096
:101E20008AE00E942D048CB580618CBD8CB58064E5
:101E30008CBD61E08DE00E942D0461E08BE00E948A
:101E40002D0480915B018F5F80935B011FBF0DC0EC
:101E500061E00E942D0461E0809128040E942D041D
:101E600060E0809129040E942D0480ED0E94D2063A
:101E7000803609F0EEC066EB80EE0E94C30D6CE286
:101E800071E080E090E00E94690483EF0E94D20636
:101E900080FF05C064E670E080E090E0F4CF88E861
:101EA0000E94180790932C0480932B048AE80E94C8
:101EB000180790932E0480932D048CE80E94180735
:101EC0009093300480932F048EE80E94180790931B
:101ED00032048093310480E90E94180790933404FF
:101EE0008093330482E90E9418079093360480930C
:101EF000350484E90E9418079093380480933704CE
:101F000086E90E94180790933A048093390488E97F
:101F10000E94180790933C0480933B048AE90E9436
:101F2000180790933E0480933D048CE90E941807A3
:101F30009093400480933F048EE90E941807909389
:101F400042048093410481EA0E94D20680934304B4
:101F500081EE0E941807909345048093440483EE19
:101F60000E94D2068093460484EE0E94D206182F67
:101F700085EE0E94D206282F2F7030E1139FC001FA
:101F80001124822B909348048093470486EE0E948C
:101F9000D206182F85EE0E94D20690E0A4E0959517
:101FA0008795AA95E1F740E1149F90011124822BB7
:101FB000932B90934A048093490487EE0E94D206A3
:101FC00080934B048DEE80934D0480914E048F716D
:101FD000806A80934E0480914C04807C80934C04F2
:101FE00065E082EF0E94C30D90914C04692F6770E9
:101FF00050E2659F90011124892F869586958695DC
:102000008770A8E08A9FB0011124622B732B97FB85
:10201000992790F9692B85EF0E94C30D90914D048B
:10202000692F6770B0E26B9F90011124892F86950C
:10203000869586958770E8E08E9FB0011124622B0B
:10204000732B9295969596959370692B84EF0E94C9
:10205000C30D62E0809166040E942D04E0E3CE2E61
:10206000E8EFDE2EEE24EA94FE2CC0926A04D092B1
:102070006B04E0926C04F0926D0462E08091540471
:102080000E942D04C0925804D0925904E0925A0440
:10209000F0925B041092C4021092C30210920D03DE
:1020A00010922F030E94090C60E083E00E942D042F
:1020B0008FEA94E09093030180930201809169007C
:1020C000837F886080936900E99A61E080E10E94E3
:1020D0002D0461E08FE00E942D0461E08BE00E94FE
:1020E0002D041092130410921404109215041092EF
:1020F0001604C12CD12CFFE7EF2EF3E4FF2EC09283
:102100001704D0921804E0921904F0921A048091F6
:102110001B040091FF0310910004D8018D909D9045
:10212000AD90BC90882309F44EC0A7019601C5016B
:10213000B4010E94371D181634F4F801C082D18210
:10214000E282F3820FC020E030E0A901C501B401B2
:102150000E94231B87FF06C0D8011D921D921D926D
:102160001C9213978090070490900804A090090493
:10217000B0900A04C0901704D0901804E09019049D
:10218000F0901A04A7019601C501B4010E94371D01
:10219000181684F0C0901304D0901404E090150435
:1021A000F0901604A7019601C501B4010E94231BFB
:1021B00087FF3CC0C0920704D0920804E092090453
:1021C000F0920A0433C08092070490920804A0920F
:1021D0000904B0920A04E091FD03F091FE038081AE
:1021E0009181A281B38180930B0490930C04A093FE
:1021F0000D04B0930E0420E030E04FE753E4C50136
:10220000B4010E94371D1816ACF220E030E0A9019D
:10221000C501B4010E94231B87FF08C01092070468
:10222000109208041092090410920A0481E080932D
:102230001B040E94A304009178021091790220915E
:102240007A0230917B02DC01CB01801B910BA20B47
:10225000B30B89389341A105B10508F41BC687E08B
:102260000E942909BC0180E090E00E94101C2AE035
:1022700037ED43EA5CE30E940A1E23E333E948E8B2
:1022800053E40E94B61A60937C0170937D018093A1
:102290007E0190937F0186E00E942909BC0180E0C5
:1022A00090E00E94101C2AE037ED43EA5CE30E94B4
:1022B0000A1E23E333E948E853E40E94B61A69870B
:1022C0007A878B879C8760938001709381018093CC
:1022D0008201909383010E948F026B017C0120E0B8
:1022E00030E040E251EC0E94231B87FD0DC020E04E
:1022F00030E0A901C701B6010E94371D181654F439
:10230000C12CD12C760106C0C12CD12C70E2E72E55
:1023100071ECF72E20E030E040E251E4C701B60155
:102320000E94B71A20E030E048EC52E40E940A1EF6
:1023300020E030E040E251E40E94281B6B017C0168
:102340006093740170937501809376019093770187
:102350000E948F02609378017093790180937A01D3
:1023600090937B0120E030E040EF51E4C701B601DB
:102370000E94371D18163CF421E030E030937301C1
:102380002093720104C010927301109272010E9496
:102390008E0860936A0170936B0180936C01909337
:1023A0006D010E948E0887EF0E940808698B7A8B66
:1023B0008B8B9C8B611571058048910509F402C2D5
:1023C0008091230490912404A0912504B0912604C7
:1023D0006C017D01FF0CCC08DC2C76019C01AD0169
:1023E0006C2D7C2D8C2D9C2D345F41405109610951
:1023F0007109810991092CA73BA749835D836D87EA
:102400007E878F87988B59016A017B018C010E941E
:102410001F1F28A339A34AA35BA36CA37DA38EA38C
:102420009FA340913B0448A750913C045D8B809151
:10243000390489A790913A049E8BA0913704AAA7EA
:10244000B0913804BF8BB0903404A09033041B2D9E
:10245000110F110BC12ED12EE12EF12E012F2CA523
:102460003BA549815D816D857E858F8598890E9418
:102470001F1F0CE00E944F2019012A013B014C0153
:10248000B0903604A09035041B2D110F110BC12EF6
:10249000D12EE12EF12E012F28A139A14AA15BA155
:1024A0006CA17DA18EA19FA10E941F1F08E00E9428
:1024B000682051016201730184010E9486207058D6
:1024C0008F4F9F4FA0903104B0903204C12CD12C7B
:1024D000E12CF12C00E010E00E941F1F01E20E949D
:1024E0006820288F398F4A8F5B8F6C8F7D8F8E8FFE
:1024F0009F8FA0E00E94982009F469C1A8A41D89BB
:10250000110F110BBD88C12ED12EE12EF12E012FFE
:1025100028A139A14AA15BA16CA17DA18EA19FA197
:102520000E941F1F19012A013B014C01A9A41E8909
:10253000110F110BBE88C12ED12EE12EF12E012FCD
:102540002CA53BA549815D816D857E858F85988908
:102550000E941F1F01E10E944F2059016A017B0167
:102560008C019101A201B301C4010E9486201901CE
:10257000FA012B013C0189899A89AB89BC8944E025
:10258000B595A795979587954A95D1F720E030E0C6
:1025900040E150E0281B390B4A0B5B0BDA01C90103
:1025A00069017A01FF0CCC08DC2C76019C01AD019D
:1025B0006C2D7C2D8C2D9C2D0FE10E944F2049010C
:1025C000B42FA52F6E877F8789839D832AA59F8936
:1025D000990F990B3F89492F592F692F792F892FEF
:1025E00003E20E944F2059016A017B018C01910195
:1025F000AF01B201C3010E94862059016A017B012B
:102600008C0194014B2F5A2F6E857F8589819D8186
:102610000E948F204901542E652EB62FA72FF82F28
:10262000E92F03E00E944F205401C52CD62CEB2E3D
:10263000FA2E0F2F1E2F0E948F2059016A017B0155
:10264000782E192F03E00E944F20072D0E948F2023
:1026500003E00E944F205401C52CD62CEB2EFA2EFD
:102660000F2F1E2F0E948F2002E00E944F200F2F5D
:102670000E948F2001E00E944F200F2F0E948F2088
:10268000A88CB98CCA8CDB8CEC8CFD8C0E8D1F8DCC
:102690000E947A1F298B232E49835D836D877E8755
:1026A0008F87988B0DE00E946820322E432E542E87
:1026B000652E762E872E982E9D8B30914204209188
:1026C0004104932F990F990BA32CB42CC52CD62C15
:1026D000E72CF82C092D1D89492F592F692F792FA7
:1026E000892F0E941F1F0E941F1F09E10E9468205E
:1026F00059016A017B018C012989322D49815D8153
:102700006D857E858F8598890E948620322E432E86
:10271000542E652E762E872E982E9D8B3091400458
:1027200020913F04932F990F990BA988B22CC9804F
:10273000DD80ED84FE840F851889492F592F692F7C
:10274000792F892F0E941F1F03E10E9468205901E1
:102750006A017B018C01232D342D452D562D672DCB
:10276000782D892D9D890E94862008E00E9468208E
:1027700049013A01B62FA72FF82FE92F30913E04D7
:1027800020913D04932F990F990B492F592F692FB1
:10279000792F892F04E00E944F2059016A017B01A3
:1027A0008C019401A3016B2F7A2F8F2F9E2F0E94F3
:1027B00086200E940A1C20E030E040E85BE30E9493
:1027C0000A1E08C060E070E080EC9FE703C060E094
:1027D00070E0CB0120E030E048EC52E40E94281B7E
:1027E00060936E0170936F018093700190937101FB
:1027F00081E694E00E94C207609392017093930176
:10280000809394019093950181E694E00E9474076F
:10281000609396017093970180939801909399012A
:102820008FE494E00E94C20769837A838B839C8340
:1028300060938A0170938B0180938C0190938D013A
:102840008FE494E00E94740760938E0170938F016F
:10285000809390019093910180E00E94F301BC016C
:10286000990F880B990B0E94121C26EF38E24CE955
:1028700050E40E940A1E60939C0170939D01809316
:102880009E0190939F0120E030E040E85FE30E94CA
:10289000371D18163CF441E050E050939B014093E3
:1028A0009A0104C010929B0110929A0189859A8521
:1028B000AB85BC858093A2019093A301A093A40152
:1028C000B093A50120E030E040E050E4BC01CD0130
:1028D0000E94231B18163CF0A1E0B0E0B093A101C8
:1028E000A093A00104C01092A1011092A00123E3C3
:1028F00033E948E853E469857A858B859C850E9495
:10290000B71A9B01AC0163E373E98AEB93E40E947D
:10291000281B6B017C0120E030E040E85FE30E946F
:10292000B61A4B015C0126E335EE4CEF50EC0E94E9
:102930000A1E2B013C01C701B6010E947E1D28E042
:1029400036EE40EA50E40E940A1E9B01AC01C3012E
:10295000B2010E94B71A2B013C01A701960160E069
:1029600070E080E89FE30E94281B9B01AC0160E0BF
:1029700070E080E89FE30E94B61A26E031E845E364
:1029800051E40E940A1E9B01AC0160E070E080E20D
:1029900091E40E94771E20E030E040E85FE30E946F
:1029A000B61A22E239E544E154EB0E940A1E9B016B
:1029B000AC01C301B2010E94B71A6B017C0122E98C
:1029C00034E74FE550ECC501B4010E940A1E9B019B
:1029D000AC0160E070E080E291E40E94771E20E0AC
:1029E00030E040E85FE30E94B61A20E73FE345E0AD
:1029F0005CE30E940A1E9B01AC01C701B6010E9464
:102A0000B71A22EA3DE540E450E40E94B71A20E0FC
:102A100030E040E450E40E94B61A9B01AC0160E053
:102A200070E080E291E40E94771E29813A814B8117
:102A30005C810E940A1E24E13CE54CE15FE30E94B8
:102A4000281B0E948E1D6B017C0128E431EE41E7BA
:102A500053E40E940A1E4B015C01A701960169EC38
:102A600076E78CE891E40E94B61A9B01AC01C5019F
:102A7000B4010E94281B60938601709387018093A4
:102A800088019093890120E030E040E050E40E940A
:102A9000B71A9B01AC0169857A858B859C850E945C
:102AA000231B18166CF0E1E0F0E0F0938501E09351
:102AB000840134E6632E712CC12CD12C760105C023
:102AC0001092850110928401F4CF60E08FE00E94A3
:102AD0002D0461E080E10E94FD038FE00E94F3017C
:102AE0008C0160E080E10E94FD0361E08FE00E94C4
:102AF0002D04B801012E000C880B990B0E94121CAA
:102B000020E030E048EF51E40E940A1E4B015C01D6
:102B10006FEF73E0601B710B072E000C880B990B95
:102B20000E94121C9B01AC01C501B4010E94281B2C
:102B30009B01AC01C701B6010E94B71A6B017C0171
:102B4000F1E06F1A710809F0C0CF20E030E048ECE6
:102B500052E40E94281B60935C0170935D01809396
:102B60005E0190935F0120E030E048EC52E40E9467
:102B7000371D18163CF421E030E030936F022093AB
:102B80006E0204C010926F0210926E0220E030E0DC
:102B900040E251E4609166017091670180916801A3
:102BA000909169010E94371D18163CF441E050E0F5
:102BB000509361014093600104C010926101109232
:102BC000600188E391E00E94800A6091A201709107
:102BD000A3018091A4019091A5010E94820A89E33A
:102BE00091E00E94800A8091A0019091A1010E9431
:102BF000850A89E391E00E94800A60919C017091AE
:102C00009D0180919E0190919F010E94820A89E31B
:102C100091E00E94800A80919A0190919B010E940C
:102C2000850A89E391E00E94800A60919601709183
:102C3000970180919801909199010E94820A89E3FD
:102C400091E00E94800A60919201709193018091BD
:102C50009401909195010E94820A89E391E00E947B
:102C6000800A60918E0170918F0180919001909106
:102C700091010E94820A89E391E00E94800A60919A
:102C80008A0170918B0180918C0190918D010E943D
:102C9000820A89E391E00E94800A60918601709126
:102CA000870180918801909189010E94820A89E3BD
:102CB00091E00E94800A80918401909185010E9498
:102CC000850A89E391E00E94800A609180017091F9
:102CD000810180918201909183010E94820A89E39F
:102CE00091E00E94800A60917C0170917D01809149
:102CF0007E0190917F010E94820A89E391E00E9407
:102D0000800A609178017091790180917A019091A7
:102D10007B010E94820A89E391E00E94800A60910F
:102D200074017091750180917601909177010E94F4
:102D3000820A89E391E00E94800A80917201909159
:102D400073010E94850A89E391E00E94800A6091E4
:102D50006E0170916F0180917001909171010E94DC
:102D6000820A89E391E00E94800A60916A01709171
:102D70006B0180916C0190916D010E94820A89E340
:102D800091E00E94800A60916601709167018091D4
:102D90006801909169010E94820A89E391E00E9492
:102DA000800A609162017091630180916401909149
:102DB00065010E94820A89E391E00E94800A809165
:102DC0006001909161010E94850A89E391E00E946F
:102DD000800A60915C0170915D0180915E0190912B
:102DE0005F010E94820A89E391E00E94800A80913B
:102DF0006E0290916F020E94850A89E391E00E9421
:102E0000800A609104017091050180910601909102
:102E100007010E94820A89E391E00E94800A609182
:102E2000DD037091DE038091DF039091E0030E9447
:102E3000820A89E391E00E94800A6091D90370912F
:102E4000DA038091DB039091DC0342E00E94AC093D
:102E50008BE391E00E9459090E94A30460937802D9
:102E60007093790280937A0290937B02109274029D
:102E700010927502109276021092770280E090E034
:102E8000AAE7B4E48093700290937102A093720257
:102E9000B093730280916E0290916F02019791F44A
:102EA00020E030E048E452E420930401309305012F
:102EB000409306015093070126EAA22E21E0B22E8C
:102EC00085010DC080E090E0A8ECB1E4809304019E
:102ED00090930501A0930601B0930701EDCF81E126
:102EE0000E94F301D8018D939D938D01B2E00E36BF
:102EF0001B07A9F7C12CD12C7601F50161917191C5
:102F00005F01072E000C880B990B0E94121C9B017D
:102F1000AC01C701B6010E94B71A6B017C01FEE645
:102F2000AF16F2E0BF0649F720E030E048EC52E48B
:102F30000E94281B9B01AC0160E070EC8FE794E4D9
:102F40000E94281B20E030E040E85FE30E94B61AB0
:102F50009B01AC0160E072E785EB97E40E94281BBF
:102F600020E030E543EC57E40E94281B0E948E1DB0
:102F700020E030EC40E855E40E94281B2FE03FECB5
:102F80004BE55BE30E94B71A9B01AC0160E070E087
:102F900080E89FE30E94281B23E333E948E853E4D9
:102FA0000E94B61A9B01AC016093DD037093DE03AF
:102FB0008093DF039093E003609104017091050119
:102FC00080910601909107010E94B61A6B017C0165
:102FD00020E030E0A9010E94371D181624F0F7FA0E
:102FE000F094F7F8F09420E030E040E050E4C701BE
:102FF000B6010E94231B87FF0DC0E12CF12C00E8D5
:103000001EE32DEC3CEC4CE45DE360E070E080E816
:103010009FE30CC0E12CF12C00E81FE320E030E03E
:1030200040E450E460E070E080EC90E40E94270C03
:1030300080911B04882309F440C10E94A30469877E
:103040007A878B879C878091030490910404A091D8
:103050000504B091060449855A856B857C85481B1B
:10306000590B6A0B7B0B80910F0490911004A09177
:103070001104B0911204481759076A077B0708F436
:103080001CC1E091FD03F091FE03408051806280FD
:103090007380E0910104F0910204A3019201608128
:1030A0007181828193810E94B61A6B017C0120910B
:1030B0000B0430910C0440910D0450910E04C30197
:1030C000B2010E94B61A69837A838B839C83209114
:1030D000F1033091F2034091F3035091F403C701DF
:1030E000B6010E940A1E2091070430910804409105
:1030F000090450910A040E94B71A4B015C016093C5
:103100000704709308048093090490930A04309094
:103110001C0431101CC02091ED033091EE0340914E
:10312000EF035091F00369817A818B819C810E9429
:103130000A1E9B01AC01C501B4010E94B61A60933E
:103140000704709308048093090490930A04209163
:103150000704309108044091090450910A042D831A
:103160003E834F83588700911704109118043091C3
:1031700019043D8720901A0498014D85522D6D81C8
:103180007E818F8198850E94371D181664F4C801CE
:10319000AD85B22D8093070490930804A093090491
:1031A000B0930A041AC08090130490901404A09065
:1031B0001504B0901604A50194016D817E818F8164
:1031C00098850E94231B87FF08C080920704909275
:1031D0000804A0920904B0920A04332079F02091E7
:1031E000ED033091EE034091EF035091F003C701DE
:1031F000B6010E940A1E6B017C0103C0C12CD12CB8
:1032000076012091F5033091F6034091F703509138
:10321000F80369817A818B819C810E940A1E9B013F
:10322000AC016091070470910804809109049091A9
:103230000A040E94B61A9B01AC01C701B6010E94A4
:10324000B71A6B017C0198014D85522D0E94371DE4
:103250001816A4F000911304109114044091150461
:103260004D87209016049801522DB601C7010E9487
:10327000231B87FD03C08601ED862F2CE091FF0301
:10328000F0910004C801AD85B22D80839183A283A3
:10329000B38340920B0450920C0460920D04709220
:1032A0000E0489859A85AB85BC8580930304909331
:1032B0000404A0930504B09306046091D9037091AF
:1032C000DA038091DB039091DC030E94D41B6B0135
:1032D0007C018B0161E08BE00E942D04C114D104BC
:1032E00011F460E004C00F3F110529F461E08BE0A8
:1032F0000E94FD0343C0E3E1F1E084918330F9F0E3
:1033000048F48130B9F08230A1F584B5806284BD83
:10331000C8BC34C08730E9F0883019F1843049F5F1
:1033200080918000806280938000D0928B00C09258
:103330008A0024C084B5806884BDC7BC1FC080914A
:103340008000806880938000D0928900C0928800BD
:1033500015C08091B00080688093B000C092B30027
:103360000DC08091B00080628093B000C092B40024
:1033700005C0003811050CF0B9CFB3CF0E94BA01D7
:103380000C9419110F931F93CF93DF93E0E3F3E0B5
:103390001382128288EE93E0A0E0B0E084839583EC
:1033A000A683B7832CE031E031832083ECE3F3E0A4
:1033B0001382128284839583A683B7838EE191E082
:1033C0009183808385EC90E09587848784EC90E0FE
:1033D0009787868780EC90E0918B808B81EC90E0E2
:1033E000938B828B82EC90E0958B848B86EC90E0C3
:1033F000978B868B118E128E138E148EA1E6B4E0FD
:1034000082E015968C93159786E116968C93169705
:10341000E2E3F1E0E4911796EC931797EEE1F1E027
:10342000E4911896EC93189740E85EE360E070E052
:103430001D964D935D936D937C935097AFE4B4E0EC
:1034400094E015969C93159716968C931697E4E343
:10345000F1E0E4911796EC931797E0E2F1E0E49144
:103460001896EC9318971D964D935D936D937C93EE
:103470005097EEE1F4E08FEF81878287838784871E
:103480008AE580931D04C1EED3E089ED93E09F8F20
:103490008E8F8DED93E09D8F8C8F84E091E099A3CA
:1034A00088A31AAE1AAA1BAA1CAA1DAA80E090E043
:1034B000AFE7B3E48EAB9FABA8AFB9AF84E690E0C3
:1034C000A0E0B0E08EA79FA7A8ABB9AB198E188E6D
:1034D00081E090E09B8F8A8F8BAF80E090E0A0E846
:1034E000BFE388839983AA83BB834DEC5CEC6CE4D7
:1034F0007DE34C835D836E837F8340E050E060E832
:103500007EE3488759876A877B878C879D87AE874C
:10351000BF878BE097EDA3EABBE3888B998BAA8BDF
:10352000BB8B80E090E0A0E2B0E48C8B9D8BAE8BF7
:10353000BF8B0E94A3040EA51FA528A939A9DC01F1
:10354000CB01801B910BA20BB30B8AA39BA3ACA353
:10355000BDA3DF91CF911F910F910895F8940C9422
:10356000B92081E090E0F8940C94B9205058BB2722
:10357000AA270E94CE1A0C94FD1C0E94EF1C38F062
:103580000E94F61C20F039F49F3F19F426F40C94A5
:10359000B51C0EF4E095E7FB0C94AF1CE92F0E94DC
:1035A0000E1D58F3BA17620773078407950720F0BA
:1035B00079F4A6F50C94301D0EF4E0950B2EBA2F7D
:1035C000A02D0B01B90190010C01CA01A001112429
:1035D000FF27591B99F0593F50F4503E68F11A16D5
:1035E000F040A22F232F342F4427585FF3CF469566
:1035F00037952795A795F0405395C9F77EF41F1688
:10360000BA0B620B730B840BBAF09150A1F0FF0F51
:10361000BB1F661F771F881FC2F70EC0BA0F621F3D
:10362000731F841F48F4879577956795B795F7952D
:103630009E3F08F0B0CF9395880F08F09927EE0FC2
:103640009795879508950E948B1C08F481E0089552
:103650000E943C1B0C94FD1C0E94F61C58F00E941A
:10366000EF1C40F029F45F3F29F00C94AF1C51117E
:103670000C94311D0C94B51C0E940E1D68F3992307
:10368000B1F3552391F3951B550BBB27AA2762175E
:103690007307840738F09F5F5F4F220F331F441F6B
:1036A000AA1FA9F335D00E2E3AF0E0E832D091509F
:1036B0005040E695001CCAF72BD0FE2F29D0660F8C
:1036C000771F881FBB1F261737074807AB07B0E8CF
:1036D00009F0BB0B802DBF01FF2793585F4F3AF0D5
:1036E0009E3F510578F00C94AF1C0C94311D5F3F48
:1036F000E4F3983ED4F3869577956795B795F7955B
:103700009F5FC9F7880F911D9695879597F9089542
:10371000E1E0660F771F881FBB1F621773078407DE
:10372000BA0720F0621B730B840BBA0BEE1F88F7ED
:10373000E095089529F416F00C94AF1C0C94301DFC
:103740000C94B51C0E94161DA8F39638A0F707F834
:103750000F92E8942BE33AEA48EB5FE70E94201EC1
:103760000F920F920F924DB75EB70F920E94D61D27
:10377000E8E6F0E00E94C81C4F915F91EF91FF9145
:10378000E595EE1FFF1F49F0FE57E0684427EE0F56
:10379000441FFA95E1F74195550B0E94481D0F9083
:1037A00007FE0C943C1D08950E94DB1B6894B11128
:1037B0000C94311D08950E94161D88F09F5798F0B3
:1037C000B92F9927B751B0F0E1F0660F771F881F26
:1037D000991F1AF0BA95C9F714C0B13091F00E9440
:1037E000301DB1E008950C94301D672F782F882785
:1037F000B85F39F0B93FCCF3869577956795B39567
:10380000D9F73EF490958095709561957F4F8F4FD5
:103810009F4F089597FB16F40E94B81C0C944E1C01
:10382000E89409C097FB3EF490958095709561955A
:103830007F4F8F4F9F4F9923A9F0F92F96E9BB2710
:103840009395F695879577956795B795F111F8CF8C
:10385000FAF4BB0F11F460FF1BC06F5F7F4F8F4FF7
:103860009F4F16C0882311F096E911C0772321F0ED
:103870009EE8872F762F05C0662371F096E8862F85
:1038800070E060E02AF09A95660F771F881FDAF7DC
:10389000880F9695879597F90895E894F92F96EBF8
:1038A000FF2381F0121613061406440B9395F69528
:1038B00087957795679557954040FF23B9F71BC0CB
:1038C00099270895882351F49850D2F7872B762FA3
:1038D000652F542F432F322F20E0B1F31216130619
:1038E0001406440B88233AF09A95440F551F661F1F
:1038F000771F881FCAF755234AF4440F551F11F448
:1039000060FF04C06F5F7F4F8F4F9F4F880F96956A
:10391000879597F90895990F0008550FAA0BE0E8CD
:10392000FEEF16161706E807F907C0F01216130681
:10393000E407F50798F0621B730B840B950B39F4C1
:103940000A2661F0232B242B252B21F408950A2627
:1039500009F4A140A6958FEF811D811D089597F967
:103960009F6780E870E060E008959FEF80EC089525
:1039700090958095709560955095409530952195DE
:103980003F4F4F4F5F4F6F4F7F4F8F4F9F4F089568
:10399000DF93CF931F930F93FF92EF92DF927B0100
:1039A0008C01689406C0DA2EEF010E941D1EFE01F4
:1039B000E894A5912591359145915591A6F3EF0194
:1039C0000E94CE1AFE019701A801DA9469F7DF90F0
:1039D000EF90FF900F911F91CF91DF9108950024F8
:1039E0000A941616170618060906089500240A9464
:1039F00012161306140605060895092E0394000CEA
:103A000011F4882352F0BB0F40F4BF2B11F460FF78
:103A100004C06F5F7F4F8F4F9F4F089557FD9058A1
:103A2000440F551F59F05F3F71F04795880F97FB82
:103A3000991F61F09F3F79F087950895121613063C
:103A40001406551FF2CF4695F1DF08C0161617066B
:103A50001806991FF1CF86957105610508940895A0
:103A6000E894BB2766277727CB0197F908950E9432
:103A70008B1C08F48FEF08959B01AC0160E070E0AF
:103A800080E89FE30C94281B0C94AF1C0C94CC1E74
:103A90000E94161DD8F39923C9F3940F511DA3F367
:103AA0009150504094F059F0882332F0660F771F00
:103AB000881F91505040C1F79E3F51052CF7880F49
:103AC000911D9695879597F908955F3FACF0983EC4
:103AD0009CF0BB27869577956795B79508F4B160FC
:103AE0009395C1F7BB0F58F711F460FFE8CF6F5FF4
:103AF0007F4F8F4F9F4FE3CF0C94311D0E948E1D3F
:103B000029ED3BE54EED5EE30C940A1E16F00C9495
:103B1000CC1E0C94B51C68940C94AF1C0E94161D0E
:103B2000A8F39923C1F3AEF3DF93CF931F930F93C1
:103B3000FF92C92FDD2788232AF02197660F771F70
:103B4000881FDAF720E030E040E85FEB9FE3883938
:103B500020F0803E38F021968F770E94B71AE0E976
:103B6000F0E004C00E94B71AEDEBF0E00E94C81C20
:103B70008B01BE01EC01FB2E6F5771097595771F04
:103B8000880B990B0E94121C28E132E741E35FE3A6
:103B90000E941D1EAF2D9801AE01FF900F911F9145
:103BA000CF91DF910E94CE1A0C94FD1CFA01DC012A
:103BB000AA0FBB1F9B01AC01BF5728F42227332754
:103BC0004427507820C0B75190F4AB2F002446957D
:103BD00037952795011CA395D2F3002071F0220F91
:103BE000331F441FB395DAF30ED00C94B61A61302C
:103BF0007105A0E88A07B94630F49B01AC0166273D
:103C0000772788279078309621F02083318342836C
:103C1000538308950E941D1E0C94FD1C0E94EF1CEE
:103C200038F00E94F61C20F0952311F00C94AF1C84
:103C30000C94B51C11240C94311D0E940E1D70F3C0
:103C4000959FC1F3950F50E0551F629FF001729F41
:103C5000BB27F00DB11D639FAA27F00DB11DAA1F50
:103C6000649F6627B00DA11D661F829F2227B00D9D
:103C7000A11D621F739FB00DA11D621F839FA00D28
:103C8000611D221F749F3327A00D611D231F849F78
:103C9000600D211D822F762F6A2F11249F575040CF
:103CA0009AF0F1F088234AF0EE0FFF1FBB1F661F4A
:103CB000771F881F91505040A9F79E3F510580F013
:103CC0000C94AF1C0C94311D5F3FE4F3983ED4F389
:103CD000869577956795B795F795E7959F5FC1F7B7
:103CE000FE2B880F911D9695879597F90895FA01F7
:103CF000EE0FFF1F309621053105A1F16115710509
:103D000061F48038BFE39B0749F1689490388105DE
:103D100061F08038BFEF9B0741F099234AF5FF3FE0
:103D2000E1053105210519F1E8940894E795D901D9
:103D3000AA2329F4AB2FBE2FF85FD0F310C0FF5F8A
:103D400070F4A695E0F7F73950F019F0FF3A38F41F
:103D50009F779F930DD00F9007FC9058089546F0E1
:103D60000C94B51C60E070E080E89FE308954FE795
:103D70009F775F934F933F932F930E948E1D2F91B8
:103D80003F914F915F910E940A1E0C94A21B0E94CA
:103D90008B1C880B990B08959F3F31F0915020F4B4
:103DA000879577956795B795880F911D9695879517
:103DB00097F90895DB018F939F930E940C1FBF9189
:103DC000AF91A29F800D911DA39F900DB29F900D6A
:103DD00011240895A1E21A2EAA1BBB1BFD010DC0E0
:103DE000AA1FBB1FEE1FFF1FA217B307E407F507AB
:103DF00020F0A21BB30BE40BF50B661F771F881F87
:103E0000991F1A9469F760957095809590959B011C
:103E1000AC01BD01CF0108950E94AA20A59F900D7D
:103E2000B49F900DA49F800D911D11240895B7FF9C
:103E30000C940C1F0E940C1F821B930B0895DF93A0
:103E4000CF931F930F939A9DF02D219FF00D8B9D83
:103E5000F00D8A9DE02DF10D039FF00D029FE00D06
:103E6000F11D4E9DE00DF11D5E9DF00D4F9DF00D7D
:103E70007F936F93BF92AF925F934F93D5010E9450
:103E8000AA208B01AC01D7010E94AA20EB01E80F08
:103E9000F91FD6010E946F1F2F913F91D6010E94FA
:103EA000AA20C60FD71FE81FF91FAF91BF910E942C
:103EB0006F1F2F913F910E94AA20C60FD71FE81FA6
:103EC000F91FD6010E94AA20E60FF71F9801BE0134
:103ED000CF0111240F911F91CF91DF9108950E947E
:103EE000AA20460F571FC81FD91F08F431960895FE
:103EF000689401C0E894F92FF12B12F00C94AC1FD8
:103F0000A0E0B0E0E6E8FFE10C941E20092E059445
:103F100022F40E940820112392F4F0E80F26FFEF0C
:103F2000E094F09400951095B094C094D094A1942E
:103F3000BF0ACF0ADF0AEF0AFF0A0F0B1F0B0E940E
:103F4000B71F07FC0E940820CDB7DEB7ECE00C9449
:103F50003A20689401C0E8948F929F92CF93DF93A8
:103F60000E94B71FDF91CF919F908F900895882472
:103F70009924F401E401B0E49F93AA279A158B04D5
:103F80009C04ED05FE05CF05D007A10798F4AD2FE1
:103F9000DC2FCF2FFE2FE92D982C892E982F872FDD
:103FA000762F652F542F432F322F2227B85031F709
:103FB000BF9127C01B2EBF91BB27220F331F441F69
:103FC000551F661F771F881F991F881C991CEE1F9D
:103FD000FF1FCC1FDD1FAA1FBB1F8A149B04EC050B
:103FE000FD05CE05DF05A007B10748F08A189B083C
:103FF000EC09FD09CE09DF09A00BB10B21601A9471
:10400000E1F62EF49401AF01BE01CD01000C08953C
:104010006095709580959095309540955095219537
:104020003F4F4F4F5F4F6F4F7F4F8F4F9F4F0895C1
:104030002F923F924F925F926F927F928F929F92B8
:10404000AF92BF92CF92DF92EF92FF920F931F93A6
:10405000CF93DF93CDB7DEB7CA1BDB0B0FB6F89457
:10406000DEBF0FBECDBF09942A88398848885F8497
:104070006E847D848C849B84AA84B984C884DF8008
:10408000EE80FD800C811B81AA81B981CE0FD11DEC
:104090000FB6F894DEBF0FBECDBFED0108950F93AC
:1040A000083090F0982F872F762F652F542F432FAD
:1040B000322F22270850F4CF220F331F441F551FE1
:1040C000661F771F881F991F0A95B2F70F910895F1
:1040D00097FB10F8169400080F93083098F00850DA
:1040E000232F342F452F562F672F782F892F902D70
:1040F000F4CF05949795879577956795579547954C
:10410000379527950A95AAF70F9108952A0D3B1D1B
:104110004C1D5D1D6E1D7F1D801F911F08952A1966
:104120003B094C095D096E097F09800B910B0895CD
:104130000024A7FD00942A173005400550056005AE
:104140007005800590050895EE0FFF1F0590F4910E
:10415000E02D0994A29FB001B39FC001A39F700DF1
:10416000811D1124911DB29F700D811D1124911D7F
:064170000895F894FFCF52
:104176000A020A020000C841000000006002300284
:10418600F001CA05E100CD00CB05000000004701A3
:10419600C401E9008E011A01F8000C010000803FFD
:1041A600CDCC4C3D0000803E4E3A000D0A006E61BB
:0A41B6006E00696E66006F76660009
:00000001FF
