:100000000C94A3000C9461030C943A030C94CB0061
:100010000C94CB000C94CB000C94CB000C94CB0034
:100020000C94CB000C94CB000C94CB000C94CB0024
:100030000C94CB000C94CB000C94CB000C94CB0014
:100040000C941F050C94CB000C9408030C94E20252
:100050000C94CB000C94CB000C94CB000C94CB00F4
:100060000C94700A0C94CB0007634236B79BD8A758
:100070001A39685618AEBAAB558C1D3CB7CC5763CD
:10008000BD6DEDFD753EF6177231BF000000803F7B
:1000900008000000BE922449123EABAAAA2ABECD97
:1000A000CCCC4C3E00000080BEABAAAAAA3E000009
:1000B0000000BF000000803F000000000008417801
:1000C000D3BB4387D1133D190E3CC3BD4282AD2B38
:1000D0003E68EC8276BED98FE1A93E4C80EFFFBE30
:1000E00001C4FF7F3F000000000000000000250069
:1000F00028002B0000000000240027002A00000038
:100100000000230026002900000000080002010072
:1001100000030407000000000000000004040404C1
:1001200004040404020202020202030303030303A1
:10013000010204081020408001020408102001027E
:1001400004081020A81911241FBECFEFD8E0DEBF8D
:10015000CDBF11E0A0E0B1E0E2E4F1E402C005901F
:100160000D92A235B107D9F724E0A2E5B1E001C0B4
:100170001D92AB37B207E1F710E0C3EAD0E004C04C
:100180002197FE010E948A20C23AD107C9F70E9436
:10019000400E0C94941A0C940000FC01538D448D75
:1001A000252F30E0842F90E0821B930B541710F022
:1001B000CF96089501970895FC01918D828D98172F
:1001C00061F0828DDF01A80FB11D5D968C91928D3B
:1001D0009F5F9F73928F90E008958FEF9FEF089538
:1001E000FC01918D828D981731F0828DE80FF11D01
:1001F000858D90E008958FEF9FEF0895FC01918D1C
:10020000228D892F90E0805C9F4F821B91098F7314
:1002100099270895FC01848DDF01A80FB11DA35A11
:10022000BF4F2C91848D90E001968F739927848F16
:10023000A689B7892C93A089B1898C9180648C930D
:10024000938D848D981306C00288F389E02D8081F8
:100250008F7D80830895EF92FF920F931F93CF932A
:10026000DF93EC0181E0888F9B8D8C8D981305C006
:10027000E889F989808185FD24C0F62E0B8D10E078
:100280000F5F1F4F0F731127E02E8C8DE8120CC0EB
:100290000FB607FCFACFE889F989808185FFF5CF91
:1002A000CE010E940A01F1CF8B8DFE01E80FF11DF6
:1002B000E35AFF4FF0820B8FEA89FB8980818062CD
:1002C00007C0EE89FF896083E889F98980818064AD
:1002D000808381E090E0DF91CF911F910F91FF909B
:1002E000EF900895CF93DF93EC01888D8823C9F0B8
:1002F000EA89FB89808185FD05C0A889B9898C912F
:1003000086FD0FC00FB607FCF5CF808185FFF2CFC9
:10031000A889B9898C9185FFEDCFCE010E940A0191
:10032000E7CFDF91CF91089584E493E00E94FE002F
:1003300021E0892B09F420E0822F089580E090E0ED
:10034000892B29F00E94940181110C9400000895DA
:10035000CF92DF92EF92FF920F931F93CF93DF9391
:100360006C017A018B01C0E0D0E0CE15DF0589F089
:10037000D8016D918D01D601ED91FC910190F08134
:10038000E02DC6010995892B11F47E0102C021964A
:10039000ECCFC701DF91CF911F910F91FF90EF90AC
:1003A000DF90CF900895089580E090E008958E301A
:1003B00008F08E508770806480937C0080917A0072
:1003C000806480937A0080917A0086FDFCCF8091D2
:1003D00078002091790090E0922B089508953FB71E
:1003E000F89480915F0190916001A0916101B091BA
:1003F000620126B5A89B05C02F3F19F00196A11DEB
:10040000B11D3FBFBA2FA92F982F8827820F911DAA
:10041000A11DB11DBC01CD0142E0660F771F881FF1
:10042000991F4A95D1F70895CF93DF931F92CDB7C7
:10043000DEB76983209114032223D1F02091370382
:10044000203240F021E030E0FC013383228380E061
:1004500090E015C080911503E82FF0E0EA5EFC4FB4
:10046000998190838F5F809315038093370305C034
:1004700061E0CE0101960E949E0B81E090E00F901A
:10048000DF91CF9108958F929F92AF92BF92CF92BA
:10049000DF92EF92FF92C090AA01D090AB01E09062
:1004A000AC01F090AD012DEC3CEC4CEC5DE3C701F0
:1004B000B6010E94F01D0E94881B4B015C0123ECD9
:1004C00035EF48EA5EE3C701B6010E94F01D6B01FB
:1004D0007C012AE037ED43E25DE3C501B4010E94EF
:1004E000F01D9B01AC01C701B6010E949D1A9B0142
:1004F000AC01609184017091850180918601909199
:1005000087010E949C1AFF90EF90DF90CF90BF90E0
:10051000AF909F908F9008958F929F92AF92BF92CD
:10052000CF92DF92EF92FF920F931F93CF93DC0154
:100530001796CC911797662311F08C2F01C080E09D
:1005400018962C91189730E0220F331F22503F4FFE
:1005500040E050E0BA01F90105911491F801908151
:100560009C23981315C06A017B019FEFC91AD90A11
:10057000E90AF90A1D968D909D90AD90BC90509718
:10058000481559056A057B0538F4B701A601E3CF84
:10059000342F252FCB0104C030E020E080E090E034
:1005A000632F722FCF911F910F91FF90EF90DF90EB
:1005B000CF90BF90AF909F908F90089508958CBD7D
:1005C0009DBD08951F920F920FB60F9211242F9385
:1005D0003F934F935F936F937F938F939F93AF93CB
:1005E000BF93EF93FF9384E493E00E940A01FF918D
:1005F000EF91BF91AF919F918F917F916F915F919B
:100600004F913F912F910F900FBE0F901F90189513
:100610001F920F920FB60F9211242F938F939F93D7
:10062000EF93FF93E0915403F09155038081E091A3
:100630005A03F0915B0382FD12C0908180915D03AB
:100640008F5F8F7320915E03821751F0E0915D03FD
:10065000F0E0EC5BFC4F958F80935D0301C08081DF
:10066000FF91EF919F918F912F910F900FBE0F905F
:100670001F9018951F920F920FB60F9211242F936F
:100680003F934F935F936F937F938F939F93AF931A
:10069000BF93EF93FF93E0910201F091030109955D
:1006A000FF91EF91BF91AF919F918F917F916F914A
:1006B0005F914F913F912F910F900FBE0F901F9020
:1006C00018951F920F920FB60F9211242F933F93FC
:1006D0004F935F936F937F938F939F93AF93BF934A
:1006E000EF93FF93E0910001F09101010995FF91D3
:1006F000EF91BF91AF919F918F917F916F915F919A
:100700004F913F912F910F900FBE0F901F90189512
:10071000833081F028F4813099F08230A1F008957F
:100720008730A9F08830B9F08430D1F4809180000E
:100730008F7D03C0809180008F7780938000089523
:1007400084B58F7702C084B58F7D84BD0895809174
:10075000B0008F7703C08091B0008F7D8093B00090
:1007600008951F93CF93DF93282F30E0F901E85FBE
:10077000FE4F8491F901E05DFE4FD491F901E45EF2
:10078000FE4FC491CC23C9F0162F81110E9488031B
:10079000EC2FF0E0EE0FFF1FE651FF4FA591B49153
:1007A0008FB7F894111105C09C91ED2FE095E923C6
:1007B00002C0EC91ED2BEC938FBFDF91CF911F9195
:1007C0000895CF93DF9390E0FC01E05DFE4F24910C
:1007D000FC01E45EFE4F8491882361F190E0880F74
:1007E000991FFC01EC50FF4FC591D491FC01E651DB
:1007F000FF4FA591B491611109C09FB7F89488810A
:10080000209582238883EC912E230BC0623061F403
:100810009FB7F8943881822F809583238883EC9149
:100820002E2B2C939FBF06C08FB7F894E8812E2BF8
:1008300028838FBFDF91CF9108958F929F92AF92BF
:10084000BF92CF92DF92EF92FF926B017C010E94E8
:10085000EF014B015C01C114D104E104F104F1F09A
:100860000E94EF01DC01CB0188199909AA09BB0993
:10087000883E9340A105B10570F321E0C21AD1086A
:10088000E108F10888EE880E83E0981EA11CB11CD7
:10089000C114D104E104F10419F7DDCFFF90EF900A
:1008A000DF90CF90BF90AF909F908F9008952FB71B
:1008B000F89460915B0170915C0180915D01909171
:1008C0005E012FBF0895CF92DF92EF92FF920E94B8
:1008D00057046B017C01609356017093570180931C
:1008E0005801909359018091520190915301A09128
:1008F0005401B0915501A7019601281B390B4A0BF1
:100900005B0B233331054105510508F453C0809139
:100910007C0290917D02A0917E02B0917F020196AF
:10092000A11DB11D80937C0290937D02A0937E0255
:10093000B0937F028091520190915301A091540194
:10094000B0915501A7019601281B390B4A0B5B0B8F
:10095000CA01B9010E94F61B2091780230917902F8
:1009600040917A0250917B020E94091B87FF1AC0B6
:100970008091520190915301A0915401B091550181
:10098000A7019601281B390B4A0B5B0BCA01B90161
:100990000E94F61B609378027093790280937A022A
:1009A00090937B02C0925201D0925301E092540185
:1009B000F0925501209178023091790240917A02AB
:1009C00050917B026AE979E989E190E40E940E1B6B
:1009D00020E030E04AE754E40E94F01D60936E018D
:1009E00070936F01809370019093710160917C020C
:1009F00070917D0280917E0290917F020E94F61B91
:100A00002AE939E949E150E40E94F01D20E030E490
:100A10004CE955E40E940E1B20E030E04AE754E424
:100A20000E94F01D609372017093730180937401B2
:100A300090937501FF90EF90DF90CF9008951F92F3
:100A40000F920FB60F9211242F933F938F939F9382
:100A5000AF93BF9380915B0190915C01A0915D0188
:100A6000B0915E0130915A0123E0230F2D3720F41D
:100A70000196A11DB11D05C026E8230F0296A11DF8
:100A8000B11D20935A0180935B0190935C01A09368
:100A90005D01B0935E0180915F0190916001A09132
:100AA0006101B09162010196A11DB11D80935F01AA
:100AB00090936001A0936101B0936201BF91AF91E7
:100AC0009F918F913F912F910F900FBE0F901F908C
:100AD0001895E0914403F09145030190F081E02DD9
:100AE000682F84E493E0099485ED8093BC008091A5
:100AF000BC0084FDFCCF1092130308950895E0918B
:100B0000CC028091CB02E81730F4F0E0E353FD4FC4
:100B1000808190E008958FEF9FEF08959091CC022F
:100B20008091CB02981750F4E92FF0E0E353FD4F8A
:100B3000208130E09F5F9093CC0202C02FEF3FEF07
:100B4000C90108958091CB0290E02091CC02821BD4
:100B5000910908958F929F92AF92BF92CF92DF92A8
:100B6000EF92FF920F931F93CF93DF93CDB7DEB732
:100B7000C054D1400FB6F894DEBF0FBECDBF8C017C
:100B80000E945704F801C184D284E384F4849B0159
:100B9000AC012C193D094E095F0969017A0130ED5C
:100BA000C31637E0D306E104F10410F48189B4C020
:100BB000F801618772878387948714821382128277
:100BC0001182108261E085810E94B1036AEF70E0BA
:100BD00080E090E00E941D0461E0F80185810E94A0
:100BE000E10360E0F80185810E94B10364E170E0F7
:100BF00080E090E00E941D04F89461E0F801858196
:100C00000E94B1038BE990E00197F1F762E0F801EF
:100C100085810E94E10383E290E00197F1F760E0B3
:100C2000C8010E948C02672B682B692B21F4F80104
:100C3000118A789442C061E0C8010E948C02672B3F
:100C4000682B692BA1F39E012F5F3F4F79015E0155
:100C50003FEBA31A3EEFB30A670160E0C8010E94B0
:100C60008C02F601608371838283938361E0C80103
:100C70000E948C02F6016483758386839783F8E073
:100C8000CF0ED11CCA14DB0441F7789420E030E089
:100C9000F701408151816281738184809580A680B3
:100CA000B780411551056105710529F08114910442
:100CB000A104B10421F4F801118A80E02DC0F901EA
:100CC00083E0F595E7958A95E1F7E00FF11F8081C4
:100CD000880F481559056A057B0508F481608083F3
:100CE0002F5F3F4FF8E0EF0EF11C2832310581F6FF
:100CF000F801248130E04081818190E0840F911DD2
:100D00004281840F911D4381840F911D99272817DB
:100D1000390789F681E0818BC05CDE4F0FB6F8940D
:100D2000DEBF0FBECDBFDF91CF911F910F91FF901E
:100D3000EF90DF90CF90BF90AF909F908F900895ED
:100D40000E94971ACF93C82F80912F048F3FE9F408
:100D50008091260491E090931403809336031092BF
:100D60001503109237036C2F88E393E00E9414025E
:100D70000E94AD0D61E0809126040E94F50D88E38C
:100D800093E00E948E05C82F20C0809132048F3FCF
:100D900021F482E591E00E94DF0260E080912F045F
:100DA0000E94B1038C2F80680E94F00C80E00E94AA
:100DB000F00CC82F61E080912F040E94B103809154
:100DC00032048F3F11F40E94DE028C2FCF910895E0
:100DD000CF93DF93C82F80912F048F3F39F58091F7
:100DE000260491E090931403809336031092150328
:100DF000109237036C2F88E393E00E9414020E9444
:100E0000AD0D62E0809126040E94F50D88E393E029
:100E10000E948E05C82F88E393E00E948E0520E093
:100E200030E03C2FE901C82BD92B29C08091320436
:100E30008F3F21F482E591E00E94DF0260E0809123
:100E40002F040E94B1038C2F80680E94F00C80E078
:100E50000E94F00CC82F80E00E94F00C2C2F30E094
:100E6000322F2227E901C82B61E080912F040E94D4
:100E7000B103809132048F3F11F40E94DE029C2F57
:100E80008D2FDF91CF910895CF92DF92EF92FF9255
:100E90001F93CF93DF93EC010E94AA058823B1F141
:100EA0008E818B3029F090F18551823040F02EC038
:100EB0006A8170E080E090E00E94F61B2BC01A81EE
:100EC000612F6F7770E080E090E00E94F81B20E0D7
:100ED00030E040E853E40E94F01D6B017C018B81FF
:100EE000682F70E080E090E00E94F81B9B01AC014D
:100EF000C701B6010E949D1A2DEC3CEC4CEC5DE361
:100F00000E94F01D17FF06C0905804C060E070E01A
:100F100080EC9FE7DF91CF911F91FF90EF90DF90E2
:100F2000CF900895CF92DF92EF92FF92CF93DF930D
:100F3000EC010E94AA05882381F18E818B3031F16A
:100F400060F18551823048F5688170E080E090E082
:100F50000E94F61B20E030E040E853E40E94F01DC0
:100F60006B017C018981682F70E080E090E00E9435
:100F7000F81B9B01AC01C701B6010E949D1A2DEC24
:100F80003CEC4CEC5DE30E94F01D0BC0688170E00E
:100F900080E090E00E94F61B04C060E070E080EC0E
:100FA0009FE7DF91CF91FF90EF90DF90CF90089572
:100FB000CF92DF92EF92FF92CF93C82F80912F04B0
:100FC0008F3F09F040C08091260491E09093140374
:100FD0008093360310921503109237036C2F88E329
:100FE00093E00E9414020E94AD0D63E080912604FC
:100FF0000E94F50D88E393E00E948E056C01990F25
:10100000EE08FF08FE2CED2CDC2CCC2488E393E0CA
:101010000E948E05AC01990F660B770BC42AD52A66
:10102000E62AF72AFE2CED2CDC2CCC2488E393E076
:101030000E948E05AC01990F660B770BC42AD52A46
:10104000E62AF72A33C0809132048F3F21F482E5EB
:1010500091E00E94DF0260E080912F040E94B103C2
:101060008C2F80680E94F00C80E00E94F00CC82E4B
:10107000D12CE12CF12CFE2CED2CDC2CCC2480E0AE
:101080000E94F00CC82AFE2CED2CDC2CCC2480E035
:101090000E94F00CC82A61E080912F040E94B103E5
:1010A000809132048F3F11F40E94DE02C701B60125
:1010B000CF91FF90EF90DF90CF9008958F929F9205
:1010C000AF92BF92CF92DF92EF92FF928AEF0E948F
:1010D000D8076115710520E88207910509F47CC0E5
:1010E00040913304509134044A01A12CB12CC72EF5
:1010F000D82EE92EFF24E7FCFA94C818D908EA088C
:10110000FB08DC01CB0137E0B595A795979587954E
:101110003A95D1F7B501A401440F551F661F771FFB
:101120004C015D01841A950AA60AB70AA50194012B
:10113000A0913504B09136040E94FD1E4B015C0164
:10114000FBE0B594A79497948794FA95D1F7A701FB
:101150009601C701B6010E94C01E9B01AC01ACE024
:101160005595479537952795AA95D1F7A0913704BE
:10117000B09138040E94FD1EDC01CB012EE0B59534
:10118000A795979587952A95D1F7A5019401280FE2
:10119000391F4A1F5B1F20932B0430932C0440936C
:1011A0002D0450932E04A5E0B0E00E94F21EDC0155
:1011B000CB0180589F4FAF4FBF4F692F7A2F8B2F96
:1011C000992787FD9A950E94F81B20E030E048ECB3
:1011D00052E40E940E1B04C060E070E080EC9FE7C8
:1011E000FF90EF90DF90CF90BF90AF909F908F9047
:1011F0000895CF93DF939091250421E02093140369
:10120000909336031092150310923703682F88E3EA
:1012100093E00E94140280E00E94500D63E08091F0
:1012200025040E94F50D88E393E00E948E05EC01F1
:1012300088E393E00E948E0520E030E0382FC22B37
:10124000D32B88E393E00E948E05CE01DF91CF91EE
:101250000895009769F0FC0101900020E9F73197AB
:10126000AF01481B590BBC0184E493E00C94A80126
:1012700080E090E008958F929F92AF92BF920F937B
:101280001F93CF93DF93CDB7DEB7A1970FB6F89436
:10129000DEBF0FBECDBF19A2423008F44AE08E0176
:1012A0000F5D1F4F842E912CA12CB12CA501940110
:1012B0000E94D01EE62FB901CA0101501109EA307F
:1012C00014F4E05D01C0E95CD801EC93232B242BDE
:1012D000252B61F7C8010E942909A1960FB6F89441
:1012E000DEBF0FBECDBFDF91CF911F910F91BF9099
:1012F000AF909F908F9008950C9429098F929F92A0
:10130000AF92BF92CF92DF92EF92FF92CF93DF9393
:101310006B017C019B01AC010E94AD1E882319F07A
:1013200086E491E027C046015701E894B7F82FEF13
:101330003FEF4FE75FE7C501B4010E94AD1E811189
:101340000DC02FEF3FEF4FE75FE7C501B4010E94EB
:10135000091B18161CF48AE491E00CC02FEF3FEF34
:101360004FE75FE4C701B6010E941D1D181674F413
:101370008EE491E0DF91CF91FF90EF90DF90CF90DE
:10138000BF90AF909F908F900C9429092FEF3FEF63
:101390004FE75FECC701B6010E94091B87FDE8CF4C
:1013A00020E030E0A901C701B6010E94091B87FFB8
:1013B00009C08DE20E946905EC01F7FAF094F7F894
:1013C000F09402C0C0E0D0E02AE037ED43EA5BE3EE
:1013D000C701B6010E949D1A4B015C010E94C11B0E
:1013E0006B017C010E94F61B9B01AC01C501B4019D
:1013F0000E949C1A4B015C014AE0C701B6010E94A1
:101400003B09C80FD91F8EE20E946905C80FD91F7A
:1014100020E030E040E251E4C501B4010E94F01D3B
:101420004B015C010E94C11B6B01E12CF12C4AE0D5
:10143000C701B6010E943B09C80FD91FC701B601F9
:101440000E94F61B9B01AC01C501B4010E949C1ACD
:1014500020E030E040E251E40E94F01D0E94C11BF8
:1014600080E090E04AE00E943B098C0F9D1FDF91D5
:10147000CF91FF90EF90DF90CF90BF90AF909F9073
:101480008F900895CF92DF92EF92FF92CF93DF93E8
:101490006C01990FEE08FF08F7FE17C08DE20E945D
:1014A0006905EC0166277727CB016C197D098E0948
:1014B0009F094AE00E943B098C0F9D1FDF91CF914D
:1014C000FF90EF90DF90CF9008954AE0C701B601FA
:1014D000DF91CF91FF90EF90DF90CF900C943B097C
:1014E0001F920F920FB60F9211242F933F934F9399
:1014F0005F936F937F938F939F93AF93BF93EF937C
:10150000FF938091B900887F803609F49CC068F50C
:10151000883209F45BC090F4803109F454C038F487
:10152000882309F4F6C0883009F44DC0F6C088312C
:1015300009F44CC0803209F45DC0EFC0803409F476
:1015400068C048F4803309F455C0883309F0E5C019
:1015500080931103D8C0803509F44FC0883509F451
:101560005DC0883409F0D9C0D6C0883909F4C7C035
:10157000A8F4883709F467C038F4883609F463C0E2
:10158000803709F460C0C9C0883809F4B8C0803910
:1015900009F45FC0803809F0C0C05BC0803B09F42B
:1015A00086C038F4803A09F466C0883A09F47FC0EE
:1015B000B4C0803C09F4A7C0883C09F4A4C0883BAF
:1015C00009F48AC0AAC08091EE0210C09091100365
:1015D00080910F03981770F5E091100381E08E0F52
:1015E00080931003F0E0E151FD4F80818093BB00B8
:1015F00085EC86C0809311038EC0E091100381E0DA
:101600008E0F809310038091BB00F0E0E151FD4FFD
:1016100080839091100380910F036EC0E0911003BE
:1016200081E08E0F809310038091BB00F0E0E151C8
:10163000FD4F80838091120381116DC081E0809302
:10164000ED0284EA61C083E0809313031092CA0222
:10165000CFCF8091CA02803208F051C0E091CA0217
:1016600081E08E0F8093CA028091BB00F0E0E655C6
:10167000FD4F8083BDCF85EC8093BC001092130397
:101680008091CA02803230F4E091CA02F0E0E6555F
:10169000FD4F10826091CA0270E0E091A802F091C3
:1016A000A9028AEA92E009951092CA0236C084E043
:1016B000809313031092A7021092A602E091A40255
:1016C000F091A50209958091A602811105C081E0E3
:1016D0008093A60210928402E091A70281E08E0F0F
:1016E0008093A702F0E0EC57FD4F80818093BB0010
:1016F0009091A7028091A602981708F479CF85E807
:101700008093BC000AC085EC8093BC001092130348
:1017100004C0109211030E947405FF91EF91BF91D4
:10172000AF919F918F917F916F915F914F913F9179
:101730002F910F900FBE0F901F9018954091A60209
:10174000262F30E0240F311D21323105DCF42091A9
:1017500013032430C9F4FC0180E090E0861758F4AC
:101760003091A6022191DC01AC57BD4FA30FB11DF2
:101770002C930196F3CF8091A602680F6093A60286
:1017800080E0089581E0089582E00895CF92DF928D
:10179000EF92FF920F931F93CF93DF937C01262F3D
:1017A000972F8A0180911403882391F0C62FD72F99
:1017B0006E01C40ED51ECC15DD0571F06991D701FF
:1017C000ED91FC910190F081E02DC7010995F3CFD7
:1017D000642F822F0E949E0BC801DF91CF911F9131
:1017E0000F91FF90EF90DF90CF9008951092130328
:1017F00081E0809312031092ED0261E082E10E9489
:10180000B10361E083E10E94B103E9EBF0E0808184
:101810008E7F808380818D7F808388E48093B80071
:1018200085E48093BC0008954F925F926F927F92FF
:101830008F929F92AF92BF92CF92DF92EF92FF92E0
:101840000F931F93CF93DF9300D000D0CDB7DEB7B7
:101850004B015C0129013A01670178010091030401
:101860001091040420E030E0A9010E94091B87FDCB
:10187000A2C020E030E0A901C301B2010E94091B0F
:1018800087FD99C020E030E0A901C701B6010E94A0
:10189000091B87FD90C081E00130110509F080E04F
:1018A000809324048092E9039092EA03A092EB03D0
:1018B000B092EC034092ED035092EE036092EF037E
:1018C0007092F003C092F103D092F203E092F3031E
:1018D000F092F40360911704709118048091190438
:1018E00090911A040E94F61B20E030E04AE754E48D
:1018F0000E940E1B69837A838B839C838092F503FD
:101900009092F603A092F703B092F8039B01AC010A
:10191000C301B2010E94F01D2B013C016093F90349
:101920007093FA038093FB039093FC0329813A811F
:101930004B815C81C701B6010E940E1B6B017C01CB
:101940006093FD037093FE038093FF039093000464
:101950008091010490910204019769F5A501940119
:1019600060E070E0CB010E949C1A6093F5037093D5
:10197000F6038093F7039093F803A301920160E0CC
:1019800070E0CB010E949C1A6093F9037093FA03F4
:101990008093FB039093FC03A701960160E070E045
:1019A000CB010E949C1A6093FD037093FE03809309
:1019B000FF03909300040F900F900F900F90DF9112
:1019C000CF911F910F91FF90EF90DF90CF90BF903C
:1019D000AF909F908F907F906F905F904F90089501
:1019E000CF92DF92EF92FF920F931F93CF93DF93EB
:1019F000909132049F3F39F48EBD00000DB407FE74
:101A0000FDCF8EB544C0E82EC7E0D0E0D12C01E078
:101A100010E0DD0C60E0809132040E94B103B80157
:101A20000C2E01C0660F0A94EAF76E2180913004F3
:101A30000E94B10361E0809132040E94B1032091C1
:101A4000310430E0F901E85FFE4F8491F901E05D77
:101A5000FE4FC490F901E45EFE4FF490FF2071F058
:101A600081110E948803EF2DF0E0EE0FFF1FE2507E
:101A7000FF4FA591B491EC91EC2129F4219708F046
:101A8000C8CF8D2D04C08D2D8160D82EF7CFDF916A
:101A9000CF911F910F91FF90EF90DF90CF9008951D
:101AA000382F2091370390913603213208F049C036
:101AB000809113038111FCCF42E0409313033093D4
:101AC00012033FEF309311031092100320930F0382
:101AD000A6E1B3E04FEE52E0FA013E2F341B32177D
:101AE00018F43D913193F9CF1092EE022091EE025D
:101AF000990F922B9093EE029091ED02913061F448
:101B00001092ED029091EE029093BB009091BC0078
:101B100093FDF8CF95EC01C095EE9093BC009091A9
:101B200013039230E1F3909111039F3F79F080917C
:101B30001103803241F080911103803331F084E051
:101B400005C081E003C082E001C083E0109215036C
:101B50001092370310921403089581E00C94500DF5
:101B6000CF93DF93D82FC62F80912F048F3FC9F4D6
:101B70008091260491E09093140380933603109291
:101B80001503109237036D2F88E393E00E9414022F
:101B90006C2F88E393E00E941402DF91CF910C94A4
:101BA000AD0D809132048F3F21F482E591E00E94D7
:101BB000DF0260E080912F040E94B1038D2F8F77A8
:101BC0000E94F00C8C2F0E94F00C61E080912F0499
:101BD0000E94B103809132048F3F21F4DF91CF91B5
:101BE0000C94DE02DF91CF9108959091130391112F
:101BF000FCCF613208F060E291E090931303909380
:101C000012032FEF2093110310921003260F20933D
:101C10000F039093EE029091EE02880F892B809330
:101C2000EE028091ED02813061F41092ED0280911C
:101C3000EE028093BB008091BC0083FDF8CF85EC61
:101C400001C085EE8093BC00809113038130E1F3E5
:101C500080911003861710F460911003AFEEB2E08C
:101C60002DEC32E0F9018E2F821B861718F48D912E
:101C70008193F9CF1092CC026093CB02862F089506
:101C8000CF93DF93CDB7DEB7AC970FB6F894DEBF36
:101C90000FBECDBF789484B5826084BD84B5816069
:101CA00084BD85B5826085BD85B5816085BD809127
:101CB0006E00816080936E0010928100809181009F
:101CC0008260809381008091810081608093810097
:101CD000809180008160809380008091B100846059
:101CE0008093B1008091B00081608093B0008091BA
:101CF0007A00846080937A0080917A008260809379
:101D00007A0080917A00816080937A0080917A00D5
:101D1000806880937A001092C100E0915403F091A2
:101D2000550382E08083E0915003F09151031082CB
:101D3000E0915203F09153038FEC808310925C0387
:101D4000E0915803F091590386E08083E0915603B7
:101D5000F0915703808180618083E0915603F09178
:101D60005703808188608083E0915603F091570388
:101D7000808180688083E0915603F09157038081D1
:101D80008F7D808386E78093260480912F048F3F88
:101D900059F41092CC021092CB02109215031092BB
:101DA00037030E94F60B4EC061E00E94B10361E070
:101DB00080912F040E94E103809132048F3F09F04B
:101DC00034C01FB7F89480916301811127C0E6E207
:101DD000F1E08491EAE3F1E09491E82FF0E0EE0F76
:101DE000FF1FEC50FF4FA591B491EC91E92321F432
:101DF00061E08AE00E94B10361E08AE00E94E103B1
:101E00008CB580618CBD8CB580648CBD61E08DE04B
:101E10000E94E10361E08BE00E94E1038091630195
:101E20008F5F809363011FBF0DC061E00E94E103DB
:101E300061E0809130040E94E10360E08091310410
:101E40000E94E10380ED0E94A206803609F0EEC0F8
:101E500066EB80EE0E94B00D6CE271E080E090E0F5
:101E60000E941D0483EF0E94A20680FF05C064E665
:101E700070E080E090E0F4CF88E80E94E80690935C
:101E80003404809333048AE80E94E8069093360471
:101E9000809335048CE80E94E80690933804809380
:101EA00037048EE80E94E80690933A048093390440
:101EB00080E90E94E80690933C0480933B0482E909
:101EC0000E94E80690933E0480933D0484E90E94BA
:101ED000E8069093400480933F0486E90E94E80658
:101EE000909342048093410488E90E94E80690930D
:101EF0004404809343048AE90E94E80690934604D0
:101F0000809345048CE90E94E806909348048093EE
:101F100047048EE90E94E80690934A04809349049E
:101F200081EA0E94A20680934B0481EE0E94E8069B
:101F300090934D0480934C0483EE0E94A2068093FC
:101F40004E0484EE0E94A206182F85EE0E94A2067F
:101F5000282F2F7030E1139FC0011124822B909302
:101F6000500480934F0486EE0E94A206182F85EE3F
:101F70000E94A20690E0A4E095958795AA95E1F7C6
:101F800040E1149F90011124822B932B90935204D3
:101F90008093510487EE0E94A206809353048DEE35
:101FA00080935504809156048F71806A8093560403
:101FB00080915404807C8093540465E082EF0E94F9
:101FC000B00D90915404692F677050E2659F9001A5
:101FD0001124892F8695869586958770A8E08A9F1B
:101FE000B0011124622B732B97FB992790F9692B71
:101FF00085EF0E94B00D90915504692F6770B0E293
:102000006B9F90011124892F869586958695877000
:10201000E8E08E9FB0011124622B732B9295969568
:1020200096959370692B84EF0E94B00D62E08091C9
:102030006E040E94E103E0E3CE2EE8EFDE2EEE24F4
:10204000EA94FE2CC0927204D0927304E09274045D
:10205000F092750462E080915C040E94E103C092FA
:102060006004D0926104E0926204F09263041092E2
:10207000CC021092CB0210921503109237030E94EB
:10208000F60B60E083E00E94E10383E694E0909326
:1020900003018093020180916900837F88608093AF
:1020A0006900E99A61E080E10E94E10361E08FE06C
:1020B0000E94E10361E08BE00E94E10310921B04A7
:1020C00010921C0410921D0410921E04C12CD12CDD
:1020D000FFE7EF2EF3E4FF2EC0921F04D0922004FE
:1020E000E0922104F09222048091230400910704DD
:1020F00010910804D8018D909D90AD90BC908823DC
:1021000009F44EC0A7019601C501B4010E941D1D2E
:10211000181634F4F801C082D182E282F3820FC033
:1021200020E030E0A901C501B4010E94091B87FF2E
:1021300006C0D8011D921D921D921C92139780908B
:102140000F0490901004A0901104B0901204C0905D
:102150001F04D0902004E0902104F0902204A701F5
:102160009601C501B4010E941D1D181684F0C0908F
:102170001B04D0901C04E0901D04F0901E04A701E5
:102180009601C501B4010E94091B87FF3CC0C092A3
:102190000F04D0921004E0921104F092120433C0A4
:1021A00080920F0490921004A0921104B092120435
:1021B000E0910504F091060480819181A281B381B0
:1021C0008093130490931404A0931504B093160401
:1021D00020E030E04FE753E4C501B4010E941D1D2B
:1021E0001816ACF220E030E0A901C501B4010E944C
:1021F000091B87FF08C010920F0410921004109260
:1022000011041092120481E0809323040E94570469
:10221000009180021091810220918202309183020C
:10222000DC01CB01801B910BA20BB30B89389341CE
:10223000A105B10508F414C687E00E94F908BC01A5
:1022400080E090E00E94F61B2AE037ED43EA5CE371
:102250000E94F01D23E333E948E853E40E949C1AEE
:102260006093840170938501809386019093870128
:1022700086E00E94F908BC0180E090E00E94F61B15
:102280002AE037ED43EA5CE30E94F01D23E333E9E3
:1022900048E853E40E949C1A69877A878B879C8759
:1022A000609388017093890180938A0190938B01D8
:1022B0000E9443026B017C0120E030E040E251ECDF
:1022C0000E94091B87FD0DC020E030E0A901C70175
:1022D000B6010E941D1D181654F4C12CD12C760194
:1022E00006C0C12CD12C70E2E72E71ECF72E20E055
:1022F00030E040E251E4C701B6010E949D1A20E09F
:1023000030E048EC52E40E94F01D20E030E040E272
:1023100051E40E940E1B6B017C0160937C01709361
:102320007D0180937E0190937F010E944302609320
:10233000800170938101809382019093830120E05A
:1023400030E040EF51E4C701B6010E941D1D181690
:102350003CF421E030E030937B0120937A0104C00B
:1023600010927B0110927A010E945E0860936401D2
:102370007093650180936601909367010E945E08E7
:1023800087EF0E94D807698B7A8B8B8B9C8B6115AA
:1023900071058048910509F402C280912B04909147
:1023A0002C04A0912D04B0912E046C017D01FF0C32
:1023B000CC08DC2C76019C01AD016C2D7C2D8C2D84
:1023C0009C2D345F414051096109710981099109CE
:1023D0002CA73BA749835D836D877E878F87988B6A
:1023E00059016A017B018C010E94051F28A339A3B2
:1023F0004AA35BA36CA37DA38EA39FA34091430438
:1024000048A7509144045D8B8091410489A7909125
:1024100042049E8BA0913F04AAA7B0914004BF8BB9
:10242000B0903C04A0903B041B2D110F110BC12E4A
:10243000D12EE12EF12E012F2CA53BA549815D81E6
:102440006D857E858F8598890E94051F0CE00E940E
:10245000352019012A013B014C01B0903E04A090A7
:102460003D041B2D110F110BC12ED12EE12EF12E8B
:10247000012F28A139A14AA15BA16CA17DA18EA148
:102480009FA10E94051F08E00E944E205101620199
:10249000730184010E946C2070588F4F9F4FA09051
:1024A0003904B0903A04C12CD12CE12CF12C00E07D
:1024B00010E00E94051F01E20E944E20288F398FF4
:1024C0004A8F5B8F6C8F7D8F8E8F9F8FA0E00E94D5
:1024D0007E2009F469C1A8A41D89110F110BBD88C4
:1024E000C12ED12EE12EF12E012F28A139A14AA112
:1024F0005BA16CA17DA18EA19FA10E94051F190166
:102500002A013B014C01A9A41E89110F110BBE88A1
:10251000C12ED12EE12EF12E012F2CA53BA54981F4
:102520005D816D857E858F8598890E94051F01E1FB
:102530000E94352059016A017B018C019101A201A1
:10254000B301C4010E946C201901FA012B013C0166
:1025500089899A89AB89BC8944E0B595A7959795F7
:1025600087954A95D1F720E030E040E150E0281B04
:10257000390B4A0B5B0BDA01C90169017A01FF0CC7
:10258000CC08DC2C76019C01AD016C2D7C2D8C2DB2
:102590009C2D0FE10E9435204901B42FA52F6E8795
:1025A0007F8789839D832AA59F89990F990B3F89EE
:1025B000492F592F692F792F892F03E20E94352047
:1025C00059016A017B018C019101AF01B201C30184
:1025D0000E946C2059016A017B018C0194014B2FF0
:1025E0005A2F6E857F8589819D810E9475204901C2
:1025F000542E652EB62FA72FF82FE92F03E00E9447
:1026000035205401C52CD62CEB2EFA2E0F2F1E2F61
:102610000E94752059016A017B01782E192F03E071
:102620000E943520072D0E94752003E00E9435206E
:102630005401C52CD62CEB2EFA2E0F2F1E2F0E94E4
:10264000752002E00E9435200F2F0E94752001E0C6
:102650000E9435200F2F0E947520A88CB98CCA8C3F
:10266000DB8CEC8CFD8C0E8D1F8D0E94601F298BE6
:10267000232E49835D836D877E878F87988B0DE03E
:102680000E944E20322E432E542E652E762E872EFB
:10269000982E9D8B30914A0420914904932F990FD5
:1026A000990BA32CB42CC52CD62CE72CF82C092D77
:1026B0001D89492F592F692F792F892F0E94051FB6
:1026C0000E94051F09E10E944E2059016A017B0109
:1026D0008C012989322D49815D816D857E858F85AB
:1026E00098890E946C20322E432E542E652E762E11
:1026F000872E982E9D8B3091480420914704932F6C
:10270000990F990BA988B22CC980DD80ED84FE84D5
:102710000F851889492F592F692F792F892F0E94EA
:10272000051F03E10E944E2059016A017B018C01C3
:10273000232D342D452D562D672D782D892D9D89DE
:102740000E946C2008E00E944E2049013A01B62FF9
:10275000A72FF82FE92F3091460420914504932F9D
:10276000990F990B492F592F692F792F892F04E041
:102770000E94352059016A017B018C019401A3015B
:102780006B2F7A2F8F2F9E2F0E946C200E94F01BA0
:1027900020E030E040E85BE30E94F01D08C060E00C
:1027A00070E080EC9FE703C060E070E0CB0120E0C8
:1027B00030E048EC52E40E940E1B60937601709367
:1027C0007701809378019093790189E694E00E94E3
:1027D000920760939A0170939B0180939C01909360
:1027E0009D0189E694E00E94440760939E017093E6
:1027F0009F018093A0019093A10187E594E00E943E
:10280000920769837A838B839C8360939201709390
:102810009301809394019093950187E594E00E9441
:102820004407609396017093970180939801909369
:10283000990180E00E94D701BC01990F880B990B88
:102840000E94F81B26EF38E24CE950E40E94F01D8C
:102850006093A4017093A5018093A6019093A701B2
:1028600020E030E040E85FE30E941D1D18163CF4B4
:1028700041E050E05093A3014093A20104C01092A4
:10288000A3011092A20189859A85AB85BC858093AE
:10289000AA019093AB01A093AC01B093AD0120E0ED
:1028A00030E040E050E4BC01CD010E94091B181645
:1028B0003CF0A1E0B0E0B093A901A093A80104C04E
:1028C0001092A9011092A80123E333E948E853E4E8
:1028D00069857A858B859C850E949D1A9B01AC0138
:1028E00063E373E98AEB93E40E940E1B6B017C01A6
:1028F00020E030E040E85FE30E949C1A4B015C015D
:1029000026E335EE4CEF50EC0E94F01D2B013C010C
:10291000C701B6010E94641D28E036EE40EA50E48B
:102920000E94F01D9B01AC01C301B2010E949D1ADF
:102930002B013C01A701960160E070E080E89FE375
:102940000E940E1B9B01AC0160E070E080E89FE3F9
:102950000E949C1A26E031E845E351E40E94F01DF4
:102960009B01AC0160E070E080E291E40E945D1E9A
:1029700020E030E040E85FE30E949C1A22E239E563
:1029800044E154EB0E94F01D9B01AC01C301B20174
:102990000E949D1A6B017C0122E934E74FE550EC5F
:1029A000C501B4010E94F01D9B01AC0160E070E024
:1029B00080E291E40E945D1E20E030E040E85FE3A9
:1029C0000E949C1A20E73FE345E05CE30E94F01D73
:1029D0009B01AC01C701B6010E949D1A22EA3DE5A8
:1029E00040E450E40E949D1A20E030E040E450E4CE
:1029F0000E949C1A9B01AC0160E070E080E291E4CF
:102A00000E945D1E29813A814B815C810E94F01DEC
:102A100024E13CE54CE15FE30E940E1B0E94741D23
:102A20006B017C0128E431EE41E753E40E94F01D84
:102A30004B015C01A701960169EC76E78CE891E413
:102A40000E949C1A9B01AC01C501B4010E940E1B9F
:102A500060938E0170938F01809390019093910108
:102A600020E030E040E050E40E949D1A9B01AC0160
:102A700069857A858B859C850E94091B18166CF0E8
:102A8000E1E0F0E0F0938D01E0938C0134E6632EF9
:102A9000712CC12CD12C760105C010928D011092A1
:102AA0008C01F4CF60E08FE00E94E10361E080E1FF
:102AB0000E94B1038FE00E94D7018C0160E080E1A9
:102AC0000E94B10361E08FE00E94E103B801012E92
:102AD000000C880B990B0E94F81B20E030E048EFB7
:102AE00051E40E94F01D4B015C016FEF73E0601B2D
:102AF000710B072E000C880B990B0E94F81B9B0191
:102B0000AC01C501B4010E940E1B9B01AC01C701C1
:102B1000B6010E949D1A6B017C01F1E06F1A7108E9
:102B200009F0C0CF20E030E048EC52E40E940E1BD8
:102B3000609368017093690180936A0190936B01BF
:102B400020E030E04CED52E40E941D1D18163CF4CC
:102B500021E030E0309377022093760204C0109297
:102B600077021092760220E030E040E251E460917A
:102B700072017091730180917401909175010E94AE
:102B80001D1D18163CF441E050E050936D01409338
:102B90006C0104C010926D0110926C0188E391E009
:102BA0000E947C096091AA017091AB018091AC01F7
:102BB0009091AD010E947E098DE391E00E947C0915
:102BC0008091A8019091A9010E94420A8DE391E0B1
:102BD0000E947C096091A4017091A5018091A601D9
:102BE0009091A7010E947E098DE391E00E947C09EB
:102BF0008091A2019091A3010E94420A8DE391E08D
:102C00000E947C0960919E0170919F018091A001BA
:102C10009091A1010E947E098DE391E00E947C09C0
:102C200060919A0170919B0180919C0190919D010E
:102C30000E947E098DE391E00E947C0960919601DB
:102C40007091970180919801909199010E947E095D
:102C50008DE391E00E947C09609192017091930153
:102C600080919401909195010E947E098DE391E0FD
:102C70000E947C0960918E0170918F01809190017A
:102C8000909191010E947E098DE391E00E947C0960
:102C900080918C0190918D010E94420A8DE391E018
:102CA0000E947C09609188017091890180918A015C
:102CB00090918B010E947E098DE391E00E947C0936
:102CC00060918401709185018091860190918701C6
:102CD0000E947E098DE391E00E947C096091800151
:102CE0007091810180918201909183010E947E09FF
:102CF0008DE391E00E947C0960917C0170917D01DF
:102D000080917E0190917F010E947E098DE391E088
:102D10000E947C0980917A0190917B010E94420A75
:102D20008DE391E00E947C096091760170917701BA
:102D300080917801909179010E947E098DE391E064
:102D40000E947C09609172017091730180917401FD
:102D5000909175010E947E098DE391E00E947C09AB
:102D600060916E0170916F0180917001909171017D
:102D70000E947E098DE391E00E947C0980916C01A4
:102D800090916D010E94420A8DE391E00E947C09BE
:102D9000609168017091690180916A0190916B0165
:102DA0000E947E098DE391E00E947C098091760269
:102DB000909177020E94420A8DE391E00E947C0983
:102DC00060910401709105018091060190910701C5
:102DD0000E947E098DE391E00E947C096091E503E9
:102DE0007091E6038091E7039091E8030E947E09C9
:102DF0008DE391E00E947C096091E1037091E20310
:102E00008091E3039091E4030E947E098DE391E0B9
:102E10000E947C098FE391E00E94290983E491E0FC
:102E20000E9429090E9457046093800270938102D6
:102E3000809382029093830210927C0210927D0212
:102E400010927E0210927F0280E090E0AAE7B4E444
:102E50008093780290937902A0937A02B0937B02D8
:102E60008091760290917702019791F420E030E012
:102E700048E452E420930401309305014093060195
:102E8000509307012EEAA22E21E0B22E85010DC03B
:102E900080E090E0A8ECB1E48093040190930501F8
:102EA000A0930601B0930701EDCF81E10E94D70105
:102EB000D8018D939D938D01B2E006371B07A9F7CA
:102EC000C12CD12C7601F501619171915F01072E22
:102ED000000C880B990B0E94F81B9B01AC01C701E9
:102EE000B6010E949D1A6B017C01F6E7AF16F2E075
:102EF000BF0649F720E030E048EC52E40E940E1B88
:102F00009B01AC0160E070EC8FE794E40E940E1B23
:102F100020E030E040E85FE30E949C1A9B01AC0196
:102F200060E072E785EB97E40E940E1B20E030E53D
:102F300043EC57E40E940E1B0E94741D20E030EC0D
:102F400040E855E40E940E1B2FE03FEC4BE55BE3AD
:102F50000E949D1A9B01AC0160E070E080E89FE355
:102F60000E940E1B23E333E948E853E40E949C1AB5
:102F70009B01AC016093E5037093E6038093E70344
:102F80009093E8036091040170910501809106011E
:102F9000909107010E949C1A6B017C0120E030E0B7
:102FA000A9010E941D1D181624F0F7FAF094F7F8F5
:102FB000F09420E030E040E050E4C701B6010E9408
:102FC000091B87FF0DC0E12CF12C00E81EE32DEC5E
:102FD0003CEC4CE45DE360E070E080E89FE30CC013
:102FE000E12CF12C00E81FE320E030E040E450E465
:102FF00060E070E080EC90E40E94140C8091230467
:10300000882309F440C10E94570469877A878B8717
:103010009C8780910B0490910C04A0910D04B091B9
:103020000E0449855A856B857C85481B590B6A0BB4
:103030007B0B8091170490911804A0911904B09112
:103040001A04481759076A077B0708F41CC1E09166
:103050000504F09106044080518062807380E09105
:103060000904F0910A04A3019201608171818281B7
:1030700093810E949C1A6B017C0120911304309172
:1030800014044091150450911604C301B2010E942A
:103090009C1A69837A838B839C832091F9033091F6
:1030A000FA034091FB035091FC03C701B6010E9453
:1030B000F01D20910F0430911004409111045091A3
:1030C00012040E949D1A4B015C0160930F047093DF
:1030D0001004809311049093120430902404311052
:1030E0001CC02091F5033091F6034091F7035091F5
:1030F000F80369817A818B819C810E94F01D9B017C
:10310000AC01C501B4010E949C1A60930F04709336
:103110001004809311049093120420910F043091B5
:10312000100440911104509112042D833E834F836B
:10313000588700911F0410912004309121043D878D
:103140002090220498014D85522D6D817E818F81C2
:1031500098850E941D1D181664F4C801AD85B22D16
:1031600080930F0490931004A0931104B093120461
:103170001AC080901B0490901C04A0901D04B09075
:103180001E04A50194016D817E818F8198850E9426
:10319000091B87FF08C080920F0490921004A09230
:1031A0001104B0921204332079F02091F50330918C
:1031B000F6034091F7035091F803C701B6010E944E
:1031C000F01D6B017C0103C0C12CD12C7601209134
:1031D000FD033091FE034091FF035091000469818B
:1031E0007A818B819C810E94F01D9B01AC016091D2
:1031F0000F047091100480911104909112040E94A8
:103200009C1A9B01AC01C701B6010E949D1A6B017B
:103210007C0198014D85522D0E941D1D1816A4F0A9
:1032200000911B0410911C0440911D044D872090B7
:103230001E049801522DB601C7010E94091B87FD8B
:1032400003C08601ED862F2CE0910704F09108045D
:10325000C801AD85B22D80839183A283B383409250
:103260001304509214046092150470921604898518
:103270009A85AB85BC8580930B0490930C04A09336
:103280000D04B0930E046091E1037091E20380910C
:10329000E3039091E4030E94BA1B6B017C018B0154
:1032A00061E08BE00E94E103C114D10411F460E0FD
:1032B00004C00F3F110529F461E08BE00E94B103C7
:1032C00043C0E3E1F1E084918330F9F048F48130C8
:1032D000B9F08230A1F584B5806284BDC8BC34C029
:1032E0008730E9F0883019F1843049F58091800009
:1032F000806280938000D0928B00C0928A0024C0AC
:1033000084B5806884BDC7BC1FC080918000806880
:1033100080938000D0928900C092880015C080916F
:10332000B00080688093B000C092B3000DC080915F
:10333000B00080628093B000C092B40005C0003835
:1033400011050CF0B9CFB3CF0E949E010C94061169
:103350000F931F93CF93DF93E8E3F3E0138212827E
:1033600088EE93E0A0E0B0E084839583A683B783E2
:103370002CE031E031832083E4E4F3E01382128215
:1033800084839583A683B7838EE191E091838083C4
:1033900085EC90E09587848784EC90E0978786871A
:1033A00080EC90E0918B808B81EC90E0938B828B12
:1033B00082EC90E0958B848B86EC90E0978B868BEB
:1033C000118E128E138E148EA9E6B4E082E015964B
:1033D0008C93159786E116968C931697E2E3F1E0AD
:1033E000E4911796EC931797EEE1F1E0E4911896CB
:1033F000EC93189740E85EE360E070E01D964D9313
:103400005D936D937C935097A7E5B4E094E0159697
:103410009C93159716968C931697E4E3F1E0E4914C
:103420001796EC931797E0E2F1E0E4911896EC938D
:1034300018971D964D935D936D937C935097E6E29C
:10344000F4E08FEF81878287838784878AE5809382
:103450002504C9EED3E081EE93E09F8F8E8F85EE39
:1034600093E09D8F8C8F84E091E099A388A31AAE9E
:103470001AAA1BAA1CAA1DAA80E090E0AFE7B3E439
:103480008EAB9FABA8AFB9AF84E690E0A0E0B0E010
:103490008EA79FA7A8ABB9AB198E188E81E090E0DC
:1034A0009B8F8A8F8BAF80E090E0A0E8BFE388839A
:1034B0009983AA83BB834DEC5CEC6CE47DE34C8385
:1034C0005D836E837F8340E050E060E87EE3488761
:1034D00059876A877B878C879D87AE87BF878BE0FC
:1034E00097EDA3EABBE3888B998BAA8BBB8B80E01B
:1034F00090E0A0E2B0E48C8B9D8BAE8BBF8B0E94E2
:1035000057040EA51FA528A939A9DC01CB01801BF2
:10351000910BA20BB30B8AA39BA3ACA3BDA3DF911A
:10352000CF911F910F910895F8940C949F2081E002
:1035300090E0F8940C949F205058BB27AA270E9433
:10354000B41A0C94E31C0E94D51C38F00E94DC1CB9
:1035500020F039F49F3F19F426F40C949B1C0EF4D0
:10356000E095E7FB0C94951CE92F0E94F41C58F39E
:10357000BA17620773078407950720F079F4A6F558
:103580000C94161D0EF4E0950B2EBA2FA02D0B01F6
:10359000B90190010C01CA01A0011124FF27591B98
:1035A00099F0593F50F4503E68F11A16F040A22F9E
:1035B000232F342F4427585FF3CF4695379527950F
:1035C000A795F0405395C9F77EF41F16BA0B620B0E
:1035D000730B840BBAF09150A1F0FF0FBB1F661F55
:1035E000771F881FC2F70EC0BA0F621F731F841F98
:1035F00048F4879577956795B795F7959E3F08F0BE
:10360000B0CF9395880F08F09927EE0F979587957F
:1036100008950E94711C08F481E008950E94221B05
:103620000C94E31C0E94DC1C58F00E94D51C40F056
:1036300029F45F3F29F00C94951C51110C94171D2F
:103640000C949B1C0E94F41C68F39923B1F355233E
:1036500091F3951B550BBB27AA27621773078407A5
:1036600038F09F5F5F4F220F331F441FAA1FA9F33B
:1036700035D00E2E3AF0E0E832D091505040E69529
:10368000001CCAF72BD0FE2F29D0660F771F881F8A
:10369000BB1F261737074807AB07B0E809F0BB0B7D
:1036A000802DBF01FF2793585F4F3AF09E3F510591
:1036B00078F00C94951C0C94171D5F3FE4F3983E32
:1036C000D4F3869577956795B795F7959F5FC9F77A
:1036D000880F911D9695879597F90895E1E0660FFB
:1036E000771F881FBB1F621773078407BA0720F074
:1036F000621B730B840BBA0BEE1F88F7E0950895DD
:1037000029F416F00C94951C0C94161D0C949B1C1B
:103710000E94FC1CA8F39638A0F707F80F92E894D3
:103720002BE33AEA48EB5FE70E94061E0F920F92E6
:103730000F924DB75EB70F920E94BC1DE8E6F0E015
:103740000E94AE1C4F915F91EF91FF91E595EE1FA6
:10375000FF1F49F0FE57E0684427EE0F441FFA951B
:10376000E1F74195550B0E942E1D0F9007FE0C941A
:10377000221D08950E94C11B6894B1110C94171D5D
:1037800008950E94FC1C88F09F5798F0B92F992744
:10379000B751B0F0E1F0660F771F881F991F1AF03C
:1037A000BA95C9F714C0B13091F00E94161DB1E06E
:1037B00008950C94161D672F782F8827B85F39F06D
:1037C000B93FCCF3869577956795B395D9F73EF4D5
:1037D00090958095709561957F4F8F4F9F4F08957D
:1037E00097FB16F40E949E1C0C94341CE89409C0AC
:1037F00097FB3EF490958095709561957F4F8F4F24
:103800009F4F9923A9F0F92F96E9BB279395F69539
:10381000879577956795B795F111F8CFFAF4BB0FB7
:1038200011F460FF1BC06F5F7F4F8F4F9F4F16C01B
:10383000882311F096E911C0772321F09EE8872FA5
:10384000762F05C0662371F096E8862F70E060E061
:103850002AF09A95660F771F881FDAF7880F9695DA
:10386000879597F90895E894F92F96EBFF2381F057
:10387000121613061406440B9395F69587957795C3
:10388000679557954040FF23B9F71BC099270895C6
:10389000882351F49850D2F7872B762F652F542F19
:1038A000432F322F20E0B1F3121613061406440BF7
:1038B00088233AF09A95440F551F661F771F881F7B
:1038C000CAF755234AF4440F551F11F460FF04C092
:1038D0006F5F7F4F8F4F9F4F880F9695879597F912
:1038E0000895990F0008550FAA0BE0E8FEEF161691
:1038F0001706E807F907C0F012161306E407F507E4
:1039000098F0621B730B840B950B39F40A2661F057
:10391000232B242B252B21F408950A2609F4A140FA
:10392000A6958FEF811D811D089597F99F6780E807
:1039300070E060E008959FEF80EC08959095809589
:103940007095609550954095309521953F4F4F4F1C
:103950005F4F6F4F7F4F8F4F9F4F0895DF93CF93F0
:103960001F930F93FF92EF92DF927B018C0168947B
:1039700006C0DA2EEF010E94031EFE01E894A59115
:103980002591359145915591A6F3EF010E94B41A06
:10399000FE019701A801DA9469F7DF90EF90FF909C
:1039A0000F911F91CF91DF91089500240A9416166C
:1039B000170618060906089500240A94121613061D
:1039C000140605060895092E0394000C11F48823AB
:1039D00052F0BB0F40F4BF2B11F460FF04C06F5FC7
:1039E0007F4F8F4F9F4F089557FD9058440F551F9D
:1039F00059F05F3F71F04795880F97FB991F61F071
:103A00009F3F79F087950895121613061406551FE7
:103A1000F2CF4695F1DF08C0161617061806991F53
:103A2000F1CF86957105610508940895E894BB2748
:103A300066277727CB0197F908950E94711C08F437
:103A40008FEF08959B01AC0160E070E080E89FE398
:103A50000C940E1B0C94951C0C94B21E0E94FC1C22
:103A6000D8F39923C9F3940F511DA3F391505040FB
:103A700094F059F0882332F0660F771F881F915019
:103A80005040C1F79E3F51052CF7880F911D969528
:103A9000879597F908955F3FACF0983E9CF0BB275F
:103AA000869577956795B79508F4B1609395C1F7BA
:103AB000BB0F58F711F460FFE8CF6F5F7F4F8F4F58
:103AC0009F4FE3CF0C94171D0E94741D29ED3BE519
:103AD0004EED5EE30C94F01D16F00C94B21E0C94A7
:103AE0009B1C68940C94951C0E94FC1CA8F39923C1
:103AF000C1F3AEF3DF93CF931F930F93FF92C92FC0
:103B0000DD2788232AF02197660F771F881FDAF7B1
:103B100020E030E040E85FEB9FE3883920F0803E12
:103B200038F021968F770E949D1AE0E9F0E004C0FA
:103B30000E949D1AEDEBF0E00E94AE1C8B01BE01CD
:103B4000EC01FB2E6F5771097595771F880B990B48
:103B50000E94F81B28E132E741E35FE30E94031E65
:103B6000AF2D9801AE01FF900F911F91CF91DF9182
:103B70000E94B41A0C94E31CFA01DC01AA0FBB1FCB
:103B80009B01AC01BF5728F42227332744275078E4
:103B900020C0B75190F4AB2F002446953795279558
:103BA000011CA395D2F3002071F0220F331F441F94
:103BB000B395DAF30ED00C949C1A61307105A0E82D
:103BC0008A07B94630F49B01AC016627772788271E
:103BD0009078309621F02083318342835383089577
:103BE0000E94031E0C94E31C0E94D51C38F00E9416
:103BF000DC1C20F0952311F00C94951C0C949B1C5C
:103C000011240C94171D0E94F41C70F3959FC1F3AE
:103C1000950F50E0551F629FF001729FBB27F00D7A
:103C2000B11D639FAA27F00DB11DAA1F649F6627CF
:103C3000B00DA11D661F829F2227B00DA11D621F1E
:103C4000739FB00DA11D621F839FA00D611D221FD8
:103C5000749F3327A00D611D231F849F600D211DBC
:103C6000822F762F6A2F11249F5750409AF0F1F03F
:103C700088234AF0EE0FFF1FBB1F661F771F881FA8
:103C800091505040A9F79E3F510580F00C94951C2F
:103C90000C94171D5F3FE4F3983ED4F38695779517
:103CA0006795B795F795E7959F5FC1F7FE2B880F4E
:103CB000911D9695879597F90895FA01EE0FFF1FCC
:103CC000309621053105A1F16115710561F4803847
:103CD000BFE39B0749F168949038810561F0803813
:103CE000BFEF9B0741F099234AF5FF3FE1053105FE
:103CF000210519F1E8940894E795D901AA2329F43C
:103D0000AB2FBE2FF85FD0F310C0FF5F70F4A69505
:103D1000E0F7F73950F019F0FF3A38F49F779F93A6
:103D20000DD00F9007FC9058089546F00C949B1C02
:103D300060E070E080E89FE308954FE79F775F932E
:103D40004F933F932F930E94741D2F913F914F915A
:103D50005F910E94F01D0C94881B0E94711C880BBF
:103D6000990B08959F3F31F0915020F487957795F6
:103D70006795B795880F911D9695879597F9089542
:103D8000DB018F939F930E94F21EBF91AF91A29F80
:103D9000800D911DA39F900DB29F900D1124089549
:103DA000A1E21A2EAA1BBB1BFD010DC0AA1FBB1F3F
:103DB000EE1FFF1FA217B307E407F50720F0A21BB1
:103DC000B30BE40BF50B661F771F881F991F1A941E
:103DD00069F760957095809590959B01AC01BD0148
:103DE000CF0108950E949020A59F900DB49F900D43
:103DF000A49F800D911D11240895B7FF0C94F21E0D
:103E00000E94F21E821B930B0895DF93CF931F93A2
:103E10000F939A9DF02D219FF00D8B9DF00D8A9DA3
:103E2000E02DF10D039FF00D029FE00DF11D4E9D61
:103E3000E00DF11D5E9DF00D4F9DF00D7F936F9392
:103E4000BF92AF925F934F93D5010E9490208B0158
:103E5000AC01D7010E949020EB01E80FF91FD601B9
:103E60000E94551F2F913F91D6010E949020C60FAE
:103E7000D71FE81FF91FAF91BF910E94551F2F91C7
:103E80003F910E949020C60FD71FE81FF91FD6014F
:103E90000E949020E60FF71F9801BE01CF01112468
:103EA0000F911F91CF91DF9108950E949020460FAE
:103EB000571FC81FD91F08F431960895689401C090
:103EC000E894F92FF12B12F00C94921FA0E0B0E0CF
:103ED000ECE6FFE10C940420092E059422F40E94E4
:103EE000EE1F112392F4F0E80F26FFEFE094F09418
:103EF00000951095B094C094D094A194BF0ACF0AB5
:103F0000DF0AEF0AFF0A0F0B1F0B0E949D1F07FC21
:103F10000E94EE1FCDB7DEB7ECE00C942020689431
:103F200001C0E8948F929F92CF93DF930E949D1FD0
:103F3000DF91CF919F908F90089588249924F40168
:103F4000E401B0E49F93AA279A158B049C04ED0525
:103F5000FE05CF05D007A10798F4AD2FDC2FCF2F9A
:103F6000FE2FE92D982C892E982F872F762F652FDD
:103F7000542F432F322F2227B85031F7BF9127C03B
:103F80001B2EBF91BB27220F331F441F551F661FD7
:103F9000771F881F991F881C991CEE1FFF1FCC1FBD
:103FA000DD1FAA1FBB1F8A149B04EC05FD05CE056F
:103FB000DF05A007B10748F08A189B08EC09FD0946
:103FC000CE09DF09A00BB10B21601A94E1F62EF4A3
:103FD0009401AF01BE01CD01000C0895609570956C
:103FE0008095909530954095509521953F4F4F4F36
:103FF0005F4F6F4F7F4F8F4F9F4F08952F923F928C
:104000004F925F926F927F928F929F92AF92BF92E8
:10401000CF92DF92EF92FF920F931F93CF93DF9394
:10402000CDB7DEB7CA1BDB0B0FB6F894DEBF0FBEF1
:10403000CDBF09942A88398848885F846E847D843E
:104040008C849B84AA84B984C884DF80EE80FD8040
:104050000C811B81AA81B981CE0FD11D0FB6F894B6
:10406000DEBF0FBECDBFED0108950F93083090F075
:10407000982F872F762F652F542F432F322F2227EB
:104080000850F4CF220F331F441F551F661F771FA0
:10409000881F991F0A95B2F70F91089597FB10F8A2
:1040A000169400080F93083098F00850232F342FEF
:1040B000452F562F672F782F892F902DF4CF0594F9
:1040C0009795879577956795579547953795279550
:1040D0000A95AAF70F9108952A0D3B1D4C1D5D1DF1
:1040E0006E1D7F1D801F911F08952A193B094C09E1
:1040F0005D096E097F09800B910B08950024A7FDCF
:1041000000942A17300540055005600570058005AC
:1041100090050895EE0FFF1F0590F491E02D09948E
:10412000A29FB001B39FC001A39F700D811D1124F8
:10413000911DB29F700D811D1124911D0895F89459
:02414000FFCFAF
:10414200EE01EE010000C841000000001402C60B9F
:10415200D4017E05A2058E057F05000000002B011B
:10416200A801CD007201FE00DC00F0000000803FDB
:10417200CDCC4C3D0000803E53544152542C00455E
:104182004E44000D0A006E616E00696E66006F7625
:024192006600C5
:00000001FF
